:100000000CC027C026C025C024C023C022C021C0E8
:1000100020C01FC01EC01DC01CC011241FBECFE5C4
:10002000D2E0DEBFCDBF12E0A0E6B0E0EEE0F6E049
:1000300003C0C89531960D92A831B107D1F712E0EF
:10004000A8E1B2E001C01D92A931B107E1F714D1D6
:10005000DCC2D6CFDF93CF9300D00F92CDB7DEB7FF
:1000600060E670E013D20097A1F0682F792F6E5FE1
:100070007F4F8C2F9D2F019642E050E0F6D11B82DE
:100080008A81893209F41A828C2F9D2F0196BAD168
:1000900001C08FEF0F900F900F90CF91DF910895D7
:1000A0008FB9779BFECF8FB108951F93CF93DF93C6
:1000B000C82FD92F10E002C0F3DF1F5FEC2FFD2FF8
:1000C000E10FF11D80818823B9F7EADFDF91CF913D
:1000D0001F910895CF93DF93C82FD92F63E670E067
:1000E000AFD1009749F47FD164E070E009D1E82FE7
:1000F000F0E0EB51FF4F74C08C2F9D2F69E670E04C
:100100009FD1009709F4AFC08C2F9D2F6FE670E050
:10011000BDD1009779F08C2F9D2F9CDF81508431C9
:1001200008F0A4C0837090E064E170E0D7D08D56F1
:100130009E4F9EC08C2F9D2F6EE870E0A7D1009738
:1001400089F08C2F9D2F86DF8150843108F08EC07E
:10015000837090E033E0880F991F3A95E1F78D5155
:100160009E4F86C08C2F9D2F6EE970E08FD1009737
:1001700081F08C2F9D2F6EDF8150843108F076C086
:10018000837090E0880F991F880F991F8D5F9D4F96
:100190006FC08C2F9D2F6DEA70E078D1009771F0C1
:1001A0008C2F9D2F57DF8150883008F05FC090E082
:1001B00064E170E093D08D509F4F5AC08C2F9D2FDB
:1001C0006CEB70E063D1009781F08C2F9D2F42DFA4
:1001D0008150883008F04AC0E82FF0E0E751FF4F27
:1001E00080815EDF80E05CDF44C08C2F9D2F6CEC53
:1001F00070E04CD10097B9F08C2F9D2F2BDF8150F0
:100200008830A0F5E82FF0E0E751FF4F91E39083AD
:1002100021E030E002C0220F331F8A95E2F780917F
:100220001802822B1EC08C2F9D2F68ED70E02ED1FE
:100230000097E1F08C2F9D2F0DDF81508830B0F4B6
:10024000E82FF0E0E751FF4F90E3908321E030E0AA
:1002500002C0220F331F8A95E2F720958091180281
:100260008223809318028EE690E002C08EE790E031
:100270001CDFDF91CF9108950F931F93DF93CF93EE
:10028000CDB7DEB7A1970FB6F894DEBF0FBECDBFD6
:100290008FEF84BBBE9A80E48DB98091180280955F
:1002A00085BB90E00C2F1D2F0F5F1F4F0CC088E700
:1002B00099A3F6DE99A1E02FF12FE90FF11D8083BC
:1002C000882319F09F5F903290F3802F912F02DFE7
:1002D00080911802809585BB90E0E9CF55270024D6
:1002E00080FF02C0060E571F660F771F611571054C
:1002F00021F096958795009799F7952F802D089571
:1003000097FB092E07260AD077FD04D00CD006D023
:1003100000201AF4709561957F4F0895F6F7909537
:1003200081959F4F0895AA1BBB1B51E107C0AA1FCF
:10033000BB1FA617B70710F0A61BB70B881F991F86
:100340005A95A9F780959095682F792F8A2F9B2F22
:100350000895A0E0B0E0EEEAF1E000C1C82FD92F87
:10036000688179818A819B8161157105810591057B
:1003700021F464E279ED8BE597E02DE133EF41E084
:1003800050E0C9D0E22EF32E042F152F27EA31E4D6
:1003900040E050E0A5D0A62EB72EC82ED92E912F22
:1003A000802F7F2D6E2D2CEE34EF4FEF5FEF98D026
:1003B000262F372F482F592F2A0D3B1D4C1D5D1D11
:1003C00057FF04C0215030404040504828833983B3
:1003D0004A835B833F77822F932FCDB7DEB7EAE066
:1003E000D9C0B7DF089583E192E0B3DF0895A0E0BC
:1003F000B0E08093130290931402A0931502B0937F
:1004000016020895E82FF92F88279927E89421915B
:100410002032E9F3293010F02E30C8F32B3239F0B6
:100420002D3231F4689403C050D0820F911D219178
:1004300020532A30C8F31EF4909581959F4F08955C
:10044000E62FF72FA82FB92F8D9181341CF08B3513
:100450000CF4805E619161341CF06B350CF4605ECD
:10046000861B611189F3990B0895E62FF72FA82FAA
:10047000B92F4150504048F001900D920020C9F72B
:1004800001C01D9241505040E0F70895E62FF72F2C
:1004900051915523C9F06E2F7F2FA82FB92F4D9161
:1004A00045174111E1F769F48A2F9B2F0190002035
:1004B00051F04D9140154111C9F3E62FF72F41112D
:1004C000ECCF81E090E001970895682F792F880F95
:1004D000991F880F991F860F971F880F991F0895DE
:1004E000FF27EE27BB27AA2760FF04C0A20FB31F78
:1004F000E41FF51F220F331F441F551F9695879544
:100500007795679589F70097760771F79F2F8E2F5C
:100510007B2F6A2F089597FB092E05260ED057FDD5
:1005200004D04CD00AD0001C38F45095409530953A
:1005300021953F4F4F4F5F4F0895F6F79095809567
:10054000709561957F4F8F4F9F4F08952F923F92E7
:100550004F925F926F927F928F929F92AF92BF92D3
:10056000CF92DF92EF92FF920F931F93CF93DF937F
:10057000CDB7DEB7CA1BDB0B0FB6F894DEBF0FBEDC
:10058000CDBF09942A88398848885F846E847D8429
:100590008C849B84AA84B984C884DF80EE80FD802B
:1005A0000C811B81AA81B981CE0FD11D0FB6F894A1
:1005B000DEBF0FBECDBFCA2FDB2F0895A1E21A2EDA
:1005C000AA1BBB1BEA2FFB2F0DC0AA1FBB1FEE1FD0
:1005D000FF1FA217B307E407F50720F0A21BB30B18
:1005E000E40BF50B661F771F881F991F1A9469F794
:1005F0006095709580959095262F372F482F592F0D
:0E0600006A2F7B2F8E2F9F2F0895F894FFCF27
:10060E002840002A5354423F002A434C53000053C3
:10061E004F555243453A4E414D453F284000434DBC
:10062E00445F50415253455F4552524F5200534F13
:10063E00555243453A56414C55453F284000534F7D
:10064E00555243453A554E49543F28400053574959
:10065E005443483A4E414D453F2840005357495464
:10066E0043483A56414C55453F284000535749544C
:10067E0043483A4F4E2840005357495443483A4F47
:10068E0046462840002141614F3030303030303006
:10069E003030305331000000000000000000000038
:1006AE0000000000000000533200000000000000B7
:1006BE0000000000000000000000005333000000A6
:1006CE0000000000000000000000000000000053C9
:1006DE0034000000000000000000000000000000D8
:1006EE000000005335000000000000000000000074
:1006FE000000000000000053360000000000000063
:10070E000000000000000000000000533700000051
:10071E000000000000000000000000000000005378
:10072E003800000000000000000000000000000083
:10073E00000000536F757263653100000000000009
:10074E0000000000000000536F75726365320000F8
:10075E000000000000000000000000536F7572637F
:10076E006533000000000000000000000000005390
:10077E006F75726365340000000000000000000019
:10078E00000000312E313432000000342E3132336D
:10079E000000003133333700000000313430312E89
:1007AE00313400C2B04300560000006D4100006DB0
:0807BE005600000100000000DC
:00000001FF
