:1000000050C2000079C2000077C2000075C2000033
:1000100073C2000071C200006FC200006DC2000018
:100020006BC2000069C2000067C2000065C2000028
:1000300063C200007FC300005FC200005DC2000019
:100040005BC2000059C2000057C2000055C2000048
:1000500053C2000051C200004FC200004DC2000058
:100060004BC2000049C2000047C2000045C2000068
:1000700018122F12A812AD13CC13F413FC139713FC
:100080000022F9010C650025303278002578004601
:10009000757365733A206C6F773D25303258206850
:1000A0006967683D253032582065783D25303258E3
:1000B0000057616C646D616E6E00256868752E2551
:1000C0006868752E256868752E2568687500257521
:1000D0002E25752E25752E257500257300706172ED
:1000E0007365206572726F720025750A0025750AA6
:1000F00000485454502F312E3120323030204F4B95
:100100000A436F6E6E656374696F6E3A20636C6F3D
:1001100073650A00436F6E74656E742D5479706553
:100120003A20746578742F6373733B20636861723F
:100130007365743D7574662D380A0A00436F6E74DA
:10014000656E742D547970653A20746578742F68E3
:10015000746D6C3B20636861727365743D75746681
:100160002D380A0A00436F6E74656E742D547970D1
:10017000653A206170706C69636174696F6E2F7885
:1001800068746D6C2B786D6C3B206368617273656D
:10019000743D7574662D380A0A0043616368652DE5
:1001A000436F6E74726F6C3A206E6F2D636163687B
:1001B000650A43616368652D436F6E74726F6C3AB4
:1001C000206D7573742D726576616C6964617465F8
:1001D0000A436F6E74656E742D547970653A20749D
:1001E0006578742F706C61696E3B2063686172730F
:1001F00065743D7574662D380A0A00485454502FB2
:10020000312E3120343030204261642052657175C6
:100210006573740A436F6E6E656374696F6E3A201E
:10022000636C6F73650A436F6E74656E742D5479D9
:1002300070653A20746578742F706C61696E3B202C
:10024000636861727365743D7574662D380A004386
:100250006F6E74656E742D456E636F64696E673A78
:1002600020677A69700A0042616420526571756581
:1002700073740A00485454502F312E3120343034D6
:100280002046696C65204E6F7420466F756E640A57
:10029000436F6E6E656374696F6E3A20636C6F7343
:1002A000650A436F6E74656E742D547970653A20DB
:1002B000746578742F706C61696E3B20636861723D
:1002C0007365743D7574662D380A0046696C652047
:1002D0004E6F7420466F756E640A00436F6E7465CE
:1002E0006E742D4C656E6774683A20000A0069646C
:1002F000782E68740065636D643F0065636D643FCC
:10030000006964782E687400474554202F002575D5
:100310000A00706F72742025643A203078253032DC
:10032000780025326868783A25326868783A25324C
:100330006868783A25326868783A25326868783A89
:10034000253268687800253032783A253032783A9C
:10035000253032783A253032783A253032783A25CD
:1003600030327800756E6B6E6F776E2073656E73CA
:100370006F72207479706500257325642E253164B1
:1003800000253032782530327825303278253032E9
:100390007825303278253032782530327825303261
:1003A0007800253268687825326868782532686870
:1003B00078253268687825326868782532686878E8
:1003C00025326868782532686878256300257300CF
:1003D0002573006420006675736500686F73746E22
:1003E000616D65007265736574007764726573652D
:1003F0007400696F0061646320676574006D6163F8
:10040000003177206C697374003177206765740060
:10041000317720636F6E76657274006E65746D61FE
:10042000736B006970006777007774657374006898
:10043000656C700076657273696F6E0065657072C9
:100440006F6D207265696E697400D3036604D6030C
:10045000CD04DB032005E4033E05EA034E05F20369
:10046000DC1EF503C41FFD036F20010436210904BF
:10047000A52110043A221B04B22223046E22260472
:10048000F622290472232F042F19340407193C047F
:100490007C19000000006364696E6F707375785892
:1004A0005B0014BE88E10FB6F89480936000109250
:1004B00060000FBE10926E0010926F0010927000DC
:1004C00011241FBECFEFD0E1DEBFCDBF11E0A0E011
:1004D000B1E0EAE2FDE502C005900D92A837B10750
:1004E000D9F718E0A8E7B1E001C01D92A730B10725
:1004F000E1F703D00C94D82683CDCF93DF9382EB22
:1005000084B980E48AB978942FE088E190E00FB64E
:10051000F894A895809360000FBE20936000A89582
:1005200086E880937A0010927C0020D10E94EA2312
:100530000E94F823C0E0D0E0A8950E949124809109
:10054000DE0382FF0DC0F89428E088E190E00FB64A
:10055000F894A895809360000FBE20936000FFCFB1
:1005600081FFEACFF894FE010995E6CF862798E04F
:100570006CE8869508F486279A95D9F70895EF9246
:10058000FF920F931F93CF93DF93182F062FE12E27
:10059000E7017E01F92EE70180E002C06991E6DF04
:1005A000AE01411B4017D0F3CDB7DEB7E6E00C94A7
:1005B0007E2EEF92FF920F931F93CF93DF937C01D8
:1005C000EB018A01C40FD51F08C001501040C701BC
:1005D000800F911F6A910E94D52C01151105A9F772
:1005E000CDB7DEB7E6E00C947E2E1F93CF93DF935A
:1005F000C0E0D0E010E0CE010E94CD2C682F812F0A
:10060000B5DF182F2196C231D105A9F7DF91CF911F
:100610001F910895ABE0B0E0E0E1F3E00C94622EAE
:100620008E010A5F1F4FC80160E870E046E050E0AD
:100630000E94EF2680E090E0B80146E050E0B9DF8C
:1006400080ECE82E88EAF82EFB82EA8280E09EEABF
:100650009D838C838E010E5F1F4F86E090E0B80172
:1006600044E050E0A6DFFB82EA8280E091E09D83D7
:100670008C838EE090E0B80144E050E09ADF8FEF89
:100680009FEF9B838A838FEF90E09D838C838AE02A
:1006900090E0B80144E050E08CDFA7DF898382E17D
:1006A00090E0BE016F5F7F4F41E050E082DF2B960C
:1006B000E6E00C947E2EA1E0B0E0E1E6F3E00C94DD
:1006C000652E0E947B0C91DF182FCE01019662E10E
:1006D00070E041E050E00E94BD2C8981181709F0BC
:1006E00099DFE4D10E94F02330D30E94E7152196D0
:1006F000E3E00C94812EE1E8F0E080818C7F808340
:10070000808184608083A0E8B0E08C918C7F8C93A2
:1007100080818860808380818F7E808381EE94E0F9
:100720009093890080938800EFE6F0E080818260FA
:10073000808308951F920F920FB60F9211248F930A
:100740009F9381E0809300088091DF03982F9F5F43
:100750009093DF03923318F081538093DF039F91CE
:100760008F910F900FBE0F901F901895299A2C9A79
:1007700080E58CBD81E08DBD08958EBD0DB407FE72
:10078000FDCF8EB50895A9E0B0E0E9ECF3E00C945C
:100790005B2E5C01E12C9FEFF92E012D112D6E01D6
:1007A0000894C11CD11C8AE0882E912C8C0E9D1EB1
:1007B000F7018491833279F53196D60184918D9336
:1007C0003196A815B905D1F77984C60168E0D7DE5E
:1007D000781609F5C601B50146E050E00E9473277E
:1007E0000097C9F489E090E00E949A24E82FF92F3D
:1007F000309709F11082D801C7010A96A11DB11DD9
:1008000081839283A383B483168215828F81988516
:100810009087878310C080E09FEFAFEFBFEFE80EB7
:10082000F91E0A1F1B1FE114F1040105110509F04F
:10083000BFCFE0E0F0E0CF012996EDE00C94772EF9
:10084000EF92FF920F931F93CF93DF93DC011796E4
:10085000ED90FC90189715968D919C911697E81A3B
:10086000F90A00E010E0E216F3060407150710F499
:10087000A8019701062F172F60E070E0CB0110C090
:100880001196ED91FC911297EC0FFD1FE60FF71FEB
:10089000E491E801E9938E016F5F7F4F8F4F9F4F87
:1008A0001596CD91DC91169762177307840795070B
:1008B00038F3C20FD31F1696DC93CE931597B90168
:1008C000CA01CDB7DEB7E6E00C947E2EA2E0B0E020
:1008D000ECE6F4E00C945E2E6B01E82FF92F9E2FCE
:1008E0008F2F21912032D9F300D000D000D0EDB766
:1008F000FEB73196ADB7BEB711969C9381838CE855
:1009000090E093838283CE010196958384830E9435
:100910000828EDB7FEB736960FB6F894FEBF0FBEA7
:10092000EDBF8130910591F5E980FA8000E010E09B
:1009300047E8A42E40E0B42ED7012D917D0100D0D0
:1009400000D000D0EDB7FEB73196C801880F991FCF
:100950008C0D9D1DADB7BEB712969C938E931197CB
:10096000B382A282248315820E94E8270F5F1F4F63
:10097000EDB7FEB736960FB6F894FEBF0FBEEDBFCB
:1009800000311105C9F620E230E002C02FEF3FEF41
:10099000C9012296EAE00C947A2E1F93CF93DF933D
:1009A00089E087BFE0E0F0E0149187BFE3E0F0E08A
:1009B000349187BFE2E0F0E0249187BFE1E0F0E00E
:1009C000E4918DB79EB70E970FB6F8949EBF0FBEF9
:1009D0008DBFADB7BEB71196CDB7DEB77A83698349
:1009E00013965C934E9312978FE890E015969C9324
:1009F0008E93149716961C93169717961C9217971A
:100A000018963C93189719961C9219971A962C933E
:100A10001A971B961C921B971C96EC931C971D967D
:100A20001C920E94BA272DB73EB7225F3F4F0FB6E8
:100A3000F8943EBF0FBE2DBFDF91CF911F91089557
:100A400000D000D000D0EDB7FEB73196ADB7BEB73D
:100A500012967C936E9311975383428381EB90E0BF
:100A6000958384830E94BA272DB73EB72A5F3F4FF4
:100A70000FB6F8943EBF0FBE2DBF0895FC018081D4
:100A8000882341F48091DE0382608093DE0320E0BE
:100A900030E002C02FEF3FEFC90108958091DE03DF
:100AA00084608093DE0380E090E00895A4E0B0E0ED
:100AB000ECE5F5E00C94642E80EF93E060E070E0EC
:100AC00046E050E00E94BD2C8E010F5F1F4FC80111
:100AD00066E070E044E050E00E94BD2C89819A817C
:100AE0009093D3058093D2058B819C819093D505FB
:100AF0008093D405C8016AE070E044E050E00E94B1
:100B0000BD2C89819A819093CF058093CE058B81EE
:100B10009C819093D1058093D005C8016EE070E070
:100B200044E050E00E94BD2C89819A819093CB05CE
:100B30008093CA058B819C819093CD058093CC05D1
:100B40002496E4E00C94802E2C988AE316DE80E054
:100B500014DE2C9A08951F93182F2C988AE70DDE27
:100B6000812F0BDE2C9A1F9108952C988FEF05DEB4
:100B70008FE39FE10197F1F700C000002C9A0895E0
:100B80001F93182F8FE163E040EA09D0612F637053
:100B90008FE140E804D0109378011F910895A1E0FF
:100BA000B0E0E5EDF5E00C94642E182F062F282F09
:100BB00030E0F901EF71F070EB31F1058CF4207643
:100BC000307085E0359527958A95E1F7E0917801B9
:100BD000F0E02E173F0721F0822F4983D1DF4981B2
:100BE0002C98812F8F71842BC8DD802FC6DD2C9A25
:100BF0002196E4E00C94802E0F931F93182F062F5C
:100C0000282F30E0A9014F7150704B3151057CF411
:100C10002076307095E0359527959A95E1F74091CB
:100C2000780150E02417350711F0822FA9DF2C98A6
:100C3000812F8F718064A1DD802F9FDD2C9A1F9101
:100C40000F910895A1E0B0E0E8E2F6E00C94662E82
:100C5000682F82E09983D0DF83E09981692FCCDF10
:100C60002196E2E00C94822EA1E0B0E0EAE3F6E007
:100C70000C94662E682F80E09983BEDF81E0998115
:100C8000692FBADF2196E2E00C94822E1F93182F71
:100C9000282F30E0A9014F7150704B3151057CF481
:100CA0002076307045E0359527954A95E1F74091DB
:100CB000780150E02417350711F0822F61DF2C985E
:100CC000812F8F715ADD80E058DD17FF02C080E070
:100CD00054DD2C9A1F910895A1E0B0E0E2E7F6E020
:100CE0000C94652E982F162F84ED692F798384DF5D
:100CF00086ED612F81DF87ED7981672F7DDF8AEEB9
:100D0000C5DF80FDFCCF2196E3E00C94812E1F937C
:100D1000682F84ED71DF82ED61E040E840DF8AEE0C
:100D2000B5DF80FDFCCF82ED61E040EA38DF88ED81
:100D3000ADDF182F89EDAADF582F40E0212F30E0DA
:100D4000242B352BC9011F9108958FEF80937B01D0
:100D50000CDF88E060E050DF89E060E04DDF8AE092
:100D60006FEF4ADF8BE06FE047DF84E060E044DF55
:100D700085E060E141DF8CE060E03EDF8DE060E037
:100D80003BDF8EE060E038DF8FE060E035DF10921F
:100D9000E1031092E00381EC60E840EA00DF80ECC0
:100DA0006DE040E8FCDE82EC62E340E8F8DE80E0E3
:100DB00060E070E091DF80E0AADF90FF07C082EC86
:100DC00061E040E8ECDE84EC62E106C082EC61E0C8
:100DD00040EAE5DE84EC65E10FDF86EC62E10CDFE2
:100DE00087EC6CE009DF8AEC68EF06DF8BEC61E0F2
:100DF00003DF84EE6091F003FFDE85EE6091F10386
:100E0000FBDE82EE6091F203F7DE83EE6091F30386
:100E1000F3DE80EE6091F403EFDE81EE6091F50386
:100E2000EBDE88E363E8E8DE84E162E17CE054DF46
:100E30008BE16BEDE1DE82E162E170E04DDF8FE19D
:100E400064E040E8ACDE8EE160E840E8A8DE1092A5
:100E50007B01089580917B018823A9F482EC16DF41
:100E60008273823331F0809179018F5F80937901B1
:100E70006CDF80EC0BDF8D3031F080917A018F5F79
:100E800080937A0162CF0895A4E0B0E0EAE4F7E04D
:100E90000C94602E89E3FADE882309F48AC08091DD
:100EA000E0039091E103E0DE4FDE082F4DDE382FA6
:100EB00020E0802F90E0822B932B9093E10380938E
:100EC000E0038E010F5F1F4F25E0E22EF12CEC0EA8
:100ED000FD1E3ADEF80181938F01EE15FF05C9F77B
:100EE00089819A818C01045010401A8309834297AA
:100EF000F1E0873E9F0710F028DF5BC0EE24FF245F
:100F000096EDC92E95E0D92E1FDEF60181936F0173
:100F10000894E11CF11CE016F106B0F31093EF0306
:100F20000093EE038091E2059091E30598278927CD
:100F30009827F8E080309F0769F028E08630920714
:100F4000B1F40E9458168091EE039091EF03009740
:100F500071F00CC00E942E1681E0CBD58091EE037B
:100F60009091EF03009719F00E94391767D06091B4
:100F7000E0037091E103CB010197E0E180309E072F
:100F800030F08CE06FEF38DE8DE06FE00DC0615027
:100F90008CE032DE6091E0037091E10361507040BB
:100FA000672F770F770B8DE027DE8EE160E440E856
:100FB000F6DD2496E8E00C947C2E1F9389E366DE30
:100FC000882309F439C08CE161DE182F8BE160E8D9
:100FD00040EAE5DD14FF04C083E199DE81E197DE9C
:100FE00013FF08C08CE168E040EAD9DD8DE16AE0DA
:100FF00040EAD5DD9FB7F8948091A105882329F4B4
:1010000088E08093A10580E001C081E09FBF882334
:1010100099F43ADF1092A10510FF04C08CE161E061
:1010200040EABDDD11FF04C08CE162E040EAB7DDBB
:101030008BE160E840E8B3DD1F9108950F931F93A3
:10104000CF93DF9304E68FE121DE83FD04C000230C
:1010500009F438C002C00150B0F784E060E0CCDD94
:1010600085E060E1C9DD86E06091EE03C5DD209199
:10107000EE033091EF032050304F87E0632FBCDD4B
:1010800080E090E1DFDD80E066DD06ED15E0C0E0A8
:10109000D0E005C0F80181918F015DDD219680913E
:1010A000EE039091EF03C817D907A0F38FE160E832
:1010B00040E875DD8FE160E840EA71DD8FE168E0CE
:1010C00040E86DDDDF91CF911F910F9108955E9AF9
:1010D00056981092E20308959AB1982B9AB99BB151
:1010E000282F209592239BB9E0E8F7E03197F1F79C
:1010F0009BB1982B9BB99AB192239AB9E8E6F1E09B
:101100003197F1F799B1E8E1F6E03197F1F729B1BC
:10111000282398239095822F892308952BB1982F07
:10112000909592239BB9E0E5F1E03197F1F79BB1FF
:10113000982B9BB908959AB1982B9AB99BB1282FF7
:10114000209592239BB9E4E0F0E03197F1F79BB151
:10115000982B9BB99BB1982B9BB99AB192239AB9C2
:10116000E8E3F0E03197F1F799B1E4E0F1E031978D
:10117000F1F72AB1282B2AB9982381E009F480E0FD
:101180000895662309F0D7CFC9CFEF92FF920F934E
:101190001F93CF93DF93F82EE62E8AB18F298AB959
:1011A000C0E0D0E001E010E098010C2E02C0220F58
:1011B000331F0A94E2F76E2D62238F2DE2DF219612
:1011C000C830D10589F7CDB7DEB7E6E00C947E2EA6
:1011D0000F931F93CF93DF93082FC0E0D0E010E070
:1011E000802FA9DF282F30E00C2E02C0220F331FE2
:1011F0000A94E2F7122B2196C830D10589F7812F86
:10120000DF91CF911F910F91089580E465DF8823CE
:1012100029F080E46CECB9DF81E008958FEF089548
:10122000A1E0B0E0E6E1F9E00C94602E082FE92E91
:1012300080E452DF882331F180E465E5A6DF1E2DCE
:1012400020E091E0E92EF12C1AC0C7010C2C02C05D
:10125000880F991F0A94E2F7F8016081682380E4FF
:1012600029838FDF0894C11CD11C2981F8E0CF1697
:10127000D10459F72F5F0F5F1F4F283029F0CC247E
:10128000DD24E3CF8FEF01C081E02196E8E00C94EC
:101290007C2E562F577021E030E001C0220F5A9566
:1012A000EAF7669566956695322F3095FC01E60F54
:1012B000F11D808138233083442311F0232B2083B8
:1012C0000895A0E0B0E0E7E6F9E00C94602EF82E77
:1012D0006623A1F08FEF8093E3031092E403109252
:1012E000E5031092E6031092E7031092E8031092D0
:1012F000E9031092EA031092EB0304C08091E30328
:1013000087FD60C08F2DE8DE882309F459C08F2D3A
:1013100060EF3BDFC0E0D0E0EE24EA9401E010E0B3
:10132000CC2E8F2D08DFD82E8F2D05DF880F8D292D
:10133000833009F447C0882379F52091E3033327EC
:1013400027FD3095C217D30741F484EE93E06C2F4C
:1013500041E09FDFDD24D39424C02C173D073CF4EB
:1013600084EE93E06C2F40E094DFEC2E1AC0C6941C
:10137000C694C694EC2DF0E0EE51FC4F9E01277010
:101380003070C80102C0880F991F2A95E2F7D280F9
:10139000D82239F4EC2E05C084EE93E06C2F4D2D4D
:1013A00078DF8AB18F298AB98F2D6D2DEADE2196DB
:1013B000C034D10509F0B4CFE092E30381E003C06B
:1013C0008FEF01C080E0CDB7DEB7E8E00C947C2E53
:1013D000FC012081203149F0223251F081E090E07F
:1013E000283241F080E090E0089581E090E0089597
:1013F00081E090E008951F93CF93DF93EC01162FC7
:10140000009711F402DF05C0E3DF8823D1F0CE019D
:1014100007DF87FD19C080E464E4B7DE569A5E9A60
:10142000112389F08FEF9FE0A7E281509040A04008
:10143000E1F700C0000080E47EDE8823E1F381E074
:1014400003C08EEF01C080E0DF91CF911F9108951E
:10145000FF920F931F93CF93DF93EC018B010097C3
:1014600011F4D3DE05C0B4DF8823C1F0CE01D8DE8D
:1014700087FD17C080E46EEB88DEE80129E0F22EDC
:1014800080E4A6DE8993FA94D9F7F801F084C801C4
:1014900068E075D8F81621F481E003C08DEF01C033
:1014A0008EEFCDB7DEB7E5E00C947F2EFB01DC01BB
:1014B0008C918031B9F4678170E0208131812E7F79
:1014C0003695322F22273795279520543040868134
:1014D000AB01481B5109942F80E00E94212E260F5A
:1014E000371F0EC0823211F0883241F420813181E1
:1014F00044E0220F331F4A95E1F702C02FEF3FEF80
:10150000C90108958091FC0383FF0EC08091EC0314
:101510009091ED030E944E18882331F081E090E015
:101520009093CD078093CC070895A4E0B0E0EBE959
:10153000FAE00C94662E80EC98EA9A83898380E026
:1015400091E09C838B83CE01019662E072E042E8D9
:101550005AE0FBD19093ED038093EC03009741F0A8
:1015600022E032E0FC013583248380E091E0E7D083
:101570002496E2E00C94822EEF92FF921F93CF9379
:10158000DF93192FE82EE7017E01F92EE701809104
:10159000050490910604B7010E946C27EE2DF12FEF
:1015A000DF010D900020E9F7BD01615070406E1B16
:1015B0007F0B80910504909106040E948D14B1E088
:1015C000C838DB0709F41882DF91CF911F91FF9093
:1015D000EF900895CF93DF938091EC039091ED030A
:1015E000009709F450C00E944E18882309F04BC0A0
:1015F0001092CD071092CC0780E096E09093FB0309
:101600008093FA03909306048093050480917C01F3
:1016100090917D01009771F48091800190918101FA
:10162000009751F480918401909185010097A1F079
:1016300082E003C080E001C081E0C82FD0E0CC0F81
:10164000DD1FCC0FDD1FC458DE4FE881F9818A8190
:101650009B810995198218828091CC079091CD07C2
:10166000009789F08091EC039091ED039093000432
:101670008093FF0384E03DD20E943917DFDC109293
:10168000CD071092CC07DF91CF91089520917C0176
:1016900030917D012115310581F02091800130913B
:1016A00081012115310559F0209184013091850186
:1016B0002115310591F4E2E003C0E0E001C0E1E072
:1016C000F0E0EE0FFF1FEE0FFF1FE458FE4F918377
:1016D00080837383628381E0089580E00895A0E0B1
:1016E000B0E0E5E7FBE00C94622EFE0139964191F3
:1016F000519138E8E32E31E0F32ED7010D90002010
:10170000E9F78D01015010400E191F0964EF71E0D7
:10171000601B710BC8018E0D9F1D9F010E941F2829
:1017200010927C030115110529F48CEB9AE0B701A6
:10173000ADDF01C081E02096E6E00C947E2E0F9391
:101740001F93CF93DF93BC0108E811E0E8010990F3
:101750000020E9F72197C01BD10BFC01019000206C
:10176000E9F73197E81BF90BEC0FFD1F319681E08B
:10177000E53FF80760F4CE01800F911F0E945627C5
:10178000209739F48CEB9AE0B80180DF03C080E049
:1017900001C081E0DF91CF911F910F910895FC016D
:1017A0004381460F40938003872F99272281280F7A
:1017B00020937F03A181A0937E03508150937D03EA
:1017C00030E02817390748F48A2F8F5F80937E0313
:1017D000882319F45F5F50937D03842F90E070702D
:1017E0008617970798F480917F038F5F80937F031C
:1017F000882361F480917E038F5F80937E0388232A
:1018000029F480917D038F5F80937D0308959C016F
:1018100041505040460F571FDB0110C0FC91E0E0E3
:1018200011968C911197BF01680F711D260F371FFC
:101830002617370710F42F5F3F4F1296A417B507EE
:1018400068F3A417B50749F49C9180E0280F391F6D
:101850002817390710F42F5F3F4FC901089580E022
:1018600090E064EE75E044E150E0D1DF009719F0BC
:10187000382F292F02C02FEF3FEFC9010895BC0177
:101880008091070490910804089689DFE09107048D
:10189000F091080480917D03808780917E03818789
:1018A00080917F0382878091800383870895CF93FF
:1018B000DF939091E705C92FD0E064973091E6055A
:1018C00020E0C20FD31F9E01280F311DC90160EF18
:1018D00075E048E050E09BDF68EF75E0AE0197DF10
:1018E000009719F0382F292F02C02FEF3FEFC901C1
:1018F000DF91CF910895E2EAF5E0118210823496EB
:1019000085E0EA3CF807C9F7109224041092AC0471
:101910001092340580E094E09093FE038093FD03E1
:101920001092D3071092D2071092DD071092DC07B5
:101930001092E7071092E6071092F1071092F00755
:101940001092FB071092FA070895FF920F931F93CE
:10195000CF93DF93FC018091FD039091FE030196EC
:101960002DE78030920710F080E090E1182F092FCA
:10197000A2EDB7E0ED01288139812017310779F315
:101980002A9628E0C430D207B1F79093FE038093E3
:10199000FD03FF248D919C911197009781F48F2D69
:1019A00090E09C01220F331FA3E0880F991FAA9596
:1019B000E1F7280F391F2253384F49F479C0F394C7
:1019C0001A968F2D853031F720E030E071C08F2DD1
:1019D00090E0DC01AA0FBB1F880F991F880F991F89
:1019E000880F991FA80FB91FA253B84F15961C93C3
:1019F0000E9314978F2D90E0DC01AA0FBB1F880F68
:101A0000991F880F991F880F991FA80FB91FA253FC
:101A1000B84F17967C936E931697309799F48F2D45
:101A200090E0FC01EE0FFF1FA3E0880F991FAA951D
:101A3000E1F7E80FF91FE253F84F1082118212828A
:101A4000138226C08F2D90E0DC01AA0FBB1F63E03C
:101A5000880F991F6A95E1F7A80FB91FA253B84FD5
:101A6000808191818D939C938F2D90E0DC01AA0F52
:101A7000BB1F63E0880F991F6A95E1F7A80FB91F94
:101A8000A253B84F8281938113969C938E931297A1
:101A90008F2D90E0FC01EE0FFF1F63E0880F991F70
:101AA0006A95E1F7E80FF91FE253F84F5187408735
:101AB000C901CDB7DEB7E5E00C947F2EA2EAB5E010
:101AC000E0E0F0E02D913C9111972115310559F49A
:101AD000EE0FFF1FEE0FFF1FEE55FA4F918380832D
:101AE00073836283089531961496EA30F10551F7B5
:101AF0000895A0E0B0E0EFE7FDE00C945E2E8430A6
:101B000009F4F5C12CE036E0309306042093050477
:101B10003093FB032093FA03C0910704D09108048B
:101B2000833079F48B8D8F70833009F0EBC6888910
:101B30009989009709F0E6C688E08093FC03FE01CE
:101B40008CC5823009F0A4C0809104048F5F80931B
:101B50000404882399F4809103048F5F8093030425
:101B6000882361F4809102048F5F809302048823AC
:101B700029F4809101048F5F809301041092EF0398
:101B80001092EE031092CD071092CC078B8D873008
:101B900011F0853041F48C8D8F5F8C8F883709F080
:101BA000B1C61B8EAFC6882309F4ACC62889398913
:101BB0002115310509F464C09C8D292F21502C8FEB
:101BC000992309F09FC69D8D983031F0282F215020
:101BD0002230A0F4953091F41B8E80E88093FC03B2
:101BE000E0910704F0910804EA57FF4F0190F0815B
:101BF000E02D309709F442C5099540C5953048F469
:101C000023E030E0092E02C0220F331F0A94E2F7CE
:101C100001C020E32C8F9F5F9D8F90E08F709070AC
:101C200083309105E1F0843091054CF481309105C9
:101C300009F43DC38230910509F064C60DC08630B9
:101C4000910509F4B8C48830910509F4B4C484300E
:101C5000910509F057C6AFC4109205062BC384E066
:101C60008093FC03E0910704F0910804EA57FF4FCA
:101C70000190F081E02D309709F432C5099530C507
:101C80008F70833009F03EC688E08093FC03E1C486
:101C9000853019F5E091FF03F0910004848195816E
:101CA000009709F42FC610920804109207042C50D4
:101CB000304030930604209305043093FB032093B7
:101CC000FA031092CD071092CC071092EF031092F6
:101CD000EE0388E08093FC0304C16AECE62E6FEF0C
:101CE000F62EE20EF31E8701025F1F4F8091E4057E
:101CF000853409F007C69091E60580E02091E7055C
:101D00006C01C20ED11C8091EE039091EF038C15F3
:101D10009D0508F4F7C5D092EF03C092EE038091C1
:101D2000EA0590E08F739070009709F0EBC5809101
:101D3000EB05882309F0E6C5C091F405D091F505BF
:101D40008091D2059091D305C817D90709F0DAC55B
:101D5000A090F605B090F7058091D4059091D50537
:101D6000A816B90609F0CEC57ADD2FEF8F3F92078E
:101D700009F0C8C58091ED05863009F412C18131A2
:101D800071F1813009F0BEC5E4EEF5E08091F8050F
:101D9000883009F0B7C5148A8091FA059091FB0547
:101DA0006FEF873F960710F0099601C00896978B52
:101DB000868B8091F0059091F1059093F5058093C5
:101DC000F4058091F2059091F3059093F7058093C7
:101DD000F605F701D38FC28FB58EA48E97C5C601C5
:101DE0004C979093EF038093EE0380E096E09093FE
:101DF0000604809305048091FE059091FF050097ED
:101E000039F081E154DDFFEF8F3F9F0709F07AC57C
:101E100086EF97E0909300048093FF034091F603D0
:101E20005091F7032091F8033091F9033FC084816A
:101E300095810097B1F16091FA057091FB056817E3
:101E4000790779F586819781009739F06091F805D7
:101E50007091F9056817790721F5808191818417C0
:101E6000950729F4628173816217730749F16FEF57
:101E70008F3F960731F462817381AFEF6F3F7A072E
:101E8000F9F06091F0057091F1056817790749F450
:101E90006091F2057091F30582819381681779074B
:101EA00079F03A97F0930004E093FF03E091FF0389
:101EB000F091000467E0EE3CF60708F0B8CF22C5C9
:101EC000109208041092070482E08093FC0380E0E3
:101ED00096E09093FB038093FA031092CD07109243
:101EE000CC070084F185E02D309709F009958091A9
:101EF000CC079091CD07009709F404C59C01245E9E
:101F00003F4F3093EF032093EE03C4EED5E03A83C6
:101F10002B8320E4288721E12987089698278927A1
:101F20009827998F888F1B8E1A8EE091FF03F0916E
:101F30000004848195819D8B8C8B868197819F8BFA
:101F40008E8B8091D2059091D3059093F10580936B
:101F5000F0058091D4059091D5059093F305809379
:101F6000F205808191819093F5058093F40582813B
:101F700093819093F7058093F605CE014C9690934C
:101F800006048093050481E192DC809590959B8FF7
:101F90008A8F009709F09AC48FEF9FEF9B8F8A8FEB
:101FA00095C486E084DC7FEF8F3F970709F0AAC4D1
:101FB000C9E0D4E04B8D442329F12091FA053091FA
:101FC000FB058C819D8128173907E1F42091F805E4
:101FD0003091F9058E819F812817390799F4209156
:101FE000F0053091F105888199812817390751F45E
:101FF0002091F2053091F3058A819B8128173907DA
:1020000009F46FC1C857DF4F85E0C13AD80791F690
:10201000809105068F73823099F42091FA053091F2
:10202000FB05E2EAF5E0DF018D919C9111972817FD
:10203000390709F466C0149665E0AA3CB607A1F713
:102040008091050682FD5EC484E1F80181A388E2E7
:1020500090E09093EF038093EE0380E580A380915E
:10206000FF0590910306938F3091FE059091020633
:10207000928F368F2091FD0590910106918F258FCB
:102080009091FC0540910006408F948F8F5F878F61
:10209000882361F4832F8F5F868F882339F4822F02
:1020A0008F5F858F882311F49F5F948F8091F8054F
:1020B0009091F9052091FA053091FB05F801358BD7
:1020C000248B978B868B8091F0059091F1059093EE
:1020D000F5058093F4058091F2059091F3059093B6
:1020E000F7058093F6058091D2059091D305F7010D
:1020F000938F828F8091D4059091D505958F848F91
:10210000D0C3A4E2B4E080E090E0C0E0D0E068E8B2
:1021100070E0482F5C91552369F450E088E890E026
:10212000489FE001499FD00D589FD00D1124C75FF3
:10213000DB4F19C0573089F4209731F011965C912C
:1021400011974C8D451748F4869FE001879FD00D6D
:10215000969FD00D1124C75FDB4F0196A857BF4F44
:1021600083309105B1F6209709F4CCC3D0930804CD
:10217000C093070480E090E0408151812417350727
:1021800081F4DE01AA57BF4FFC01EE0FFF1FEE0FD7
:10219000FF1FEE55FA4F8281938111969C938E9387
:1021A00005C0019634968A30910531F783E08C8F13
:1021B0008A8F188E84E0898F1D8E1B8A1A8A8091DF
:1021C000FA059091FB059D838C838091F805909191
:1021D000F9059F838E838091F0059091F105998395
:1021E00088838091F2059091F3059B838A8381E037
:1021F0008B8F809101048C87809102048D87809160
:1022000003048E87809104048F8781E090E0998B8E
:10221000888B8091FF058B878091FE058A8780914E
:10222000FD0589878091FC05888781E090E027DBA8
:1022300080910406282F30E0207F30702135310551
:10224000B4F182958F7090E00597880F991F880FE1
:10225000991F40E027C0F901EA52FA4F56A95523C9
:1022600031F1513011F44F5F1DC05230A1F457A924
:10227000543089F430AD20E081AD90E0822B932B77
:10228000F1E08F3B9F0710F08EEB91E09D8B8C8BE4
:102290009F8B8E8B0CC02A523A4FF90127A922231B
:1022A00031F0420F242F30E028173907A4F280E1E3
:1022B00080930506E4EEF5E080910506826081A337
:1022C00082E080A784E081A781E082A78EEB83A7CC
:1022D0008CE290E09093EF038093EE0380E680A37E
:1022E00097C2D0930804C09307041092FC03809116
:1022F000050690E082FF09C01B8E80E28093FC03FC
:10230000CA57DF4FE881F98123C220910406229544
:102310002F70220F220FB601621B71099B012451FD
:1023200030403093EF032093EE034F70423031F48E
:10233000AC014F7350704231510509F1211531053F
:1023400031F49C012370307021153105C1F03091BA
:10235000FC052885321709F04FC23091FD0529850B
:10236000321709F049C23091FE052A85321709F06B
:1023700043C23091FF052B85321709F03DC284FF1F
:1023800049C0688979896115710509F443C0CE0196
:102390000C9605DA3091000680917D033817D1F54F
:1023A0002091010680917E032817A1F590910206E5
:1023B00080917F03981771F5809103064091800307
:1023C000841741F53C872D879E878F878D8D8823C5
:1023D000D1F4288D8A8D9C8D891B922F9695969588
:1023E0009695891B280F288F87FD8195998D392F08
:1023F00036953695931B980F998F822F86958695E3
:102400008695890F8A8F81E08093FC038A8D8C8F5B
:10241000198A188A2B8D30E0F901EF70F07031972E
:10242000E830F10508F06EC2E85CFF4F0C948D2E89
:102430008091FC0380FF66C283E08B8F80E48093F1
:10244000FC03198A188A8091EE039091EF0300979C
:1024500009F4FBC022E42093FC0311DAF6C080915A
:10246000FC0380FF60C0809105068F73823109F004
:102470005AC080910406282F30E0207F307021352B
:102480003105B4F182958F7090E00597880F991F00
:10249000880F991F40E027C0F901EA52FA4F56A968
:1024A000552331F1513011F44F5F1DC05230A1F46A
:1024B00057A9543089F430AD20E081AD90E0822BF3
:1024C000932B71E08F3B970710F08EEB91E09D8B83
:1024D0008C8B9F8B8E8B0CC02A523A4FF90127A907
:1024E000222331F0420F242F30E028173907A4F2BD
:1024F00083E08B8F8091FC0588878091FD0589871B
:102500008091FE058A878091FF058B8781E090E0AE
:10251000B6D982E48093FC03198A188A1092EF03DB
:102520001092EE0392C080E28093FC03E0910704D6
:10253000F0910804EA57FF4F0190F081E02D3097A9
:1025400009F00995E0910704F0910804138E78CD05
:102550008091050680FF33C024FD31C088899989A8
:10256000009709F0CFC18091EE039091EF0301969F
:1025700086D92091FC03822F80618093FC03809197
:10258000EE039091EF03009719F022612093FC0372
:10259000E0910704F0910804EA57FF4F0190F081A1
:1025A000E02D309709F0099581E090E0998B888BB8
:1025B00088E08B8F1D8E81E18093050620C185FF09
:1025C0001CC050910A0640E080910B0690E0842BDD
:1025D000952B4091050450910604480F591F5093C4
:1025E0000604409305044091EE035091EF03481B0D
:1025F000590B5093EF034093EE038091EE039091BB
:10260000EF03009741F024FD06C02091FC032260F7
:102610002093FC0334D93091060620E08091070610
:10262000280F311D8E899F898217930720F021156D
:10263000310509F0C9019D8B8C8B8091FC0390E0E2
:1026400083709070009709F45DC11092CD071092CD
:10265000CC07E0910704F0910804EA57FF4F01907E
:10266000F081E02D309709F009958091FC0385FFFA
:1026700007C01092CD071092CC071B8E84E19CCF2F
:1026800084FF0AC01092CD071092CC0781E090E041
:10269000998B888B84E08DCF2091CC073091CD072A
:1026A00021153105E1F080FF02C0198A188A888956
:1026B0009989009781F48C899D898217930720F46A
:1026C0009093CD078093CC078091CC079091CD0754
:1026D000998B888B04C09093CD078093CC071D8E77
:1026E0008091FA039091FB03909306048093050474
:1026F0008091CC079091CD07009759F088899989EE
:10270000009739F088969093EF038093EE0388E169
:102710000BC08091FC0381FFF5C088E290E09093AC
:10272000EF038093EE0380E1809305066EC08091F5
:10273000FC0380FFE7C01B8E80E18093FC03E091E7
:102740000704F0910804EA57FF4F0190F081E02D53
:10275000309709F4D7C00995D5C08091EE039091C8
:10276000EF03009709F08BD8909105068091FC0348
:1027700090FF0BC080FF06C087E08B8F1C8E198AEC
:10278000188A18C086E08B8F15C080FF26C085E0B0
:102790008B8F198A188AB6C08091EE039091EF034F
:1027A000009709F06CD88091050680FF16C087E07D
:1027B0008B8F1C8E81E090E062D880E18093FC03D7
:1027C000E0910704F0910804EA57FF4F0190F0816F
:1027D000E02D309789F009950FC08091EE0390911C
:1027E000EF03009749F48EC08091FC0380FF8AC0FC
:1027F00087E08B8F1C8E86C080E1F80181A388E280
:1028000090E09093EF038093EE0380E580930406BD
:10281000E4EEF5E08885848F8985858F8A85868FAB
:102820008B85878F8C85808F8D85818F8E85828F1C
:102830008F85838F86E081878C819D81958B848BAA
:102840008E819F81978B868B8091D2059091D30545
:102850009093F1058093F0058091D4059091D50572
:102860009093F3058093F205888199819093F50503
:102870008093F4058A819B819093F7058093F605F8
:102880008B8D84FF03C013A212A20BC08A899B897F
:10289000009719F092A38A8903C081E082A38EEB8E
:1028A00083A3C4EED5E080E488878091EE03909105
:1028B000EF039A838B831FA21EA21DA21CA286E097
:1028C0000E94570C809590959DA38CA3C4EED5E0F3
:1028D00085E48093E40519821F821E828091810322
:1028E00090918203019690938203809381039C834D
:1028F0008D831B861A860E942F0C809590959B874E
:102900008A8704C01092EF031092EE031092FC032A
:10291000CDB7DEB7EAE00C947A2EAC019B01161617
:10292000170684F46093CC073093CD076091FA03C7
:102930007091FB038617970729F0CB01BA01A90113
:102940000C9446270895CF93DF93FC010097E9F498
:1029500000D000D000D0EDB7FEB73196ADB7BEB70E
:1029600012967C936E9311975383428382E191E098
:10297000958384830E948C27CDB7DEB726960FB649
:10298000F894DEBF0FBECDBF40C02DB73EB72E506E
:1029900030400FB6F8943EBF0FBE2DBFADB7BEB7E7
:1029A0001196CDB7DEB77A83698313965C934E9305
:1029B00012978EEC90E015969C938E9314978081DD
:1029C00016968C93169717961C92179781811896D6
:1029D0008C93189719961C92199782811A968C934A
:1029E0001A971B961C921B9783811C968C931C979D
:1029F0001D961C920E94BA272DB73EB7225F3F4F0B
:102A00000FB6F8943EBF0FBE2DBFDF91CF91089552
:102A10006115710589F12DB73EB72C5030400FB6C6
:102A2000F8943EBF0FBE2DBFEDB7FEB73196ADB7E0
:102A3000BEB712969C938E9311978AEB90E0938386
:102A4000828375836483CB01019697838683CB0150
:102A50000296918780876D5F7F4F738762870E94A0
:102A600008282DB73EB7245F3F4F0FB6F8943EBFFE
:102A70000FBE2DBF843011F08FEF089580E00895D0
:102A8000FF920F931F93CF93DF93FC01A3E8B3E072
:102A9000ED0180E090E0488159814115510589F1AF
:102AA0002A813B812115310561F1008111810417D3
:102AB000150739F5428153814217530711F52BE071
:102AC00030E0829FF001839FF00D929FF00D112462
:102AD000E957FC4F262F372FD90126E00D900192A0
:102AE0002150E1F72BE030E0829FF001839FF00D51
:102AF000929FF00D1124ED57FC4F8091DB038287EC
:102B000061C001962B968830910529F680E090E00F
:102B10002BE030E0829FE001839FD00D929FD00D8B
:102B20001124CD57DC4F4D915C9111974115510502
:102B300039F412964D915C9113974115510571F13D
:102B4000482F4F5F01961B968830910519F7483042
:102B500029F51091DB03812F90E0ADE8B3E020E090
:102B600000E030E0FC90EC01CF19D109402F50E09B
:102B70004C175D071CF4012F0F19232F3F5F1B9685
:102B8000383081F730E08BE090E0289FE001299F0A
:102B9000D00D389FD00D1124CD57DC4F808191810D
:102BA000A281B381FE0181939193A193B193862F6A
:102BB000972FDC0186E00D9001928150E1F7809122
:102BC000DB038A87CDB7DEB7E5E00C947F2E80E08B
:102BD00090E02BE030E0829FF001839FF00D929F08
:102BE000F00D1124ED57FC4F1082118212821382D6
:102BF00001968830910579F708958091DB038F5F06
:102C00008093DB03E3E8F3E080E090E04BE050E00A
:102C10002281338160817181262B372B211531056B
:102C2000B9F02091DB0330E06285261B310928379B
:102C3000310574F0849FD001859FB00D949FB00D35
:102C40001124AD57BC4F1D921D921D921C921397DB
:102C500001963B9688309105D9F608958091F0054C
:102C60009091F1052091D2053091D30582279327C9
:102C70002091CE053091CF05822393230097B9F49C
:102C80008091F2059091F3052091D4053091D505FE
:102C9000822793272091D0053091D1058223932359
:102CA000009729F480EF95E06CED75E0E9CE08958A
:102CB0008091EE039091EF038A32910528F41092EF
:102CC000EF031092EE0308951092EF031092EE03BB
:102CD0008091EA059091EB0521E08030920731F078
:102CE00022E08030920709F090C074C02091FC056A
:102CF0003091FD058091D2059091D30528173907B1
:102D000009F083C02091FE053091FF058091D40524
:102D10009091D5052817390709F077C082EF95E023
:102D20006CEE75E0ADDE80E092E09093EB05809371
:102D3000EA05E6EFF5E0DF011A9786E00D900192D3
:102D40008150E1F7ACEEB5E0E0EFF3E086E0019012
:102D50000D928150E1F7ACEDB5E0E0EFF3E086E0F5
:102D600001900D928150E1F7E6EDF5E0DF019096DC
:102D700086E00D9001928150E1F78091FC059091E1
:102D8000F2059093FC058093F2058091FD059091EA
:102D9000F3059093FD058093F3058091FE059091D6
:102DA000F4059093FE058093F4058091FF059091C2
:102DB000F5059093FF058093F50588E096E09093E4
:102DC000E3058093E2058AE290E09093EF0380931D
:102DD000EE0308952091FC053091FD058091D20508
:102DE0009091D3052817390781F42091FE05309181
:102DF000FF058091D4059091D5052817390729F44E
:102E000082EF95E06CEE75E03BCE08950F931F9333
:102E1000CF93DF93DC018D919C911197E3E8F3E070
:102E200040E050E00BE010E0409F9001419F300DEA
:102E3000509F300D11242D573C4F608171818617B2
:102E4000970749F41296CD91DC91139762817381B3
:102E5000C617D70741F04F5F5F4F3B96483051058B
:102E600019F720E030E0C901DF91CF911F910F9158
:102E70000895A4E0B0E0EFE3F7E10C94662E8091B2
:102E8000F405805EE6EDF5E0803188F481E0809322
:102E9000D60511828EE582838091F5058F77838335
:102EA0008091F60584838091F7058583DAC060916F
:102EB000D2057091D3054091CE055091CF059A016E
:102EC00020953095262B372B8091F4059091F505B0
:102ED0008217930799F48091D0059091D105809540
:102EE00090952091D4053091D505822B932B20917C
:102EF000F6053091F7052817390781F02091F40580
:102F00003091F5058FEF2F3F380791F48091F6054A
:102F10009091F705EFEF8F3F9E0751F4A6EDB5E0D6
:102F2000E2E7F1E086E001900D928150E1F799C06F
:102F3000C9018627972784239523009791F4409110
:102F4000F6055091F7058091D4059091D505842719
:102F500095276091D0057091D1058623972300971E
:102F600069F08091CA059091CB059A8389838091FD
:102F7000CC059091CD059C838B8304C03A83298333
:102F80005C834B83CE01019641DF009709F060C05E
:102F900086ED95E06FEF70E046E050E00E944F272D
:102FA000A6EFB5E086E0FD0111928A95E9F75A9700
:102FB000E0EFF3E086E001900D928150E1F7ACEE96
:102FC000B5E0E0EFF3E086E001900D928150E1F78B
:102FD00089819A819093FD058093FC058B819C816A
:102FE0009093FF058093FE058091D2059091D305C3
:102FF0009093F3058093F2058091D4059091D505C7
:103000009093F5058093F40580E091E09093EB05B3
:103010008093EA059093E5058093E40588E090E0CD
:103020009093E7058093E60586E08093E80584E0C9
:103030008093E90588E096E09093E3058093E205AC
:103040008AE290E09093EF038093EE0381E022C048
:10305000A6EDB5E0FC01349686E001900D9281501A
:10306000E1F7ACEDB5E0E0EFF3E086E001900D9222
:103070008150E1F788E090E09093E3058093E205CA
:103080008091EE039091EF030E969093EF0380935F
:10309000EE0380E02496E2E00C94822EA4E0B0E0FF
:1030A000E4E5F8E10C94662EFC0140815181209109
:1030B000D2053091D305242735278091CE059091F4
:1030C000CF05282339232115310581F4228133814D
:1030D0008091D4059091D505822793276091D005E2
:1030E0007091D10586239723009769F08091CA05D6
:1030F0009091CB059A8389838091CC059091CD05E1
:103100009C838B8304C05A8349833C832B83CE01E9
:1031100001967CDE21E0009709F020E0822F2496C2
:10312000E2E00C94822E6F927F928F929F92BF92D8
:10313000CF92DF92EF92FF920F931F93CF93DF9383
:103140006C01EB013A01FC0101900020E9F7319795
:10315000E81BF90BE230F10508F448C0BB240B2D45
:1031600010E0000F111F000F111FF801E65BFB4F6D
:10317000859194917C010097E9F00E940A274C0107
:10318000C601B701A4010E94E226009749F4045B3E
:103190001B4FF80185919491FC01009719F40AC026
:1031A000B394DDCFC601880D991DBE01A301099519
:1031B0009C0102C02FEF3FEF2097D1F08FEF2F3F00
:1031C000380751F4CE016DED70E04BE050E00E9405
:1031D000EF262BE030E00CC02115310549F48FE4D7
:1031E00088838BE4898322E030E002C020E030E075
:1031F000C901DF91CF911F910F91FF90EF90DF9068
:10320000CF90BF909F908F907F906F9008952DB733
:103210003EB7285030400FB6F8943EBF0FBE2DBFCA
:10322000EDB7FEB73196ADB7BEB712967C936E93ED
:103230001197538342838AED90E09583848387E1DD
:1032400091E0978386830E94BA272DB73EB7285F07
:103250003F4F0FB6F8943EBF0FBE2DBF0895A2E0BA
:10326000B0E0E5E3F9E10C945E2E5C016B017A01BC
:10327000DC018C91873121F087E18C9311961C92AF
:10328000F5018181E82FF0E0EE0FFF1FEE0FFF1F29
:10329000E65BFB4F8F5FD50111968C93259134919E
:1032A000B901C90129837A830E940A27082F192F9F
:1032B00069817A81E016F10608F48701C601A80148
:1032C0000E94EF26D5011196EC911197F0E0EE0FD8
:1032D000FF1FEE0FFF1FE65BFB4F85919491009758
:1032E00031F086EF9FEFFC01E01BF10B8F01C8016D
:1032F0002296EAE00C947A2E0E940A0380E090E085
:1033000008958AE09DE86CE27AE10C945E0D0F93DB
:103310001F93CF93DF93C0910704D0910804FE015F
:10332000E05BFF4F408102E310E0041B110901152F
:103330001105D9F08091EE039091EF03081719075A
:1033400008F08C019E01225E3F4F240F311D6091D9
:10335000050470910604C901A8010E944627FE01D8
:10336000E05BFF4F8081800F80838E01025E1F4FE4
:10337000FE01E05BFF4F4081C8016AE070E050E071
:103380000E943927FC01009791F44091EE0350917F
:10339000EF0380910504909106046AE070E00E94BA
:1033A0003927009709F453C0FE01E15BFF4F1082FB
:1033B000FE0180E090E0268D2D3009F4168E0196F6
:1033C000319682339105B9F78E8D813231F4FE0149
:1033D000EB57FF4F81E0808301C080E090E04E9684
:1033E000BE016F5A7F4F8C0F9D1F41E350E09BDE63
:1033F0002FEF873F92075CF4FE01EC57FF4F21E06F
:10340000208326EF3FEFA901481B590BCA0118166C
:1034100019067CF4FE01E80FF91FEF5AFF4F2081D7
:10342000233219F02AE020830196FE01ED57FF4F69
:103430008083FE01EC57FF4F8081882341F482E3B3
:10344000D8011D928A95E9F7C05BDF4F1882DF91A2
:10345000CF911F910F910895CF93DF93C0910704EF
:10346000D09108048091FC0386FF18C0FE01E05B48
:10347000FF4F1082FE01ED57FF4F1082FE01EC5707
:10348000FF4F1082FE01EB57FF4F1082CE014E9688
:10349000FC0182E3DF011D928A95E9F78091FC032C
:1034A00080FF42C0FE01ED57FF4F1082FE01EC5736
:1034B000FF4F80818823C1F18E8D813231F4FE016E
:1034C000EB57FF4F81E0808301C080E090E04E9693
:1034D000BE016F5A7F4F8C0F9D1F41E350E023DEEA
:1034E000FE01EC57FF4FBFEF873F9B074CF421E0F5
:1034F000208326EF3FEFA901481B590BCA0105C0E5
:103500001082FE01E05BFF4F10821816190664F46A
:10351000FE01E80FF91FEF5AFF4F2AE02083FE015A
:10352000ED57FF4F019680838091FC0381FF01C01E
:10353000EEDE8091FC0390E082FD0AC09C012370C6
:1035400030702115310521F4887490700097A1F036
:10355000FE01ED57FF4F6081662331F0CE018F5A97
:103560009F4F70E0DAD908C0CB57DF4F888188239E
:1035700019F080E18093FC03DF91CF9108950F93C0
:103580001F93CF93DF938091FC0380FF04C080E101
:103590008093FC0361C0E0910504F0910604108261
:1035A00080910504909106046BEF71E00E94F8266B
:1035B00080910504909106046BED72E00E94F8265C
:1035C0000091050410910604E80109900020E9F734
:1035D0002197C01BD10B87E692E00E940A2700D0FA
:1035E00000D000D0EDB7FEB73196C00FD11FADB7F8
:1035F000BEB71296DC93CE93119729EE30E0338359
:103600002283958384830E94E8278DB79EB7069610
:103610000FB6F8949EBF0FBE8DBF809105049091A8
:1036200006046CEE72E00E94F826809105049091E9
:10363000060467E672E00E94F826809105049091E6
:103640000604FC01DF010D900020E9F7BD01615087
:1036500070406E1B7F0B61D9DF91CF911F910F914D
:1036600008950F931F93CF93DF938091FC0380FF06
:1036700004C080E18093FC0361C0E0910504F091F7
:1036800006041082809105049091060464E772E0BC
:103690000E94F82680910504909106046BED72E07B
:1036A0000E94F8260091050410910604E801099093
:1036B0000020E9F72197C01BD10B8BEC92E00E9410
:1036C0000A2700D000D000D0EDB7FEB73196C00F6A
:1036D000D11FADB7BEB71296DC93CE9311972DEEE6
:1036E00030E033832283958384830E94E8278DB75B
:1036F0009EB706960FB6F8949EBF0FBE8DBF809101
:103700000504909106046CEE72E00E94F826809108
:103710000504909106046BEC72E00E94F8268091FB
:10372000050490910604FC01DF010D900020E9F7EB
:10373000BD01615070406E1B7F0BEFD8DF91CF91C0
:103740001F910F910895CF93DF93CBECDBE180E0E5
:1037500090E5BE010E945E0D8FE190E4BE010E94E3
:103760005E0DDF91CF910895E0910704F091080478
:10377000878D90A12CE18D3F920761F481A192A1E8
:10378000009741F00E943425E0910704F09108046D
:1037900012A211A20895EF92FF920F931F93CF935D
:1037A000DF938091FC0385FD02C087FF01C0DCDF51
:1037B0008091FC0384FF01C0D7DF9091FC0396FF4A
:1037C00009C0E0910704F091080410A2178E868DBD
:1037D000887F868F91FFA8C0C0910704D09108040C
:1037E0008F8D98A1009719F08E8D81FF9DC08091DB
:1037F000EE039091EF038A309105B8F0E090050454
:10380000F0900604C70168E073E045E050E00E94D4
:103810001327009751F487010B5F1F4FC80160E227
:1038200070E00E946127009729F48FEB9AE198A33A
:103830008F8F7AC0DC011C92F7018581882329F4DF
:10384000C80161E073E00E9403278BEF92E00E94C1
:103850000A27C82FD0E0C80165EF72E0AE010E94D0
:103860002B27009729F4C8018C0F9D1F2BD25CC019
:10387000C8016FE270E00E948127E0910704F09197
:103880000804009729F0DC0111968C91119703C070
:10389000D70115968C9183A3C0910704D091080499
:1038A000C8010E94C3039AA389A3E0910704F09181
:1038B000080481A192A1009739F5E8010990002040
:1038C000E9F72197C01BD10BC00FD11FFE01319723
:1038D00080818F3211F08FE28993CE016EEE72E01B
:1038E0000E940327E0900704F0900804C8010E949A
:1038F000C303F70192A381A3E0910704F0910804A8
:1039000081A192A1009719F08DEF9CE10BC0C01727
:10391000D10709F021971882E0910704F09108047B
:1039200081E39BE190A3878F8091FC0390E082FD6F
:103930000AC09C01237030702115310521F4887470
:103940009070009779F0A0910704B09108045F96F9
:10395000ED91FC919097309729F05E968C915E974F
:1039600081FF0995CDB7DEB7E6E00C947E2EE0919D
:103970000704F0910804A1A1B2A184A195A1169613
:103980009C938E9315976091050470910604248989
:10399000358940E050E081A192A10E9420049B0162
:1039A000AC01611571058105910521F480E28093D8
:1039B000FC03DACEE0910704F0910804848995892C
:1039C000A0E0B0E0281739074A075B0718F4868D96
:1039D0008460868F84A195A1A6A1B7A1820F931FB1
:1039E000A41FB51F80A791A7A2A7B3A78091050424
:1039F00090910604B9010C948D14A2E0B0E0E3E0CC
:103A0000FDE10C94622E8091FC0380FF16C0E091D2
:103A10000704F0910804868D80FF09C080A591A558
:103A2000A2A5B3A584A395A3A6A3B7A306C081604E
:103A3000868F14A215A216A217A2E0910704F09196
:103A40000804868D80FDABC0E0910504F09106046A
:103A50001082809105049091060461EF70E00E944D
:103A6000F826E0910704F091080401A0F2A1E02DEE
:103A7000E780F08400E010E0E114F1040105110595
:103A8000E1F180910504909106046BED72E00E94D3
:103A9000F8268091050490910604FC010190002015
:103AA000E9F73197E81BF90B2DB73EB728503040A6
:103AB0000FB6F8943EBF0FBE2DBF2F5F3F4FE80FEC
:103AC000F91FADB7BEB71296FC93EE9311978EE037
:103AD00093E0F90193838283D9011496ED92FD92CC
:103AE0000D931C9317970E94E827EDB7FEB7389601
:103AF0000FB6F894FEBF0FBEEDBFE0910704F09142
:103B00000804A1A1B2A116961C921E92159781A13C
:103B100092A1BE016F5F7F4F22E030E040E050E0B5
:103B20000E942004E0910704F091080401A0F2A192
:103B3000E02D1682158280910504909106046FE4B1
:103B400072E00E94F826E0910704F091080423A196
:103B5000283539F4809105049091060465E671E0FA
:103B60000BC08091050490910604233519F464E19B
:103B700071E002C06CE371E00E94F82680910504B8
:103B800090910604FC01DF010D900020E9F7BD01D2
:103B9000615070406E1B7F0B0E948D140BC082FF22
:103BA00008C08091FC0382FD04C080E18093FC0387
:103BB00001C0DDDE2296E6E00C947E2E3091FC03FF
:103BC00030FF07C0E0910704F0910804868D816002
:103BD000868F8091070490910804DC015E962C91F9
:103BE0005E9720FD24C0E0910504F0910604108248
:103BF000809105049091060461EF70E00E94F82620
:103C000080910504909106046AE971E00E94F8260B
:103C10008091050490910604FC01DF010D900020C5
:103C2000E9F7BD01615070406E1B7F0B49C032FD4A
:103C300038C022FF04C080E18093FC0332C0BC0185
:103C40006D5A7F4F819640E350E06DDABFEF873FBA
:103C50009B073CF426EF3FEFF901E81BF90BCF017E
:103C600011C09C01275F3F4F2930310520F480E1CE
:103C70008093FC030895E0910704F0910804268DD9
:103C80002460268F2091070430910804280F391FE3
:103C9000F901ED5AFF4F8AE080832C5A3F4FD9013A
:103CA0001C9280910704909108048D5A9F4FFC014B
:103CB00001900020E9F7BF0161507040681B790B4B
:103CC0000C948D14A0E0B0E0E8E6FEE10C94612EC7
:103CD000EC0100910704109108040F5D1F4F92E35F
:103CE000F92E80E2E82E1BC0853229F08B3289F450
:103CF000F801E08210C0DB801B82CE01019660E0FB
:103D000070E040E150E049D7F8016083DB82229601
:103D100002C0F8018083FA940F5F1F4F21968881BB
:103D2000882319F0FF2001F70CC0FF2051F0F801A3
:103D30001082E0910704F09108048EED9DE190A3BC
:103D4000878FCDB7DEB7E7E00C947D2ECF93DF935E
:103D5000DB01FC012081222349F13E2F2F2F81918D
:103D60008032D9F3882311F11C92C901E92FF82F71
:103D70000DC08C918295807F8C9331962881922FF3
:103D800090539A3008F09750892B8C939F01EF0144
:103D90008081982F90539A3060F390E08F7D9070DF
:103DA000815490408630910520F302C020E030E03D
:103DB000C901DF91CF910895A5E0B0E0E2EEFEE108
:103DC0000C94622E7B012FEF2A83E82FF92F5E2FB0
:103DD0003F2F81918032D9F3873621F0833709F064
:103DE000CCC002C021E001C020E0E52FF32F5E2F00
:103DF0003F2F81918032D9F7E52FF32FDF01819199
:103E00008032E1F3FD01319611968C91119790E08B
:103E10008F7D907084349105C1F0853491052CF428
:103E20008134910509F0A9C00CC08934910529F0AD
:103E30008F34910509F0A1C002C050E007C052E0E4
:103E400005C0FD01349653E001C051E03196CF0129
:103E500061916032E1F370E06F7D70706E347105D6
:103E6000B4F7BE016F5F7F4F2C834D835B836EDFA2
:103E70002C814D815B81009709F47FC0698161309D
:103E8000A1F0613030F0623041F0633009F075C06C
:103E900008C03FEF00E210E00BC03FEF06E210E089
:103EA00007C033EA09E210E003C03DE003E210E09E
:103EB0005330E1F48DB79EB70A970FB6F8949EBFC2
:103EC0000FBE8DBFEDB7FEB73196ADB7BEB7129638
:103ED000FC92EE9211974283138282E193E09583E4
:103EE000848366831782309530871EC0050F111DAD
:103EF000222341F1D8012C91EDB7FEB73A970FB6C6
:103F0000F894FEBF0FBEEDBF3196ADB7BEB71296A7
:103F1000FC92EE9211974283138282E193E09583A3
:103F2000848366831782208711860E94BA27282FF0
:103F300030E0EDB7FEB73A960FB6F894FEBF0FBE6D
:103F4000EDBF1DC0BE016F5F7F4F3B83FFDE00975B
:103F5000A1F0BE016E5F7F4FF9DED8019C912A81EE
:103F60003B81832F822380958923998192239323F8
:103F7000892B8C9320E030E002C02FEF3FEFC90186
:103F80002596E6E00C947E2EFC01DB0180818823DF
:103F9000A1F02181222389F0822F90E088339105BE
:103FA0000CF059C090917C00822F8053907F892B18
:103FB00080937C0020E038E008C020E030E0809171
:103FC0007C00807F832B80937C0080917A008064CA
:103FD00080937A0080917A0086FDFCCF80917800F2
:103FE00090917900492F5527BA016F7070704F700A
:103FF0006A30710510F4405D01C0495CFD014193D8
:10400000AC0164E0569547956A95E1F7BA016F7087
:1040100070704F706A30710510F4405D01C0495CEA
:104020004083FD013296AC014F7050708F704A3062
:10403000510510F4805D01C0895C808380E2139695
:104040008C93139714961C922C5F3F5F383008F4C2
:10405000B6CF30E002C02FEF3FEFC90108956115E0
:104060007105C9F12DB73EB7205130400FB6F89415
:104070003EBF0FBE2DBFEDB7FEB73196ADB7BEB791
:1040800012969C938E93119782E293E0938382839E
:1040900075836483CB01019697838683CB01029657
:1040A00091878087CB01039693878287CB01049603
:1040B000958784876B5F7F4F77876687A9D72DB7F2
:1040C0003EB7205F3F4F0FB6F8943EBF0FBE2DBFE7
:1040D0008630910511F08FEF089580E00895A7E0F4
:1040E000B0E0E5E7F0E20C94602E7B016A01E82F76
:1040F000F92FCF0121912032E1F38E010E5F1F4F86
:104100002223D1F0B801ABDF87FD51C080E090E001
:10411000B80146E050E00E94D9020E94F50289836E
:1041200082E190E0BE016F5F7F4F41E050E00E946E
:10413000D90220E030E03DC0C80160E070E046E018
:1041400050E00E94BD2C8DB79EB742970FB6F894F1
:104150009EBF0FBE8DBFEDB7FEB73196ADB7BEB7F0
:104160001296FC92EE921197D382C28286E493E07B
:10417000958384838A81868317828B8180871186C9
:104180008C81828713868D81848715868E818687B0
:1041900017868F81808B118AEDD69C018DB79EB7D3
:1041A00042960FB6F8949EBF0FBE8DBF02C02FEF90
:1041B0003FEFC9012796E8E00C947C2EA1E0B0E027
:1041C000E4EEF0E20C94662E2DB73EB72651304057
:1041D0000FB6F8943EBF0FBE2DBFEDB7FEB73196B8
:1041E000ADB7BEB712969C938E93119782EA93E077
:1041F0009383828375836483CB010196978386833F
:10420000CB01029691878087CB01039693878287A3
:10421000CB01049695878487CB010596978786877F
:10422000CB010696918B808B695F7F4F738B628B7E
:10423000CE010196958B848BEBD62DB73EB72A5EC7
:104240003F4F0FB6F8943EBF0FBE2DBF883091058B
:1042500041F08930910519F48981803211F08FEF96
:1042600001C080E02196E2E00C94822EFF920F9331
:104270001F93CF93DF93EB018A0161E08091E2030A
:10428000811160E0FFB6F89480E40E946109FFBEEE
:1042900091E09093E203813009F04DC04DB75EB7D5
:1042A000465150400FB6F8945EBF0FBE4DBFEDB7FC
:1042B000FEB73196ADB7BEB71296DC93CE93119789
:1042C0001383028381E893E0958384838091E403E0
:1042D000868317828091E503808711868091E603AB
:1042E000828713868091E703848715868091E8038F
:1042F000868717868091E903808B118A8091EA0373
:10430000828B138A8091EB03848B158A33D69C01B0
:104310004DB75EB74A5E5F4F0FB6F8945EBF0FBEF3
:104320004DBF181619065CF486EF9FEFDC01A21B47
:10433000B30B9D0104C01092E20320E030E0C901FC
:10434000CDB7DEB7E5E00C947F2EA1E1B0E0EBEA5B
:10435000F1E20C945D2E5B016A01E82FF92FCF0189
:1043600021912032E1F37E010894E11CF11CB70198
:1043700025DF87FD75C0C7010E94E809882309F47D
:1043800051C09FB6F8948E01075F1F4FC701B80157
:104390000E94280A9FBE813009F065C0C701B8019C
:1043A0000E94560A97FF06C0909581959F4F2EE177
:1043B00031E002C020E231E04DB75EB74C505040D2
:1043C0000FB6F8945EBF0FBE4DBFEDB7FEB7319686
:1043D000ADB7BEB71296BC92AE921197D382C2828D
:1043E00048E753E05583448337832683292F3327B7
:1043F00027FD30953187208790709C01220F331F55
:1044000043E0880F991F4A95E1F7280F391F20587C
:104410003F4F32871386AED59C014DB75EB7445FE0
:104420005F4F18C000D000D000D0EDB7FEB7319676
:10443000ADB7BEB71296BC92AE921197D382C2822C
:1044400084E693E09583848395D59C014DB75EB750
:104450004A5F5F4F0FB6F8945EBF0FBE4DBF05C0F9
:104460002FEF3FEF02C02EEF3FEFC9016196EBE067
:104470000C94792EA8E0B0E0E0E4F2E20C94642E13
:10448000E82FF92FCF0121912032E1F38E010F5F48
:104490001F4FB80193DE87FD02C0C80102C080E053
:1044A00090E00FB7F89461E00E94FB09992787FD1F
:1044B00090950FBF8130910539F02FEF8F3F920714
:1044C00031F42EEF3FEF05C020E030E002C02FEFC7
:1044D0003FEFC9012896E4E00C94802EA5E0B0E0FF
:1044E000E4E7F2E20C94642EE82FF92FCF0121913A
:1044F0002032E1F38E010E5F1F4F2223D9F0B80165
:104500000E940815882339F586E090E0B80144E060
:1045100050E00E94D9020E94F502898382E190E076
:10452000BE016F5F7F4F41E050E00E94D90220E062
:1045300030E013C08091D2059091D3059B838A838C
:104540008091D4059091D5059D838C83C8010E94EC
:10455000A3149C0102C02FEF3FEFC9012596E4E0B0
:104560000C94802EA5E0B0E0E8EBF2E20C94642E0F
:10457000E82FF92FCF0121912032E1F38E010E5F58
:104580001F4F2223D9F0B8010E940815882339F55E
:104590008AE090E0B80144E050E00E94D9020E9415
:1045A000F502898382E190E0BE016F5F7F4F41E0B9
:1045B00050E00E94D90220E030E013C08091CE0587
:1045C0009091CF059B838A838091D0059091D105EE
:1045D0009D838C83C8010E94A3149C0102C02FEF0D
:1045E0003FEFC9012596E4E00C94802EA5E0B0E0F1
:1045F000ECEFF2E20C94642EE82FF92FCF01219119
:104600002032E1F38E010E5F1F4F2223D9F0B80153
:104610000E940815882339F58EE090E0B80144E047
:1046200050E00E94D9020E94F502898382E190E065
:10463000BE016F5F7F4F41E050E00E94D90220E051
:1046400030E013C08091CA059091CB059B838A838B
:104650008091CC059091CD059D838C83C8010E94EB
:10466000A3149C0102C02FEF3FEFC9012596E4E09F
:104670000C94802EA0E0B0E0E0E4F3E20C94602E15
:10468000EC018B01E42E2998FF2403C00E94BD0396
:10469000F394FE01EF0DF11D80818823B9F78FEFB0
:1046A00090E7A2E081509040A040E1F700C00000F8
:1046B000F02EA02FED016E01D12EE60104C080E0A6
:1046C0000E94BD038993DE01AF19AE15C0F3F80156
:1046D000EE0DF11D31971082299ACDB7DEB7E8E0D3
:1046E0000C947C2EA0E4B0E0E8E7F3E20C945D2E9D
:1046F0005B016A0100D000D000D0EDB7FEB7319663
:10470000ADB7BEB712969C938E93119780ED93E050
:10471000938382837E010894E11CF11CF582E4827C
:1047200077D4982E0F900F9081E291E0EDB7FEB70D
:1047300092838183F482E3820E946F0B0F900F902B
:104740000F900F908E010F5D1F4FC701B80140E21F
:1047500091DF00D000D086E491E0ADB7BEB71296ED
:104760009C938E93119714961C930E9313970E940B
:104770006F0B0F900F900F900F90B92DB13011F576
:10478000EDB7FEB738970FB6F894FEBF0FBEEDBF7A
:104790003196ADB7BEB71296BC92AE921197D38246
:1047A000C2828DEC93E09583848317830683E2D3E2
:1047B0009C01EDB7FEB738960FB6F894FEBF0FBE5A
:1047C000EDBF02C02FEF3FEFC901C05CDF4FEBE050
:1047D0000C94792E0E945B030E947B030C94670863
:1047E0000E94A5060E94950A0E9481190C94A31BA1
:1047F00008950F931F93CF93DF9380910008882330
:1048000009F48AC0109200088091DC039091DD03C6
:1048100001969093DD038093DC039FB7F894809119
:10482000A105882329F488E08093A10580E001C0D8
:1048300081E09FBF882309F06FC08091DC039091D5
:10484000DD036AE070E00E940D2E009709F046C07B
:10485000C0E0D0E008E810E0C09FC001C19F900D0B
:10486000D09F900D1124875F9B4F909308048093F5
:10487000070482E00E94790D8091EE039091EF038E
:10488000009721F00E9439170E941E082196C3301C
:10489000D10511F7C0E0D0E0CE01880F991F9E012D
:1048A00043E0220F331F4A95E1F7820F931F825393
:1048B000984F909300048093FF0385E00E94790D48
:1048C0008091EE039091EF03009721F00E94391739
:1048D0000E941E082196C530D105F1F68091DC03B7
:1048E0009091DD0362E370E00E940D2E009711F4B9
:1048F0000E942A078091DC039091DD0364EF71E050
:104900000E940D2E009731F41092DD031092DC030B
:104910000E94FD151092A105DF91CF911F910F917B
:1049200008950E94DD07A8950E94EA0AA89561DF14
:10493000A8950895CF93DF938230910510F482E01B
:1049400090E0E0910308F091040840E050E020E09E
:1049500030E026C06081718168177907E0F0681740
:10496000790781F4828193812115310531F0D901D4
:1049700013969C938E9312972BC090930408809368
:10498000030826C04115510519F06417750718F47E
:10499000AB01E901DF019F0172816381E72FF62FEF
:1049A0003097C1F64115510501F1481B590B4430B0
:1049B000510580F412968D919C911397209719F0D0
:1049C0009B838A8304C09093040880930308FD01AD
:1049D000329646C0FD01E40FF51F8193919342503A
:1049E000504011965C934E933BC02091010830914A
:1049F00002082115310541F420916E0130916F01BB
:104A000030930208209301082091700130917101C8
:104A10002115310541F42DB73EB740916C015091FD
:104A20006D01241B350BE0910108F0910208E2179B
:104A3000F307A0F42E1B3F0B2817390778F0AC01C1
:104A40004E5F5F4F2417350748F04E0F5F1F50939E
:104A50000208409301088193919302C0E0E0F0E0E6
:104A6000CF01DF91CF910895CF93DF93009709F4A1
:104A700091C0FC01329713821282609103087091F9
:104A800004086115710581F420813181280F391FD7
:104A900080910108909102088217930799F5F0938D
:104AA0000208E093010876C0DB0180E090E002C0DC
:104AB000CD01D901AE17BF0748F412962D913C9154
:104AC000139721153105A1F7CD0121C0B383A2832E
:104AD000EF01499159919E01240F351FA217B30789
:104AE00079F42D913C911197240F351F2E5F3F4F84
:104AF0003183208312962D913C9113973383228327
:104B0000009729F4F0930408E093030843C0DC0104
:104B10001396FC93EE9312974D915D91A40FB51FE0
:104B2000EA17FB0769F420813181240F351F2E5FBE
:104B30003F4FEC0139832883228133813B832A83D1
:104B4000E0E0F0E002C0FB01BC01DB0112968D91B8
:104B50009C9113970097B9F79B012E5F3F4F8D9162
:104B60009C911197820F931F409101085091020868
:104B70004817590779F4309729F4109204081092D5
:104B8000030802C013821282225030403093020880
:104B900020930108DF91CF9108952F923F924F9279
:104BA0005F926F927F929F92AF92BF92CF92DF926D
:104BB000EF92FF920F931F93CF93DF933B01EA0194
:104BC0006115710519F0FB0180839183209739F0FD
:104BD0009E01225030402332310508F0D2C0C82E49
:104BE000D92EF60111916F017F01812F90E0E2D063
:104BF0000097B9F71D3231F4F60111917F01992424
:104C0000939406C01B3219F4F60111917F01992487
:104C1000209719F0C031D105D1F4103389F4F70190
:104C20008081883711F0883559F4F701118182E0CD
:104C300090E0E80EF91E92E0992AC0E1D0E007C0AA
:104C4000209729F41033B1F0CAE0D0E02AC0CA306E
:104C5000D10539F1C031D10521F0C830D105A9F411
:104C600009C02FEFA22E2FEFB22E2FEFC22E2FE072
:104C7000D22E1FC0C8E0D0E09FEFA92E9FEFB92E23
:104C80009FEFC92E9FE1D92E14C09E01442737FD06
:104C90004095542F6FEF7FEFCB01E6D759016A01A2
:104CA00008C089E9A82E89E9B82E89E9C82E89E1CA
:104CB000D82E60E020E030E0A9011E01442437FC3A
:104CC0004094542C012F00530A3060F0812F8154FE
:104CD0008A3110F4075006C0812F81568A3148F579
:104CE000012F0755802F90E08C179D0714F56F3F1B
:104CF000E1F0A216B306C406D506A0F0CA01B901B8
:104D0000A20191016BD79B01AC01802F90E0A0E044
:104D1000B0E0280F391F4A1F5B1F281739074A07C1
:104D20005B0710F46FEF01C061E0F70111917F01A3
:104D3000C9CF6114710481F0662339F00894E10849
:104D4000F108F301F182E08207C091FE05C0C701BE
:104D50000297F3019183808390FE07C050954095A0
:104D6000309521953F4F4F4F5F4F67FF0DC082E257
:104D700090E090930608809305082FEF3FEFA9017C
:104D800003C020E030E0A901B901CA01DF91CF9151
:104D90001F910F91FF90EF90DF90CF90BF90AF9059
:104DA0009F907F906F905F904F903F902F900895CD
:104DB000F894B9C7911107C6803219F0895085500F
:104DC000D0F70895FB01DC0104C08D910590801996
:104DD00021F441505040C8F7881B990B0895FB01FE
:104DE000DC0102C005900D9241505040D8F7089563
:104DF000FB01DC010D900020E9F7119705900D9261
:104E00000020E1F70895FB01DC0105900D920020E0
:104E1000E1F70895FC0105900020E9F78095909551
:104E20008E0F9F1F0895FB01DC014150504088F018
:104E30008D9181341CF08B350CF4805E659161346A
:104E40001CF06B350CF4605E861B611171F3990BDD
:104E50000895881BFCCFFB01DC014150504030F02D
:104E60008D910590801919F40020B9F7881B990BD2
:104E70000895FC014150504030F001900616D1F7E2
:104E80003197CF010895882799270895FB01DC0108
:104E900002C001900D9241505040D8F70895DC01B6
:104EA00001C06D9341505040E0F70895FB01DC01D3
:104EB0000D900020E9F7119701900D920020E1F785
:104EC0000895FC018191861721F08823D9F799274D
:104ED00008953197CF010895FB01DC0101900D92F7
:104EE0000020E1F70895FB01DC014150504030F013
:104EF0008D910190801919F40020B9F7881B990B46
:104F00000895FC0181E090E00190061609F4CF01BC
:104F10000020D1F701970895AEE0B0E0E1E9F7E2B3
:104F2000D3C60D891E898F89988D26E02C831A831C
:104F3000098397FF02C080E090E801979E838D83EC
:104F40009E01255E3F4FCE010196698D7A8DA901A4
:104F50009ED04D815E8157FD0AC02F813885421752
:104F600053070CF49A01020F131FF80110822E96BA
:104F7000E4E0C6C6AEE0B0E0EFEBF7E2A5C60D890F
:104F80001E898F89988D2EE02C831A83098397FFC1
:104F900002C080E090E801979E838D839E01255E8C
:104FA0003F4FCE010196698D7A8DA90170D04D8158
:104FB0005E8157FD0AC02F813885421753070CF4D4
:104FC0009A01020F131FF80110822E96E4E098C692
:104FD000AEE0B0E0EDEEF7E277C60D891E898EE017
:104FE0008C831A8309838FEF9FE79E838D839E01B5
:104FF000275E3F4FCE0101966F89788DA90147D07A
:10500000EF81F885E00FF11F10822E96E4E078C65C
:10501000AEE0B0E0EDE0F8E259C68DE08C838B891C
:105020009C899A8389839E01295E3F4FCE01019618
:105030006D897E89A90188D32E96E2E063C6AEE031
:10504000B0E0E4E2F8E240C68C01CB01BA0146E0F0
:105050004C831A83098397FF02C080E090E8019790
:105060009E838D83CE010196A90111D04D815E8171
:1050700057FD0AC02F813885421753070CF49A0157
:10508000020F131FF80110822E96E4E039C6ACE03F
:10509000B0E0ECE4F8E20AC66C011B018A01FC01F5
:1050A00017821682838181FFC4C12E010894411C9E
:1050B000511CF6019381F10193FD859193FF81913C
:1050C0001F01882309F4B1C1853239F493FD85911C
:1050D00093FF81911F01853221F490E0B601D9D46C
:1050E000E8CFEE24FF2420E02032B0F48B3269F0C8
:1050F0008C3228F4803251F0833271F40BC08D323F
:1051000039F0803349F421602CC02260246029C02A
:10511000286027C0206125C027FD2CC0382F3053C0
:105120003A3098F426FF08C08E2D880FE82EEE0C3A
:10513000EE0CE80EE30E15C08F2D880FF82EFF0C35
:10514000FF0CF80EF30E20620CC08E3221F426FD07
:105150006CC1206406C08C3611F4206802C0883609
:1051600049F4F10193FD859193FF81911F018823FB
:1051700009F0BACF982F9554933018F0905293308D
:1051800028F40C5F1F4FFFE3F9830DC0833631F025
:10519000833771F0833509F05CC021C0F80180814C
:1051A00089830E5F1F4F420171E0A72EB12C15C0FD
:1051B00062E0662E712C600E711EF8018080918075
:1051C00026FF03C06E2D70E002C06FEF7FEFC401B9
:1051D0002C8712D45C0183012C852F7716C052E0F6
:1051E000652E712C600E711EF8018080918026FF63
:1051F00003C06E2D70E002C06FEF7FEFC4012C87FB
:10520000F0D35C012C852068830123FD1EC007C0FC
:1052100080E290E0B6012C873CD4FA942C858F2D47
:1052200090E0A816B906A0F310C0F40127FD8591FF
:1052300027FF81914F0190E0B6012C872AD42C855D
:10524000F110FA940894A108B108A114B10469F707
:10525000E9C0843611F0893641F527FF08C0F8010E
:1052600060817181828193810C5F1F4F09C0F801B9
:1052700060817181882777FD8095982F0E5F1F4F81
:105280004FE6B42EB22297FF09C090958095709595
:1052900061957F4F8F4F9F4FF0E8BF2AA2012AE010
:1052A00030E03ED4782E741844C0853731F43FEE98
:1052B000B32EB2222AE030E025C099EFB92EB222F7
:1052C0008F36C1F0803720F4883509F0AEC00DC0AC
:1052D000803721F0883709F0A8C002C020E1B22A47
:1052E000B4FE0BC084E0B82A08C0B4FE09C0E6E0F2
:1052F000BE2A06C028E030E005C020E130E002C050
:1053000020E132E0B7FE08C0F8016081718182813E
:1053100093810C5F1F4F07C0F8016081718180E0AD
:1053200090E00E5F1F4FA201FBD3782E7418FFE7A9
:10533000BF22B6FE0BC02EEFB2227E1438F4B4FEAC
:1053400007C0B2FC05C08FEEB82202C0A72C01C076
:10535000AE2C8B2D90E0B4FE0DC0FE01E70DF11DCB
:105360002081203319F4E9EEBE2209C0A394B2FED5
:1053700006C004C086789070009709F0A3948B2C27
:105380009924B3FC13C0B0FE0EC0AF1428F4E72C70
:10539000EF0CEA18AF2C07C0E72C05C080E290E0C4
:1053A000B60177D3A394AF14C8F304C0AF1410F4BC
:1053B000FA1801C0FF2484FE0EC080E390E0B6011D
:1053C00068D382FE1DC081FE03C088E590E010C056
:1053D00088E790E00DC0C40186789070009781F056
:1053E00081FC02C080E201C08BE2B7FC8DE290E05C
:1053F000B6014FD305C080E390E0B6014AD3EA94EA
:105400007E14C8F37A94F201E70DF11D808190E0DB
:10541000B6013FD37720B1F705C080E290E0B60136
:1054200038D3FA94FF20C9F744CEF601268137819C
:1054300002C02FEF3FEFC9012C96E2E153C420FDDB
:1054400009C0FC0123FD05C022FF02C073836283F3
:10545000518340830895EF92FF920F931F9344FD71
:1054600010C046FD10C0DB01FC01AA0FBB1FEE1FE0
:10547000FF1F1094D1F76A0F7B1F8E1F9F1F31E013
:1054800003C033E001C034E0660F771F881F991F07
:105490003150D1F77B018C01E20EF11C011D111D71
:1054A000A8019701B701CA011F910F91FF90EF90DA
:1054B0000895EF92FF920F931F93CF93DF938C0188
:1054C000C801A5D2EC0197FD07C074DC0097C1F7B5
:1054D0007E01CE01B80109D3CE01CDB7DEB7E6E03B
:1054E0000DC48F929F92AF92BF92DF92EF92FF9284
:1054F0000F931F93DF93CF930F92CDB7DEB74C017D
:10550000D62E5A01122F83D28B3219F08D3241F4EC
:105510001068DA9409F465C0C40179D297FD61C0BE
:10552000312F3D7F232F2073E1F48033D1F4DA94BF
:1055300009F443C0C40139836AD2398197FD3DC063
:105540003260883711F0883551F43064DA94A9F16B
:10555000C40139835CD2398197FF03C02EC036FF66
:105560003061EE24FF248701282F2053283088F053
:1055700034FD09C02A3068F036FF05C02F7D422F68
:105580004151463028F0B4013983AFD2398112C07D
:105590002750C801B701432F39835DDF7B018C01A0
:1055A00039813260DA9461F0C401398330D23981B3
:1055B00097FFDACF31FD04C014C0EE24FF24870129
:1055C00037FF08C010950095F094E094E11CF11CA1
:1055D000011D111DC501B801A701232F30DF81E096
:1055E00001C080E00F90CF91DF911F910F91FF904C
:1055F000EF90DF90BF90AF909F908F900895A1E2C1
:10560000B0E0E4E0FBE256C36C018A0179019E013F
:105610002F5F3F4F80E2F90111928A95E9F7F60179
:10562000838080E090E0BB24992470E0A1E0B0E0AA
:10563000F70183FCA59083FEA1907F01AA2009F4C5
:105640007DC0FA2DFE3511F4009751F1472F50E03F
:105650004817590744F44A2D4D3551F14D3219F48C
:10566000992001F103C0992009F4BA2C4A2D4695DE
:1056700046954695F901E40FF11D4A2D47703D010D
:1056800002C0660C771C4A95E2F7908096289082BB
:10569000AB1459F0AB1410F4A394E8CFAA94E6CF5E
:1056A00071E004C09924939401C099240196C0CF5D
:1056B000992019F08E8180628E83772351F0CE017C
:1056C0008196FE013196208120952193E817F907F4
:1056D000D1F7BB24B3944E010894811C911C01C0E6
:1056E000BB24C60169A393D169A197FD1FC0282FD0
:1056F000269526952695F401E20FF11D208130E0D4
:10570000AC014770507002C0359527954A95E2F775
:1057100020FD03C0B601E9D109C00115110519F03A
:10572000F80181938F016150D9F602C0BB2031F49A
:105730000115110529F0F801108202C0EE24FF24A2
:10574000C701A196EEE0D2C24F925F926F927F9214
:105750009F92AF92BF92CF92DF92EF92FF920F9300
:105760001F93DF93CF930F92CDB7DEB77C016B0110
:105770003A01FC011782168200E0DBC0812F90E025
:1057800019DB009719F0C70194DED3C0153241F43C
:10579000F601A3FC3591A3FE31916F01353251F42E
:1057A000C70135D197FDD1C0181709F4C2C0B701A0
:1057B0009CD1CDC03A3239F4A3FC3591A3FE31918E
:1057C0006F0111E001C010E099240EC01260692D34
:1057D00070E080E090E040E23EDE962EF601A3FC11
:1057E0003591A3FE31916F01232F20532A3070F39E
:1057F00011FF03C0992019F4AAC099249A9438364D
:1058000019F03C3689F409C0F601A3FC3591A3FEDA
:1058100031916F01383641F418601460F601A3FC31
:105820003591A3FE31916F01332309F490C086E9CD
:1058300094E0632F70E03983C9D03981009709F46F
:1058400086C0812F10FD08C0F3014080518042E0E6
:1058500050E0640E751E02C0442455243E3649F4BF
:10586000F7014681578160E070E0C201212FE7DD3A
:1058700060C0333689F481FD02C099249394C70136
:10588000C6D097FD62C04114510419F0F201819312
:105890002F019A94A1F74BC03B3551F4C701692DF4
:1058A000A2019601ACDE6C01009709F040C03AC03D
:1058B000C7013983FEDD398197FD47C03F3641F18D
:1058C000303728F4343611F1393621F524C0333716
:1058D00019F03537F9F41AC0C70199D05C0197FD6A
:1058E0000FC068DA009721F0C501B701FED008C0EB
:1058F0004114510419F0F201A1922F019A9461F719
:1059000041145104A1F0F201108211C0106203C0D1
:10591000106101C01064C701692DA201212FE1DDD2
:10592000882329F4F7018381807379F410C010FF74
:105930000F5FF701A380F601A3FC1591A3FE11915F
:105940006F01112309F01ACF02C0002311F010E0FB
:1059500002C00FEF1FEFC8010F90CF91DF911F9191
:105960000F91FF90EF90DF90CF90BF90AF909F90FE
:105970007F906F905F904F900895DC01CB01FC0108
:10598000F999FECF06C0F2BDE1BDF89A319600B498
:105990000D9241505040B8F70895F999FECF92BD4D
:1059A00081BDF89A992780B50895262FF999FECFE1
:1059B0001FBA92BD81BD20BD0FB6F894FA9AF99A2C
:1059C0000FBE01960895992788270895FC01059038
:1059D000061621F00020D9F7C00108953197CF01B4
:1059E0000895FC010590615070400110D8F7809532
:1059F00090958E0F9F1F0895FC016150704001909B
:105A00000110D8F7809590958E0F9F1F0895CF9322
:105A1000DF93EC013B8130FF36C036FF09C03F7B8E
:105A20003B838E819F8101969F838E832A8129C02B
:105A300032FF0FC0E881F9818081992787FD909519
:105A4000009719F430623B831EC03196F983E883D6
:105A500011C0EA85FB85CE01099597FF0BC02B810C
:105A60003FEF8F3F930711F480E101C080E2822B6A
:105A70008B8309C02E813F812F5F3F4F3F832E8351
:105A8000282F30E002C02FEF3FEFC901DF91CF9107
:105A900008950F931F93CF93DF938C01EB018B81BC
:105AA00081FF1BC082FF0DC02E813F818C819D81B3
:105AB0002817390764F4E881F9810193F983E883B1
:105AC00006C0E885F985802F0995009731F48E810D
:105AD0009F8101969F838E8302C00FEF1FEFC80145
