:100000003CC200005EC200005CC200005AC2000098
:1000100058C2000056C2000054C2000061C3000074
:1000200050C200004EC200004CC200004AC2000094
:1000300048C2000046C2000044C2000042C20000A4
:1000400040C200003EC200003CC200003AC20000B4
:1000500038C20000A70EBE0E370F3C105B10831095
:100060008B1026100022F9010C6500253032780033
:1000700025780046757365733A206C6F773D25309F
:10008000325820686967683D253032582065783DD0
:100090002530325800546F6D00256868752E25682C
:1000A00068752E256868752E256868750025752E7B
:1000B00025752E25752E25750025730070617273C8
:1000C00065206572726F720025750A0025750A0039
:1000D000485454502F312E3120323030204F4B0AAB
:1000E000436F6E6E656374696F6E3A20636C6F73F5
:1000F000650A00436F6E74656E742D547970653AAD
:1001000020746578742F6373733B20636861727326
:1001100065743D7574662D380A0A00436F6E746508
:100120006E742D547970653A20746578742F6874F4
:100130006D6C3B20636861727365743D7574662DE8
:10014000380A0A00436F6E74656E742D54797065B9
:100150003A206170706C69636174696F6E2F7868A2
:10016000746D6C2B786D6C3B206368617273657481
:100170003D7574662D380A0A0043616368652D4336
:100180006F6E74726F6C3A206E6F2D636163686579
:100190000A43616368652D436F6E74726F6C3A2019
:1001A0006D7573742D726576616C69646174650A2E
:1001B000436F6E74656E742D547970653A20746562
:1001C00078742F706C61696E3B206368617273652F
:1001D000743D7574662D380A0A00485454502F3106
:1001E0002E312034303020426164205265717565B3
:1001F00073740A436F6E6E656374696F6E3A206341
:100200006C6F73650A436F6E74656E742D547970EC
:10021000653A20746578742F706C61696E3B206359
:100220006861727365743D7574662D380A00436F9A
:100230006E74656E742D456E636F64696E673A20E7
:10024000677A69700A00426164205265717565734E
:10025000740A00485454502F312E31203430342049
:1002600046696C65204E6F7420466F756E640A4354
:100270006F6E6E656374696F6E3A20636C6F736541
:100280000A436F6E74656E742D547970653A2074EC
:100290006578742F706C61696E3B2063686172735E
:1002A00065743D7574662D380A0046696C65204E8C
:1002B0006F7420466F756E640A00436F6E74656ECE
:1002C000742D4C656E6774683A20000A0069647882
:1002D0002E68740065636D643F0065636D643F0064
:1002E0006964782E687400474554202F0025750AEC
:1002F00000706F72742025643A203078253032788F
:100300000025326868783A25326868783A2532687C
:1003100068783A25326868783A25326868783A25EC
:100320003268687800253032783A253032783A25BC
:100330003032783A253032783A253032783A2530E2
:10034000327800756E6B6E6F776E2073656E736FAB
:1003500072207479706500257325642E2531640040
:100360002530327825303278253032782530327891
:100370002530327825303278253032782530327881
:100380000025326868782532686878253268687890
:10039000253268687825326868782532686878255B
:1003A00032686878253268687825630064200066C2
:1003B00075736500686F73746E616D650072657347
:1003C0006574007764726573657400696F006164B9
:1003D0006320676574006D6163003177206C697319
:1003E000740031772067657400317720636F6E7613
:1003F000657274006E65746D61736B00697000677F
:10040000770077636D640068656C70007665727361
:10041000696F6E00656570726F6D207265696E69D7
:100420007400AC031C04AF038304B403D604BD03FF
:10043000F404C3030405CB03FC1ACE03E31BD60369
:10044000811CDA03481DE203B71DE9034C1EF403C7
:10045000C41EFC03801EFF03081F02044C1F070478
:1004600075150C044D151404C215000000006364DA
:10047000696E6F70737578585B0014BE88E10FB6B3
:10048000F89481BD11BC0FBE19BE11241FBECFE56B
:10049000D8E0DEBFCDBF10E0A0E6B0E0E8E2F3E5D3
:1004A00002C005900D92AC37B107D9F714E0ACE764
:1004B000B0E001C01D92A43DB107E1F703D00C9458
:1004C00012229ECDCF93DF9380EB87BB80E481BB6C
:1004D00078942FE088E190E00FB6F894A89581BD5C
:1004E0000FBE21BDA89586E886B917B815D10E9420
:1004F0004F1F0E945A1FC0E0D0E0A8950E94CE1F57
:100500008091E10082FF0BC0F89428E088E190E040
:100510000FB6F894A89581BD0FBE21BDFFCF81FF16
:10052000ECCFF894FE010995E8CF862798E06CE8B7
:10053000869508F486279A95D9F70895EF92FF9249
:100540000F931F93CF93DF93182F062FE12EE70110
:100550007E01F92EE70180E002C06991E6DFAE017D
:10056000411B4017D0F3CDB7DEB7E6E00C947D29F0
:10057000EF92FF920F931F93CF93DF937C01EB01D8
:100580008A01C40FD51F08C001501040C701800F59
:10059000911F6A910E94D52701151105A9F7CDB7C2
:1005A000DEB7E6E00C947D291F93CF93DF93C0E084
:1005B000D0E010E0CE010E94CD27682F812FB5DF5B
:1005C000182F2196C231D105A9F7DF91CF911F9144
:1005D0000895ABE0B0E0EFEEF2E00C9461298E01FB
:1005E0000A5F1F4FC80164E670E046E050E00E94D9
:1005F000292280E090E0B80146E050E0B9DF80ECCD
:10060000E82E88EAF82EFB82EA8280E09AE59D8354
:100610008C838E010E5F1F4F86E090E0B80144E0AE
:1006200050E0A6DFFB82EA8280E091E09D838C832C
:100630008EE090E0B80144E050E09ADF8FEF9FEF4A
:100640009B838A838FEF90E09D838C838AE090E088
:10065000B80144E050E08CDFA7DF898382E190E0BD
:10066000BE016F5F7F4F41E050E082DF2B96E6E0F6
:100670000C947D29A1E0B0E0E0E4F3E00C9464295F
:10068000A3D792DF182FCE01019662E170E041E01E
:1006900050E00E94BD278981181709F09ADFBCD16C
:1006A0000E94551F08D30E9472122196E3E00C9419
:1006B00080298EB58C7F8EBD8EB584608EBD8FB542
:1006C0008E7F8FBD8FB582608FBD8EB5877F8EBDCB
:1006D00081EE94E09BBD8ABD89B7806189BF089592
:1006E0001F920F920FB60F9211248F939F9381E068
:1006F0008093CD048091E200982F9F5F9093E20059
:10070000923318F081538093E2009F918F910F9064
:100710000FBE0F901F901895C49A80E58DB981E0A7
:100720008EB908958FB9779BFECF8FB10895A9E058
:10073000B0E0EDE9F3E00C945C296C0100E81FE700
:100740007E010894E11CF11C8AE0A82EB12CAC0EAD
:10075000BD1EF8018491833251F53196D701849101
:100760008D933196AA15BB05D1F79984C70168E02E
:10077000E5DE9816E1F4C701B60146E050E00E94BC
:100780009B220097A1F487E090E00E94D41FE82FFD
:10079000F92F309789F01082065F1F4F1283018373
:1007A000148213828F8198859683858305C00058B3
:1007B000104079F6E0E0F0E0CF012996EBE00C94F0
:1007C0007829EF92FF92CF93DF93DC0115968D91FC
:1007D0009C91169713962D913C911497821B930B25
:1007E000242F352F8217930708F49C01E62EE7018A
:1007F0007E01F72EE70180E090E00BC01196ED91AD
:10080000FC911297E40FF51FE80FF91FE491E993AB
:10081000019613964D915C9114978217930770F38C
:10082000420F531F14965C934E931397C901DF91A7
:10083000CF91FF90EF900895A2E0B0E0E2E2F4E003
:100840000C945D296B01E82FF92F9E2F8F2F21919A
:100850002032D9F300D000D000D0EDB7FEB73196EA
:10086000ADB7BEB711969C93818380E790E09383E8
:100870008283CE010196958384830E943023EDB755
:10088000FEB736960FB6F894FEBF0FBEEDBF8130AF
:10089000910591F5E980FA8000E010E04BE6A42E86
:1008A00040E0B42ED7012D917D0100D000D000D0C2
:1008B000EDB7FEB73196C801880F991F8C0D9D1DAD
:1008C000ADB7BEB712969C938E931197B382A28256
:1008D000248315820E9410230F5F1F4FEDB7FEB7D0
:1008E00036960FB6F894FEBF0FBEEDBF003111056E
:1008F000C9F620E230E002C02FEF3FEFC901229697
:10090000EAE00C9479291F93CF93DF9389E087BFA6
:10091000E0E0F0E0149187BFE3E0F0E0349187BFBE
:10092000E2E0F0E0249187BFE1E0F0E0E4918DB7F0
:100930009EB70E970FB6F8949EBF0FBE8DBFADB792
:10094000BEB71196CDB7DEB77A83698313965C93F1
:100950004E93129783E790E015969C938E9314978D
:1009600016961C93169717961C92179718963C93F9
:10097000189719961C9219971A962C931A971B96EA
:100980001C921B971C96EC931C971D961C920E9420
:10099000E2222DB73EB7225F3F4F0FB6F8943EBF1D
:1009A0000FBE2DBFDF91CF911F91089500D000D0D1
:1009B00000D0EDB7FEB73196ADB7BEB712967C93B7
:1009C0006E9311975383428385E990E095838483E6
:1009D0000E94E2222DB73EB72A5F3F4F0FB6F89430
:1009E0003EBF0FBE2DBF0895FC018081882341F4D6
:1009F0008091E10082608093E10020E030E002C05D
:100A00002FEF3FEFC90108958091E100846080934A
:100A1000E10080E090E00895A4E0B0E0E2E1F5E0DC
:100A20000C94632981EF90E060E070E046E050E0D4
:100A30000E94BD278E010F5F1F4FC80166E070E066
:100A400044E050E00E94BD2789819A819093D202B0
:100A50008093D1028B819C819093D4028093D302A6
:100A6000C8016AE070E044E050E00E94BD2789813F
:100A70009A819093CE028093CD028B819C8190933A
:100A8000D0028093CF02C8016EE070E044E050E0F5
:100A90000E94BD2789819A819093CA028093C902DE
:100AA0008B819C819093CC028093CB022496E4E0CE
:100AB0000C947F29C4988AE335DE80E033DEC49A43
:100AC00008951F93182FC4988AE72CDE812F2ADE01
:100AD000C49A1F910895C4988FEF24DE8FE39FE19D
:100AE0000197F1F700C00000C49A08951F93182FD2
:100AF0008FE163E040EA09D0612F63708FE140E845
:100B000004D010937C001F910895A1E0B0E0EBE8C1
:100B1000F5E00C946329182F062F282F30E0F901F7
:100B2000EF71F070EB31F1058CF42076307085E0D8
:100B3000359527958A95E1F7E0917C00F0E02E1736
:100B40003F0721F0822F4983D1DF4981C498812F4B
:100B50008F71842BE7DD802FE5DDC49A2196E4E0D8
:100B60000C947F290F931F93182F062F282F30E006
:100B7000A9014F7150704B3151057CF420763070D3
:100B800095E0359527959A95E1F740917C0050E0E6
:100B90002417350711F0822FA9DFC498812F8F7198
:100BA0008064C0DD802FBEDDC49A1F910F9108952F
:100BB000A1E0B0E0EEEDF5E00C946529682F82E04D
:100BC0009983D0DF83E09981692FCCDF2196E2E021
:100BD0000C948129A1E0B0E0E0EFF5E00C946529E8
:100BE000682F80E09983BEDF81E09981692FBADFA9
:100BF0002196E2E00C9481291F93182F282F30E0D2
:100C0000A9014F7150704B3151057CF42076307042
:100C100045E0359527954A95E1F740917C0050E0F5
:100C20002417350711F0822F61DFC498812F8F714F
:100C300079DD80E077DD17FF02C080E073DDC49AC4
:100C40001F910895A1E0B0E0E8E2F6E00C94642979
:100C5000982F162F84ED692F798384DF86ED612F1D
:100C600081DF87ED7981672F7DDF8AEEC5DF80FD2B
:100C7000FCCF2196E3E00C9480291F93682F84ED2C
:100C800071DF82ED61E040E840DF8AEEB5DF80FD94
:100C9000FCCF82ED61E040EA38DF88EDADDF182F50
:100CA00089EDAADF582F40E0212F30E0242B352B8F
:100CB000C9011F9108958FEF80937F000CDF88E0BA
:100CC00060E050DF89E060E04DDF8AE06FEF4ADFEF
:100CD0008BE06FE047DF84E060E044DF85E060E1C7
:100CE00041DF8CE060E03EDF8DE060E03BDF8EE0E6
:100CF00060E038DF8FE060E035DF1092E4001092B2
:100D0000E30081EC60E840EA00DF80EC6DE040E861
:100D1000FCDE82EC62E340E8F8DE80E060E070E058
:100D200091DF80E0AADF90FF07C082EC61E040E83D
:100D3000ECDE84EC62E106C082EC61E040EAE5DED4
:100D400084EC65E10FDF86EC62E10CDF87EC6CE0A0
:100D500009DF8AEC68EF06DF8BEC61E003DF84EEED
:100D60006091F100FFDE85EE6091F200FBDE82EE25
:100D70006091F300F7DE83EE6091F400F3DE80EE25
:100D80006091F500EFDE81EE6091F600EBDE88E326
:100D900063E8E8DE84E162E17CE054DF8BE16BED47
:100DA000E1DE82E162E170E04DDF8FE164E040E886
:100DB000ACDE8EE160E840E8A8DE10927F00089586
:100DC00080917F008823A9F482EC16DF827382333E
:100DD00031F080917D008F5F80937D006CDF80EC2F
:100DE0000BDF8D3031F080917E008F5F80937E002D
:100DF00062CF0895A4E0B0E0E0E0F7E00C945F2952
:100E000089E3FADE882309F48AC08091E300909197
:100E1000E400E0DE4FDE082F4DDE382F20E0802F8B
:100E200090E0822B932B9093E4008093E3008E015B
:100E30000F5F1F4F25E0E22EF12CEC0EFD1E3ADE77
:100E4000F80181938F01EE15FF05C9F789819A8119
:100E50008C01045010401A8309834297F1E0873EC9
:100E60009F0710F028DF5BC0EE24FF2495EDC92E0C
:100E700092E0D92E1FDEF60181936F010894E11CE8
:100E8000F11CE016F106B0F31093F0000093EF00B0
:100E90008091E1029091E202982789279827F8E053
:100EA00080309F0769F028E086309207B1F40E94F5
:100EB000E3128091EF009091F000009771F00CC068
:100EC0000E94B91281E0B1D38091EF009091F000BF
:100ED000009719F00E94C41367D06091E3007091ED
:100EE000E400CB010197E0E180309E0730F08CE018
:100EF0006FEF38DE8DE06FE00DC061508CE032DEC8
:100F00006091E3007091E40061507040672F770FAB
:100F1000770B8DE027DE8EE160E440E8F6DD249675
:100F2000E8E00C947B291F9389E366DE882309F4AB
:100F300039C08CE161DE182F8BE160E840EAE5DD25
:100F400014FF04C083E199DE81E197DE13FF08C03E
:100F50008CE168E040EAD9DD8DE16AE040EAD5DD68
:100F60009FB7F8948091A002882329F488E08093A9
:100F7000A00280E001C081E09FBF882399F43ADF9E
:100F80001092A00210FF04C08CE161E040EABDDDD8
:100F900011FF04C08CE162E040EAB7DD8BE160E85C
:100FA00040E8B3DD1F9108950F931F93CF93DF9314
:100FB00004E68FE121DE83FD04C0002309F438C07C
:100FC00002C00150B0F784E060E0CCDD85E060E174
:100FD000C9DD86E06091EF00C5DD2091EF00309122
:100FE000F0002050304F87E0632FBCDD80E090E1BF
:100FF000DFDD80E066DD05ED12E0C0E0D0E005C099
:10100000F80181918F015DDD21968091EF00909133
:10101000F000C817D907A0F38FE160E840E875DD5C
:101020008FE160E840EA71DD8FE168E040E86DDD66
:10103000DF91CF911F910F910895969A8E981092FB
:10104000E500089591B3982B91BB92B3282F20957A
:10105000922392BBE0E8F7E03197F1F792B3982B37
:1010600092BB91B3922391BBE8E6F1E03197F1F79F
:1010700090B3E8E1F6E03197F1F720B32823982305
:101080009095822F8923089522B3982F90959223CB
:1010900092BBE0E5F1E03197F1F792B3982B92BB68
:1010A000089591B3982B91BB92B3282F209592234A
:1010B00092BBE4E0F0E03197F1F792B3982B92BB4A
:1010C00092B3982B92BB91B3922391BBE8E3F0E0EB
:1010D0003197F1F790B3E4E0F1E03197F1F721B304
:1010E000282B21BB982381E009F480E00895662332
:1010F00009F0D7CFC9CFEF92FF920F931F93CF93F1
:10110000DF93F82EE62E81B38F2981BBC0E0D0E0BB
:1011100001E010E098010C2E02C0220F331F0A9448
:10112000E2F76E2D62238F2DE2DF2196C830D105C4
:1011300089F7CDB7DEB7E6E00C947D290F931F93B6
:10114000CF93DF93082FC0E0D0E010E0802FA9DF1D
:10115000282F30E00C2E02C0220F331F0A94E2F732
:10116000122B2196C830D10589F7812FDF91CF91BD
:101170001F910F91089580E465DF882329F080E4B2
:101180006CECB9DF81E008958FEF0895A1E0B0E045
:10119000ECECF8E00C945F29082FE92E80E452DF94
:1011A000882331F180E465E5A6DF1E2D20E091E083
:1011B000E92EF12C1AC0C7010C2C02C0880F991F10
:1011C0000A94E2F7F8016081682380E429838FDFC5
:1011D0000894C11CD11C2981F8E0CF16D10459F71D
:1011E0002F5F0F5F1F4F283029F0CC24DD24E3CF81
:1011F0008FEF01C081E02196E8E00C947B29562F07
:10120000577021E030E001C0220F5A95EAF7669549
:1012100066956695322F3095FC01E60FF11D8081B1
:1012200038233083442311F0232B20830895A0E03A
:10123000B0E0EDE1F9E00C945F29F82E6623A1F00F
:101240008FEF8093E6001092E7001092E800109272
:10125000E9001092EA001092EB001092EC0010925C
:10126000ED001092EE0004C08091E60087FD60C0A2
:101270008F2DE8DE882309F459C08F2D60EF3BDF06
:10128000C0E0D0E0EE24EA9401E010E0CC2E8F2DF7
:1012900008DFD82E8F2D05DF880F8D29833009F4C4
:1012A00047C0882379F52091E600332727FD309544
:1012B000C217D30741F487EE90E06C2F41E09FDF27
:1012C000DD24D39424C02C173D073CF487EE90E036
:1012D0006C2F40E094DFEC2E1AC0C694C694C694DE
:1012E000EC2DF0E0EB51FF4F9E0127703070C801EC
:1012F00002C0880F991F2A95E2F7D280D82239F4CC
:10130000EC2E05C087EE90E06C2F4D2D78DF81B379
:101310008F2981BB8F2D6D2DEADE2196C034D1053A
:1013200009F0B4CFE092E60081E003C08FEF01C086
:1013300080E0CDB7DEB7E8E00C947B29FC0120818A
:10134000203149F0223251F081E090E0283241F022
:1013500080E090E0089581E090E0089581E090E0E1
:1013600008951F93CF93DF93EC01162F009711F48C
:1013700002DF05C0E3DF8823D1F0CE0107DF87FD60
:1013800019C080E464E4B7DE8E9A969A112389F03E
:101390008FEF9FE0A7E281509040A040E1F700C0AE
:1013A000000080E47EDE8823E1F381E003C08EEF5D
:1013B00001C080E0DF91CF911F910895FF920F93BC
:1013C0001F93CF93DF93EC018B01009711F4D3DED1
:1013D00005C0B4DF8823C1F0CE01D8DE87FD17C079
:1013E00080E46EEB88DEE80129E0F22E80E4A6DEE0
:1013F0008993FA94D9F7F801F084C80168E09ED87F
:10140000F81621F481E003C08DEF01C08EEFCDB757
:10141000DEB7E5E00C947E29FB01DC018C91803184
:10142000B9F4678170E0208131812E7F3695322FAB
:10143000222737952795205430408681AB01481BE1
:101440005109942F80E00E942029260F371F0EC0DB
:10145000823211F0883241F42081318144E0220F40
:10146000331F4A95E1F702C02FEF3FEFC9010895FE
:10147000FC014381460F40938300872F99272281E7
:10148000280F20938200A181A09381005081509366
:10149000800030E02817390748F48A2F8F5F809347
:1014A0008100882319F45F5F50938000842F90E0BF
:1014B00070708617970798F4809182008F5F8093F1
:1014C0008200882361F4809181008F5F8093810086
:1014D000882329F4809180008F5F80938000089595
:1014E0009C0141505040460F571FDB0110C0FC913A
:1014F000E0E011968C911197BF01680F711D260FC6
:10150000371F2617370710F42F5F3F4F1296A41787
:10151000B50768F3A417B50749F49C9180E0280F3C
:10152000391F2817390710F42F5F3F4FC90108955D
:1015300080E090E063EE72E044E150E0D1DF00979C
:1015400019F0382F292F02C02FEF3FEFC90108955E
:10155000BC018091060190910701089689DFE09116
:101560000601F091070180918000808780918100C1
:10157000818780918200828780918300838708958C
:10158000CF93DF939091E602C92FD0E0649730911A
:10159000E50220E0C20FD31F9E01280F311DC901B3
:1015A0006FEE72E048E050E09BDF67EF72E0AE0163
:1015B00097DF009719F0382F292F02C02FEF3FEF48
:1015C000C901DF91CF910895E1EAF2E01182108222
:1015D000349682E0E93CF807C9F710922301109293
:1015E000AB011092330280E094E09093FF0080936F
:1015F000FE000895A1EAB2E0E0E0F0E02D913C9118
:1016000011972115310559F4EE0FFF1FEE0FFF1F43
:10161000EF55FD4F918380837383628308953196E4
:101620001496EA30F10551F70895A0E0B0E0EBE13F
:10163000FBE00C945D292BE033E03093050120930F
:1016400004013093FC002093FB00C0910601D0916F
:101650000701833079F48B8D8F70833009F0DDC5FD
:1016600088899989009709F0D8C588E08093FD00A2
:10167000FE0182C4823009F0A4C0809103018F5F13
:1016800080930301882399F4809102018F5F8093F6
:101690000201882361F4809101018F5F8093010131
:1016A000882329F4809100018F5F809300011092BC
:1016B000F0001092EF001092CC041092CB048B8DAE
:1016C000873011F0853041F48C8D8F5F8C8F883797
:1016D00009F0A3C51B8EA1C5882309F49EC52889DE
:1016E00039892115310509F464C09C8D292F2150B9
:1016F0002C8F992309F091C59D8D983031F0282FBA
:1017000021502230A0F4953091F41B8E80E8809314
:10171000FD00E0910601F0910701EA57FF4F0190AB
:10172000F081E02D309709F438C4099536C495301E
:1017300048F423E030E0092E02C0220F331F0A9440
:10174000E2F701C020E32C8F9F5F9D8F90E08F70A8
:10175000907083309105E1F0843091054CF4813034
:10176000910509F433C28230910509F056C50DC0C8
:101770008630910509F4AEC38830910509F4AAC3F7
:101780008430910509F049C5A5C31092040321C214
:1017900084E08093FD00E0910601F0910701EA5793
:1017A000FF4F0190F081E02D309709F428C409958E
:1017B00026C48F70833009F030C588E08093FD0027
:1017C000D7C37AECE72E7FEFF72EE20EF31E8701E8
:1017D000025F1F4F8091E302853409F01EC590918E
:1017E000E50280E02091E6026C01C20ED11C8091DE
:1017F000EF009091F0008C159D0508F40EC5D09275
:10180000F000C092EF008091E90290E08F73907039
:10181000009709F002C58091EA02882309F0FDC40F
:10182000C091F302D091F4028091D1029091D20242
:10183000C817D90709F0F1C4A090F502B090F602DC
:101840008091D3029091D402A816B90609F0E5C49C
:101850006FDE2FEF8F3F920709F0DFC48091EC021B
:10186000863071F1813009F0D8C4E3EEF2E0809166
:10187000F702883009F0D1C4148A8091F90290915E
:10188000FA026FEF873F960710F0099601C008969D
:10189000978B868B8091EF029091F0029093F402E7
:1018A0008093F3028091F1029091F2029093F602FC
:1018B0008093F502F701D38FC28FB58EA48EB1C489
:1018C00086E05EDEFFEF8F3F9F0709F0A6C4C8E009
:1018D000D1E04B8D442329F12091F9023091FA0295
:1018E0008C819D8128173907E1F42091F70230910E
:1018F000F8028E819F812817390799F42091EF0211
:101900003091F002888199812817390751F420918C
:10191000F1023091F2028A819B812817390709F47C
:101920006FC1C857DF4F22E0C03AD20791F68091CD
:1019300004038F73823099F42091F9023091FA02F6
:10194000E1EAF2E0DF018D919C91119728173907A8
:1019500009F466C0149662E0A93CB607A1F780912D
:10196000040382FD5AC484E1F80181A388E290E077
:101970009093F0008093EF0080E580A38091FE02B9
:1019800090910203938F3091FD0290910103928F09
:10199000368F2091FC0290910003918F258F9091BA
:1019A000FB024091FF02408F948F8F5F878F8823C7
:1019B00061F4832F8F5F868F882339F4822F8F5FA6
:1019C000858F882311F49F5F948F8091F702909107
:1019D000F8022091F9023091FA02F801358B248B3C
:1019E000978B868B8091EF029091F0029093F40296
:1019F0008093F3028091F1029091F2029093F602AB
:101A00008093F5028091D1029091D202F701938FD9
:101A1000828F8091D3029091D402958F848FD0C30E
:101A2000A3E2B1E080E090E0C0E0D0E068E870E0E0
:101A3000482F5C91552369F450E088E890E0489F76
:101A4000E001499FD00D589FD00D1124C85FDE4F93
:101A500019C0573089F4209731F011965C91119795
:101A60004C8D451748F4869FE001879FD00D969FC7
:101A7000D00D1124C85FDE4F0196A857BF4F8330A9
:101A80009105B1F6209709F4C8C3D0930701C0931C
:101A9000060180E090E0408151812417350781F4F0
:101AA000DE01AA57BF4FFC01EE0FFF1FEE0FFF1F15
:101AB000EF55FD4F8281938111969C938E9305C0C3
:101AC000019634968A30910531F783E08C8F8A8FA6
:101AD000188E84E0898F1D8E1B8A1A8A8091F902E4
:101AE0009091FA029D838C838091F7029091F80285
:101AF0009F838E838091EF029091F0029983888377
:101B00008091F1029091F2029B838A8381E08B8F16
:101B1000809100018C87809101018D878091020165
:101B20008E87809103018F8781E090E0998B888B6D
:101B30008091FE028B878091FD028A878091FC0252
:101B400089878091FB02888781E090E001DD8091A8
:101B50000303282F30E0207F307021353105B4F1A8
:101B600082958F7090E00597880F991F880F991FB5
:101B700040E027C0F901EB52FD4F56A9552331F142
:101B8000513011F44F5F1DC05230A1F457A95430A9
:101B900089F430AD20E081AD90E0822B932BF1E011
:101BA0008F3B9F0710F08EEB91E09D8B8C8B9F8B72
:101BB0008E8B0CC02B523D4FF90127A9222331F007
:101BC000420F242F30E028173907A4F280E18093D8
:101BD0000403E3EEF2E080910403826081A382E0DB
:101BE00080A784E081A781E082A78EEB83A78CE2A7
:101BF00090E09093F0008093EF0080E680A397C27E
:101C0000D0930701C09306011092FD008091040358
:101C100090E082FF09C01B8E80E28093FD00CA57CE
:101C2000DF4FE881F98123C22091030322952F70B1
:101C3000220F220FB601621B71099B012451304013
:101C40003093F0002093EF004F70423031F4AC013C
:101C50004F7350704231510509F12115310531F4AE
:101C60009C012370307021153105C1F03091FB02C9
:101C70002885321709F04FC23091FC0229853217AE
:101C800009F049C23091FD022A85321709F043C29A
:101C90003091FE022B85321709F03DC284FF49C006
:101CA000688979896115710509F443C0CE010C96E4
:101CB000DFDB3091FF02809180003817D1F5209151
:101CC0000003809181002817A1F590910103809174
:101CD0008200981771F58091020340918300841768
:101CE00041F53C872D879E878F878D8D8823D1F482
:101CF000288D8A8D9C8D891B922F96959695969509
:101D0000891B280F288F87FD8195998D392F36954E
:101D10003695931B980F998F822F86958695869579
:101D2000890F8A8F81E08093FD008A8D8C8F198ABC
:101D3000188A2B8D30E0F901EF70F0703197E830A0
:101D4000F10508F06AC2E65DFF4F0C948C29809182
:101D5000FD0080FF62C283E08B8F80E48093FD00F2
:101D6000198A188A8091EF009091F000009709F489
:101D7000FBC022E42093FD00EBDBF6C08091FD0068
:101D800080FF60C0809104038F73823109F05AC0D4
:101D900080910303282F30E0207F307021353105FA
:101DA000B4F182958F7090E00597880F991F880F86
:101DB000991F40E027C0F901EB52FD4F56A955236A
:101DC00031F1513011F44F5F1DC05230A1F457A9C9
:101DD000543089F430AD20E081AD90E0822B932B1C
:101DE00071E08F3B970710F08EEB91E09D8B8C8B11
:101DF0009F8B8E8B0CC02B523D4FF90127A92223BC
:101E000031F0420F242F30E028173907A4F283E085
:101E10008B8F8091FB0288878091FC02898780915B
:101E2000FD028A878091FE028B8781E090E090DB43
:101E300082E48093FD00198A188A1092F0001092B3
:101E4000EF0092C080E28093FD00E0910601F091E6
:101E50000701EA57FF4F0190F081E02D309709F01C
:101E60000995E0910601F0910701138E78CD8091DC
:101E7000040380FF33C024FD31C08889998900970D
:101E800009F0CBC18091EF009091F000019660DBEA
:101E90002091FD00822F80618093FD008091EF00F2
:101EA0009091F000009719F022612093FD00E091DD
:101EB0000601F0910701EA57FF4F0190F081E02DF4
:101EC000309709F0099581E090E0998B888B88E044
:101ED0008B8F1D8E81E18093040320C185FF1CC080
:101EE0005091090340E080910A0390E0842B952BE8
:101EF0004091040150910501480F591F509305016D
:101F0000409304014091EF005091F000481B590BA1
:101F10005093F0004093EF008091EF009091F0001B
:101F2000009741F024FD06C02091FD00226020931F
:101F3000FD000EDB3091050320E080910603280FA1
:101F4000311D8E899F898217930720F02115310555
:101F500009F0C9019D8B8C8B8091FD0090E083700E
:101F60009070009709F459C11092CC041092CB04E0
:101F7000E0910601F0910701EA57FF4F0190F081CF
:101F8000E02D309709F009958091FD0085FF07C08D
:101F90001092CC041092CB041B8E84E19CCF84FF62
:101FA0000AC01092CC041092CB0481E090E0998B8F
:101FB000888B84E08DCF2091CB043091CC04211507
:101FC0003105E1F080FF02C0198A188A8889998951
:101FD000009781F48C899D898217930720F4909350
:101FE000CC048093CB048091CB049091CC04998B4A
:101FF000888B04C09093CC048093CB041D8E809179
:10200000FB009091FC009093050180930401809166
:10201000CB049091CC04009759F088899989009756
:1020200039F088969093F0008093EF0088E10BC020
:102030008091FD0081FFF1C088E290E09093F00074
:102040008093EF0080E1809304036EC08091FD00D7
:1020500080FFE3C01B8E80E18093FD00E0910601CC
:10206000F0910701EA57FF4F0190F081E02D309782
:1020700009F4D3C00995D1C08091EF009091F00090
:10208000009709F065DA909104038091FD0090FFBC
:102090000BC080FF06C087E08B8F1C8E198A188AC0
:1020A00018C086E08B8F15C080FF26C085E08B8F1F
:1020B000198A188AB2C08091EF009091F0000097C1
:1020C00009F046DA8091040380FF16C087E08B8F09
:1020D0001C8E81E090E03CDA80E18093FD00E0918D
:1020E0000601F0910701EA57FF4F0190F081E02DC2
:1020F000309789F009950FC08091EF009091F00022
:10210000009749F48AC08091FD0080FF86C087E077
:102110008B8F1C8E82C080E1F80181A388E290E061
:102120009093F0008093EF0080E580930303E3EE4B
:10213000F2E08885848F8985858F8A85868F8B8557
:10214000878F8C85808F8D85818F8E85828F8F85FF
:10215000838F86E081878C819D81958B848B8E8196
:102160009F81978B868B8091D1029091D202909320
:10217000F0028093EF028091D3029091D402909369
:10218000F2028093F102888199819093F402809306
:10219000F3028A819B819093F6028093F5028B8DE6
:1021A00084FF03C013A212A20BC08A899B890097E7
:1021B00019F092A38A8903C081E082A38EEB83A3E6
:1021C000C3EED2E080E488878091EF009091F00028
:1021D0009A838B831FA21EA21DA21CA286E0D0D9C7
:1021E000809590959DA38CA385E48093E30219824A
:1021F0001F821E82809184009091850001969093A9
:102200008500809384009C838D831B861A8690D9D9
:10221000809590959B878A8704C01092F000109259
:10222000EF001092FD00CDB7DEB7EAE00C947929FB
:10223000AC019B011616170684F46093CB0430930F
:10224000CC046091FB007091FC008617970729F081
:10225000CB01BA01A9010C9480220895CF93DF939A
:10226000FC010097E9F400D000D000D0EDB7FEB734
:102270003196ADB7BEB712967C936E931197538388
:10228000428380E690E0958384830E94B422CDB798
:10229000DEB726960FB6F894DEBF0FBECDBF40C0A6
:1022A0002DB73EB72E5030400FB6F8943EBF0FBE4C
:1022B0002DBFADB7BEB71196CDB7DEB77A836983B0
:1022C00013965C934E9312978DEA90E015969C932B
:1022D0008E931497808116968C93169717961C925E
:1022E0001797818118968C93189719961C921997B5
:1022F00082811A968C931A971B961C921B97838146
:102300001C968C931C971D961C920E94E2222DB75E
:102310003EB7225F3F4F0FB6F8943EBF0FBE2DBFB2
:10232000DF91CF9108956115710589F12DB73EB701
:102330002C5030400FB6F8943EBF0FBE2DBFEDB706
:10234000FEB73196ADB7BEB712969C938E93119798
:1023500089E990E09383828375836483CB0101963E
:1023600097838683CB010296918780876D5F7F4F2D
:10237000738762870E9430232DB73EB7245F3F4F9B
:102380000FB6F8943EBF0FBE2DBF843011F08FEF13
:10239000089580E00895FF920F931F93CF93DF93EA
:1023A000FC01A6E8B0E0ED0180E090E048815981B1
:1023B0004115510589F12A813B812115310561F1D2
:1023C000008111810417150739F5428153814217A5
:1023D000530711F52BE030E0829FF001839FF00D51
:1023E000929FF00D1124E657FF4F262F372FD9016A
:1023F00026E00D9001922150E1F72BE030E0829F22
:10240000F001839FF00D929FF00D1124EA57FF4FCA
:102410008091DE00828761C001962B9688309105FD
:1024200029F680E090E02BE030E0829FE001839F7E
:10243000D00D929FD00D1124CA57DF4F4D915C9162
:1024400011974115510539F412964D915C911397EE
:102450004115510571F1482F4F5F01961B96883049
:10246000910519F7483029F51091DE00812F90E091
:10247000A0E9B0E020E000E030E0FC90EC01CF19F2
:10248000D109402F50E04C175D071CF4012F0F19A4
:10249000232F3F5F1B96383081F730E08BE090E0D0
:1024A000289FE001299FD00D389FD00D1124CA57D5
:1024B000DF4F80819181A281B381FE01819391934D
:1024C000A193B193862F972FDC0186E00D900192A6
:1024D0008150E1F78091DE008A87CDB7DEB7E5E075
:1024E0000C947E2980E090E02BE030E0829FF001A8
:1024F000839FF00D929FF00D1124EA57FF4F108239
:1025000011821282138201968830910579F708951D
:102510008091DE008F5F8093DE00E6E8F0E080E0EF
:1025200090E04BE050E02281338160817181262B65
:10253000372B21153105B9F02091DE0030E062859E
:10254000261B31092837310574F0849FD001859FFF
:10255000B00D949FB00D1124AA57BF4F1D921D922C
:102560001D921C92139701963B9688309105D9F6DF
:1025700008958091EF029091F0022091D102309164
:10258000D202822793272091CD023091CE0282235E
:1025900093230097B9F48091F1029091F202209177
:1025A000D3023091D402822793272091CF02309119
:1025B000D00282239323009729F48FEE92E06BEDF3
:1025C00072E0E9CE08958091EF009091F0008A3298
:1025D000910528F41092F0001092EF0008951092E7
:1025E000F0001092EF008091E9029091EA0221E060
:1025F0008030920731F022E08030920709F090C0DD
:1026000074C02091FB023091FC028091D102909124
:10261000D2022817390709F083C02091FD023091BA
:10262000FE028091D3029091D4022817390709F055
:1026300077C081EF92E06BEE72E0ADDE80E092E079
:102640009093EA028093E902E5EFF2E0DF011A9746
:1026500086E00D9001928150E1F7ABEEB2E0E1EF40
:10266000F0E086E001900D928150E1F7ABEDB2E031
:10267000E1EFF0E086E001900D928150E1F7E5EDA9
:10268000F2E0DF01909686E00D9001928150E1F733
:102690008091FB029091F1029093FB028093F102F2
:1026A0008091FC029091F2029093FC028093F202DE
:1026B0008091FD029091F3029093FD028093F302CA
:1026C0008091FE029091F4029093FE028093F402B6
:1026D00088E096E09093E2028093E1028AE290E043
:1026E0009093F0008093EF0008952091FB023091C9
:1026F000FC028091D1029091D2022817390781F40F
:102700002091FD023091FE028091D3029091D4027B
:102710002817390729F481EF92E06BEE72E03BCE87
:1027200008950F931F93CF93DF93DC018D919C91BC
:102730001197E6E8F0E040E050E00BE010E0409F49
:102740009001419F300D509F300D11242A573F4F6B
:10275000608171818617970749F41296CD91DC91BB
:10276000139762817381C617D70741F04F5F5F4FA0
:102770003B964830510519F720E030E0C901DF9160
:10278000CF911F910F910895A4E0B0E0EAECF3E13E
:102790000C9465298091F302805EE5EDF2E08031D2
:1027A00088F481E08093D50211828EE58283809146
:1027B000F4028F7783838091F50284838091F602FF
:1027C0008583DAC06091D1027091D2024091CD022E
:1027D0005091CE029A0120953095262B372B80916F
:1027E000F3029091F4028217930799F48091CF023B
:1027F0009091D002809590952091D3023091D4028F
:10280000822B932B2091F5023091F602281739077D
:1028100081F02091F3023091F4028FEF2F3F3807BF
:1028200091F48091F5029091F602EFEF8F3F9E07B1
:1028300051F4A5EDB2E0E5E7F0E086E001900D92FD
:102840008150E1F799C0C9018627972784239523F2
:10285000009791F44091F5025091F6028091D302D5
:102860009091D402842795276091CF027091D00275
:1028700086239723009769F08091C9029091CA023C
:102880009A8389838091CB029091CC029C838B8325
:1028900004C03A8329835C834B83CE01019641DFD8
:1028A000009709F060C085ED92E06FEF70E046E0C0
:1028B00050E00E948922A5EFB2E086E0FD0111926E
:1028C0008A95E9F75A97E1EFF0E086E001900D92E2
:1028D0008150E1F7ABEEB2E0E1EFF0E086E001908D
:1028E0000D928150E1F789819A819093FC02809347
:1028F000FB028B819C819093FE028093FD0280916C
:10290000D1029091D2029093F2028093F1028091D1
:10291000D3029091D4029093F4028093F30280E06A
:1029200091E09093EA028093E9029093E40280930D
:10293000E30288E090E09093E6028093E50286E06F
:102940008093E70284E08093E80288E096E0909329
:10295000E2028093E1028AE290E09093F00080939B
:10296000EF0081E022C0A5EDB2E0FC01349686E0E4
:1029700001900D928150E1F7ABEDB2E0E1EFF0E0B4
:1029800086E001900D928150E1F788E090E090930D
:10299000E2028093E1028091EF009091F0000E96A8
:1029A0009093F0008093EF0080E02496E2E00C9496
:1029B00081296F927F928F929F92BF92CF92DF92E6
:1029C000EF92FF920F931F93CF93DF936C01EB0174
:1029D0003A01FC0101900020E9F73197E81BF90B5F
:1029E000E230F10508F448C0BB240B2D10E0000FC5
:1029F000111F000F111FF801EE5DFB4F859194919F
:102A00007C010097E9F00E9444224C01C601B70105
:102A1000A4010E941C22009749F40C5D1B4FF80191
:102A200085919491FC01009719F40AC0B394DDCF0D
:102A3000C601880D991DBE01A30109959C0102C024
:102A40002FEF3FEF2097D1F08FEF2F3F380751F452
:102A5000CE016CEB70E04BE050E00E9429222BE0AD
:102A600030E00CC02115310549F48FE488838BE4F4
:102A7000898322E030E002C020E030E0C901DF912C
:102A8000CF911F910F91FF90EF90DF90CF90BF906B
:102A90009F908F907F906F9008952DB73EB72850EC
:102AA00030400FB6F8943EBF0FBE2DBFEDB7FEB756
:102AB0003196ADB7BEB712967C936E931197538340
:102AC000428389EB90E09583848385E690E0978349
:102AD00086830E94E2222DB73EB7285F3F4F0FB694
:102AE000F8943EBF0FBE2DBF0895A2E0B0E0EBE723
:102AF000F5E10C945D295C016B017A01DC018C919C
:102B0000873121F087E18C9311961C92F501818128
:102B1000E82FF0E0EE0FFF1FEE0FFF1FEE5DFB4F03
:102B20008F5FD50111968C9325913491B901C9011C
:102B300029837A830E944422082F192F69817A8180
:102B4000E016F10608F48701C601A8010E942922B7
:102B5000D5011196EC911197F0E0EE0FFF1FEE0FEB
:102B6000FF1FEE5DFB4F85919491009731F086EF4A
:102B70009FEFFC01E01BF10B8F01C8012296EAE0F8
:102B80000C9479290E94E90280E090E008958AE09F
:102B90009DE862E776E10C94FA0A0F931F93CF93B6
:102BA000DF93C0910601D0910701FE01E05BFF4F6A
:102BB000408102E310E0041B110901151105D9F051
:102BC0008091EF009091F0000817190708F08C0130
:102BD0009E01225E3F4F240F311D609104017091D0
:102BE0000501C901A8010E948022FE01E05BFF4FA0
:102BF0008081800F80838E01025E1F4FFE01E05BAB
:102C0000FF4F4081C8016AE070E050E00E947322EB
:102C1000FC01009791F44091EF005091F0008091F9
:102C20000401909105016AE070E00E947322009710
:102C300009F453C0FE01E15BFF4F1082FE0180E00A
:102C400090E0268D2D3009F4168E01963196823350
:102C50009105B9F78E8D813231F4FE01EB57FF4FAC
:102C600081E0808301C080E090E04E96BE016F5A03
:102C70007F4F8C0F9D1F41E350E09BDE2FEF873F7E
:102C800092075CF4FE01EC57FF4F21E0208326EF12
:102C90003FEFA901481B590BCA01181619067CF40D
:102CA000FE01E80FF91FEF5AFF4F2081233219F080
:102CB0002AE020830196FE01ED57FF4F8083FE013D
:102CC000EC57FF4F8081882341F482E3D8011D92A5
:102CD0008A95E9F7C05BDF4F1882DF91CF911F9192
:102CE0000F910895CF93DF93C0910601D091070112
:102CF0008091FD0086FF18C0FE01E05BFF4F10824F
:102D0000FE01ED57FF4F1082FE01EC57FF4F10827E
:102D1000FE01EB57FF4F1082CE014E96FC0182E37D
:102D2000DF011D928A95E9F78091FD0080FF42C086
:102D3000FE01ED57FF4F1082FE01EC57FF4F8081DF
:102D40008823C1F18E8D813231F4FE01EB57FF4FA4
:102D500081E0808301C080E090E04E96BE016F5A12
:102D60007F4F8C0F9D1F41E350E023DEFE01EC57A7
:102D7000FF4FBFEF873F9B074CF421E0208326EFF6
:102D80003FEFA901481B590BCA0105C01082FE0183
:102D9000E05BFF4F10821816190664F4FE01E80F7D
:102DA000F91FEF5AFF4F2AE02083FE01ED57FF4F36
:102DB000019680838091FD0081FF01C0EEDE80914D
:102DC000FD0090E082FD0AC09C0123703070211547
:102DD000310521F4887490700097A1F0FE01ED5741
:102DE000FF4F6081662331F0CE018F5A9F4F70E014
:102DF0001FDA08C0CB57DF4F8881882319F080E1A4
:102E00008093FD00DF91CF9108950F931F93CF938F
:102E1000DF938091FD0080FF04C080E18093FD007E
:102E200061C0E0910401F0910501108280910401DC
:102E3000909105016AED71E00E94322280910401B7
:102E4000909105016AEB72E00E9432220091040128
:102E500010910501E80109900020E9F72197C01BB6
:102E6000D10B86E492E00E94442200D000D000D032
:102E7000EDB7FEB73196C00FD11FADB7BEB71296F2
:102E8000DC93CE93119728EC30E033832283958333
:102E900084830E9410238DB79EB706960FB6F894D0
:102EA0009EBF0FBE8DBF80910401909105016BEC18
:102EB00072E00E943222809104019091050166E443
:102EC00072E00E9432228091040190910501FC0180
:102ED000DF010D900020E9F7BD01615070406E1BCD
:102EE0007F0BA6D9DF91CF911F910F9108950F937A
:102EF0001F93CF93DF938091FD0080FF04C080E19A
:102F00008093FD0061C0E0910401F0910501108201
:102F1000809104019091050163E572E00E943222E4
:102F200080910401909105016AEB72E00E943222C7
:102F30000091040110910501E80109900020E9F7D2
:102F40002197C01BD10B8AEA92E00E94442200D054
:102F500000D000D0EDB7FEB73196C00FD11FADB78E
:102F6000BEB71296DC93CE9311972CEC30E03383EE
:102F70002283958384830E9410238DB79EB7069683
:102F80000FB6F8949EBF0FBE8DBF80910401909143
:102F900005016BEC72E00E94322280910401909155
:102FA00005016AEA72E00E94322280910401909148
:102FB0000501FC01DF010D900020E9F7BD01615022
:102FC00070406E1B7F0B34D9DF91CF911F910F9111
:102FD0000895CF93DF93C1E1D8E180E090E5BE0191
:102FE0000E94FA0A8FE190E4BE010E94FA0ADF9182
:102FF000CF910895E0910601F0910701878D90A18E
:1030000029E18233920761F481A192A1009741F0F6
:103010000E946E20E0910601F091070112A211A218
:103020000895EF92FF920F931F93CF93DF938091B8
:10303000FD0085FD02C087FF01C0DCDF8091FD003F
:1030400084FF01C0D7DF9091FD0096FF09C0E09199
:103050000601F091070110A2178E868D887F868F5A
:1030600091FFA8C0C0910601D09107018F8D98A152
:10307000009719F08E8D81FF9DC08091EF00909197
:10308000F0008A309105B8F0E0900401F09005015D
:10309000C70167EE72E045E050E00E944D220097C4
:1030A00051F487010B5F1F4FC80160E270E00E947E
:1030B0009022009729F485E097E198A38F8F7AC03A
:1030C000DC011C92F7018581882329F4C80160EE98
:1030D00072E00E943D228AED92E00E944422C82FB5
:1030E000D0E0C80164ED72E0AE010E946522009755
:1030F00029F4C8018C0F9D1F05D25CC0C8016FE286
:1031000070E00E94A922E0910601F091070100976A
:1031100029F0DC0111968C91119703C0D701159607
:103120008C9183A3C0910601D0910701C8010E9430
:1031300097039AA389A3E0910601F091070181A169
:1031400092A1009739F5E80109900020E9F721974D
:10315000C01BD10BC00FD11FFE01319780818F3270
:1031600011F08FE28993CE016DEC72E00E943D2256
:10317000E0900601F0900701C8010E949703F70153
:1031800092A381A3E0910601F091070181A192A190
:10319000009719F082E399E10BC0C017D10709F03D
:1031A00021971882E0910601F091070187E797E1E6
:1031B00090A3878F8091FD0090E082FD0AC09C0162
:1031C000237030702115310521F4887490700097B8
:1031D00079F0A0910601B09107015F96ED91FC9105
:1031E0009097309729F05E968C915E9781FF0995B4
:1031F000CDB7DEB7E6E00C947D29E0910601F091B1
:103200000701A1A1B2A184A195A114969C938E93CC
:10321000139760910401709105014489558981A13A
:1032200092A10E94E103BC01009721F480E2809307
:10323000FD00E0CEE0910601F091070184899589B7
:103240006817790718F4868D8460868F84A195A10C
:10325000860F971F97A386A3809104019091050183
:103260000C941811A2E0B0E0E8E3F9E10C946329B2
:103270008091FD0080FF10C0E0910601F0910701F0
:10328000868D80FF05C086A197A195A384A304C065
:103290008160868F15A214A2E0910601F0910701CA
:1032A000868D80FD9CC0E0910401F09105011082A3
:1032B000809104019091050160ED70E00E9432223E
:1032C000E0910601F091070101A0F2A1E02D058136
:1032D00016810115110599F1809104019091050164
:1032E0006AEB72E00E943222809104019091050104
:1032F000FC0101900020E9F73197E81BF90B00D0A1
:1033000000D000D02DB73EB72F5F3F4FE80FF91F19
:10331000ADB7BEB71296FC93EE9311978DEE92E087
:10332000F90193838283158304830E9410238DB750
:103330009EB706960FB6F8949EBF0FBE8DBFE09164
:103340000601F0910701A1A1B2A114961C921E9250
:10335000139781A192A1BE016F5F7F4F42E050E0C1
:103360000E94E103E0910601F091070101A0F2A1A2
:10337000E02D1482138280910401909105016EE288
:1033800072E00E943222E0910601F091070123A130
:10339000283539F4809104019091050164E471E0CD
:1033A0000BC08091040190910501233519F463EF5E
:1033B00070E002C06BE171E00E9432228091040152
:1033C00090910501FC01DF010D900020E9F7BD019E
:1033D000615070406E1B7F0B0E9418110BC082FF62
:1033E00008C08091FD0082FD04C080E18093FD0053
:1033F00001C003DF2296E4E00C947F293091FD00A8
:1034000030FF07C0E0910601F0910701868D8160D1
:10341000868F8091060190910701DC015E962C91C8
:103420005E9720FD24C0E0910401F0910501108217
:10343000809104019091050160ED70E00E943222BC
:10344000809104019091050169E771E00E943222A8
:103450008091040190910501FC01DF010D90002095
:10346000E9F7BD01615070406E1B7F0B49C032FD12
:1034700038C022FF04C080E18093FD0032C0BC014F
:103480006D5A7F4F819640E350E093DABFEF873F5C
:103490009B073CF426EF3FEFF901E81BF90BCF0146
:1034A00011C09C01275F3F4F2930310520F480E196
:1034B0008093FD000895E0910601F0910701268DAB
:1034C0002460268F2091060130910701280F391FB3
:1034D000F901ED5AFF4F8AE080832C5A3F4FD90102
:1034E0001C9280910601909107018D5A9F4FFC011B
:1034F00001900020E9F7BF0161507040681B790B13
:103500000C941811A0E0B0E0E8E8FAE10C9460290E
:10351000EC0100910601109107010F5D1F4F92E32E
:10352000F92E80E2E82E1BC0853229F08B3289F417
:10353000F801E08210C0DB801B82CE01019660E0C2
:1035400070E040E150E063D6F8016083DB822296B0
:1035500002C0F8018083FA940F5F1F4F2196888183
:10356000882319F0FF2001F70CC0FF2051F0F8016B
:103570001082E0910601F09107018EEF99E190A38E
:10358000878FCDB7DEB7E7E00C947C29CF93DF932C
:10359000DB01FC012081222349F13E2F2F2F819155
:1035A0008032D9F3882311F11C92C901E92FF82F39
:1035B0000DC08C918295807F8C9331962881922FBB
:1035C00090539A3008F09750892B8C939F01EF010C
:1035D0008081982F90539A3060F390E08F7D9070A7
:1035E000815490408630910520F302C020E030E005
:1035F000C901DF91CF910895A5E0B0E0E2E0FBE1E1
:103600000C9461297B012FEF2A83E82FF92F5E2F7D
:103610003F2F81918032D9F3873621F0833709F02B
:10362000CBC002C021E001C020E0E52FF32F5E2FC8
:103630003F2F81918032D9F7E52FF32FDF01819160
:103640008032E1F3FD01319611968C91119790E053
:103650008F7D907084349105C1F0853491052CF4F0
:103660008134910509F0A8C00CC08934910529F076
:103670008F34910509F0A0C002C050E007C052E0AD
:1036800005C0FD01349653E001C051E03196CF01F1
:1036900061916032E1F370E06F7D70706E3471059E
:1036A000B4F7BE016F5F7F4F2C834D835B836EDF6A
:1036B0002C814D815B81009709F47EC06981613066
:1036C000A1F0613030F0623041F0633009F074C035
:1036D00008C03FEF09E310E00BC03FEF03E310E049
:1036E00007C03FEB00E310E003C03FE006E310E05B
:1036F0005330E1F48DB79EB70A970FB6F8949EBF8A
:103700000FBE8DBFEDB7FEB73196ADB7BEB71296FF
:10371000FC92EE9211974283138281EF92E095839F
:10372000848366831782309530871EC0050F111D74
:10373000222339F1D8012C91EDB7FEB73A970FB695
:10374000F894FEBF0FBEEDBF3196ADB7BEB712966F
:10375000FC92EE9211974283138281EF92E095835F
:10376000848366831782208711862CD7282F30E028
:10377000EDB7FEB73A960FB6F894FEBF0FBEEDBF99
:103780001DC0BE016F5F7F4F3B8300DF0097A1F03C
:10379000BE016E5F7F4FFADED8019C912A813B818A
:1037A000832F822380958923998192239323892BC8
:1037B0008C9320E030E002C02FEF3FEFC901259647
:1037C000E6E00C947D29FC01DB018081882391F0E7
:1037D0002181222379F0822F90E0883391050CF02B
:1037E0004CC097B1822F8053907F892B87B920E0FE
:1037F00038E006C020E030E087B1807F832B87B9B6
:10380000369A3699FECF84B195B1492F5527BA0122
:103810006F7070704F706A30710510F4405D01C0B8
:10382000495CFD014193AC0164E0569547956A956A
:10383000E1F7BA016F7070704F706A30710510F463
:10384000405D01C0495C4083FD013296AC014F7080
:1038500050708F704A30510510F4805D01C0895C52
:10386000808380E213968C93139714961C922C5F9E
:103870003F5F383008F230E002C02FEF3FEFC90160
:10388000089561157105C9F12DB73EB7205130403B
:103890000FB6F8943EBF0FBE2DBFEDB7FEB7319601
:1038A000ADB7BEB712969C938E93119781E093E0CB
:1038B0009383828375836483CB0101969783868388
:1038C000CB01029691878087CB01039693878287ED
:1038D000CB010496958784876B5F7F4F77876687D8
:1038E000BFD62DB73EB7205F3F4F0FB6F8943EBF0F
:1038F0000FBE2DBF8630910511F08FEF089580E047
:103900000895A7E0B0E0E7E8FCE10C945F297B01B3
:103910006A01E82FF92FCF0121912032E1F38E01C6
:103920000E5F1F4F2223D1F0B801ABDF87FD51C0DE
:1039300080E090E0B80146E050E00E94B8020E94AA
:10394000D402898382E190E0BE016F5F7F4F41E046
:1039500050E00E94B80220E030E03DC0C80160E0C5
:1039600070E046E050E00E94BD278DB79EB74297B9
:103970000FB6F8949EBF0FBE8DBFEDB7FEB7319660
:10398000ADB7BEB71296FC92EE921197D382C28267
:1039900085E293E0958384838A81868317828B8175
:1039A000808711868C81828713868D818487158616
:1039B0008E81868717868F81808B118A03D69C0122
:1039C0008DB79EB742960FB6F8949EBF0FBE8DBFBF
:1039D00002C02FEF3FEFC9012796E8E00C947B2946
:1039E000A1E0B0E0E6EFFCE10C9465292DB73EB70D
:1039F000265130400FB6F8943EBF0FBE2DBFEDB735
:103A0000FEB73196ADB7BEB712969C938E931197C1
:103A100081E893E09383828375836483CB0101966D
:103A200097838683CB01029691878087CB0103968B
:103A300093878287CB01049695878487CB0105966F
:103A400097878687CB010696918B808B695F7F4F26
:103A5000738B628BCE010196958B848B01D62DB72B
:103A60003EB72A5E3F4F0FB6F8943EBF0FBE2DBF44
:103A70008830910541F08930910519F489818032AF
:103A800011F08FEF01C080E02196E2E00C948129D3
:103A9000FF920F931F93CF93DF93EB018A0161E0B5
:103AA0008091E500811160E0FFB6F89480E40E9407
:103AB0001709FFBE91E09093E500813009F04DC0F9
:103AC0004DB75EB7465150400FB6F8945EBF0FBE7B
:103AD0004DBFEDB7FEB73196ADB7BEB71296DC93CA
:103AE000CE9311971383028380E693E095838483BA
:103AF0008091E700868317828091E8008087118695
:103B00008091E900828713868091EA008487158678
:103B10008091EB00868717868091EC00808B118A5C
:103B20008091ED00828B138A8091EE00848B158A40
:103B300049D59C014DB75EB74A5E5F4F0FB6F8940A
:103B40005EBF0FBE4DBF181619065CF486EF9FEFDF
:103B5000DC01A21BB30B9D0104C01092E50020E024
:103B600030E0C901CDB7DEB7E5E00C947E29A1E1D4
:103B7000B0E0EDEBFDE10C945C295B016A01E82FFC
:103B8000F92FCF0121912032E1F37E010894E11C4D
:103B9000F11CB70125DF87FD75C0C7010E949E0992
:103BA000882309F451C09FB6F8948E01075F1F4F18
:103BB000C701B8010E94DE099FBE813009F065C0CF
:103BC000C701B8010E940C0A97FF06C09095819525
:103BD0009F4F2CE630E002C02EE630E04DB75EB7D6
:103BE0004C5050400FB6F8945EBF0FBE4DBFEDB7BE
:103BF000FEB73196ADB7BEB71296BC92AE92119792
:103C0000D382C28247E553E05583448337832683BA
:103C1000292F332727FD30953187208790709C010D
:103C2000220F331F43E0880F991F4A95E1F7280FB1
:103C3000391F20583F4F32871386C4D49C014DB79B
:103C40005EB7445F5F4F18C000D000D000D0EDB722
:103C5000FEB73196ADB7BEB71296BC92AE92119731
:103C6000D382C28283E493E095838483ABD49C01A6
:103C70004DB75EB74A5F5F4F0FB6F8945EBF0FBE99
:103C80004DBF05C02FEF3FEF02C02EEF3FEFC90140
:103C90006196EBE00C947829A8E0B0E0E2E5FEE163
:103CA0000C946329E82FF92FCF0121912032E1F301
:103CB0008E010F5F1F4FB80193DE87FD02C0C80160
:103CC00002C080E090E00FB7F89461E00E94B10973
:103CD000992787FD90950FBF8130910539F02FEF1F
:103CE0008F3F920731F42EEF3FEF05C020E030E028
:103CF00002C02FEF3FEFC9012896E4E00C947F2922
:103D0000A5E0B0E0E6E8FEE10C946329E82FF92F86
:103D1000CF0121912032E1F38E010E5F1F4F22234C
:103D2000D9F0B8010E949311882339F586E090E01C
:103D3000B80144E050E00E94B8020E94D402898396
:103D400082E190E0BE016F5F7F4F41E050E00E9452
:103D5000B80220E030E013C08091D1029091D202ED
:103D60009B838A838091D3029091D4029D838C831C
:103D7000C8010E942E119C0102C02FEF3FEFC90124
:103D80002596E4E00C947F29A5E0B0E0EAECFEE1A2
:103D90000C946329E82FF92FCF0121912032E1F310
:103DA0008E010E5F1F4F2223D9F0B8010E9493119C
:103DB000882339F58AE090E0B80144E050E00E94A1
:103DC000B8020E94D402898382E190E0BE016F5F55
:103DD0007F4F41E050E00E94B80220E030E013C085
:103DE0008091CD029091CE029B838A838091CF02F5
:103DF0009091D0029D838C83C8010E942E119C015A
:103E000002C02FEF3FEFC9012596E4E00C947F2913
:103E1000A5E0B0E0EEE0FFE10C946329E82FF92F74
:103E2000CF0121912032E1F38E010E5F1F4F22233B
:103E3000D9F0B8010E949311882339F58EE090E003
:103E4000B80144E050E00E94B8020E94D402898385
:103E500082E190E0BE016F5F7F4F41E050E00E9441
:103E6000B80220E030E013C08091C9029091CA02EC
:103E70009B838A838091CB029091CC029D838C831B
:103E8000C8010E942E119C0102C02FEF3FEFC90113
:103E90002596E4E00C947F2980E090E008950E944C
:103EA0003A030E9459030C941D080E945B060E946D
:103EB000C7158FC808950F931F93CF93DF938091F9
:103EC000CD04882309F465C01092CD048091DF00F1
:103ED0009091E00001969093E0008093DF009FB7FF
:103EE000F8948091A002882329F488E08093A002AE
:103EF00080E001C081E09FBF882309F04AC0809123
:103F0000DF009091E0006AE070E00E940C290097C9
:103F100011F5C0E0D0E008E810E0C09FC001C19FEB
:103F2000900DD09F900D1124885F9E4F90930701B4
:103F30008093060182E00E94150B8091EF00909122
:103F4000F000009721F00E94C4130E94D40721962C
:103F5000C330D10511F78091DF009091E00062E35A
:103F600070E00E940C29009711F40E94E0068091F5
:103F7000DF009091E00064EF71E00E940C2900974F
:103F800031F41092E0001092DF000E94881210922B
:103F9000A002DF91CF911F910F9108950E94930786
:103FA000A89589DFA8950895CF93DF938230910576
:103FB00010F482E090E0E091D004F091D10440E070
:103FC00050E020E030E026C06081718168177907F9
:103FD000E0F06817790781F482819381211531051A
:103FE00031F0D90113969C938E9312972BC0909326
:103FF000D1048093D00426C04115510519F06417EF
:10400000750718F4AB01E901DF019F01728163813B
:10401000E72FF62F3097C1F64115510501F1481BE6
:10402000590B4430510580F412968D919C91139751
:10403000209719F09B838A8304C09093D1048093C6
:10404000D004FD01329646C0FD01E40FF51F8193B7
:1040500091934250504011965C934E933BC02091F7
:10406000CE043091CF042115310541F42091710027
:10407000309172003093CF042093CE0420917300CE
:10408000309174002115310541F42DB73EB74091B0
:104090006F0050917000241B350BE091CE04F0911D
:1040A000CF04E217F307A0F42E1B3F0B28173907A4
:1040B00078F0AC014E5F5F4F2417350748F04E0F84
:1040C0005F1F5093CF044093CE048193919302C01D
:1040D000E0E0F0E0CF01DF91CF910895CF93DF933F
:1040E000009709F491C0FC0132971382128260910B
:1040F000D0047091D1046115710581F42081318162
:10410000280F391F8091CE049091CF048217930716
:1041100099F5F093CF04E093CE0476C0DB0180E004
:1041200090E002C0CD01D901AE17BF0748F4129646
:104130002D913C91139721153105A1F7CD0121C097
:10414000B383A283EF01499159919E01240F351F3A
:10415000A217B30779F42D913C911197240F351FC5
:104160002E5F3F4F3183208312962D913C91139700
:1041700033832283009729F4F093D104E093D00491
:1041800043C0DC011396FC93EE9312974D915D9121
:10419000A40FB51FEA17FB0769F420813181240FB2
:1041A000351F2E5F3F4FEC013983288322813381F5
:1041B0003B832A83E0E0F0E002C0FB01BC01DB01AD
:1041C00012968D919C9113970097B9F79B012E5FE2
:1041D0003F4F8D919C911197820F931F4091CE0478
:1041E0005091CF044817590779F4309729F4109269
:1041F000D1041092D00402C01382128222503040A7
:104200003093CF042093CE04DF91CF9108952F9265
:104210003F924F925F926F927F929F92AF92BF9226
:10422000CF92DF92EF92FF920F931F93CF93DF9382
:104230003B01EA016115710519F0FB01808391834F
:10424000209739F09E01225030402332310508F08A
:10425000D2C0C82ED92EF60111916F017F01812F96
:1042600090E0E2D00097B9F71D3231F4F6011191D8
:104270007F019924939406C01B3219F4F601119121
:104280007F019924209719F0C031D105D1F4103362
:1042900089F4F7018081883711F0883559F4F701E6
:1042A000118182E090E0E80EF91E92E0992AC0E1C7
:1042B000D0E007C0209729F41033B1F0CAE0D0E075
:1042C0002AC0CA30D10539F1C031D10521F0C8303A
:1042D000D105A9F409C02FEFA22E2FEFB22E2FEF98
:1042E000C22E2FE0D22E1FC0C8E0D0E09FEFA92E33
:1042F0009FEFB92E9FEFC92E9FE1D92E14C09E01CA
:10430000442737FD4095542F6FEF7FEFCB01ABD79C
:1043100059016A0108C089E9A82E89E9B82E89E9FE
:10432000C82E89E1D82E60E020E030E0A9011E010E
:10433000442437FC4094542C012F00530A3060F081
:10434000812F81548A3110F4075006C0812F815685
:104350008A3148F5012F0755802F90E08C179D0773
:1043600014F56F3FE1F0A216B306C406D506A0F01F
:10437000CA01B901A201910130D79B01AC01802F84
:1043800090E0A0E0B0E0280F391F4A1F5B1F2817FC
:1043900039074A075B0710F46FEF01C061E0F701CE
:1043A00011917F01C9CF6114710481F0662339F046
:1043B0000894E108F108F301F182E08207C091FE60
:1043C00005C0C7010297F3019183808390FE07C067
:1043D00050954095309521953F4F4F4F5F4F67FF68
:1043E0000DC082E290E09093D3048093D2042FEF2B
:1043F0003FEFA90103C020E030E0A901B901CA01E3
:10440000DF91CF911F910F91FF90EF90DF90CF90B0
:10441000BF90AF909F907F906F905F904F903F9034
:104420002F900895F8947EC79111CCC5803219F071
:1044300089508550D0F70895FB01DC0104C08D91AF
:104440000590801921F441505040C8F7881B990B02
:104450000895FB01DC0102C005900D9241505040CF
:10446000D8F70895FB01DC010D900020E9F71197C2
:1044700005900D920020E1F70895FB01DC01059005
:104480000D920020E1F70895FC0105900020E9F766
:10449000809590958E0F9F1F0895FB01DC01415080
:1044A000504088F08D9181341CF08B350CF4805E87
:1044B000659161341CF06B350CF4605E861B6111F4
:1044C00071F3990B0895881BFCCFFB01DC0141506F
:1044D000504030F08D910590801919F40020B9F703
:1044E000881B990B0895FC014150504030F0019019
:1044F0000616D1F73197CF01089588279927089597
:10450000FB01DC0102C001900D9241505040D8F7F0
:104510000895DC0101C06D9341505040E0F70895CB
:10452000FC018191861721F08823D9F799270895F6
:104530003197CF010895FB01DC014150504030F02C
:104540008D910190801919F40020B9F7881B990BFF
:104550000895FC0181E090E00190061609F4CF0176
:104560000020D1F701970895AEE0B0E0E9EBF2E268
:10457000AAC60D891E898F89988D26E02C831A83FF
:10458000098397FF02C080E090E801979E838D83A6
:104590009E01255E3F4FCE010196698D7A8DA9015E
:1045A00076D04D815E8157FD0AC02F813885421734
:1045B00053070CF49A01020F131FF80110822E9674
:1045C000E4E09DC6AEE0B0E0E7EEF2E27CC60D8925
:1045D0001E898F89988D2EE02C831A83098397FF7B
:1045E00002C080E090E801979E838D839E01255E46
:1045F0003F4FCE010196698D7A8DA90148D04D813A
:104600005E8157FD0AC02F813885421753070CF48D
:104610009A01020F131FF80110822E96E4E06FC674
:10462000AEE0B0E0E5E1F3E24EC60D891E898EE012
:104630008C831A8309838FEF9FE79E838D839E016E
:10464000275E3F4FCE0101966F89788DA9011FD05B
:10465000EF81F885E00FF11F10822E96E4E04FC63F
:10466000AEE0B0E0E5E3F3E230C68DE08C838B8909
:104670009C899A8389839E01295E3F4FCE010196D2
:104680006D897E89A90160D32E96E2E03AC6ACE03E
:10469000B0E0ECE4F3E209C66C011B018A01FC0105
:1046A00017821682838181FFC4C12E010894411CA8
:1046B000511CF6019381F10193FD859193FF819146
:1046C0001F01882309F4B1C1853239F493FD859126
:1046D00093FF81911F01853221F490E0B601D8D477
:1046E000E8CFEE24FF2420E02032B0F48B3269F0D2
:1046F0008C3228F4803251F0833271F40BC08D3249
:1047000039F0803349F421602CC02260246029C034
:10471000286027C0206125C027FD2CC0382F3053CA
:104720003A3098F426FF08C08E2D880FE82EEE0C44
:10473000EE0CE80EE30E15C08F2D880FF82EFF0C3F
:10474000FF0CF80EF30E20620CC08E3221F426FD11
:104750006CC1206406C08C3611F4206802C0883613
:1047600049F4F10193FD859193FF81911F01882305
:1047700009F0BACF982F9554933018F09052933097
:1047800028F40C5F1F4FFFE3F9830DC0833631F02F
:10479000833771F0833509F05CC021C0F801808156
:1047A00089830E5F1F4F420171E0A72EB12C15C007
:1047B00062E0662E712C600E711EF801808091807F
:1047C00026FF03C06E2D70E002C06FEF7FEFC401C3
:1047D0002C8711D45C0183012C852F7716C052E001
:1047E000652E712C600E711EF8018080918026FF6D
:1047F00003C06E2D70E002C06FEF7FEFC4012C8705
:10480000EFD35C012C852068830123FD1EC007C007
:1048100080E290E0B6012C873BD4FA942C858F2D52
:1048200090E0A816B906A0F310C0F40127FD859109
:1048300027FF81914F0190E0B6012C8729D42C8568
:10484000F110FA940894A108B108A114B10469F711
:10485000E9C0843611F0893641F527FF08C0F80118
:1048600060817181828193810C5F1F4F09C0F801C3
:1048700060817181882777FD8095982F0E5F1F4F8B
:104880004FE6B42EB22297FF09C09095809570959F
:1048900061957F4F8F4F9F4FF0E8BF2AA2012AE01A
:1048A00030E03DD4782E741844C0853731F43FEEA3
:1048B000B32EB2222AE030E025C099EFB92EB22201
:1048C0008F36C1F0803720F4883509F0AEC00DC0B6
:1048D000803721F0883709F0A8C002C020E1B22A51
:1048E000B4FE0BC084E0B82A08C0B4FE09C0E6E0FC
:1048F000BE2A06C028E030E005C020E130E002C05A
:1049000020E132E0B7FE08C0F80160817181828148
:1049100093810C5F1F4F07C0F8016081718180E0B7
:1049200090E00E5F1F4FA201FAD3782E7418FFE7B4
:10493000BF22B6FE0BC02EEFB2227E1438F4B4FEB6
:1049400007C0B2FC05C08FEEB82202C0A72C01C080
:10495000AE2C8B2D90E0B4FE0DC0FE01E70DF11DD5
:104960002081203319F4E9EEBE2209C0A394B2FEDF
:1049700006C004C086789070009709F0A3948B2C31
:104980009924B3FC13C0B0FE0EC0AF1428F4E72C7A
:10499000EF0CEA18AF2C07C0E72C05C080E290E0CE
:1049A000B60176D3A394AF14C8F304C0AF1410F4C7
:1049B000FA1801C0FF2484FE0EC080E390E0B60127
:1049C00067D382FE1DC081FE03C088E590E010C061
:1049D00088E790E00DC0C40186789070009781F060
:1049E00081FC02C080E201C08BE2B7FC8DE290E066
:1049F000B6014ED305C080E390E0B60149D3EA94F6
:104A00007E14C8F37A94F201E70DF11D808190E0E5
:104A1000B6013ED37720B1F705C080E290E0B60141
:104A200037D3FA94FF20C9F744CEF60126813781A7
:104A300002C02FEF3FEFC9012C96E2E152C420FDE6
:104A400009C0FC0123FD05C022FF02C073836283FD
:104A5000518340830895EF92FF920F931F9344FD7B
:104A600010C046FD10C0DB01FC01AA0FBB1FEE1FEA
:104A7000FF1F1094D1F76A0F7B1F8E1F9F1F31E01D
:104A800003C033E001C034E0660F771F881F991F11
:104A90003150D1F77B018C01E20EF11C011D111D7B
:104AA000A8019701B701CA011F910F91FF90EF90E4
:104AB0000895EF92FF920F931F93CF93DF938C0192
:104AC000C801A4D2EC0197FD07C0AEDC0097C1F786
:104AD0007E01CE01B80108D3CE01CDB7DEB7E6E046
:104AE0000CC48F929F92AF92BF92DF92EF92FF928F
:104AF0000F931F93DF93CF930F92CDB7DEB74C0187
:104B0000D62E5A01122F82D28B3219F08D3241F4F7
:104B10001068DA9409F465C0C40178D297FD61C0C9
:104B2000312F3D7F232F2073E1F48033D1F4DA94C9
:104B300009F443C0C401398369D2398197FD3DC06E
:104B40003260883711F0883551F43064DA94A9F175
:104B5000C40139835BD2398197FF03C02EC036FF71
:104B60003061EE24FF248701282F2053283088F05D
:104B700034FD09C02A3068F036FF05C02F7D422F72
:104B80004151463028F0B4013983AED2398112C088
:104B90002750C801B701432F39835DDF7B018C01AA
:104BA00039813260DA9461F0C40139832FD23981BE
:104BB00097FFDACF31FD04C014C0EE24FF24870133
:104BC00037FF08C010950095F094E094E11CF11CAB
:104BD000011D111DC501B801A701232F30DF81E0A0
:104BE00001C080E00F90CF91DF911F910F91FF9056
:104BF000EF90DF90BF90AF909F908F900895A1E2CB
:104C0000B0E0E4E0F6E255C36C018A0179019E014F
:104C10002F5F3F4F80E2F90111928A95E9F7F60183
:104C2000838080E090E0BB24992470E0A1E0B0E0B4
:104C3000F70183FCA59083FEA1907F01AA2009F4CF
:104C40007DC0FA2DFE3511F4009751F1472F50E049
:104C50004817590744F44A2D4D3551F14D3219F496
:104C6000992001F103C0992009F4BA2C4A2D4695E8
:104C700046954695F901E40FF11D4A2D47703D0117
:104C800002C0660C771C4A95E2F7908096289082C5
:104C9000AB1459F0AB1410F4A394E8CFAA94E6CF68
:104CA00071E004C09924939401C099240196C0CF67
:104CB000992019F08E8180628E83772351F0CE0186
:104CC0008196FE013196208120952193E817F907FE
:104CD000D1F7BB24B3944E010894811C911C01C0F0
:104CE000BB24C60169A392D169A197FD1FC0282FDB
:104CF000269526952695F401E20FF11D208130E0DE
:104D0000AC014770507002C0359527954A95E2F77F
:104D100020FD03C0B601E8D109C00115110519F045
:104D2000F80181938F016150D9F602C0BB2031F4A4
:104D30000115110529F0F801108202C0EE24FF24AC
:104D4000C701A196EEE0D1C24F925F926F927F921F
:104D50009F92AF92BF92CF92DF92EF92FF920F930A
:104D60001F93DF93CF930F92CDB7DEB77C016B011A
:104D70003A01FC011782168200E0DBC0812F90E02F
:104D800053DB009719F0C70194DED3C0153241F40C
:104D9000F601A3FC3591A3FE31916F01353251F438
:104DA000C70134D197FDD1C0181709F4C2C0B701AB
:104DB0009BD1CDC03A3239F4A3FC3591A3FE319199
:104DC0006F0111E001C010E099240EC01260692D3E
:104DD00070E080E090E040E23EDE962EF601A3FC1B
:104DE0003591A3FE31916F01232F20532A3070F3A8
:104DF00011FF03C0992019F4AAC099249A94383657
:104E000019F03C3689F409C0F601A3FC3591A3FEE4
:104E100031916F01383641F418601460F601A3FC3B
:104E20003591A3FE31916F01332309F490C08EE6D2
:104E300094E0632F70E03983C8D03981009709F47A
:104E400086C0812F10FD08C0F3014080518042E0F0
:104E500050E0640E751E02C0442455243E3649F4C9
:104E6000F7014681578160E070E0C201212FE7DD44
:104E700060C0333689F481FD02C099249394C70140
:104E8000C5D097FD62C04114510419F0F20181931D
:104E90002F019A94A1F74BC03B3551F4C701692DFE
:104EA000A2019601ACDE6C01009709F040C03AC047
:104EB000C7013983FEDD398197FD47C03F3641F197
:104EC000303728F4343611F1393621F524C0333720
:104ED00019F03537F9F41AC0C70198D05C0197FD75
:104EE0000FC0A2DA009721F0C501B701FDD008C0BC
:104EF0004114510419F0F201A1922F019A9461F723
:104F000041145104A1F0F201108211C0106203C0DB
:104F1000106101C01064C701692DA201212FE1DDDC
:104F2000882329F4F7018381807379F410C010FF7E
:104F30000F5FF701A380F601A3FC1591A3FE119169
:104F40006F01112309F01ACF02C0002311F010E005
:104F500002C00FEF1FEFC8010F90CF91DF911F919B
:104F60000F91FF90EF90DF90CF90BF90AF909F9008
:104F70007F906F905F904F900895DC01CB01FC0112
:104F8000E199FECF06C0FFBBEEBBE09A31960DB2B1
:104F90000D9241505040B8F70895E199FECF9FBB64
:104FA0008EBBE09A99278DB30895262FE199FECF05
:104FB0009FBB8EBB2DBB0FB6F894E29AE19A0FBE51
:104FC00001960895992788270895FC0105900616F3
:104FD00021F00020D9F7C00108953197CF0108953D
:104FE000FC010590615070400110D8F780959095B4
:104FF0008E0F9F1F0895FC016150704001900110B9
:10500000D8F7809590958E0F9F1F0895CF93DF93CB
:10501000EC013B8130FF36C036FF09C03F7B3B834C
:105020008E819F8101969F838E832A8129C032FFC2
:105030000FC0E881F9818081992787FD90950097BD
:1050400019F430623B831EC03196F983E88311C0A6
:10505000EA85FB85CE01099597FF0BC02B813FEFB9
:105060008F3F930711F480E101C080E2822B8B8394
:1050700009C02E813F812F5F3F4F3F832E83282F12
:1050800030E002C02FEF3FEFC901DF91CF910895CB
:105090000F931F93CF93DF938C01EB018B8181FFE3
:1050A0001BC082FF0DC02E813F818C819D812817FE
:1050B000390764F4E881F9810193F983E88306C034
:1050C000E885F985802F0995009731F48E819F81BD
:1050D00001969F838E8302C00FEF1FEFC801DF91FF
:1050E000CF911F910F910895FB01238120FF13C0E1
:1050F00026FD11C03FEF8F3F930769F08283206444
:105100002F7D2383268137812150304037832683AA
:10511000282F30E002C02FEF3FEFC9010895FA01B8
:10512000AA27283051F1203181F1E8946F936E7FE6
:105130006E5F7F4F8F4F9F4FAF4FB1E03ED0B4E0D7
:105140003CD0670F781F891F9A1FA11D680F791F18
:105150008A1F911DA11D6A0F711D811D911DA11D29
:1051600020D009F468943F912AE0269F1124301939
:10517000305D3193DEF6CF010895462F4770405DD4
:105180004193B3E00FD0C9F7F6CF462F4F70405D83
:105190004A3318F0495D31FD4052419302D0A9F7DE
:1051A000EACFB4E0A6959795879577956795BA95D8
:1051B000C9F700976105710508959B01AC010A2E9E
:1051C00006945795479537952795BA95C9F7620F75
:1051D000731F841F951FA01D0895629FD001739FA8
:1051E000F001829FE00DF11D649FE00DF11D929F83
:1051F000F00D839FF00D749FF00D659FF00D9927C2
:10520000729FB00DE11DF91F639FB00DE11DF91FE5
:10521000BD01CF0111240895AA1BBB1B51E107C09A
:10522000AA1FBB1FA617B70710F0A61BB70B881F36
:10523000991F5A95A9F780959095BC01CD010895C5
:1052400097FB092E07260AD077FD04D0E5DF06D0AC
:1052500000201AF4709561957F4F0895F6F79095A8
:1052600081959F4F0895A1E21A2EAA1BBB1BFD0139
:105270000DC0AA1FBB1FEE1FFF1FA217B307E40735
:10528000F50720F0A21BB30BE40BF50B661F771F8D
:10529000881F991F1A9469F760957095809590956D
:1052A0009B01AC01BD01CF0108952F923F924F9217
:1052B0005F926F927F928F929F92AF92BF92CF92A6
:1052C000DF92EF92FF920F931F93CF93DF93CDB7AF
:1052D000DEB7CA1BDB0B0FB6F894DEBF0FBECDBF27
:1052E00009942A88398848885F846E847D848C84F8
:1052F0009B84AA84B984C884DF80EE80FD800C8101
:105300001B81AA81B981CE0FD11D0FB6F894DEBFE3
:105310000FBECDBFED010895EE0FFF1F0590F49174
:10532000E02D0994F894FFCF4E554C4C00302E32AE
:10533000202829002D00002000D4040000FFFFFFDA
:10534000FFFFFF00FFFFFFFFFFFFFFFFFFFFFFFF6C
:10535000FFFFFFFFFFFFFFFFFFFFFFFFFFFFFFFF5D
:10536000FFFFFFFFFFFFFFFFFFFFFFFFFFFFFFFF4D
:10537000FFFFFFFFFFFFFFFFFFFFFFFFFFFFFFFF3D
:10538000236164632E687471028D1F8B08004B10BB
:10539000074F02037554DB6ED430107DCF570C16C7
:1053A000908494245B04426C7651C54520A00FB4D0
:1053B0006F08ADDC7876E392DAC1F6DE84FAEF8C22
:1053C0009DCD5E5079B2C773CEF878C63355E3EE03
:1053D000DA695435C8052D4EBA16A71F5C83C6E29C
:1053E000069EC3C5FB7770E5B85BDAAAE89D51D588
:1053F0004AF50B0CB61366DDB645DB203A068DC1C7
:10540000F9845DB96D5E3370DB0E27CCE1C615B54E
:10541000B5AC2096AD8DEC1C585313AF36F9AD3DAD
:1054200081DDF215EF216C5A15FDEEC0FA0F309AAE
:105430002F55EDA45680F59D987151CF0CFE4E521C
:10544000F813C1853117B77C937B4F12930B16E885
:10545000E2B313E4ACE14AB468D27174FF70AC01FA
:1054600091D07E89D69D81E08E870BE41C92004509
:1054700063F41E90A6115072DCD2A871042B6EC08A
:1054800076AD7430811D2037683BAD2C5ED36BF256
:10549000E04C18309200736D20F11449F0724C4BBF
:1054A000D5B3F316D5C235749265E1EE1078C5DB3D
:1054B0002512B2E354ACCFCA2501FB43FE3C83D195
:1054C0002B1F2F4894F6925F26011BB401D45A3942
:1054D000A99638DEC55918DE3514E77148D32C98E3
:1054E000316420438C60E6A1D2F95A0AE7917D38F5
:1054F0007806A3B28462549EBFC8CB9418EC093BD3
:1055000050A452683E5D7FFB7A203CA267A5F0164E
:10551000D8537563BB318337C0D820C327F6A0C2E8
:105520005B0711DE7A28E04E01780969EEF447B98D
:1055300041919CF75A80F29AEDB24476EA6FBAA78D
:1055400042AFA5127A9D6BD56A2E28D650F8FEDFA1
:1055500078295E80E3372D063D6C6FFEB74AAF8F2A
:105560004AB34793608BC67DD7EB44A627EAE3CACC
:1055700089E917AE780BE18D90C540FD25A6740E24
:1055800075CBAD9DB07D29A81F845C8114476771E0
:1055900026B3D8370A79A60F317DC2D89E13923927
:1055A00050081C874CFCD3347466D1D13F42433938
:1055B0004BE2532F75CECBB22C43A71CF5671106D7
:1055C0004775A3C5D64F91D161761C4F0E3AA7D926
:1055D00012123A48EAF3394896BAB77DC4B0A3CD5F
:1055E000F0E8562FE8C75AEDDDFD8309B4BBB0E8FB
:1055F000C7D75F5EBFFDE3C6040000FFFFFFFFFFEC
:105600002367722E6769668D01F21F8B08004B10AD
:10561000074F020373F774B3B04CE467E067D8CC6C
:10562000CBE0EAEAFAFF150310FC3FC7F0FF24C302
:10563000FFFFFFFFCD65F8BF85E1FFBFC9FFFF1F7B
:10564000FFFF57F8FF53A0E06B061850FCCFEDE7C3
:105650001A12ECEC18E06AA467C0CC0812FAC9C2AE
:10566000CAC5C0CBA003920719CBC012B7C19333F0
:105670006BEE8ED0690252E26C055D42739A197D21
:105680001CD439D23F2C5BDDC6E1CAF8D86A85EA62
:105690009E9880E54C774A76A47C0A703C1167ADF1
:1056A000D1C869609BBCFEC016A38E4A7FEE26AFB0
:1056B000CB7FE771D87D4A606C60BA907C2AC1616B
:1056C000C5F5CC99A712EB35D222C44C85051156ED
:1056D000B230B03270303003ADE4DAD011F9644F3B
:1056E000D88D05E92CC8D22C0CEC40CCC0C2BDA191
:1056F000D3EDE99ACD5796FDD483683782C943B577
:10570000076CB9A9A2BBE561937A3F585A0424CD2E
:10571000C9C0C5C004840C2C2C1B382F2A613397B8
:1057200077C314B754C62D8DDA062FA2DA5CC12ACE
:1057300018402A40DAB8816A18586437782A4AAF84
:10574000350A890DFD71965DCB49936599838FEF7D
:10575000C5A888C893D2E24582E83AD8803AC436D0
:1057600078AA46AFB0085F28BDDD91A3EB943A8BD1
:105770009A61DC4209461C4A81865B782F8D9EE146
:1057800094D13A25C0A3B573DA130D37066B00B177
:1057900079247DE5010000FFFFFFFFFFFFFFFFFF12
:1057A000FFFFFFFFFFFFFFFFFFFFFFFFFFFFFFFF09
:1057B000FFFFFFFFFFFFFFFFFFFFFFFFFFFFFFFFF9
:1057C000FFFFFFFFFFFFFFFFFFFFFFFFFFFFFFFFE9
:1057D000FFFFFFFFFFFFFFFFFFFFFFFFFFFFFFFFD9
:1057E000FFFFFFFFFFFFFFFFFFFFFFFFFFFFFFFFC9
:1057F000FFFFFFFFFFFFFFFFFFFFFFFFFFFFFFFFB9
:10580000236964782E68743E02871F8B08004B1052
:10581000074F02038D544D6BDC3010BDEFAF98E89D
:10582000B214128B5C83D797D296DE0A09FD808072
:10583000D1DA134B442B196936CEC2FEF8CEC8CE4E
:10584000D6811E226149A379F3DED81AB9B674F065
:10585000CD066A8BA6E7196A72E4B1F9421653C6FF
:1058600057F81E7A1E7F98016B3DBB04E45D788675
:10587000847EA7329D3C668B480A6CC2A79DBAA75E
:1058800053D529A0D3883B45F84ABACB596911D1E1
:105890008B4ABD8FFDA910D9DBE617FA2E1E102802
:1058A000C29BEA15236F8B7F6C3EC7302443476F42
:1058B000C8C590AF00FEC463BA40C1128D9031BD1F
:1058C0006082ED433C6CD9C04316BA3DC214D3B3D9
:1058D0000B03D4EE30404EDD4E0DA91ADC9302E3EB
:1058E00069A7EE6E3EA9A6D6E3A2C5CC906D3CFAA0
:1058F0001E020AE1534C03129035045555155442CB
:105900008E7543D8A90E036152122CAD5D9E0FB760
:105910001578A6382FFDC36D0D668AB66D79A73C44
:1059200025191EB9B76521C33CCDD2C5C70BA168E7
:10593000674CBB01CD9B8F20345B59CCE6B66DB56F
:10594000ECCDD6A3E66D91DE16B5B91717F3E9CD08
:105950005924F49CC59C5F3181DD122D56C39FF103
:1059600092FDF9021597706F04DA9E79985FE55CF5
:10597000CC56B0BCD06269991E8542B6057FDD2E3B
:10598000402DE00D9F69C2E554BFC6043D92713EB3
:10599000430C30C961E25BF9B87C0DB5594A576ACE
:1059A000E94EEB699AAA3740D5A356CDCAAAB56984
:1059B000AA5232A57E53B3618987087D842C65DCA9
:1059C000C540297A20939F999B8BF11FBF8B95250A
:1059D000D530D78A660E171C8B80E93BE8AC0901ED
:1059E00039DB77C1ECF94F7409E7B81870725C9A2B
:1059F000848711E5BEF0FAC5F823663052B15D87A1
:105A000039BBBD5F11C6E91DDFB5D4207FAAC9919E
:105A10000503F73FBFDD74663412B24F71E22B7697
:105A200049F242F17BE1E01B3A5AD719CF9AC99962
:105A300040AB04D78D7F01F3D5E70B5E7E3C7F0141
:105A40001165CDC680040000FFFFFFFFFFFFFFFFD1
:105A5000FFFFFFFFFFFFFFFFFFFFFFFFFFFFFFFF56
:105A6000FFFFFFFFFFFFFFFFFFFFFFFFFFFFFFFF46
:105A7000FFFFFFFFFFFFFFFFFFFFFFFFFFFFFFFF36
:105A800023696F2E6874009504931F8B08004B10D8
:105A9000074F0203BD575F6FDB36107FB63E0541EF
:105AA0000C9304BB929DA1C596C82EB2B618F2D233
:105AB0000C6DDE86C1A0A5B3C544A63C8A4A6D0C18
:105AC000F9EEBB23255976DC2E5991C588259277AE
:105AD000F7BBFF4727B95917332FC94164F830D2B4
