:10000000D5C20000FEC20000FCC20000FAC200001F
:10001000F8C20000F6C20000F4C20000F2C2000004
:10002000F0C20000EEC20000ECC20000EAC2000014
:10003000E8C2000058C40000E4C20000E2C20000B0
:10004000E0C20000DEC20000DCC20000DAC2000034
:10005000D8C20000D6C20000D4C20000D2C2000044
:10006000D0C20000CEC20000CCC20000CAC2000054
:100070004A116111DA11DF12FE1226132E13C91272
:10008000443A206D61633A2025783A25783A2578FC
:100090003A25783A25783A25780A00443A20656E60
:1000A0006332386A3630207265766973696F6E2004
:1000B000307825780A00443A2064697361626C697B
:1000C0006E67207761746368646F670A00443A2042
:1000D000457468657273657820302E322028292097
:1000E000284465627567206D6F6465290A000022E7
:1000F000F901906E0025303278002578004675733E
:1001000065733A206C6F773D2530325820686967F7
:10011000683D253032582065783D253032580057EB
:10012000616C646D616E6E00443A206E65743A20B5
:100130007061636B657420746F6F206C61726765AA
:10014000206F7220746F6F20736D616C6C20666F0E
:100150007220616E2065746865726E6574206865D2
:10016000616465723A2025640A00443A206E657421
:100170003A207472616E736D6974206572726F7269
:10018000210A00443A206E65743A207265636569FD
:100190007665206572726F72210A00443A206E659E
:1001A000743A207061636B6574207472616E736D54
:1001B0006974206661696C65640A00443A206E6562
:1001C000743A206E6F206C696E6B210A00443A20ED
:1001D0006E65743A20676F74206C696E6B210A003B
:1001E000443A206E65743A2074696D656F757420A9
:1001F00077616974696E6720666F72205458525433
:10020000532C2061626F7274696E67207472616E24
:10021000736D6974210A00443A207379736C6F67B7
:100220003A20636F756C646E277420637265617425
:100230006520636F6E6E656374696F6E0A00256872
:1002400068752E256868752E256868752E2568687E
:10025000750025752E25752E25752E25750025739F
:10026000007061727365206572726F7200443A208B
:1002700065636D643A20756470206661696C6564BD
:100280000A0025750A0025750A00485454502F317C
:100290002E3120323030204F4B0A436F6E6E656333
:1002A00074696F6E3A20636C6F73650A00436F6EFA
:1002B00074656E742D547970653A20746578742F66
:1002C0006373733B20636861727365743D75746614
:1002D0002D380A0A00436F6E74656E742D54797060
:1002E000653A20746578742F68746D6C3B20636880
:1002F00061727365743D7574662D380A0A00436F28
:100300006E74656E742D547970653A206170706CEE
:1003100069636174696F6E2F7868746D6C2B786D8A
:100320006C3B20636861727365743D7574662D382B
:100330000A0A0043616368652D436F6E74726F6CC7
:100340003A206E6F2D63616368650A436163686577
:100350002D436F6E74726F6C3A206D7573742D72CD
:100360006576616C69646174650A436F6E74656E6D
:10037000742D547970653A20746578742F706C61AF
:10038000696E3B20636861727365743D7574662D98
:10039000380A0A00485454502F312E31203430305E
:1003A0002042616420526571756573740A436F6EF3
:1003B0006E656374696F6E3A20636C6F73650A4390
:1003C0006F6E74656E742D547970653A207465781B
:1003D000742F706C61696E3B206368617273657421
:1003E0003D7574662D380A00436F6E74656E742D0A
:1003F000456E636F64696E673A20677A69700A00B8
:1004000042616420526571756573740A00485454E2
:10041000502F312E31203430342046696C65204E07
:100420006F7420466F756E640A436F6E6E656374F9
:10043000696F6E3A20636C6F73650A436F6E746503
:100440006E742D547970653A20746578742F706CD1
:1004500061696E3B20636861727365743D75746693
:100460002D380A0046696C65204E6F7420466F7502
:100470006E640A00436F6E74656E742D4C656E6712
:1004800074683A20000A006964782E687400656315
:100490006D643F0065636D643F006964782E687425
:1004A00000474554202F0025750A00706F72742094
:1004B00025643A2030782530327800253268687813
:1004C0003A25326868783A25326868783A25326881
:1004D00068783A25326868783A2532686878002565
:1004E0003032783A253032783A253032783A253031
:1004F00032783A253032783A253032780025730048
:100500002573006420006675736500686F73746EF0
:10051000616D6500726573657400776472657365FB
:100520007400696F0061646320676574006D6163C6
:10053000006E65746D61736B00697000677700779A
:10054000746573740068656C700076657273696FAA
:100550006E00656570726F6D207265696E697400FA
:1005600003053E050605A5050B05F8051405160649
:100570001A0526062205ED1E2505D41F2D057F2010
:10058000310532213905EE203C0576213F05BA219F
:10059000450561184A0539185205AE1800000000DB
:1005A0006364696E6F70737578585B0014BE88E180
:1005B0000FB6F89480936000109260000FBE109206
:1005C0006E0010926F001092700011241FBECFEFCA
:1005D000D0E1DEBFCDBF11E0A0E0B1E0E2E9FAE595
:1005E00002C005900D92A036B107D9F717E0A0E63A
:1005F000B1E001C01D92AB3EB107E1F703D00C940E
:100600000325FECCCF93DF9380EB84B9F4D700D0E1
:100610008DEC90E0ADB7BEB712969C938E93119778
:100620000E941126789486EB90E0EDB7FEB7928396
:1006300081830E94112688E10FB6F89480936000B0
:10064000109260000FBE86E880937A0010927C00C2
:100650000F900F9064D10E94172282E7EFD300D051
:1006600000D0EDB7FEB731962BE930E0ADB7BEB79D
:1006700012963C932E931197828313820E94112627
:10068000EDB7FEB73A970FB6F894FEBF0FBEEDBFB9
:10069000319680E890E0ADB7BEB712969C938E93EA
:1006A00011978091CE03828313828091CF0384833C
:1006B00015828091D003868317828091D103808731
:1006C00011868091D203828713868091D303848719
:1006D00015860E941126EDB7FEB73E960FB6F89428
:1006E000FEBF0FBEEDBF0E942522C0E0D0E00E94F9
:1006F000BE228091C60382FF0DC0F89428E088E1F5
:1007000090E00FB6F894A895809360000FBE2093F8
:100710006000FFCF81FFEBCFF894FE010995E7CF92
:10072000862798E06CE8869508F486279A95D9F78D
:100730000895EF92FF920F931F93CF93DF93182F9B
:10074000062FE12EE7017E01F92EE70180E002C0CD
:100750006991E6DFAE01411B4017D0F3CDB7DEB79C
:10076000E6E00C94322DEF92FF920F931F93CF93FC
:10077000DF937C01EB018A01C40FD51F08C0015033
:100780001040C701800F911F6A910E947A2B0115BA
:100790001105A9F7CDB7DEB7E6E00C94322D1F9313
:1007A000CF93DF93C0E0D0E010E0CE010E94722B27
:1007B000682F812FB5DF182F2196C231D105A9F7F7
:1007C000DF91CF911F910895ABE0B0E0EAEEF3E046
:1007D0000C94162D8E010A5F1F4FC8016EEE70E05B
:1007E00046E050E00E941B2580E090E0B80146E022
:1007F00050E0B9DF80ECE82E88EAF82EFB82EA822E
:1008000080E09EEA9D838C838E010E5F1F4F86E001
:1008100090E0B80144E050E0A6DFFB82EA8280E08D
:1008200091E09D838C838EE090E0B80144E050E03D
:100830009ADF8FEF9FEF9B838A838FEF90E09D83FA
:100840008C838AE090E0B80144E050E08CDFA7DFC1
:10085000898382E190E0BE016F5F7F4F41E050E00D
:1008600082DF2B96E6E00C94322DA1E0B0E0EBE3C2
:10087000F4E00C94192D71D792DF182FCE01019658
:1008800062E170E041E050E00E94622B898118171C
:1008900009F09ADFE3D10E941D222FD30E9419157F
:1008A0002196E3E00C94352DE1E8F0E080818C7F27
:1008B0008083808184608083A0E8B0E08C918C7F0D
:1008C0008C9380818860808380818F7E808381EE9D
:1008D00094E09093890080938800EFE6F0E08081B7
:1008E0008260808308951F920F920FB60F92112499
:1008F0008F939F9381E08093DE078091C703982FA9
:100900009F5F9093C703923318F081538093C7037E
:100910009F918F910F900FBE0F901F9018952C9A5A
:1009200080E58CBD81E08DBD08958EBD0DB407FEC0
:10093000FDCF8EB50895A9E0B0E0E1EAF4E00C94B3
:100940000F2D5C01E12C9FEFF92E012D112D6E0171
:100950000894C11CD11C8AE0882E912C8C0E9D1EFF
:10096000F7018491833279F53196D60184918D9384
:100970003196A815B905D1F77984C60168E0D9DEAA
:10098000781609F5C601B50146E050E00E949F25A2
:100990000097C9F489E090E00E94C322E82FF92F64
:1009A000309709F11082D801C7010A96A11DB11D27
:1009B00081839283A383B483168215828F81988565
:1009C0009087878310C080E09FEFAFEFBFEFE80E06
:1009D000F91E0A1F1B1FE114F1040105110509F09E
:1009E000BFCFE0E0F0E0CF012996EDE00C942B2D95
:1009F000EF92FF920F931F93CF93DF93DC01179633
:100A0000ED90FC90189715968D919C911697E81A89
:100A1000F90A00E010E0E216F3060407150710F4E7
:100A2000A8019701062F172F60E070E0CB0110C0DE
:100A30001196ED91FC911297EC0FFD1FE60FF71F39
:100A4000E491E801E9938E016F5F7F4F8F4F9F4FD5
:100A50001596CD91DC911697621773078407950759
:100A600038F3C20FD31F1696DC93CE931597B901B6
:100A7000CA01CDB7DEB7E6E00C94322DA2E0B0E0BB
:100A8000E4E4F5E00C94122D6B01E82FF92F9E2F72
:100A90008F2F21912032D9F300D000D000D0EDB7B4
:100AA000FEB73196ADB7BEB711969C9381838AEF9E
:100AB00090E093838283CE010196958384830E9484
:100AC000AD26EDB7FEB736960FB6F894FEBF0FBE53
:100AD000EDBF8130910591F5E980FA8000E010E0EA
:100AE00045EFA42E40E0B42ED7012D917D0100D01A
:100AF00000D000D0EDB7FEB73196C801880F991F1E
:100B00008C0D9D1DADB7BEB712969C938E93119719
:100B1000B382A282248315820E948D260F5F1F4F0D
:100B2000EDB7FEB736960FB6F894FEBF0FBEEDBF19
:100B300000311105C9F620E230E002C02FEF3FEF8F
:100B4000C9012296EAE00C942E2D1F93CF93DF93D8
:100B500089E087BFE0E0F0E0149187BFE3E0F0E0D8
:100B6000349187BFE2E0F0E0249187BFE1E0F0E05C
:100B7000E4918DB79EB70E970FB6F8949EBF0FBE47
:100B80008DBFADB7BEB71196CDB7DEB77A83698397
:100B900013965C934E9312978DEF90E015969C936D
:100BA0008E93149716961C93169717961C92179768
:100BB00018963C93189719961C9219971A962C938D
:100BC0001A971B961C921B971C96EC931C971D96CC
:100BD0001C920E945F262DB73EB7225F3F4F0FB693
:100BE000F8943EBF0FBE2DBFDF91CF911F910895A6
:100BF00000D000D000D0EDB7FEB73196ADB7BEB78C
:100C000012967C936E931197538342838FE191E008
:100C1000958384830E945F262DB73EB72A5F3F4F9E
:100C20000FB6F8943EBF0FBE2DBF0895FC01808122
:100C3000882341F48091C60382608093C60320E03C
:100C400030E002C02FEF3FEFC90108958091C60345
:100C500084608093C60380E090E00895A4E0B0E053
:100C6000E4E3F6E00C94182D8EEC93E060E070E085
:100C700046E050E00E94622B8E010F5F1F4FC801BB
:100C800066E070E044E050E00E94622B89819A8126
:100C90009093B1058093B0058B819C819093B305AF
:100CA0008093B205C8016AE070E044E050E00E9421
:100CB000622B89819A819093AD058093AC058B81DD
:100CC0009C819093AF058093AE05C8016EE070E003
:100CD00044E050E00E94622B89819A819093A9059B
:100CE0008093A8058B819C819093AB058093AA0586
:100CF0002496E4E00C94342D2C988AE316DE80E0F0
:100D000014DE2C9A08951F93182F2C988AE70DDE75
:100D1000812F0BDE2C9A1F9108952C988FEF05DE02
:100D20008FE39FE10197F1F700C000002C9A08952E
:100D30001F93182F8FE163E040EA09D0612F6370A1
:100D40008FE140E804D0109360011F910895A1E065
:100D5000B0E0EDEAF6E00C94182D182F062F282F9E
:100D600030E0F901EF71F070EB31F1058CF4207691
:100D7000307085E0359527958A95E1F7E09160011F
:100D8000F0E02E173F0721F0822F4983D1DF498100
:100D90002C98812F8F71842BC8DD802FC6DD2C9A73
:100DA0002196E4E00C94342D0F931F93182F062FF7
:100DB000282F30E0A9014F7150704B3151057CF460
:100DC0002076307095E0359527959A95E1F740911A
:100DD000600150E02417350711F0822FA9DF2C980D
:100DE000812F8F718064A1DD802F9FDD2C9A1F9150
:100DF0000F910895A1E0B0E0E0E0F7E00C941A2D27
:100E0000682F82E09983D0DF83E09981692FCCDF5E
:100E10002196E2E00C94362DA1E0B0E0E2E1F7E0AB
:100E20000C941A2D682F80E09983BEDF81E09981B0
:100E3000692FBADF2196E2E00C94362D1F93182F0C
:100E4000282F30E0A9014F7150704B3151057CF4CF
:100E50002076307045E0359527954A95E1F7409129
:100E6000600150E02417350711F0822F61DF2C98C4
:100E7000812F8F715ADD80E058DD17FF02C080E0BE
:100E800054DD2C9A1F910895A1E0B0E0EAE4F7E068
:100E90000C94192D982F162F84ED692F798384DFF8
:100EA00086ED612F81DF87ED7981672F7DDF8AEE07
:100EB000C5DF80FDFCCF2196E3E00C94352D1F9318
:100EC000682F84ED71DF82ED61E040E840DF8AEE5B
:100ED000B5DF80FDFCCF82ED61E040EA38DF88EDD0
:100EE000ADDF182F89EDAADF582F40E0212F30E029
:100EF000242B352BC9011F9108958FEF8093630137
:100F00000CDF88E060E050DF89E060E04DDF8AE0E0
:100F10006FEF4ADF8BE06FE047DF84E060E044DFA3
:100F200085E060E141DF8CE060E03EDF8DE060E085
:100F30003BDF8EE060E038DF8FE060E035DF10926D
:100F4000C9031092C80381EC60E840EA00DF80EC3E
:100F50006DE040E8FCDE82EC62E340E8F8DE80E031
:100F600060E070E091DF80E0AADF90FF07C082ECD4
:100F700061E040E8ECDE84EC62E106C082EC61E016
:100F800040EAE5DE84EC65E10FDF86EC62E10CDF30
:100F900087EC6CE009DF8AEC68EF06DF8BEC61E040
:100FA00003DF84EE6091CE03FFDE85EE6091CF0318
:100FB000FBDE82EE6091D003F7DE83EE6091D10319
:100FC000F3DE80EE6091D203EFDE81EE6091D30319
:100FD000EBDE88E363E8E8DE84E162E17CE054DF95
:100FE0008BE16BEDE1DE82E162E170E04DDF8FE1EC
:100FF00064E040E8ACDE8EE160E840E8A8DE1092F4
:1010000063010895809163018823A9F482EC16DFBF
:101010008273823331F0809161018F5F809361012F
:101020006CDF80EC0BDF8D3031F0809162018F5FDF
:101030008093620162CF0895A4E0B0E0E2E2F8E0BC
:101040000C94142D89E3FADE882309F49AC0809168
:10105000C8039091C903E0DE4FDE082F4DDE382F24
:1010600020E0802F90E0822B932B9093C9038093F4
:10107000C8038E010F5F1F4F25E0E22EF12CEC0E0E
:10108000FD1E3ADEF80181938F01EE15FF05C9F7C9
:1010900089819A818C01045010401A8309834297F8
:1010A000F1E0873E9F0790F000D000D088E291E009
:1010B000EDB7FEB792838183148303830E941126C8
:1010C0000F900F900F900F9018DF5BC0EE24FF245D
:1010D00094EBC92E95E0D92E0FDEF60181936F01B6
:1010E0000894E11CF11CE016F106B0F31093CD0357
:1010F0000093CC038091C0059091C1059827892762
:101100009827F8E080309F0769F028E08630920742
:10111000B1F40E948A158091CC039091CD03009781
:1011200071F00CC00E94601581E015D48091CC0351
:101130009091CD03009719F00E946B169DD060919D
:10114000C8037091C903CB010197E0E180309E078D
:1011500030F08CE06FEF28DE8DE06FE00DC0615065
:101160008CE022DE6091C8037091C9036150704029
:10117000672F770F770B8DE017DE8EE160E440E894
:10118000E6DD2496E8E00C94302D1F9389E356DECB
:10119000882309F46FC08CE151DE182F8BE160E8E1
:1011A00040EAD5DD14FF15C083E189DE81E187DEE9
:1011B00092FF04C000D02DEC31E003C000D02BEB37
:1011C00031E0EDB7FEB7328321830E9411260F90E4
:1011D0000F9013FF17C08DE131DE81FF0BC000D0EF
:1011E0002BE931E0EDB7FEB7328321830E9411264F
:1011F0000F900F908CE168E040EAA9DD8DE16AE094
:1012000040EAA5DD9FB7F89480917F05882329F4F3
:1012100088E080937F0580E001C081E09FBF882344
:1012200049F50ADF10927F0510FF0FC000D023E8B8
:1012300031E0EDB7FEB7328321830E9411260F9073
:101240000F908CE161E040EA82DD11FF0FC000D019
:101250008AE691E0EDB7FEB7928381830E94112662
:101260000F900F908CE162E040EA71DD8BE160E865
:1012700040E86DDD1F9108950F931F93CF93DF9387
:1012800004E68FE1DBDD83FD03C0002381F403C0AE
:101290000150B8F70CC000D080EE91E0EDB7FEB77A
:1012A000928381830E9411260F900F9035C084E0B5
:1012B00060E07ADD85E060E177DD86E06091CC0377
:1012C00073DD2091CC033091CD032050304F87E067
:1012D000632F6ADD80E090E18DDD80E014DD04EBBA
:1012E00015E0C0E0D0E005C0F80181918F010BDD71
:1012F00021968091CC039091CD03C817D907A0F314
:101300008FE160E840E823DD8FE160E840EA1FDD1F
:101310008FE168E040E81BDDDF91CF911F910F91D5
:1013200008958091DA0383FF0EC08091CA039091E3
:10133000CB030E948017882331F081E090E09093E6
:10134000AB078093AA070895A4E0B0E0EAEAF9E0C9
:101350000C941A2D80EC98EA9A83898380E091E0BE
:101360009C838B83CE01019662E072E041E959E0F3
:101370001ED29093CB038093CA03009761F400D0F0
:1013800087E192E0EDB7FEB7928381830E94112638
:101390000F900F9008C022E032E0FC0135832483D7
:1013A00080E091E0E7D02496E2E00C94362DEF92B5
:1013B000FF921F93CF93DF93192FE82EE7017E0151
:1013C000F92EE7018091E3039091E403B7010E94B5
:1013D0009825EE2DF12FDF010D900020E9F7BD01DA
:1013E000615070406E1B7F0B8091E3039091E4038A
:1013F0000E94BF13B1E0C037DB0709F41882DF9108
:10140000CF911F91FF90EF900895CF93DF9380913C
:10141000CA039091CB03009709F450C00E94801733
:10142000882309F04BC01092AB071092AA078EEDEB
:1014300095E09093D9038093D8039093E40380932D
:10144000E3038091640190916501009771F48091AC
:10145000680190916901009751F480916C0190911D
:101460006D010097A1F082E003C080E001C081E03F
:10147000C82FD0E0CC0FDD1FCC0FDD1FCC59DE4FC5
:10148000E881F9818A819B8109951982188280916E
:10149000AA079091AB07009789F08091CA039091B9
:1014A000CB039093DE038093DD0384E054D20E944B
:1014B0006B16E2DE1092AB071092AA07DF91CF9174
:1014C000089520916401309165012115310581F065
:1014D00020916801309169012115310559F0209161
:1014E0006C0130916D012115310591F4E2E003C0EA
:1014F000E0E001C0E1E0F0E0EE0FFF1FEE0FFF1FA4
:10150000EC59FE4F918380837383628381E0089559
:1015100080E00895A0E0B0E0E0E9FAE00C94162D38
:10152000FE0139964191519130E7E32E31E0F32EDF
:10153000D7010D900020E9F78D01015010400E19E0
:101540001F0964EF71E0601B710BC8018E0D9F1DB8
:101550009F010E94C426109264030115110529F40D
:1015600087ED99E0B701ADDF01C081E02096E6E0AC
:101570000C94322D0F931F93CF93DF93BC0100E7A0
:1015800011E0E80109900020E9F72197C01BD10B79
:10159000FC0101900020E9F73197E81BF90BEC0FF3
:1015A000FD1F319681E0E53FF80760F4CE01800F22
:1015B000911F0E948225209739F487ED99E0B801A8
:1015C00080DF03C080E001C081E0DF91CF911F91F7
:1015D0000F910895A2E0B0E0E0EFFAE00C941A2D2C
:1015E00089831A82CE010196C5DF80E090E02296C1
:1015F000E2E00C94362D8AEE9AE060E070E00C9404
:10160000C725FC014381460F40936803872F992724
:101610002281280F20936703A181A0936603508144
:101620005093650330E02817390748F48A2F8F5FFD
:1016300080936603882319F45F5F50936503842FBA
:1016400090E070708617970798F4809167038F5F1A
:1016500080936703882361F4809166038F5F809392
:101660006603882329F4809165038F5F8093650367
:1016700008959C0141505040460F571FDB0110C098
:10168000FC91E0E011968C911197BF01680F711DDC
:10169000260F371F2617370710F42F5F3F4F12967C
:1016A000A417B50768F3A417B50749F49C9180E027
:1016B000280F391F2817390710F42F5F3F4FC90132
:1016C000089580E090E062EC75E044E150E0D1DF05
:1016D000009719F0382F292F02C02FEF3FEFC901D3
:1016E0000895BC018091E5039091E603089689DF97
:1016F000E091E503F091E603809165038087809196
:10170000660381878091670382878091680383875E
:101710000895CF93DF939091C505C92FD0E06497CA
:101720003091C40520E0C20FD31F9E01280F311D48
:10173000C9016EEC75E048E050E09BDF66ED75E0B6
:10174000AE0197DF009719F0382F292F02C02FEF35
:101750003FEFC901DF91CF910895E0E8F5E01182F4
:101760001082349685E0E83AF807C9F7109202042F
:1017700010928A041092120580E094E09093DC03AA
:101780008093DB031092B1071092B0071092BB0751
:101790001092BA071092C5071092C4071092CF0793
:1017A0001092CE071092D9071092D8070895FF9291
:1017B0000F931F93CF93DF93FC018091DB039091F4
:1017C000DC0301962DE78030920710F080E090E175
:1017D000182F092FA0EBB7E0ED01288139812017E0
:1017E000310779F32A9627E0C23ED207B1F79093EA
:1017F000DC038093DB03FF248D919C91119700976C
:1018000081F48F2D90E09C01220F331FA3E0880FFD
:10181000991FAA95E1F7280F391F2455384F49F42D
:1018200079C0F3941A968F2D853031F720E030E09F
:1018300071C08F2D90E0DC01AA0FBB1F880F991F8C
:10184000880F991F880F991FA80FB91FA455B84F6B
:1018500015961C930E9314978F2D90E0DC01AA0F20
:10186000BB1F880F991F880F991F880F991FA80FFA
:10187000B91FA455B84F17967C936E93169730975F
:1018800099F48F2D90E0FC01EE0FFF1FA3E0880F6D
:10189000991FAA95E1F7E80FF91FE455F84F108258
:1018A00011821282138226C08F2D90E0DC01AA0FD4
:1018B000BB1F63E0880F991F6A95E1F7A80FB91F56
:1018C000A455B84F808191818D939C938F2D90E08A
:1018D000DC01AA0FBB1F63E0880F991F6A95E1F72F
:1018E000A80FB91FA455B84F8281938113969C937A
:1018F0008E9312978F2D90E0FC01EE0FFF1F63E097
:10190000880F991F6A95E1F7E80FF91FE455F84F22
:1019100051874087C901CDB7DEB7E5E00C94332D80
:10192000A0E8B5E0E0E0F0E02D913C9111972115A1
:10193000310559F4EE0FFF1FEE0FFF1FE058FA4F6D
:101940009183808373836283089531961496EA307D
:10195000F10551F70895A0E0B0E0E1EBFCE00C9454
:10196000122D843009F4F5C12AEE35E03093E403FA
:101970002093E3033093D9032093D803C091E50368
:10198000D091E603833079F48B8D8F70833009F02A
:10199000EBC688899989009709F0E6C688E08093AC
:1019A000DA03FE018CC5823009F0A4C08091E20305
:1019B0008F5F8093E203882399F48091E1038F5F26
:1019C0008093E103882361F48091E0038F5F80932B
:1019D000E003882329F48091DF038F5F8093DF0386
:1019E0001092CD031092CC031092AB071092AA076D
:1019F0008B8D873011F0853041F48C8D8F5F8C8F0B
:101A0000883709F0B1C61B8EAFC6882309F4ACC66F
:101A1000288939892115310509F464C09C8D292F45
:101A200021502C8F992309F09FC69D8D983031F05D
:101A3000282F21502230A0F4953091F41B8E80E89D
:101A40008093DA03E091E503F091E603EA57FF4F54
:101A50000190F081E02D309709F442C5099540C509
:101A6000953048F423E030E0092E02C0220F331FE6
:101A70000A94E2F701C020E32C8F9F5F9D8F90E0D6
:101A80008F70907083309105E1F0843091054CF4B3
:101A90008130910509F43DC38230910509F064C697
:101AA0000DC08630910509F4B8C48830910509F459
:101AB000B4C48430910509F057C6AFC41092E30551
:101AC0002BC384E08093DA03E091E503F091E60311
:101AD000EA57FF4F0190F081E02D309709F432C5AD
:101AE000099530C58F70833009F03EC688E0809339
:101AF000DA03E1C4853019F5E091DD03F091DE03EE
:101B000084819581009709F42FC61092E603109204
:101B1000E5032C5030403093E4032093E3033093EB
:101B2000D9032093D8031092AB071092AA07109202
:101B3000CD031092CC0388E08093DA0304C16AECF1
:101B4000E62E6FEFF62EE20EF31E8701025F1F4FA7
:101B50008091C205853409F007C69091C40580E0E4
:101B60002091C5056C01C20ED11C8091CC039091CF
:101B7000CD038C159D0508F4F7C5D092CD03C09216
:101B8000CC038091C80590E08F739070009709F0A6
:101B9000EBC58091C905882309F0E6C5C091D2053F
:101BA000D091D3058091B0059091B105C817D907A0
:101BB00009F0DAC5A090D405B090D5058091B205A2
:101BC0009091B305A816B90609F0CEC57ADD2FEFBE
:101BD0008F3F920709F0C8C58091CB05863009F484
:101BE00012C1813171F1813009F0BEC5E2ECF5E03E
:101BF0008091D605883009F0B7C5148A8091D80540
:101C00009091D9056FEF873F960710F0099601C0B4
:101C10000896978B868B8091CE059091CF059093F7
:101C2000D3058093D2058091D0059091D1059093F2
:101C3000D5058093D405F701D38FC28FB58EA48EBE
:101C400097C5C6014C979093CD038093CC038EED3E
:101C500095E09093E4038093E3038091DC059091F9
:101C6000DD05009739F081E154DDFFEF8F3F9F07DD
:101C700009F07AC584ED97E09093DE038093DD034D
:101C80004091D4035091D5032091D6033091D703CE
:101C90003FC0848195810097B1F16091D805709122
:101CA000D9056817790779F586819781009739F00A
:101CB0006091D6057091D7056817790721F5808165
:101CC00091818417950729F46281738162177307E4
:101CD00049F16FEF8F3F960731F462817381AFEF67
:101CE0006F3F7A07F9F06091CE057091CF056817C4
:101CF000790749F46091D0057091D1058281938173
:101D00006817790779F03A97F093DE03E093DD03E3
:101D1000E091DD03F091DE0367E0EC3AF60708F0AE
:101D2000B8CF22C51092E6031092E50382E08093BB
:101D3000DA038EED95E09093D9038093D803109247
:101D4000AB071092AA070084F185E02D309709F0C7
:101D500009958091AA079091AB07009709F404C5F3
:101D60009C01245E3F4F3093CD032093CC03C2EC03
:101D7000D5E03A832B8320E4288721E12987089640
:101D8000982789279827998F888F1B8E1A8EE09124
:101D9000DD03F091DE03848195819D8B8C8B8681A0
:101DA00097819F8B8E8B8091B0059091B105909318
:101DB000CF058093CE058091B2059091B3059093A5
:101DC000D1058093D005808191819093D305809334
:101DD000D205828193819093D5058093D405CE015D
:101DE0004C969093E4038093E30381E192DC809529
:101DF00090959B8F8A8F009709F09AC48FEF9FEF81
:101E00009B8F8A8F95C486E084DC7FEF8F3F970796
:101E100009F0AAC4C7EED3E04B8D442329F12091E9
:101E2000D8053091D9058C819D8128173907E1F4B7
:101E30002091D6053091D7058E819F8128173907CB
:101E400099F42091CE053091CF058881998128178A
:101E5000390751F42091D0053091D1058A819B81B9
:101E60002817390709F46FC1C857DF4F85E0CF370E
:101E7000D80791F68091E3058F73823099F4209111
:101E8000D8053091D905E0E8F5E0DF018D919C910E
:101E900011972817390709F466C0149665E0A83A27
:101EA000B607A1F78091E30582FD5EC484E1F801E5
:101EB00081A388E290E09093CD038093CC0380E5EA
:101EC00080A38091DD059091E105938F3091DC0531
:101ED0009091E005928F368F2091DB059091DF0580
:101EE000918F258F9091DA054091DE05408F948F78
:101EF0008F5F878F882361F4832F8F5F868F88237E
:101F000039F4822F8F5F858F882311F49F5F948F20
:101F10008091D6059091D7052091D8053091D905AB
:101F2000F801358B248B978B868B8091CE05909111
:101F3000CF059093D3058093D2058091D0059091E1
:101F4000D1059093D5058093D4058091B0059091EB
:101F5000B105F701938F828F8091B2059091B305FF
:101F6000958F848FD0C3A2E0B4E080E090E0C0E021
:101F7000D0E068E870E0482F5C91552369F450E0A8
:101F800088E890E0489FE001499FD00D589FD00D10
:101F90001124C951DC4F19C0573089F4209731F012
:101FA00011965C9111974C8D451748F4869FE0017E
:101FB000879FD00D969FD00D1124C951DC4F0196FB
:101FC000A857BF4F83309105B1F6209709F4CCC3D1
:101FD000D093E603C093E50380E090E04081518117
:101FE0002417350781F4DE01AA57BF4FFC01EE0F1D
:101FF000FF1FEE0FFF1FE058FA4F82819381119669
:102000009C938E9305C0019634968A30910531F7E2
:1020100083E08C8F8A8F188E84E0898F1D8E1B8AB7
:102020001A8A8091D8059091D9059D838C838091DF
:10203000D6059091D7059F838E838091CE05909190
:10204000CF05998388838091D0059091D1059B839A
:102050008A8381E08B8F8091DF038C878091E003FE
:102060008D878091E1038E878091E2038F8781E0E5
:1020700090E0998B888B8091DD058B878091DC05C2
:102080008A878091DB0589878091DA05888781E0DE
:1020900090E027DB8091E205282F30E0207F307030
:1020A00021353105B4F182958F7090E00597880F46
:1020B000991F880F991F40E027C0F901EC54FA4F8F
:1020C00056A9552331F1513011F44F5F1DC05230E4
:1020D000A1F457A9543089F430AD20E081AD90E0EF
:1020E000822B932BF1E08F3B9F0710F08EEB91E05A
:1020F0009D8B8C8B9F8B8E8B0CC02C543A4FF9018F
:1021000027A9222331F0420F242F30E02817390766
:10211000A4F280E18093E305E2ECF5E08091E30531
:10212000826081A382E080A784E081A781E082A70A
:102130008EEB83A78CE290E09093CD038093CC0349
:1021400080E680A397C2D093E603C093E503109284
:10215000DA038091E30590E082FF09C01B8E80E2E4
:102160008093DA03CA57DF4FE881F98123C22091B7
:10217000E20522952F70220F220FB601621B710912
:102180009B01245130403093CD032093CC034F70FA
:10219000423031F4AC014F7350704231510509F1B6
:1021A0002115310531F49C01237030702115310562
:1021B000C1F03091DA052885321709F04FC230910D
:1021C000DB052985321709F049C23091DC052A85E3
:1021D000321709F043C23091DD052B85321709F023
:1021E0003DC284FF49C0688979896115710509F488
:1021F00043C0CE010C9605DA3091DE05809165036F
:102200003817D1F52091DF05809166032817A1F5D5
:102210009091E00580916703981771F58091E10531
:1022200040916803841741F53C872D879E878F87EF
:102230008D8D8823D1F4288D8A8D9C8D891B922FBA
:10224000969596959695891B280F288F87FD8195E1
:10225000998D392F36953695931B980F998F822F2C
:10226000869586958695890F8A8F81E08093DA031B
:102270008A8D8C8F198A188A2B8D30E0F901EF70C6
:10228000F0703197E830F10508F06EC2E85CFF4F5E
:102290000C94412D8091DA0380FF66C283E08B8F1E
:1022A00080E48093DA03198A188A8091CC03909194
:1022B000CD03009709F4FBC022E42093DA0311DA7E
:1022C000F6C08091DA0380FF60C08091E3058F73D0
:1022D000823109F05AC08091E205282F30E0207F3A
:1022E000307021353105B4F182958F7090E00597FB
:1022F000880F991F880F991F40E027C0F901EC54FF
:10230000FA4F56A9552331F1513011F44F5F1DC0DA
:102310005230A1F457A9543089F430AD20E081AD9A
:1023200090E0822B932B71E08F3B970710F08EEBA0
:1023300091E09D8B8C8B9F8B8E8B0CC02C543A4FD5
:10234000F90127A9222331F0420F242F30E028176A
:102350003907A4F283E08B8F8091DA05888780911A
:10236000DB0589878091DC058A878091DD058B8775
:1023700081E090E0B6D982E48093DA03198A188A62
:102380001092CD031092CC0392C080E28093DA03C6
:10239000E091E503F091E603EA57FF4F0190F081E9
:1023A000E02D309709F00995E091E503F091E603FF
:1023B000138E78CD8091E30580FF33C024FD31C0BA
:1023C00088899989009709F0CFC18091CC039091B9
:1023D000CD03019686D92091DA03822F8061809304
:1023E000DA038091CC039091CD03009719F022611C
:1023F0002093DA03E091E503F091E603EA57FF4FFB
:102400000190F081E02D309709F0099581E090E08E
:10241000998B888B88E08B8F1D8E81E18093E305FB
:1024200020C185FF1CC05091E80540E08091E9057E
:1024300090E0842B952B4091E3035091E403480FE7
:10244000591F5093E4034093E3034091CC03509110
:10245000CD03481B590B5093CD034093CC0380917F
:10246000CC039091CD03009741F024FD06C020914C
:10247000DA0322602093DA0334D93091E40520E0B6
:102480008091E505280F311D8E899F89821793075A
:1024900020F02115310509F0C9019D8B8C8B8091AD
:1024A000DA0390E083709070009709F45DC1109298
:1024B000AB071092AA07E091E503F091E603EA5713
:1024C000FF4F0190F081E02D309709F00995809140
:1024D000DA0385FF07C01092AB071092AA071B8E84
:1024E00084E19CCF84FF0AC01092AB071092AA0728
:1024F00081E090E0998B888B84E08DCF2091AA07B2
:102500003091AB0721153105E1F080FF02C0198A37
:10251000188A88899989009781F48C899D89821706
:10252000930720F49093AB078093AA078091AA07A2
:102530009091AB07998B888B04C09093AB078093E5
:10254000AA071D8E8091D8039091D9039093E4033C
:102550008093E3038091AA079091AB07009759F00D
:1025600088899989009739F088969093CD03809354
:10257000CC0388E10BC08091DA0381FFF5C088E2CB
:1025800090E09093CD038093CC0380E18093E305AA
:102590006EC08091DA0380FFE7C01B8E80E18093DC
:1025A000DA03E091E503F091E603EA57FF4F01906B
:1025B000F081E02D309709F4D7C00995D5C08091FE
:1025C000CC039091CD03009709F08BD89091E3054F
:1025D0008091DA0390FF0BC080FF06C087E08B8FED
:1025E0001C8E198A188A18C086E08B8F15C080FF50
:1025F00026C085E08B8F198A188AB6C08091CC03DB
:102600009091CD03009709F06CD88091E30580FF8D
:1026100016C087E08B8F1C8E81E090E062D880E14D
:102620008093DA03E091E503F091E603EA57FF4F68
:102630000190F081E02D309789F009950FC08091CD
:10264000CC039091CD03009749F48EC08091DA03BA
:1026500080FF8AC087E08B8F1C8E86C080E1F801E6
:1026600081A388E290E09093CD038093CC0380E532
:102670008093E205E2ECF5E08885848F8985858F7B
:102680008A85868F8B85878F8C85808F8D85818FBE
:102690008E85828F8F85838F86E081878C819D8157
:1026A000958B848B8E819F81978B868B8091B005D3
:1026B0009091B1059093CF058093CE058091B2059E
:1026C0009091B3059093D1058093D005888199812D
:1026D0009093D3058093D2058A819B819093D505F1
:1026E0008093D4058B8D84FF03C013A212A20BC06C
:1026F0008A899B89009719F092A38A8903C081E097
:1027000082A38EEB83A3C2ECD5E080E4888780911E
:10271000CC039091CD039A838B831FA21EA21DA28E
:102720001CA286E00E94890B809590959DA38CA3A6
:10273000C2ECD5E085E48093C20519821F821E8217
:102740008091690390916A03019690936A03809344
:1027500069039C838D831B861A860E94610B80957A
:1027600090959B878A8704C01092CD031092CC036A
:102770001092DA03CDB7DEB7EAE00C942E2DAC014F
:102780009B011616170684F46093AA073093AB07D3
:102790006091D8037091D9038617970729F0CB0170
:1027A000BA01A9010C9472250895CF93DF93FC011F
:1027B0000097E9F400D000D000D0EDB7FEB7319615
:1027C000ADB7BEB712967C936E9311975383428335
:1027D00082E191E0958384830E943126CDB7DEB7F4
:1027E00026960FB6F894DEBF0FBECDBF40C02DB702
:1027F0003EB72E5030400FB6F8943EBF0FBE2DBFEF
:10280000ADB7BEB71196CDB7DEB77A83698313969D
:102810005C934E93129782E592E015969C938E936B
:102820001497808116968C93169717961C9217977B
:10283000818118968C93189719961C92199782810A
:102840001A968C931A971B961C921B9783811C9641
:102850008C931C971D961C920E945F262DB73EB745
:10286000225F3F4F0FB6F8943EBF0FBE2DBFDF91E2
:10287000CF9108956115710589F12DB73EB72C50A0
:1028800030400FB6F8943EBF0FBE2DBFEDB7FEB778
:102890003196ADB7BEB712969C938E9311978EE387
:1028A00092E09383828375836483CB01019697833F
:1028B0008683CB010296918780876D5F7F4F7387F8
:1028C00062870E94AD262DB73EB7245F3F4F0FB6FB
:1028D000F8943EBF0FBE2DBF843011F08FEF0895E6
:1028E00080E00895FF920F931F93CF93DF93FC0135
:1028F000ABE6B3E0ED0180E090E0488159814115FD
:10290000510589F12A813B812115310561F1008151
:1029100011810417150739F5428153814217530776
:1029200011F52BE030E0829FF001839FF00D929F24
:10293000F00D1124E159FC4F262F372FD90126E045
:102940000D9001922150E1F72BE030E0829FF001E1
:10295000839FF00D929FF00D1124E559FC4F80915B
:10296000C303828761C001962B968830910529F6B2
:1029700080E090E02BE030E0829FE001839FD00D6B
:10298000929FD00D1124C559DC4F4D915C91119748
:102990004115510539F412964D915C9113974115EB
:1029A000510571F1482F4F5F01961B9688309105B4
:1029B00019F7483029F51091C303812F90E0A5E75E
:1029C000B3E020E000E030E0FC90EC01CF19D10949
:1029D000402F50E04C175D071CF4012F0F19232FD7
:1029E0003F5F1B96383081F730E08BE090E0289F06
:1029F000E001299FD00D389FD00D1124C559DC4F1F
:102A000080819181A281B381FE0181939193A193F1
:102A1000B193862F972FDC0186E00D9001928150B3
:102A2000E1F78091C3038A87CDB7DEB7E5E00C9468
:102A3000332D80E090E02BE030E0829FF001839F17
:102A4000F00D929FF00D1124E559FC4F1082118278
:102A50001282138201968830910579F7089580914A
:102A6000C3038F5F8093C303EBE6F3E080E090E065
:102A70004BE050E02281338160817181262B372B1E
:102A800021153105B9F02091C30330E06285261B82
:102A900031092837310574F0849FD001859FB00D2E
:102AA000949FB00D1124A559BC4F1D921D921D92EB
:102AB0001C92139701963B9688309105D9F608959C
:102AC0008091CE059091CF052091B0053091B10550
:102AD000822793272091AC053091AD058223932363
:102AE0000097B9F48091D0059091D1052091B2055D
:102AF0003091B305822793272091AE053091AF0521
:102B000082239323009729F48EEC95E06AEB75E01D
:102B1000E9CE08958091CC039091CD038A3291053E
:102B200028F41092CD031092CC0308951092CD0397
:102B30001092CC038091C8059091C90521E08030A6
:102B4000920731F022E08030920709F090C074C003
:102B50002091DA053091DB058091B0059091B105A7
:102B60002817390709F083C02091DC053091DD0575
:102B70008091B2059091B3052817390709F077C005
:102B800080ED95E06AEC75E0ADDE80E092E0909338
:102B9000C9058093C805E4EDF5E0DF011A9786E0EA
:102BA0000D9001928150E1F7AAECB5E0EEECF3E074
:102BB00086E001900D928150E1F7AAEBB5E0EEECD2
:102BC000F3E086E001900D928150E1F7E4EBF5E04F
:102BD000DF01909686E00D9001928150E1F780919F
:102BE000DA059091D0059093DA058093D005809115
:102BF000DB059091D1059093DB058093D105809101
:102C0000DC059091D2059093DC058093D2058091EC
:102C1000DD059091D3059093DD058093D30588E081
:102C200096E09093C1058093C0058AE290E090936E
:102C3000CD038093CC0308952091DA053091DB0514
:102C40008091B0059091B1052817390781F4209142
:102C5000DC053091DD058091B2059091B305281710
:102C6000390729F480ED95E06AEC75E03BCE0895D4
:102C70000F931F93CF93DF93DC018D919C9111975C
:102C8000EBE6F3E040E050E00BE010E0409F900105
:102C9000419F300D509F300D112425593C4F6081CC
:102CA00071818617970749F41296CD91DC9113979D
:102CB00062817381C617D70741F04F5F5F4F3B9624
:102CC0004830510519F720E030E0C901DF91CF917C
:102CD0001F910F910895A4E0B0E0E1E7F6E10C94B4
:102CE0001A2D8091D205805EE4EBF5E0803188F406
:102CF00081E08093B40511828EE582838091D305B3
:102D00008F7783838091D40584838091D5058583D3
:102D1000DAC06091B0057091B1054091AC05509159
:102D2000AD059A0120953095262B372B8091D20541
:102D30009091D3058217930799F48091AE059091F5
:102D4000AF05809590952091B2053091B305822B07
:102D5000932B2091D4053091D5052817390781F0A0
:102D60002091D2053091D3058FEF2F3F380791F492
:102D70008091D4059091D505EFEF8F3F9E0751F4D8
:102D8000A4EBB5E0E9E5F1E086E001900D92815019
:102D9000E1F799C0C90186279727842395230097D7
:102DA00091F44091D4055091D5058091B205909150
:102DB000B305842795276091AE057091AF058623F2
:102DC0009723009769F08091A8059091A9059A83AF
:102DD00089838091AA059091AB059C838B8304C065
:102DE0003A8329835C834B83CE01019641DF0097B0
:102DF00009F060C084EB95E06FEF70E046E050E0D2
:102E00000E947B25A4EDB5E086E0FD0111928A9534
:102E1000E9F75A97EEECF3E086E001900D928150CD
:102E2000E1F7AAECB5E0EEECF3E086E001900D925C
:102E30008150E1F789819A819093DB058093DA05CF
:102E40008B819C819093DD058093DC058091B0059A
:102E50009091B1059093D1058093D0058091B205F2
:102E60009091B3059093D3058093D20580E091E0D3
:102E70009093C9058093C8059093C3058093C205BC
:102E800088E090E09093C5058093C40586E0809328
:102E9000C60584E08093C70588E096E09093C1055D
:102EA0008093C0058AE290E09093CD038093CC0399
:102EB00081E022C0A4EBB5E0FC01349686E00190ED
:102EC0000D928150E1F7AAEBB5E0EEECF3E086E07D
:102ED00001900D928150E1F788E090E09093C10558
:102EE0008093C0058091CC039091CD030E96909372
:102EF000CD038093CC0380E02496E2E00C94362D41
:102F0000A4E0B0E0E6E8F7E10C941A2DFC01408162
:102F100051812091B0053091B1052427352780914A
:102F2000AC059091AD05282339232115310581F495
:102F3000228133818091B2059091B3058227932736
:102F40006091AE057091AF0586239723009769F0D5
:102F50008091A8059091A9059A8389838091AA05FB
:102F60009091AB059C838B8304C05A8349833C8337
:102F70002B83CE0101967CDE21E0009709F020E052
:102F8000822F2496E2E00C94362D6F927F928F92DE
:102F90009F92BF92CF92DF92EF92FF920F931F9377
:102FA000CF93DF936C01EB013A01FC01019000200B
:102FB000E9F73197E81BF90BE230F10508F448C056
:102FC000BB240B2D10E0000F111F000F111FF80183
:102FD000E05AFA4F859194917C010097E9F00E94A4
:102FE00036254C01C601B701A4010E940E250097A9
:102FF00049F40E591A4FF80185919491FC010097FC
:1030000019F40AC0B394DDCFC601880D991DBE0125
:10301000A30109959C0102C02FEF3FEF2097D1F04B
:103020008FEF2F3F380751F4CE0161E672E04BE09D
:1030300050E00E941B252BE030E00CC0211531052B
:1030400049F48FE488838BE4898322E030E002C076
:1030500020E030E0C901DF91CF911F910F91FF90E7
:10306000EF90DF90CF90BF909F908F907F906F9068
:1030700008952DB73EB7285030400FB6F8943EBFA4
:103080000FBE2DBFEDB7FEB73196ADB7BEB71296E6
:103090007C936E931197538342838EE592E09583E0
:1030A000848387E191E0978386830E945F262DB712
:1030B0003EB7285F3F4F0FB6F8943EBF0FBE2DBFFF
:1030C0000895A2E0B0E0E7E6F8E10C94122D5C016F
:1030D0006B017A01DC018C91873121F087E18C93BF
:1030E00011961C92F5018181E82FF0E0EE0FFF1F91
:1030F000EE0FFF1FE05AFA4F8F5FD50111968C93A8
:1031000025913491B901C90129837A830E9436251A
:10311000082F192F69817A81E016F10608F48701DA
:10312000C601A8010E941B25D5011196EC911197AB
:10313000F0E0EE0FFF1FEE0FFF1FE05AFA4F8591F0
:103140009491009731F086EF9FEFFC01E01BF10BAB
:103150008F01C8012296EAE00C942E2D0E94E40310
:1031600080E090E008958AE09DE86EE579E10C94B6
:10317000900C0F931F93CF93DF93C091E503D091F1
:10318000E603FE01E05BFF4F408102E310E0041B19
:10319000110901151105D9F08091CC039091CD034F
:1031A0000817190708F08C019E01225E3F4F240F7B
:1031B000311D6091E3037091E403C901A8010E94ED
:1031C0007225FE01E05BFF4F8081800F80838E01BE
:1031D000025E1F4FFE01E05BFF4F4081C8016AE0C5
:1031E00070E050E00E946525FC01009791F4409149
:1031F000CC035091CD038091E3039091E4036AE006
:1032000070E00E946525009709F453C0FE01E15B60
:10321000FF4F1082FE0180E090E0268D2D3009F4F2
:10322000168E0196319682339105B9F78E8D8132D3
:1032300031F4FE01EB57FF4F81E0808301C080E055
:1032400090E04E96BE016F5A7F4F8C0F9D1F41E359
:1032500050E09BDE2FEF873F92075CF4FE01EC57B6
:10326000FF4F21E0208326EF3FEFA901481B590BB8
:10327000CA01181619067CF4FE01E80FF91FEF5A6F
:10328000FF4F2081233219F02AE020830196FE01AE
:10329000ED57FF4F8083FE01EC57FF4F808188235D
:1032A00041F482E3D8011D928A95E9F7C05BDF4FB4
:1032B0001882DF91CF911F910F910895CF93DF93E3
:1032C000C091E503D091E6038091DA0386FF18C030
:1032D000FE01E05BFF4F1082FE01ED57FF4F1082B1
:1032E000FE01EC57FF4F1082FE01EB57FF4F10829B
:1032F000CE014E96FC0182E3DF011D928A95E9F72B
:103300008091DA0380FF42C0FE01ED57FF4F10822B
:10331000FE01EC57FF4F80818823C1F18E8D8132F1
:1033200031F4FE01EB57FF4F81E0808301C080E064
:1033300090E04E96BE016F5A7F4F8C0F9D1F41E368
:1033400050E023DEFE01EC57FF4FBFEF873F9B07A6
:103350004CF421E0208326EF3FEFA901481B590BD5
:10336000CA0105C01082FE01E05BFF4F10821816F3
:10337000190664F4FE01E80FF91FEF5AFF4F2AE027
:103380002083FE01ED57FF4F019680838091DA0381
:1033900081FF01C0EEDE8091DA0390E082FD0AC079
:1033A0009C01237030702115310521F488749070D0
:1033B0000097A1F0FE01ED57FF4F6081662331F0C9
:1033C000CE018F5A9F4F70E0DAD908C0CB57DF4F3C
:1033D0008881882319F080E18093DA03DF91CF910F
:1033E0000895AAE0B0E0E7EFF9E10C94102DEDB6F6
:1033F000FEB68091DA0381FFA0C0E091E303F09173
:10340000E4038091CC039091CD038E0F9F1FAF01F9
:1034100021912D3031F02A3021F0AF018E179F0716
:10342000B0F7FA0110826091E3037091E403CA01DE
:10343000861B970BCDB6DEB69DB68D2C2DB73EB74D
:10344000281B390B0FB6F8943EBF0FBE2DBF2F5F60
:103450003F4FC22EB32EAC014F5F5F4FC9010E9498
:10346000AD251092AB071092AA0708ED11E096EF78
:10347000D92E8AE0A82E2CC06091E3037091E4035A
:10348000680F791FA801481B590B8C2D9B2D7DDDE2
:10349000482F97FF03C03D2D381B432F50E020914C
:1034A000AA073091AB07240F351FB9016F5F7F4F1B
:1034B0007093AB076093AA07E091E303F091E403F4
:1034C000E20FF31FA0824817590751F0009741F00F
:1034D0008091AA079091AB07E1E0883D9E0760F2DA
:1034E000E091E303F091E4037C97848595859A83CA
:1034F0008983868597859C838B8384899589988722
:103500008F838AE09DE89E838D83CE010196909300
:10351000DE038093DD0384E00E94AB0CDCDB0E94C1
:103520003C091092AB071092AA079401832F982DA3
:103530000FB6F8949EBF0FBE8DBF0FB6F894FEBEB7
:103540000FBEEDBE2A96ECE00C942C2DA4E0B0E06A
:10355000ECEAFAE10C941A2D8091550190915601F4
:103560009A83898380915701909158019C838B8322
:10357000CE01019660E070E041EF59E10E94D70B67
:10358000009761F400D08DE692E0EDB7FEB792832C
:1035900081830E9411260F900F9005C02AE03DE81C
:1035A000FC01358324832496E2E00C94362D0F939E
:1035B0001F93CF93DF938091DA0380FF04C080E1F3
:1035C0008093DA0361C0E091E303F091E403108299
:1035D0008091E3039091E40364E973E00E94242561
:1035E0008091E3039091E40364E774E00E94242552
:1035F0000091E3031091E403E80109900020E9F74A
:103600002197C01BD10B80E094E00E94362500D0AA
:1036100000D000D0EDB7FEB73196C00FD11FADB7C7
:10362000BEB71296DC93CE93119722E832E0338333
:103630002283958384830E948D268DB79EB706963C
:103640000FB6F8949EBF0FBE8DBF8091E30390919B
:10365000E40365E874E00E9424258091E3039091DF
:10366000E40360E074E00E9424258091E3039091DC
:10367000E403FC01DF010D900020E9F7BD0161507A
:1036800070406E1B7F0B7BD8DF91CF911F910F9104
:1036900008950F931F93CF93DF938091DA0380FFF8
:1036A00004C080E18093DA0361C0E091E303F0910C
:1036B000E40310828091E3039091E4036DE074E0F1
:1036C0000E9424258091E3039091E40364E774E071
:1036D0000E9424250091E3031091E403E80109907E
:1036E0000020E9F72197C01BD10B84E694E00E94EB
:1036F000362500D000D000D0EDB7FEB73196C00F10
:10370000D11FADB7BEB71296DC93CE93119726E8C2
:1037100032E033832283958384830E948D268DB784
:103720009EB706960FB6F8949EBF0FBE8DBF8091D0
:10373000E3039091E40365E874E00E9424258091FE
:10374000E3039091E40364E674E00E9424258091F1
:10375000E3039091E403FC01DF010D900020E9F701
:10376000BD01615070406E1B7F0B09D8DF91CF9176
:103770001F910F910895CF93DF93C2EEDBE180E0BC
:1037800090E5BE010E94900C8FE190E4BE010E9482
:10379000900CDF91CF910895E091E503F091E6035D
:1037A000878D90A12DE18431920759F481A192A1D6
:1037B000009739F082D7E091E503F091E60312A279
:1037C00011A20895EF92FF920F931F93CF93DF936F
:1037D0008091DA0385FD02C087FF01C0DDDF8091A3
:1037E000DA0384FF01C0D8DF9091DA0396FF09C0A5
:1037F000E091E503F091E60310A2178E868D887F95
:10380000868F91FFA8C0C091E503D091E6038F8D0C
:1038100098A1009719F08E8D81FF9DC08091CC03F7
:103820009091CD038A309105B8F0E090E303F090D9
:10383000E403C70161EA74E045E050E00E943F25DF
:10384000009751F487010B5F1F4FC80160E270E0E1
:103850000E948D25009729F487ED9AE198A38F8F18
:103860007AC0DC011C92F7018581882329F4C80104
:103870006AE974E00E942F2584E994E00E943625CD
:10388000C82FD0E0C8016EE874E0AE010E94572551
:10389000009729F4C8018C0F9D1F25D25CC0C80178
:1038A0006FE270E00E94BC25E091E503F091E60331
:1038B000009729F0DC0111968C91119703C0D70174
:1038C00015968C9183A3C091E503D091E603C801BE
:1038D0000E949B049AA389A3E091E503F091E6037B
:1038E00081A192A1009739F5E80109900020E9F73C
:1038F0002197C01BD10BC00FD11FFE0131978081D2
:103900008F3211F08FE28993CE0167E874E00E9454
:103910002F25E090E503F090E603C8010E949B0488
:10392000F70192A381A3E091E503F091E60381A161
:1039300092A1009719F084E19DE10BC0C017D10757
:1039400009F021971882E091E503F091E60389E4FC
:103950009BE190A3878F8091DA0390E082FD0AC0FB
:103960009C01237030702115310521F4887490700A
:10397000009779F0A091E503B091E6035F96ED9191
:10398000FC919097309729F05E968C915E9781FF1D
:103990000995CDB7DEB7E6E00C94322DE091E50352
:1039A000F091E603A1A1B2A184A195A116969C93E2
:1039B0008E9315976091E3037091E4032489358910
:1039C00040E050E081A192A10E94F8049B01AC016B
:1039D000611571058105910521F480E28093DA0378
:1039E000DBCEE091E503F091E60384899589A0E0C0
:1039F000B0E0281739074A075B0718F4868D846002
:103A0000868F84A195A1A6A1B7A1820F931FA41FA1
:103A1000B51F80A791A7A2A7B3A78091E3039091B8
:103A2000E403B9010C94BF13A2E0B0E0EAE1FDE1C8
:103A30000C94162D8091DA0380FF16C0E091E50307
:103A4000F091E603868D80FF09C080A591A5A2A50F
:103A5000B3A584A395A3A6A3B7A306C08160868F50
:103A600014A215A216A217A2E091E503F091E603B5
:103A7000868D80FDA7C0E091E303F091E4031082FE
:103A80008091E3039091E4036AE872E0DDD7E0916E
:103A9000E503F091E60301A0F2A1E02DE780F084B8
:103AA00000E010E0E114F10401051105D9F1809165
:103AB000E3039091E40364E774E0C6D78091E303E5
:103AC0009091E403FC0101900020E9F73197E81B95
:103AD000F90B2DB73EB7285030400FB6F8943EBFD3
:103AE0000FBE2DBF2F5F3F4FE80FF91FADB7BEB719
:103AF0001296FC93EE93119787EA94E0F901938371
:103B00008283D9011496ED92FD920D931C93179721
:103B10000E948D26EDB7FEB738960FB6F894FEBF1B
:103B20000FBEEDBFE091E503F091E603A1A1B2A1C4
:103B300016961C921E92159781A192A1BE016F5FED
:103B40007F4F22E030E040E050E00E94F804E09136
:103B5000E503F091E60301A0F2A1E02D16821582A3
:103B60008091E3039091E40368EE73E06DD7E091F8
:103B7000E503F091E60323A1283539F48091E303AE
:103B80009091E4036EEF72E00BC08091E30390919B
:103B9000E403233519F46DEA72E002C065ED72E0CA
:103BA00053D78091E3039091E403FC01DF010D9072
:103BB0000020E9F7BD01615070406E1B7F0B0E9431
:103BC000BF130BC082FF08C08091DA0382FD04C0DE
:103BD00080E18093DA0301C0E1DE2296E6E00C94F6
:103BE000322D3091DA0330FF07C0E091E503F09108
:103BF000E603868D8160868F8091E5039091E603D0
:103C0000DC015E962C915E9720FD22C0E091E303DB
:103C1000F091E40310828091E3039091E4036AE859
:103C200072E012D78091E3039091E40363E373E0C1
:103C30000BD78091E3039091E403FC01DF010D9029
:103C40000020E9F7BD01615070406E1B7F0B49C039
:103C500032FD38C022FF04C080E18093DA0332C015
:103C6000BC016D5A7F4F819640E350E08ED9BFEF83
:103C7000873F9B073CF426EF3FEFF901E81BF90B68
:103C8000CF0111C09C01275F3F4F2930310520F43F
:103C900080E18093DA030895E091E503F091E60373
:103CA000268D2460268F2091E5033091E603280FAE
:103CB000391FF901ED5AFF4F8AE080832C5A3F4F9C
:103CC000D9011C928091E5039091E6038D5A9F4F94
:103CD000FC0101900020E9F7BF0161507040681BB2
:103CE000790B0C94BF13A0E0B0E0E9E7FEE10C947F
:103CF000152DEC010091E5031091E6030F5D1F4FB8
:103D000092E3F92E80E2E82E1BC0853229F08B3237
:103D100089F4F801E08210C0DB801B82CE0101969D
:103D200060E070E040E150E061D5F8016083DB8243
:103D3000229602C0F8018083FA940F5F1F4F2196EC
:103D40008881882319F0FF2001F70CC0FF2051F073
:103D5000F8011082E091E503F091E60381EF9DE127
:103D600090A3878FCDB7DEB7E7E00C94312DCF93CA
:103D7000DF93DB01FC012081222349F13E2F2F2F0D
:103D800081918032D9F3882311F11C92C901E92F66
:103D9000F82F0DC08C918295807F8C93319628816D
:103DA000922F90539A3008F09750892B8C939F0153
:103DB000EF018081982F90539A3060F390E08F7DCF
:103DC0009070815490408630910520F302C020E02D
:103DD00030E0C901DF91CF910895A5E0B0E0E3EFB5
:103DE000FEE10C94162D7B012FEF2A83E82FF92F8B
:103DF0005E2F3F2F81918032D9F3873621F08337B0
:103E000009F0CBC002C021E001C020E0E52FF32F74
:103E10005E2F3F2F81918032D9F7E52FF32FDF01FD
:103E200081918032E1F3FD01319611968C911197C9
:103E300090E08F7D907084349105C1F085349105B8
:103E40002CF48134910509F0A8C00CC08934910587
:103E500029F08F34910509F0A0C002C050E007C0DE
:103E600052E005C0FD01349653E001C051E03196A7
:103E7000CF0161916032E1F370E06F7D70706E345C
:103E80007105B4F7BE016F5F7F4F2C834D835B8359
:103E90006EDF2C814D815B81009709F47EC06981C2
:103EA0006130A1F0613030F0623041F0633009F0F0
:103EB00074C008C03FEF00E210E00BC03FEF06E225
:103EC00010E007C033EE09E210E003C03FE003E278
:103ED00010E05330E1F48DB79EB70A970FB6F8940F
:103EE0009EBF0FBE8DBFEDB7FEB73196ADB7BEB763
:103EF0001296FC92EE921197428313828BEA94E021
:103F00009583848366831782309530871EC0050FA2
:103F1000111D222339F1D8012C91EDB7FEB73A9744
:103F20000FB6F894FEBF0FBEEDBF3196ADB7BEB76A
:103F30001296FC92EE921197428313828BEA94E0E0
:103F4000958384836683178220871186B8D6282FAD
:103F500030E0EDB7FEB73A960FB6F894FEBF0FBE4D
:103F6000EDBF1DC0BE016F5F7F4F3B8300DF009739
:103F7000A1F0BE016E5F7F4FFADED8019C912A81CD
:103F80003B81832F822380958923998192239323D8
:103F9000892B8C9320E030E002C02FEF3FEFC90166
:103FA0002596E6E00C94322DFC01DB01808188230C
:103FB000A1F02181222389F0822F90E0883391059E
:103FC0000CF059C090917C00822F8053907F892BF8
:103FD00080937C0020E038E008C020E030E0809151
:103FE0007C00807F832B80937C0080917A008064AA
:103FF00080937A0080917A0086FDFCCF80917800D2
:1040000090917900492F5527BA016F7070704F70E9
:104010006A30710510F4405D01C0495CFD014193B7
:10402000AC0164E0569547956A95E1F7BA016F7067
:1040300070704F706A30710510F4405D01C0495CCA
:104040004083FD013296AC014F7050708F704A3042
:10405000510510F4805D01C0895C808380E2139675
:104060008C93139714961C922C5F3F5F383008F4A2
:10407000B6CF30E002C02FEF3FEFC90108956115C0
:104080007105C9F12DB73EB7205130400FB6F894F5
:104090003EBF0FBE2DBFEDB7FEB73196ADB7BEB771
:1040A00012969C938E9311978BEB94E0938382836B
:1040B00075836483CB01019697838683CB01029637
:1040C00091878087CB01039693878287CB010496E3
:1040D000958784876B5F7F4F778766873ED62DB73E
:1040E0003EB7205F3F4F0FB6F8943EBF0FBE2DBFC7
:1040F0008630910511F08FEF089580E00895A7E0D4
:10410000B0E0E5E8F0E20C94142D7B016A01E82FA1
:10411000F92FCF0121912032E1F38E010E5F1F4F65
:104120002223D1F0B801ABDF87FD51C080E090E0E1
:10413000B80146E050E00E94B3030E94CF03898398
:1041400082E190E0BE016F5F7F4F41E050E00E944E
:10415000B30320E030E03DC0C80160E070E046E01D
:1041600050E00E94622B8DB79EB742970FB6F8942D
:104170009EBF0FBE8DBFEDB7FEB73196ADB7BEB7D0
:104180001296FC92EE921197D382C2828FED94E048
:10419000958384838A81868317828B8180871186A9
:1041A0008C81828713868D81848715868E81868790
:1041B00017868F81808B118A82D59C018DB79EB71F
:1041C00042960FB6F8949EBF0FBE8DBF02C02FEF70
:1041D0003FEFC9012796E8E00C94302DA5E0B0E050
:1041E000E4EFF0E20C94182DE82FF92FCF01219184
:1041F0002032E1F38E010E5F1F4F2223D9F0B80168
:104200000E943A14882339F586E090E0B80144E032
:1042100050E00E94B3030E94CF03898382E190E0C3
:10422000BE016F5F7F4F41E050E00E94B30320E08A
:1042300030E013C08091B0059091B1059B838A83D3
:104240008091B2059091B3059D838C83C8010E9433
:10425000D5139C0102C02FEF3FEFC9012596E4E082
:104260000C94342DA5E0B0E0E8E3F1E20C94182DB5
:10427000E82FF92FCF0121912032E1F38E010E5F5B
:104280001F4F2223D9F0B8010E943A14882339F530
:104290008AE090E0B80144E050E00E94B3030E943D
:1042A000CF03898382E190E0BE016F5F7F4F41E0E1
:1042B00050E00E94B30320E030E013C08091AC05D1
:1042C0009091AD059B838A838091AE059091AF0557
:1042D0009D838C83C8010E94D5139C0102C02FEFDF
:1042E0003FEFC9012596E4E00C94342DA5E0B0E041
:1042F000ECE7F1E20C94182DE82FF92FCF01219172
:104300002032E1F38E010E5F1F4F2223D9F0B80156
:104310000E943A14882339F58EE090E0B80144E019
:1043200050E00E94B3030E94CF03898382E190E0B2
:10433000BE016F5F7F4F41E050E00E94B30320E079
:1043400030E013C08091A8059091A9059B838A83D2
:104350008091AA059091AB059D838C83C8010E9432
:10436000D5139C0102C02FEF3FEFC9012596E4E071
:104370000C94342DA0E2B0E0E0ECF1E20C94132DAB
:104380006B017A0100D000D000D0EDB7FEB73196B6
:10439000ADB7BEB712969C938E93119780E095E0CF
:1043A000938382838E010F5F1F4F15830483D5D4BF
:1043B000B82E0F900F902EE131E0EDB7FEB73283AB
:1043C0002183148303830E948A0A0F900F900F9019
:1043D0000F90FB2DF13021F58DB79EB708970FB6E2
:1043E000F8949EBF0FBE8DBFEDB7FEB73196ADB747
:1043F000BEB71296DC92CE921197F382E2828DEFD5
:1044000094E0958384831783068359D49C01EDB788
:10441000FEB738960FB6F894FEBF0FBEEDBF02C0D0
:104420002FEF3FEFC901A096E9E00C942F2D0E94D9
:1044300035040E9454040C94FB0A0E947D070E94DC
:10444000A4090E94B31882D896C908950F931F93A8
:10445000CF93DF938091DE07882309F48AC01092FE
:10446000DE078091C4039091C50301969093C50324
:104470008093C4039FB7F89480917F05882329F423
:1044800088E080937F0580E001C081E09FBF8823A2
:1044900009F06FC08091C4039091C5036AE070E099
:1044A0000E94D42C009709F046C0C0E0D0E008E894
:1044B00010E0C09FC001C19F900DD09F900D1124AE
:1044C00089519C4F9093E6038093E50382E00E941C
:1044D000AB0C8091CC039091CD03009721F00E940A
:1044E0006B160E943C092196C330D10511F7C0E03C
:1044F000D0E0CE01880F991F9E0143E0220F331FA9
:104500004A95E1F7820F931F8455984F9093DE03ED
:104510008093DD0385E00E94AB0C8091CC039091E9
:10452000CD03009721F00E946B160E943C09219652
:10453000C530D105F1F68091C4039091C50362E3C3
:1045400070E00E94D42C009711F40E940208809120
:10455000C4039091C50364EF71E00E94D42C0097CE
:1045600031F41092C5031092C4030E942F151092CB
:104570007F05DF91CF911F910F9108950E94C5088B
:104580000E94050A63CFCF93DF938230910510F428
:1045900082E090E0E091E107F091E20740E050E036
:1045A00020E030E026C06081718168177907E0F073
:1045B0006817790781F4828193812115310531F0E3
:1045C000D90113969C938E9312972BC09093E20778
:1045D0008093E10726C04115510519F0641775074E
:1045E00018F4AB01E901DF019F0172816381E72FBC
:1045F000F62F3097C1F64115510501F1481B590BB3
:104600004430510580F412968D919C911397209718
:1046100019F09B838A8304C09093E2078093E1079B
:10462000FD01329646C0FD01E40FF51F8193919381
:104630004250504011965C934E933BC02091DF074F
:104640003091E0072115310541F42091510130915D
:1046500052013093E0072093DF07209153013091FE
:1046600054012115310541F42DB73EB740914F015A
:1046700050915001241B350BE091DF07F091E007CA
:10468000E217F307A0F42E1B3F0B2817390778F029
:10469000AC014E5F5F4F2417350748F04E0F5F1F88
:1046A0005093E0074093DF078193919302C0E0E0CD
:1046B000F0E0CF01DF91CF910895CF93DF93009782
:1046C00009F491C0FC013297138212826091E107D4
:1046D0007091E2076115710581F420813181280F05
:1046E000391F8091DF079091E0078217930799F5B2
:1046F000F093E007E093DF0776C0DB0180E090E015
:1047000002C0CD01D901AE17BF0748F412962D9112
:104710003C91139721153105A1F7CD0121C0B38339
:10472000A283EF01499159919E01240F351FA217D1
:10473000B30779F42D913C911197240F351F2E5F0B
:104740003F4F3183208312962D913C9113973383F1
:104750002283009729F4F093E207E093E10743C036
:10476000DC011396FC93EE9312974D915D91A40F8B
:10477000B51FEA17FB0769F420813181240F351F2B
:104780002E5F3F4FEC0139832883228133813B83A5
:104790002A83E0E0F0E002C0FB01BC01DB011296DD
:1047A0008D919C9113970097B9F79B012E5F3F4F16
:1047B0008D919C911197820F931F4091DF0750912B
:1047C000E0074817590779F4309729F41092E20767
:1047D0001092E10702C013821282225030403093BF
:1047E000E0072093DF07DF91CF9108952F923F924A
:1047F0004F925F926F927F929F92AF92BF92CF92B1
:10480000DF92EF92FF920F931F93CF93DF933B01C1
:10481000EA016115710519F0FB01808391832097EE
:1048200039F09E01225030402332310508F0D4C0C7
:10483000C82ED92EF60111916F017F01812F90E0D2
:10484000E5D00097B9F71D3231F4F60111917F01DF
:104850009924939406C01B3219F4F60111917F013B
:104860009924209719F0C031D105D1F4103389F47F
:10487000F7018081883711F0883559F4F7011181EB
:1048800082E090E0E80EF91E92E0992AC0E1D0E0C3
:1048900007C0209729F41033B1F0CAE0D0E02BC054
:1048A000CA30D10541F1C031D10521F0C830D10560
:1048B000A9F409C02FEFA22E2FEFB22E2FEFC22E98
:1048C0002FE0D22E20C0C8E0D0E09FEFA92E9FEFAE
:1048D000B92E9FEFC92E9FE1D92E15C09E01442706
:1048E00037FD4095542F6FEF7FEFCB010E94E82CEE
:1048F00059016A0108C089E9A82E89E9B82E89E919
:10490000C82E89E1D82E60E020E030E0A9011E0128
:10491000442437FC4094542C012F00530A3060F09B
:10492000812F81548A3110F4075006C0812F81569F
:104930008A3150F5012F0755802F90E08C179D0785
:104940001CF56F3FE9F0A216B306C406D506A8F021
:10495000CA01B901A20191010E94B52C9B01AC01D1
:10496000802F90E0A0E0B0E0280F391F4A1F5B1FA6
:10497000281739074A075B0710F46FEF01C061E0A1
:10498000F70111917F01C8CF6114710481F0662392
:1049900039F00894E108F108F301F182E08207C0E0
:1049A00091FE05C0C7010297F3019183808390FEB9
:1049B00007C050954095309521953F4F4F4F5F4F21
:1049C00067FF0DC082E290E09093EA078093E907C9
:1049D0002FEF3FEFA90103C020E030E0A901B901AA
:1049E000CA01DF91CF911F910F91FF90EF90DF905F
:1049F000CF90BF90AF909F907F906F905F904F90BF
:104A00003F902F900895F8940C94472D9111A2C6D1
:104A1000803219F089508550D0F70895FB01DC01F0
:104A200004C08D910590801921F441505040C8F781
:104A3000881B990B0895FB01DC0102C005900D92C3
:104A400041505040D8F70895FB01DC010D90002043
:104A5000E9F7119705900D920020E1F70895FB0109
:104A6000DC0105900D920020E1F70895FC0105900E
:104A70000020E9F7809590958E0F9F1F0895FB0108
:104A8000DC014150504088F08D9181341CF08B3511
:104A90000CF4805E659161341CF06B350CF4605E43
:104AA000861B611171F3990B0895881BFCCFFB01E4
:104AB000DC014150504030F08D910590801919F47F
:104AC0000020B9F7881B990B0895FC014150504014
:104AD00030F001900616D1F73197CF01089588275D
:104AE00099270895FB01DC0102C001900D9241500D
:104AF0005040D8F70895DC0101C06D9341505040FB
:104B0000E0F70895FB01DC010D900020E9F7119713
:104B100001900D920020E1F70895FC018191861724
:104B200021F08823D9F7992708953197CF01089567
:104B3000FB01DC0101900D920020E1F70895FB01DB
:104B4000DC014150504030F08D910190801919F4F2
:104B50000020B9F7881B990B0895FB01DC01415037
:104B6000504048F001900D920020C9F701C01D92FD
:104B700041505040E0F70895FC0181E090E0019041
:104B8000061609F4CF010020D1F7019708950F937D
:104B90001F93CF93DF938C01EB01009711F42097C3
:104BA000C1F181E090E06EE070E0B2D5FC019C01C3
:104BB000009789F180E88383209771F0D387C287BB
:104BC00081E883838091E3079091E407009721F4C3
:104BD000F093E407E093E30701151105E1F0118775
:104BE00000878381826083838091E5079091E60747
:104BF000009789F4F093E607E093E5078091E707D3
:104C00009091E807009739F4F093E807E093E707FD
:104C100002C020E030E0C901DF91CF911F910F91D8
:104C20000895A0E0B0E0E6E1F6E204C7FE013596A3
:104C3000619171918091E5079091E607DC011396EF
:104C40002C911397286013962C93AF01C5D0E09157
:104C5000E507F091E6072381277F23832096E2E092
:104C600005C7AEE0B0E0E6E3F6E2E2C60D891E89D4
:104C70008F89988D26E02C831A83098397FF02C0C1
:104C800080E090E801979E838D839E01255E3F4FD3
:104C9000CE010196698D7A8DA9019ED04D815E81EC
:104CA00057FD0AC02F813885421753070CF49A012B
:104CB000020F131FF80110822E96E4E0D5C6AEE075
:104CC000B0E0E4E6F6E2B4C60D891E898F89988DBE
:104CD0002EE02C831A83098397FF02C080E090E8BE
:104CE00001979E838D839E01255E3F4FCE010196E5
:104CF000698D7A8DA90170D04D815E8157FD0AC002
:104D00002F813885421753070CF49A01020F131FA5
:104D1000F80110822E96E4E0A7C6AEE0B0E0E2E92A
:104D2000F6E286C60D891E898EE08C831A8309837C
:104D30008FEF9FE79E838D839E01275E3F4FCE01BD
:104D400001966F89788DA90147D0EF81F885E00F32
:104D5000F11F10822E96E4E087C6AEE0B0E0E2EBF1
:104D6000F6E268C68DE08C838B899C899A8389835F
:104D70009E01295E3F4FCE0101966D897E89A90172
:104D800088D32E96E2E072C6AEE0B0E0E9ECF6E23F
:104D90004FC68C01CB01BA0146E04C831A830983CC
:104DA00097FF02C080E090E801979E838D83CE013B
:104DB0000196A90111D04D815E8157FD0AC02F8156
:104DC0003885421753070CF49A01020F131FF8019C
:104DD00010822E96E4E048C6ACE0B0E0E1EFF6E2E7
:104DE00019C66C011B018A01FC011782168283819E
:104DF00081FFC4C12E010894411C511CF60193810E
:104E0000F10193FD859193FF81911F01882309F49E
:104E1000B1C1853239F493FD859193FF81911F01D2
:104E2000853221F490E0B601FBD4E8CFEE24FF24D4
:104E300020E02032B0F48B3269F08C3228F48032DA
:104E400051F0833271F40BC08D3239F0803349F464
:104E500021602CC02260246029C0286027C0206106
:104E600025C027FD2CC0382F30533A3098F426FF48
:104E700008C08E2D880FE82EEE0CEE0CE80EE30E27
:104E800015C08F2D880FF82EFF0CFF0CF80EF30EB7
:104E900020620CC08E3221F426FD6CC1206406C055
:104EA0008C3611F4206802C0883649F4F10193FD74
:104EB000859193FF81911F01882309F0BACF982F24
:104EC0009554933018F09052933028F40C5F1F4F94
:104ED000FFE3F9830DC0833631F0833771F08335FA
:104EE00009F05CC021C0F801808189830E5F1F4FEB
:104EF000420171E0A72EB12C15C062E0662E712C24
:104F0000600E711EF8018080918026FF03C06E2D17
:104F100070E002C06FEF7FEFC4012C8734D45C01D6
:104F200083012C852F7716C052E0652E712C600E00
:104F3000711EF8018080918026FF03C06E2D70E005
:104F400002C06FEF7FEFC4012C8712D45C012C8567
:104F50002068830123FD1EC007C080E290E0B601F7
:104F60002C875ED4FA942C858F2D90E0A816B90674
:104F7000A0F310C0F40127FD859127FF81914F0117
:104F800090E0B6012C874CD42C85F110FA9408944B
:104F9000A108B108A114B10469F7E9C0843611F081
:104FA000893641F527FF08C0F8016081718182814F
:104FB00093810C5F1F4F09C0F801608171818827C0
:104FC00077FD8095982F0E5F1F4F4FE6B42EB222CB
:104FD00097FF09C090958095709561957F4F8F4F91
:104FE0009F4FF0E8BF2AA2012AE030E060D4782E7B
:104FF000741844C0853731F43FEEB32EB2222AE054
:1050000030E025C099EFB92EB2228F36C1F080373B
:1050100020F4883509F0AEC00DC0803721F0883704
:1050200009F0A8C002C020E1B22AB4FE0BC084E09F
:10503000B82A08C0B4FE09C0E6E0BE2A06C028E0CF
:1050400030E005C020E130E002C020E132E0B7FEF0
:1050500008C0F80160817181828193810C5F1F4FCC
:1050600007C0F8016081718180E090E00E5F1F4F02
:10507000A2011DD4782E7418FFE7BF22B6FE0BC024
:105080002EEFB2227E1438F4B4FE07C0B2FC05C085
:105090008FEEB82202C0A72C01C0AE2C8B2D90E061
:1050A000B4FE0DC0FE01E70DF11D2081203319F47F
:1050B000E9EEBE2209C0A394B2FE06C004C0867801
:1050C0009070009709F0A3948B2C9924B3FC13C023
:1050D000B0FE0EC0AF1428F4E72CEF0CEA18AF2C8A
:1050E00007C0E72C05C080E290E0B60199D3A394F5
:1050F000AF14C8F304C0AF1410F4FA1801C0FF24B1
:1051000084FE0EC080E390E0B6018AD382FE1DC00B
:1051100081FE03C088E590E010C088E790E00DC0F4
:10512000C40186789070009781F081FC02C080E213
:1051300001C08BE2B7FC8DE290E0B60171D305C0EF
:1051400080E390E0B6016CD3EA947E14C8F37A94BD
:10515000F201E70DF11D808190E0B60161D3772067
:10516000B1F705C080E290E0B6015AD3FA94FF206F
:10517000C9F744CEF6012681378102C02FEF3FEFF9
:10518000C9012C96E2E162C420FD09C0FC0123FDA7
:1051900005C022FF02C07383628351834083089558
:1051A000EF92FF920F931F9344FD10C046FD10C075
:1051B000DB01FC01AA0FBB1FEE1FFF1F1094D1F7EC
:1051C0006A0F7B1F8E1F9F1F31E003C033E001C0B9
:1051D00034E0660F771F881F991F3150D1F77B018C
:1051E0008C01E20EF11C011D111DA8019701B701F0
:1051F000CA011F910F91FF90EF900895EF92FF92D7
:105200000F931F93CF93DF938C01C801C7D2EC019A
:1052100097FD07C0FBDB0097C1F77E01CE01B80107
:105220002BD3CE01CDB7DEB7E6E01CC48F929F92A0
:10523000AF92BF92DF92EF92FF920F931F93DF9393
:10524000CF930F92CDB7DEB74C01D62E5A01122F55
:10525000A5D28B3219F08D3241F41068DA9409F43A
:1052600065C0C4019BD297FD61C0312F3D7F232FC4
:105270002073E1F48033D1F4DA9409F443C0C4011B
:1052800039838CD2398197FD3DC03260883711F067
:10529000883551F43064DA94A9F1C40139837ED29F
:1052A000398197FF03C02EC036FF3061EE24FF2402
:1052B0008701282F2053283088F034FD09C02A3078
:1052C00068F036FF05C02F7D422F4151463028F04F
:1052D000B4013983D1D2398112C02750C801B70136
:1052E000432F39835DDF7B018C0139813260DA9491
:1052F00061F0C401398352D2398197FFDACF31FD91
:1053000004C014C0EE24FF24870137FF08C01095A5
:105310000095F094E094E11CF11C011D111DC501E4
:10532000B801A701232F30DF81E001C080E00F909A
:10533000CF91DF911F910F91FF90EF90DF90BF9081
:10534000AF909F908F900895A1E2B0E0E9EAF9E272
:1053500065C36C018A0179019E012F5F3F4F80E296
:10536000F90111928A95E9F7F601838080E090E0D7
:10537000BB24992470E0A1E0B0E0F70183FCA59084
:1053800083FEA1907F01AA2009F47DC0FA2DFE358D
:1053900011F4009751F1472F50E04817590744F492
:1053A0004A2D4D3551F14D3219F4992001F103C0C8
:1053B000992009F4BA2C4A2D469546954695F9014F
:1053C000E40FF11D4A2D47703D0102C0660C771CA9
:1053D0004A95E2F7908096289082AB1459F0AB146E
:1053E00010F4A394E8CFAA94E6CF71E004C0992406
:1053F000939401C099240196C0CF992019F08E8111
:1054000080628E83772351F0CE018196FE01319622
:10541000208120952193E817F907D1F7BB24B39495
:105420004E010894811C911C01C0BB24C60169A3D4
:10543000B5D169A197FD1FC0282F269526952695E1
:10544000F401E20FF11D208130E0AC014770507093
:1054500002C0359527954A95E2F720FD03C0B601B5
:105460000BD209C00115110519F0F80181938F01C4
:105470006150D9F602C0BB2031F40115110529F0A5
:10548000F801108202C0EE24FF24C701A196EEE0CD
:10549000E1C24F925F926F927F929F92AF92BF92C2
:1054A000CF92DF92EF92FF920F931F93DF93CF93F0
:1054B0000F92CDB7DEB77C016B013A01FC01178278
:1054C000168200E0DBC0812F90E0A0DA009719F08F
:1054D000C70194DED3C0153241F4F601A3FC359127
:1054E000A3FE31916F01353251F4C70157D197FDB9
:1054F000D1C0181709F4C2C0B701BED1CDC03A322D
:1055000039F4A3FC3591A3FE31916F0111E001C084
:1055100010E099240EC01260692D70E080E090E0E8
:1055200040E23EDE962EF601A3FC3591A3FE3191BA
:105530006F01232F20532A3070F311FF03C09920ED
:1055400019F4AAC099249A94383619F03C3689F493
:1055500009C0F601A3FC3591A3FE31916F013836E5
:1055600041F418601460F601A3FC3591A3FE31915B
:105570006F01332309F490C080EA95E0632F70E057
:105580003983EBD03981009709F486C0812F10FD53
:1055900008C0F3014080518042E050E0640E751E67
:1055A00002C0442455243E3649F4F7014681578110
:1055B00060E070E0C201212FE7DD60C0333689F47E
:1055C00081FD02C099249394C701E8D097FD62C081
:1055D0004114510419F0F20181932F019A94A1F71B
:1055E0004BC03B3551F4C701692DA2019601ACDED9
:1055F0006C01009709F040C03AC0C7013983FEDD55
:10560000398197FD47C03F3641F1303728F43436B1
:1056100011F1393621F524C0333719F03537F9F453
:105620001AC0C701BBD05C0197FD0FC0EFD900972E
:1056300021F0C501B70120D108C04114510419F06F
:10564000F201A1922F019A9461F741145104A1F043
:10565000F201108211C0106203C0106101C0106419
:10566000C701692DA201212FE1DD882329F4F7016B
:105670008381807379F410C010FF0F5FF701A3805E
:10568000F601A3FC1591A3FE11916F01112309F0FE
:105690001ACF02C0002311F010E002C00FEF1FEF7D
:1056A000C8010F90CF91DF911F910F91FF90EF9064
:1056B000DF90CF90BF90AF909F907F906F905F9062
:1056C0004F900895DC01CB01FC01F999FECF06C093
:1056D000F2BDE1BDF89A319600B40D9241505040B0
:1056E000B8F70895F999FECF92BD81BDF89A992730
:1056F00080B50895262FF999FECF1FBA92BD81BDBE
:1057000020BD0FB6F894FA9AF99A0FBE0196089543
:10571000EF92FF920F931F93CF93DF93689F8001C7
:10572000699F100D789F100D1124C8010E94C3229B
:10573000E82EE7017E01F92EE701209729F08E2D52
:1057400060E070E0A801D7D97E01CE01CDB7DEB709
:10575000E6E088C1992788270895FC010590061680
:1057600021F00020D9F7C00108953197CF010895A5
:10577000FC010590615070400110D8F7809590951C
:105780008E0F9F1F0895FC01615070400190011021
:10579000D8F7809590958E0F9F1F0895CF93DF9334
:1057A000EC013B8130FF36C036FF09C03F7B3B83B5
:1057B0008E819F8101969F838E832A8129C032FF2B
:1057C0000FC0E881F9818081992787FD9095009726
:1057D00019F430623B831EC03196F983E88311C00F
:1057E000EA85FB85CE01099597FF0BC02B813FEF22
:1057F0008F3F930711F480E101C080E2822B8B83FD
:1058000009C02E813F812F5F3F4F3F832E83282F7A
:1058100030E002C02FEF3FEFC901DF91CF91089533
:105820000F931F93CF93DF938C01EB018B8181FF4B
:105830001BC082FF0DC02E813F818C819D81281766
:10584000390764F4E881F9810193F983E88306C09C
:10585000E885F985802F0995009731F48E819F8125
:1058600001969F838E8302C00FEF1FEFC801DF9167
:10587000CF911F910F910895FB01238120FF13C049
:1058800026FD11C03FEF8F3F930769F082832064AC
:105890002F7D238326813781215030403783268313
:1058A000282F30E002C02FEF3FEFC9010895FA0121
:1058B000AA27283051F1203181F1E8946F936E7F4F
:1058C0006E5F7F4F8F4F9F4FAF4FB1E03ED0B4E040
:1058D0003CD0670F781F891F9A1FA11D680F791F81
:1058E0008A1F911DA11D6A0F711D811D911DA11D92
:1058F00020D009F468943F912AE0269F11243019A2
:10590000305D3193DEF6CF010895462F4770405D3C
:105910004193B3E00FD0C9F7F6CF462F4F70405DEB
:105920004A3318F0495D31FD4052419302D0A9F746
:10593000EACFB4E0A6959795879577956795BA9540
:10594000C9F700976105710508959B01AC010A2E06
:1059500006945795479537952795BA95C9F7620FDD
:10596000731F841F951FA01D0895629FD001739F10
:10597000F001829FE00DF11D649FE00DF11D929FEB
:10598000F00D839FF00D749FF00D659FF00D99272A
:10599000729FB00DE11DF91F639FB00DE11DF91F4E
:1059A000BD01CF0111240895AA1BBB1B51E107C003
:1059B000AA1FBB1FA617B70710F0A61BB70B881F9F
:1059C000991F5A95A9F780959095BC01CD0108952E
:1059D000A1E21A2EAA1BBB1BFD010DC0AA1FBB1FF3
:1059E000EE1FFF1FA217B307E407F50720F0A21B65
:1059F000B30BE40BF50B661F771F881F991F1A94D2
:105A000069F760957095809590959B01AC01BD01FB
:105A1000CF0108952F923F924F925F926F927F92A3
:105A20008F929F92AF92BF92CF92DF92EF92FF92AE
:105A30000F931F93CF93DF93CDB7DEB7CA1BDB0B5A
:105A40000FB6F894DEBF0FBECDBF09942A883988FF
:105A500048885F846E847D848C849B84AA84B98406
:105A6000C884DF80EE80FD800C811B81AA81B98112
:105A7000CE0FD11D0FB6F894DEBF0FBECDBFED0126
:105A80000895EE0FFF1F0590F491E02D0994F8940E
:105A9000FFCF626F6F74696E67206574686572739B
:105AA00065780A004E554C4C00302E3220282900D3
:105AB00045544845525345582D5359534C4F473A36
:105AC000202777746573742720657268616C74652C
:105AD0006E206D69742042656665686C3A20257396
