:1000000001C200002AC2000028C2000026C200006F
:1000100024C2000022C2000020C200001EC2000054
:100020001CC200001AC2000018C2000016C2000064
:1000300014C200002DC3000010C200000EC2000058
:100040000CC200000AC2000008C2000006C2000084
:1000500004C2000002C2000000C20000FEC1000095
:10006000FCC10000FAC10000F8C10000F6C10000A8
:10007000830C9A0C130D180E370E5F0E670E020ECE
:100080000022F901906E0025303278002578004674
:10009000757365733A206C6F773D25303258206850
:1000A0006967683D253032582065783D25303258E3
:1000B0000057616C646D616E6E00256868752E2551
:1000C0006868752E256868752E2568687500257521
:1000D0002E25752E25752E257500257300706172ED
:1000E0007365206572726F720025750A0025750AA6
:1000F00000485454502F312E3120323030204F4B95
:100100000A436F6E6E656374696F6E3A20636C6F3D
:1001100073650A00436F6E74656E742D5479706553
:100120003A20746578742F6373733B20636861723F
:100130007365743D7574662D380A0A00436F6E74DA
:10014000656E742D547970653A20746578742F68E3
:10015000746D6C3B20636861727365743D75746681
:100160002D380A0A00436F6E74656E742D547970D1
:10017000653A206170706C69636174696F6E2F7885
:1001800068746D6C2B786D6C3B206368617273656D
:10019000743D7574662D380A0A0043616368652DE5
:1001A000436F6E74726F6C3A206E6F2D636163687B
:1001B000650A43616368652D436F6E74726F6C3AB4
:1001C000206D7573742D726576616C6964617465F8
:1001D0000A436F6E74656E742D547970653A20749D
:1001E0006578742F706C61696E3B2063686172730F
:1001F00065743D7574662D380A0A00485454502FB2
:10020000312E3120343030204261642052657175C6
:100210006573740A436F6E6E656374696F6E3A201E
:10022000636C6F73650A436F6E74656E742D5479D9
:1002300070653A20746578742F706C61696E3B202C
:10024000636861727365743D7574662D380A004386
:100250006F6E74656E742D456E636F64696E673A78
:1002600020677A69700A0042616420526571756581
:1002700073740A00485454502F312E3120343034D6
:100280002046696C65204E6F7420466F756E640A57
:10029000436F6E6E656374696F6E3A20636C6F7343
:1002A000650A436F6E74656E742D547970653A20DB
:1002B000746578742F706C61696E3B20636861723D
:1002C0007365743D7574662D380A0046696C652047
:1002D0004E6F7420466F756E640A00436F6E7465CE
:1002E0006E742D4C656E6774683A20000A0069646C
:1002F000782E68740065636D643F0065636D643FCC
:10030000006964782E687400474554202F002575D5
:100310000A00706F72742025643A203078253032DC
:10032000780025326868783A25326868783A25324C
:100330006868783A25326868783A25326868783A89
:10034000253268687800253032783A253032783A9C
:10035000253032783A253032783A253032783A25CD
:10036000303278006420006675736500686F7374BE
:100370006E616D6500726573657400776472657394
:10038000657400696F0061646320676574006D6166
:1003900063006E65746D61736B0069700067770050
:1003A00068656C700076657273696F6E0065657064
:1003B000726F6D207265696E69740064031304675F
:1003C000037A046C03CD047503EB047B03FB048305
:1003D00003F6188603DD198E03881A92033B1B9AD5
:1003E00003F71A9D037F1BA0035113A5032913AD27
:1003F000039E13000000006364696E6F707375786C
:10040000585B000014BE88E10FB6F894809360003A
:10041000109260000FBE10926E0010926F0010924A
:10042000700011241FBECFEFD0E1DEBFCDBF11E0C1
:10043000A0E0B1E0E8EEFBE402C005900D92A83127
:10044000B107D9F715E0A8E1B1E001C01D92A636C9
:10045000B107E1F703D00C94841ED2CDCF93DF9384
:1004600080EB84B978942FE088E190E00FB6F8949F
:10047000A895809360000FBE20936000A89586E841
:1004800080937A0010927C001FD10E94C31B0E94AF
:10049000CC1BC0E0D0E0A8950E94401C80917D015B
:1004A00082FF0DC0F89428E088E190E00FB6F89440
:1004B000A895809360000FBE20936000FFCF81FF5E
:1004C000EACFF894FE010995E6CF862798E06CE81C
:1004D000869508F486279A95D9F70895EF92FF92AA
:1004E0000F931F93CF93DF93182F062FE12EE70171
:1004F0007E01F92EE70180E002C06991E6DFAE01DE
:10050000411B4017D0F3CDB7DEB7E6E00C94DD25F4
:10051000EF92FF920F931F93CF93DF937C01EB0138
:100520008A01C40FD51F08C001501040C701800FB9
:10053000911F6A910E94472401151105A9F7CDB7B3
:10054000DEB7E6E00C94DD251F93CF93DF93C0E088
:10055000D0E010E0CE010E943F24682F812FB5DF4C
:10056000182F2196C231D105A9F7DF91CF911F91A4
:100570000895ABE0B0E0EFEBF2E00C94C1258E0102
:100580000A5F1F4FC80160E870E046E050E00E943B
:100590009B1E80E090E0B80146E050E0B9DF80ECBF
:1005A000E82E88EAF82EFB82EA8280E09EEA9D83AC
:1005B0008C838E010E5F1F4F86E090E0B80144E00F
:1005C00050E0A6DFFB82EA8280E091E09D838C838D
:1005D0008EE090E0B80144E050E09ADF8FEF9FEFAB
:1005E0009B838A838FEF90E09D838C838AE090E0E9
:1005F000B80144E050E08CDFA7DF898382E190E01E
:10060000BE016F5F7F4F41E050E082DF2B96E6E056
:100610000C94DD25A1E0B0E0E0E1F3E00C94C4250A
:10062000AFD592DF182FCE01019662E170E041E074
:1006300050E00E942F248981181709F09ADFE3D136
:100640000E94C71B2FD30E944E102196E3E00C940A
:10065000E025E1E8F0E080818C7F80838081846008
:100660008083A0E8B0E08C918C7F8C93808188603F
:10067000808380818F7E808381EE94E090938900D7
:1006800080938800EFE6F0E08081826080830895A7
:100690001F920F920FB60F9211248F939F9381E0B8
:1006A00080935F0580917E01982F9F5F90937E01DC
:1006B000923318F0815380937E019F918F910F9018
:1006C0000FBE0F901F9018952C9A80E58CBD81E08D
:1006D0008DBD08958EBD0DB407FEFDCF8EB5089576
:1006E000A9E0B0E0E6E7F3E00C94BA255C01E12C68
:1006F0009FEFF92E012D112D6E010894C11CD11C04
:100700008AE0882E912C8C0E9D1EF70184918332F5
:1007100079F53196D60184918D933196A815B90556
:10072000D1F77984C60168E0D9DE781609F5C601EB
:10073000B50146E050E00E940D1F0097C9F489E022
:1007400090E00E94461CE82FF92F309709F11082A3
:10075000D801C7010A96A11DB11D81839283A3838D
:10076000B483168215828F8198859087878310C005
:1007700080E09FEFAFEFBFEFE80EF91E0A1F1B1FCF
:10078000E114F1040105110509F0BFCFE0E0F0E04C
:10079000CF012996EDE00C94D625EF92FF920F93AE
:1007A0001F93CF93DF93DC011796ED90FC90189781
:1007B00015968D919C911697E81AF90A00E010E0C1
:1007C000E216F3060407150710F4A8019701062F97
:1007D000172F60E070E0CB0110C01196ED91FC91F5
:1007E0001297EC0FFD1FE60FF71FE491E801E99364
:1007F0008E016F5F7F4F8F4F9F4F1596CD91DC918C
:100800001697621773078407950738F3C20FD31F33
:100810001696DC93CE931597B901CA01CDB7DEB712
:10082000E6E00C94DD25A2E0B0E0E9E1F4E00C9410
:10083000BD256B01E82FF92F9E2F8F2F219120329C
:10084000D9F300D000D000D0EDB7FEB73196ADB7E8
:10085000BEB711969C9381838CE890E0938382834A
:10086000CE010196958384830E94A21FEDB7FEB747
:1008700036960FB6F894FEBF0FBEEDBF81309105DE
:1008800091F5E980FA8000E010E047E8A42E40E00E
:10089000B42ED7012D917D0100D000D000D0EDB74E
:1008A000FEB73196C801880F991F8C0D9D1DADB7FD
:1008B000BEB712969C938E931197B382A282248323
:1008C00015820E94821F0F5F1F4FEDB7FEB736964D
:1008D0000FB6F894FEBF0FBEEDBF00311105C9F68B
:1008E00020E230E002C02FEF3FEFC9012296EAE09C
:1008F0000C94D9251F93CF93DF9389E087BFE0E065
:10090000F0E0149187BFE3E0F0E0349187BFE2E0CC
:10091000F0E0249187BFE1E0F0E0E4918DB79EB76D
:100920000E970FB6F8949EBF0FBE8DBFADB7BEB782
:100930001196CDB7DEB77A83698313965C934E9395
:1009400012978FE890E015969C938E9314971696C5
:100950001C93169717961C92179718963C93189706
:1009600019961C9219971A962C931A971B961C92FB
:100970001B971C96EC931C971D961C920E94541F6B
:100980002DB73EB7225F3F4F0FB6F8943EBF0FBE64
:100990002DBFDF91CF911F91089500D000D000D0DE
:1009A000EDB7FEB73196ADB7BEB712967C936E9396
:1009B00011975383428381EB90E0958384830E9457
:1009C000541F2DB73EB72A5F3F4F0FB6F8943EBF76
:1009D0000FBE2DBF0895FC018081882341F48091D2
:1009E0007D01826080937D0120E030E002C02FEF26
:1009F0003FEFC901089580917D01846080937D015E
:100A000080E090E00895A4E0B0E0E9E0F5E00C9427
:100A1000C32583E891E060E070E046E050E00E948A
:100A20002F248E010F5F1F4FC80166E070E044E085
:100A300050E00E942F2489819A81909364038093CF
:100A400063038B819C819093660380936503C80147
:100A50006AE070E044E050E00E942F2489819A818E
:100A60009093600380935F038B819C8190936203DA
:100A700080936103C8016EE070E044E050E00E94A2
:100A80002F2489819A8190935C0380935B038B81EF
:100A90009C8190935E0380935D032496E4E00C9424
:100AA000DF252C988AE316DE80E014DE2C9A089568
:100AB0001F93182F2C988AE70DDE812F0BDE2C9ABE
:100AC0001F9108952C988FEF05DE8FE39FE101972A
:100AD000F1F700C000002C9A08951F93182F8FE1A2
:100AE00063E040EA09D0612F63708FE140E804D0F1
:100AF000109318011F910895A1E0B0E0E2E8F5E03D
:100B00000C94C325182F062F282F30E0F901EF7120
:100B1000F070EB31F1058CF42076307085E035957E
:100B200027958A95E1F7E0911801F0E02E173F072D
:100B300021F0822F4983D1DF49812C98812F8F7139
:100B4000842BC8DD802FC6DD2C9A2196E4E00C941E
:100B5000DF250F931F93182F062F282F30E0A901B0
:100B60004F7150704B3151057CF42076307095E018
:100B7000359527959A95E1F74091180150E0241793
:100B8000350711F0822FA9DF2C98812F8F71806497
:100B9000A1DD802F9FDD2C9A1F910F910895A1E078
:100BA000B0E0E5EDF5E00C94C525682F82E099836F
:100BB000D0DF83E09981692FCCDF2196E2E00C94AD
:100BC000E125A1E0B0E0E7EEF5E00C94C525682F43
:100BD00080E09983BEDF81E09981692FBADF219699
:100BE000E2E00C94E1251F93182F282F30E0A90193
:100BF0004F7150704B3151057CF42076307045E0D8
:100C0000359527954A95E1F74091180150E0241752
:100C1000350711F0822F61DF2C98812F8F715ADDFB
:100C200080E058DD17FF02C080E054DD2C9A1F9150
:100C30000895A1E0B0E0EFE1F6E00C94C425982F10
:100C4000162F84ED692F798384DF86ED612F81DF94
:100C500087ED7981672F7DDF8AEEC5DF80FDFCCFD0
:100C60002196E3E00C94E0251F93682F84ED71DF5B
:100C700082ED61E040E840DF8AEEB5DF80FDFCCF29
:100C800082ED61E040EA38DF88EDADDF182F89EDB5
:100C9000AADF582F40E0212F30E0242B352BC9014B
:100CA0001F9108958FEF80931B010CDF88E060E0B7
:100CB00050DF89E060E04DDF8AE06FEF4ADF8BE0D4
:100CC0006FE047DF84E060E044DF85E060E141DF22
:100CD0008CE060E03EDF8DE060E03BDF8EE060E0D6
:100CE00038DF8FE060E035DF1092800110927F01E5
:100CF00081EC60E840EA00DF80EC6DE040E8FCDE7B
:100D000082EC62E340E8F8DE80E060E070E091DFD2
:100D100080E0AADF90FF07C082EC61E040E8ECDEF3
:100D200084EC62E106C082EC61E040EAE5DE84EC3E
:100D300065E10FDF86EC62E10CDF87EC6CE009DF38
:100D40008AEC68EF06DF8BEC61E003DF84EE6091F4
:100D50008301FFDE85EE60918401FBDE82EE60910F
:100D60008501F7DE83EE60918601F3DE80EE60910F
:100D70008701EFDE81EE60918801EBDE88E363E8B6
:100D8000E8DE84E162E17CE054DF8BE16BEDE1DEE3
:100D900082E162E170E04DDF8FE164E040E8ACDECB
:100DA0008EE160E840E8A8DE10921B010895809172
:100DB0001B018823A9F482EC16DF8273823331F0A1
:100DC000809119018F5F809319016CDF80EC0BDF3C
:100DD0008D3031F080911A018F5F80931A0162CFBC
:100DE0000895A4E0B0E0E7EFF6E00C94BF2589E3B6
:100DF000FADE882309F48AC080917F0190918001F6
:100E0000E0DE4FDE082F4DDE382F20E0802F90E00F
:100E1000822B932B9093800180937F018E010F5F33
:100E20001F4F25E0E22EF12CEC0EFD1E3ADEF801FC
:100E300081938F01EE15FF05C9F789819A818C0195
:100E4000045010401A8309834297F1E0873E9F07C0
:100E500010F028DF5BC0EE24FF2497E6C92E93E054
:100E6000D92E1FDEF60181936F010894E11CF11C5D
:100E7000E016F106B0F31093820100938101809196
:100E8000730390917403982789279827F8E080309E
:100E90009F0769F028E086309207B1F40E94BF10E6
:100EA0008091810190918201009771F00CC00E94A5
:100EB000951081E096D180918101909182010097F7
:100EC00019F00E94A01167D060917F01709180019C
:100ED000CB010197E0E180309E0730F08CE06FEFAE
:100EE00038DE8DE06FE00DC061508CE032DE609145
:100EF0007F017091800161507040672F770F770BF1
:100F00008DE027DE8EE160E440E8F6DD2496E8E03F
:100F10000C94DB251F9389E366DE882309F439C02E
:100F20008CE161DE182F8BE160E840EAE5DD14FF1B
:100F300004C083E199DE81E197DE13FF08C08CE1F4
:100F400068E040EAD9DD8DE16AE040EAD5DD9FB78F
:100F5000F89480913203882329F488E08093320347
:100F600080E001C081E09FBF882399F43ADF1092AE
:100F7000320310FF04C08CE161E040EABDDD11FFE7
:100F800004C08CE162E040EAB7DD8BE160E840E854
:100F9000B3DD1F9108950F931F93CF93DF9304E662
:100FA0008FE121DE83FD04C0002309F438C002C0B4
:100FB0000150B0F784E060E0CCDD85E060E1C9DDA0
:100FC00086E060918101C5DD20918101309182012F
:100FD0002050304F87E0632FBCDD80E090E1DFDD03
:100FE00080E066DD07E613E0C0E0D0E005C0F80170
:100FF00081918F015DDD2196809181019091820127
:10100000C817D907A0F38FE160E840E875DD8FE1EC
:1010100060E840EA71DD8FE168E040E86DDDDF9176
:10102000CF911F910F910895FC014381460F40938A
:101030001F01872F99272281280F20931E01A1814C
:10104000A0931D01508150931C0130E028173907EF
:1010500048F48A2F8F5F80931D01882319F45F5F06
:1010600050931C01842F90E070708617970798F4B6
:1010700080911E018F5F80931E01882361F480910F
:101080001D018F5F80931D01882329F480911C012D
:101090008F5F80931C0108959C0141505040460F82
:1010A000571FDB0110C0FC91E0E011968C91119765
:1010B000BF01680F711D260F371F2617370710F461
:1010C0002F5F3F4F1296A417B50768F3A417B50713
:1010D00049F49C9180E0280F391F2817390710F434
:1010E0002F5F3F4FC901089580E090E065E773E00E
:1010F00044E150E0D1DF009719F0382F292F02C0CA
:101100002FEF3FEFC9010895BC01809198019091A4
:101110009901089689DFE0919801F09199018091F9
:101120001C01808780911D01818780911E0182872B
:1011300080911F0183870895CF93DF939091780367
:10114000C92FD0E064973091770320E0C20FD31FFE
:101150009E01280F311DC90161E873E048E050E0AD
:101160009BDF69E873E0AE0197DF009719F0382F35
:10117000292F02C02FEF3FEFC901DF91CF910895D2
:10118000E3E3F3E011821082349683E0EB35F80755
:10119000C9F71092B50110923D021092C50280E08D
:1011A00094E090939101809390010895A3E3B3E0BC
:1011B000E0E0F0E02D913C9111972115310559F4B3
:1011C000EE0FFF1FEE0FFF1FED5CFC4F918380833E
:1011D00073836283089531961496EA30F10551F7CE
:1011E0000895A0E0B0E0E7EFF8E00C94BD252DE90C
:1011F00033E0309397012093960130938E01209332
:101200008D01C0919801D0919901833079F48B8D33
:101210008F70833009F0DDC588899989009709F0BE
:10122000D8C588E080938F01FE0182C4823009F026
:10123000A4C0809195018F5F80939501882399F4D4
:10124000809194018F5F80939401882361F4809151
:1012500093018F5F80939301882329F480919201F9
:101260008F5F8093920110928201109281011092FF
:101270005E0510925D058B8D873011F0853041F44D
:101280008C8D8F5F8C8F883709F0A3C51B8EA1C50D
:10129000882309F49EC5288939892115310509F467
:1012A00064C09C8D292F21502C8F992309F091C562
:1012B0009D8D983031F0282F21502230A0F49530A8
:1012C00091F41B8E80E880938F01E0919801F0915A
:1012D0009901EA57FF4F0190F081E02D309709F412
:1012E00038C4099536C4953048F423E030E0092E1F
:1012F00002C0220F331F0A94E2F701C020E32C8FB3
:101300009F5F9D8F90E08F70907083309105E1F02A
:10131000843091054CF48130910509F433C2823058
:10132000910509F056C50DC08630910509F4AEC38C
:101330008830910509F4AAC38430910509F049C5A4
:10134000A5C31092960321C284E080938F01E0919F
:101350009801F0919901EA57FF4F0190F081E02D3B
:10136000309709F428C4099526C48F70833009F09A
:1013700030C588E080938F01D7C37AECE72E7FEFEA
:10138000F72EE20EF31E8701025F1F4F8091750357
:10139000853409F01EC59091770380E02091780391
:1013A0006C01C20ED11C80918101909182018C153B
:1013B0009D0508F40EC5D0928201C09281018091F2
:1013C0007B0390E08F739070009709F002C58091C5
:1013D0007C03882309F0FDC4C0918503D091860366
:1013E0008091630390916403C817D90709F0F1C491
:1013F000A0908703B0908803809165039091660365
:10140000A816B90609F0E5C46FDE2FEF8F3F9207EB
:1014100009F0DFC480917E03863071F1813009F0DC
:10142000D8C4E5E7F3E080918903883009F0D1C49E
:10143000148A80918B0390918C036FEF873F9607FE
:1014400010F0099601C00896978B868B80918103D6
:101450009091820390938603809385038091830308
:10146000909184039093880380938703F701D38F2F
:10147000C28FB58EA48EB1C486E05EDEFFEF8F3FD3
:101480009F0709F0A6C4CAE9D1E04B8D442329F196
:1014900020918B0330918C038C819D812817390713
:1014A000E1F42091890330918A038E819F8128176E
:1014B000390799F4209181033091820388819981C1
:1014C0002817390751F420918303309184038A81CE
:1014D0009B812817390709F46FC1C857DF4F23E0F4
:1014E000C233D20791F6809196038F73823099F4BC
:1014F00020918B0330918C03E3E3F3E0DF018D91C6
:101500009C9111972817390709F466C0149663E077
:10151000AB35B607A1F78091960382FD5AC484E1EA
:10152000F80181A388E290E0909382018093810189
:1015300080E580A38091900390919403938F3091E4
:101540008F0390919303928F368F20918E03909109
:101550009203918F258F90918D0340919103408F3D
:10156000948F8F5F878F882361F4832F8F5F868F9F
:10157000882339F4822F8F5F858F882311F49F5F32
:10158000948F8091890390918A0320918B033091ED
:101590008C03F801358B248B978B868B809181038C
:1015A00090918203909386038093850380918303B7
:1015B00090918403909388038093870380916303C1
:1015C00090916403F701938F828F809165039091CE
:1015D0006603958F848FD0C3A5EBB1E080E090E0E7
:1015E000C0E0D0E068E870E0482F5C91552369F4D2
:1015F00050E088E890E0489FE001499FD00D589F57
:10160000D00D1124C656DE4F19C0573089F42097EB
:1016100031F011965C9111974C8D451748F4869FD7
:10162000E001879FD00D969FD00D1124C656DE4F46
:101630000196A857BF4F83309105B1F6209709F462
:10164000C8C3D0939901C093980180E090E0408195
:1016500051812417350781F4DE01AA57BF4FFC01E1
:10166000EE0FFF1FEE0FFF1FED5CFC4F8281938199
:1016700011969C938E9305C0019634968A309105FD
:1016800031F783E08C8F8A8F188E84E0898F1D8ECE
:101690001B8A1A8A80918B0390918C039D838C8383
:1016A0008091890390918A039F838E838091810327
:1016B000909182039983888380918303909184031E
:1016C0009B838A8381E08B8F809192018C878091AC
:1016D00093018D87809194018E87809195018F87EA
:1016E00081E090E0998B888B809190038B8780912B
:1016F0008F038A8780918E03898780918D038887E5
:1017000081E090E001DD80919503282F30E0207F7B
:10171000307021353105B4F182958F7090E00597D6
:10172000880F991F880F991F40E027C0F901E959D8
:10173000FC4F56A9552331F1513011F44F5F1DC0B4
:101740005230A1F457A9543089F430AD20E081AD76
:1017500090E0822B932BF1E08F3B9F0710F08EEBF4
:1017600091E09D8B8C8B9F8B8E8B0CC029593C4FAD
:10177000F90127A9222331F0420F242F30E0281746
:101780003907A4F280E180939603E5E7F3E08091C6
:101790009603826081A382E080A784E081A781E034
:1017A00082A78EEB83A78CE290E0909382018093D6
:1017B000810180E680A397C2D0939901C0939801DC
:1017C00010928F018091960390E082FF09C01B8EDA
:1017D00080E280938F01CA57DF4FE881F98123C2ED
:1017E0002091950322952F70220F220FB601621BC4
:1017F00071099B0124513040309382012093810173
:101800004F70423031F4AC014F735070423151058A
:1018100009F12115310531F49C0123703070211537
:101820003105C1F030918D032885321709F04FC280
:1018300030918E032985321709F049C230918F0308
:101840002A85321709F043C2309190032B85321755
:1018500009F03DC284FF49C0688979896115710525
:1018600009F443C0CE010C96DFDB309191038091E7
:101870001C013817D1F52091920380911D01281782
:10188000A1F59091930380911E01981771F58091B5
:10189000940340911F01841741F53C872D879E8753
:1018A0008F878D8D8823D1F4288D8A8D9C8D891BFF
:1018B000922F969596959695891B280F288F87FDD0
:1018C0008195998D392F36953695931B980F998F61
:1018D000822F869586958695890F8A8F81E08093E1
:1018E0008F018A8D8C8F198A188A2B8D30E0F9012F
:1018F000EF70F0703197E830F10508F06AC2E85CEB
:10190000FF4F0C94EC2580918F0180FF62C283E031
:101910008B8F80E480938F01198A188A80918101CE
:1019200090918201009709F4FBC022E420938F017B
:10193000EBDBF6C080918F0180FF60C08091960341
:101940008F73823109F05AC080919503282F30E0BF
:10195000207F307021353105B4F182958F7090E091
:101960000597880F991F880F991F40E027C0F9013C
:10197000E959FC4F56A9552331F1513011F44F5F0D
:101980001DC05230A1F457A9543089F430AD20E085
:1019900081AD90E0822B932B71E08F3B970710F085
:1019A0008EEB91E09D8B8C8B9F8B8E8B0CC029597D
:1019B0003C4FF90127A9222331F0420F242F30E0B8
:1019C00028173907A4F283E08B8F80918D038887D5
:1019D00080918E03898780918F038A8780919003FD
:1019E0008B8781E090E090DB82E480938F01198AFD
:1019F000188A109282011092810192C080E2809335
:101A00008F01E0919801F0919901EA57FF4F019001
:101A1000F081E02D309709F00995E0919801F0915F
:101A20009901138E78CD8091960380FF33C024FDF9
:101A300031C088899989009709F0CBC180918101D3
:101A400090918201019660DB20918F01822F80614D
:101A500080938F018091810190918201009719F00C
:101A6000226120938F01E0919801F0919901EA574A
:101A7000FF4F0190F081E02D309709F0099581E04A
:101A800090E0998B888B88E08B8F1D8E81E180930D
:101A9000960320C185FF1CC050919B0340E08091BC
:101AA0009C0390E0842B952B4091960150919701D7
:101AB000480F591F5093970140939601409181011F
:101AC00050918201481B590B509382014093810130
:101AD0008091810190918201009741F024FD06C020
:101AE00020918F01226020938F010EDB30919703AC
:101AF00020E080919803280F311D8E899F898217DD
:101B0000930720F02115310509F0C9019D8B8C8BBD
:101B100080918F0190E083709070009709F459C113
:101B200010925E0510925D05E0919801F091990187
:101B3000EA57FF4F0190F081E02D309709F00995A9
:101B400080918F0185FF07C010925E0510925D05A0
:101B50001B8E84E19CCF84FF0AC010925E05109218
:101B60005D0581E090E0998B888B84E08DCF20919A
:101B70005D0530915E0521153105E1F080FF02C061
:101B8000198A188A88899989009781F48C899D8996
:101B90008217930720F490935E0580935D058091F2
:101BA0005D0590915E05998B888B04C090935E05CE
:101BB00080935D051D8E80918D0190918E01909393
:101BC00097018093960180915D0590915E05009745
:101BD00059F088899989009739F088969093820105
:101BE0008093810188E10BC080918F0181FFF1C05A
:101BF00088E290E0909382018093810180E180935C
:101C000096036EC080918F0180FFE3C01B8E80E140
:101C100080938F01E0919801F0919901EA57FF4F6D
:101C20000190F081E02D309709F4D3C00995D1C01F
:101C30008091810190918201009709F065DA90917D
:101C4000960380918F0190FF0BC080FF06C087E054
:101C50008B8F1C8E198A188A18C086E08B8F15C04E
:101C600080FF26C085E08B8F198A188AB2C08091C8
:101C7000810190918201009709F046DA80919603E4
:101C800080FF16C087E08B8F1C8E81E090E03CDAED
:101C900080E180938F01E0919801F0919901EA57DA
:101CA000FF4F0190F081E02D309789F009950FC02A
:101CB0008091810190918201009749F48AC08091BE
:101CC0008F0180FF86C087E08B8F1C8E82C080E1F1
:101CD000F80181A388E290E09093820180938101D2
:101CE00080E580939503E5E7F3E08885848F898517
:101CF000858F8A85868F8B85878F8C85808F8D8554
:101D0000818F8E85828F8F85838F86E081878C81FE
:101D10009D81958B848B8E819F81978B868B809103
:101D20006303909164039093820380938103809175
:101D30006503909166039093840380938303888165
:101D4000998190938603809385038A819B819093E8
:101D50008803809387038B8D84FF03C013A212A294
:101D60000BC08A899B89009719F092A38A8903C0C6
:101D700081E082A38EEB83A3C5E7D3E080E488876C
:101D800080918101909182019A838B831FA21EA270
:101D90001DA21CA286E0D0D9809590959DA38CA30E
:101DA00085E48093750319821F821E828091200131
:101DB00090912101019690932101809320019C83B1
:101DC0008D831B861A8690D9809590959B878A87EC
:101DD00004C0109282011092810110928F01CDB740
:101DE000DEB7EAE00C94D925AC019B011616170664
:101DF00084F460935D0530935E0560918D01709170
:101E00008E018617970729F0CB01BA01A9010C941E
:101E1000F21E0895CF93DF93FC010097E9F400D000
:101E200000D000D0EDB7FEB73196ADB7BEB7129671
:101E30007C936E9311975383428380E091E0958366
:101E400084830E94261FCDB7DEB726960FB6F8947E
:101E5000DEBF0FBECDBF40C02DB73EB72E503040C5
:101E60000FB6F8943EBF0FBE2DBFADB7BEB71196EB
:101E7000CDB7DEB77A83698313965C934E9312973E
:101E80008EEC90E015969C938E9314978081169615
:101E90008C93169717961C921797818118968C939E
:101EA000189719961C92199782811A968C931A97F3
:101EB0001B961C921B9783811C968C931C971D96D6
:101EC0001C920E94541F2DB73EB7225F3F4F0FB6A2
:101ED000F8943EBF0FBE2DBFDF91CF9108956115DD
:101EE000710589F12DB73EB72C5030400FB6F894EC
:101EF0003EBF0FBE2DBFEDB7FEB73196ADB7BEB733
:101F000012969C938E9311978AEB90E09383828331
:101F100075836483CB01019697838683CB010296F8
:101F2000918780876D5F7F4F738762870E94A21FB2
:101F30002DB73EB7245F3F4F0FB6F8943EBF0FBE9C
:101F40002DBF843011F08FEF089580E00895FF9247
:101F50000F931F93CF93DF93FC01A2E2B1E0ED0159
:101F600080E090E0488159814115510589F12A812D
:101F70003B812115310561F100811181041715079D
:101F800039F5428153814217530711F52BE030E0B8
:101F9000829FF001839FF00D929FF00D1124EA5D66
:101FA000FE4F262F372FD90126E00D9001922150A8
:101FB000E1F72BE030E0829FF001839FF00D929FCC
:101FC000F00D1124EE5DFE4F80917A01828761C091
:101FD00001962B968830910529F680E090E02BE061
:101FE00030E0829FE001839FD00D929FD00D11249D
:101FF000CE5DDE4F4D915C9111974115510539F43D
:1020000012964D915C9113974115510571F1482F2E
:102010004F5F01961B968830910519F7483029F5D6
:1020200010917A01812F90E0ACE2B1E020E000E075
:1020300030E0FC90EC01CF19D109402F50E04C1753
:102040005D071CF4012F0F19232F3F5F1B963830BB
:1020500081F730E08BE090E0289FE001299FD00DD0
:10206000389FD00D1124CE5DDE4F80819181A281F9
:10207000B381FE0181939193A193B193862F972F02
:10208000DC0186E00D9001928150E1F780917A01A8
:102090008A87CDB7DEB7E5E00C94DE2580E090E0DE
:1020A0002BE030E0829FF001839FF00D929FF00DB6
:1020B0001124EE5DFE4F108211821282138201966E
:1020C0008830910579F7089580917A018F5F809328
:1020D0007A01E2E2F1E080E090E04BE050E0228122
:1020E000338160817181262B372B21153105B9F0A1
:1020F00020917A0130E06285261B310928373105AD
:1021000074F0849FD001859FB00D949FB00D112471
:10211000AE5DBE4F1D921D921D921C9213970196AB
:102120003B9688309105D9F608958091810390916E
:1021300082032091630330916403822793272091C7
:102140005F0330916003822393230097B9F4809159
:102150008303909184032091650330916603822765
:102160009327209161033091620382239323009788
:1021700029F481E893E06DE673E0E9CE089580915B
:102180008101909182018A32910528F41092820196
:102190001092810108951092820110928101809124
:1021A0007B0390917C0321E08030920731F022E0A4
:1021B0008030920709F090C074C020918D03309157
:1021C0008E0380916303909164032817390709F007
:1021D00083C020918F03309190038091650390918B
:1021E00066032817390709F077C083E893E06DE7A5
:1021F00073E0ADDE80E092E090937C0380937B03FC
:10220000E7E8F3E0DF011A9786E00D900192815034
:10221000E1F7ADE7B3E0E3E8F1E086E001900D928D
:102220008150E1F7ADE6B3E0E3E8F1E086E001904C
:102230000D928150E1F7E7E6F3E0DF01909686E04A
:102240000D9001928150E1F780918D03909183036D
:1022500090938D038093830380918E0390918403E8
:1022600090938E038093840380918F0390918503D4
:1022700090938F03809385038091900390918603C0
:10228000909390038093860388E096E09093740384
:10229000809373038AE290E090938201809381019E
:1022A000089520918D0330918E0380916303909166
:1022B00064032817390781F420918F03309190032C
:1022C00080916503909166032817390729F483E804
:1022D00093E06DE773E03BCE08950F931F93CF9388
:1022E000DF93DC018D919C911197E2E2F1E040E0F7
:1022F00050E00BE010E0409F9001419F300D509F57
:10230000300D11242E5D3E4F608171818617970735
:1023100049F41296CD91DC91139762817381C617AF
:10232000D70741F04F5F5F4F3B964830510519F793
:1023300020E030E0C901DF91CF911F910F91089506
:10234000A4E0B0E0E6EAF1E10C94C52580918503B4
:10235000805EE7E6F3E0803188F481E080936703F4
:1023600011828EE58283809186038F7783838091AB
:1023700087038483809188038583DAC06091630337
:102380007091640340915F03509160039A0120951E
:102390003095262B372B80918503909186038217E9
:1023A000930799F4809161039091620380959095D1
:1023B0002091650330916603822B932B2091870334
:1023C000309188032817390781F0209185033091D7
:1023D00086038FEF2F3F380791F480918703909108
:1023E0008803EFEF8F3F9E0751F4A7E6B3E0E2E1E9
:1023F000F1E086E001900D928150E1F799C0C901AA
:102400008627972784239523009791F4409187038B
:1024100050918803809165039091660384279527E6
:10242000609161037091620386239723009769F09E
:1024300080915B0390915C039A83898380915D0313
:1024400090915E039C838B8304C03A8329835C83D1
:102450004B83CE01019641DF009709F060C087E60B
:1024600093E06FEF70E046E050E00E94FB1EA7E8AB
:10247000B3E086E0FD0111928A95E9F75A97E3E807
:10248000F1E086E001900D928150E1F7ADE7B3E015
:10249000E3E8F1E086E001900D928150E1F7898157
:1024A0009A8190938E0380938D038B819C8190936E
:1024B000900380938F0380916303909164039093C2
:1024C00084038093830380916503909166039093C6
:1024D00086038093850380E091E090937C03809352
:1024E0007B03909376038093750388E090E090934C
:1024F00078038093770386E08093790384E0809368
:102500007A0388E096E090937403809373038AE2E1
:1025100090E0909382018093810181E022C0A7E640
:10252000B3E0FC01349686E001900D928150E1F712
:10253000ADE6B3E0E3E8F1E086E001900D92815072
:10254000E1F788E090E090937403809373038091A7
:102550008101909182010E96909382018093810176
:1025600080E02496E2E00C94E1256F927F928F92B6
:102570009F92BF92CF92DF92EF92FF920F931F93A1
:10258000CF93DF936C01EB013A01FC010190002035
:10259000E9F73197E81BF90BE230F10508F448C080
:1025A000BB240B2D10E0000F111F000F111FF801AD
:1025B000E554FC4F859194917C010097E9F00E94CD
:1025C000B61E4C01C601B701A4010E948E1E0097E1
:1025D00049F403541C4FF80185919491FC01009734
:1025E00019F40AC0B394DDCFC601880D991DBE0150
:1025F000A30109959C0102C02FEF3FEF2097D1F076
:102600008FEF2F3F380751F4CE016DED70E04BE0B6
:1026100050E00E949B1E2BE030E00CC021153105DC
:1026200049F48FE488838BE4898322E030E002C0A0
:1026300020E030E0C901DF91CF911F910F91FF9011
:10264000EF90DF90CF90BF909F908F907F906F9092
:1026500008952DB73EB7285030400FB6F8943EBFCE
:102660000FBE2DBFEDB7FEB73196ADB7BEB7129610
:102670007C936E931197538342838AED90E0958308
:10268000848385E091E0978386830E94541F2DB751
:102690003EB7285F3F4F0FB6F8943EBF0FBE2DBF29
:1026A0000895A2E0B0E0E7E5F3E10C94BD255C01FC
:1026B0006B017A01DC018C91873121F087E18C93E9
:1026C00011961C92F5018181E82FF0E0EE0FFF1FBB
:1026D000EE0FFF1FE554FC4F8F5FD50111968C93D1
:1026E00025913491B901C90129837A830E94B61ECC
:1026F000082F192F69817A81E016F10608F4870105
:10270000C601A8010E949B1ED5011196EC9111975C
:10271000F0E0EE0FFF1FEE0FFF1FE554FC4F859119
:102720009491009731F086EF9FEFFC01E01BF10BD5
:102730008F01C8012296EAE00C94D9250E94B902C3
:1027400080E090E008958AE09DE86EE474E10C94E6
:10275000D6080F931F93CF93DF93C0919801D09128
:102760009901FE01E05BFF4F408102E310E0041B92
:10277000110901151105D9F0809181019091820113
:102780000817190708F08C019E01225E3F4F240FA5
:10279000311D6091960170919701C901A8010E94B5
:1027A000F21EFE01E05BFF4F8081800F80838E016F
:1027B000025E1F4FFE01E05BFF4F4081C8016AE0EF
:1027C00070E050E00E94E51EFC01009791F44091FA
:1027D00081015091820180919601909197016AE068
:1027E00070E00E94E51E009709F453C0FE01E15B12
:1027F000FF4F1082FE0180E090E0268D2D3009F41D
:10280000168E0196319682339105B9F78E8D8132FD
:1028100031F4FE01EB57FF4F81E0808301C080E07F
:1028200090E04E96BE016F5A7F4F8C0F9D1F41E383
:1028300050E09BDE2FEF873F92075CF4FE01EC57E0
:10284000FF4F21E0208326EF3FEFA901481B590BE2
:10285000CA01181619067CF4FE01E80FF91FEF5A99
:10286000FF4F2081233219F02AE020830196FE01D8
:10287000ED57FF4F8083FE01EC57FF4F8081882387
:1028800041F482E3D8011D928A95E9F7C05BDF4FDE
:102890001882DF91CF911F910F910895CF93DF930D
:1028A000C0919801D091990180918F0186FF18C045
:1028B000FE01E05BFF4F1082FE01ED57FF4F1082DB
:1028C000FE01EC57FF4F1082FE01EB57FF4F1082C5
:1028D000CE014E96FC0182E3DF011D928A95E9F755
:1028E00080918F0180FF42C0FE01ED57FF4F1082A3
:1028F000FE01EC57FF4F80818823C1F18E8D81321C
:1029000031F4FE01EB57FF4F81E0808301C080E08E
:1029100090E04E96BE016F5A7F4F8C0F9D1F41E392
:1029200050E023DEFE01EC57FF4FBFEF873F9B07D0
:102930004CF421E0208326EF3FEFA901481B590BFF
:10294000CA0105C01082FE01E05BFF4F108218161D
:10295000190664F4FE01E80FF91FEF5AFF4F2AE051
:102960002083FE01ED57FF4F0196808380918F01F8
:1029700081FF01C0EEDE80918F0190E082FD0AC0F0
:102980009C01237030702115310521F488749070FA
:102990000097A1F0FE01ED57FF4F6081662331F0F3
:1029A000CE018F5A9F4F70E01FDA08C0CB57DF4F20
:1029B0008881882319F080E180938F01DF91CF9186
:1029C00008950F931F93CF93DF9380918F0180FF22
:1029D00004C080E180938F0161C0E0919601F09185
:1029E0009701108280919601909197016BEF71E0B1
:1029F0000E94A41E80919601909197016BED72E068
:102A00000E94A41E0091960110919701E80109907F
:102A10000020E9F72197C01BD10B87E692E00E94C6
:102A2000B61E00D000D000D0EDB7FEB73196C00F73
:102A3000D11FADB7BEB71296DC93CE93119729EE96
:102A400030E033832283958384830E94821F8DB775
:102A50009EB706960FB6F8949EBF0FBE8DBF8091AD
:102A60009601909197016CEE72E00E94A41E8091F5
:102A700096019091970167E672E00E94A41E8091F2
:102A8000960190919701FC01DF010D900020E9F77C
:102A9000BD01615070406E1B7F0BA6D9DF91CF91B5
:102AA0001F910F9108950F931F93CF93DF93809100
:102AB0008F0180FF04C080E180938F0161C0E091AD
:102AC0009601F09197011082809196019091970163
:102AD00064E772E00E94A41E809196019091970194
:102AE0006BED72E00E94A41E009196011091970177
:102AF000E80109900020E9F72197C01BD10B8BEC6E
:102B000092E00E94B61E00D000D000D0EDB7FEB714
:102B10003196C00FD11FADB7BEB71296DC93CE93DE
:102B200011972DEE30E033832283958384830E94B6
:102B3000821F8DB79EB706960FB6F8949EBF0FBE44
:102B40008DBF80919601909197016CEE72E00E948A
:102B5000A41E80919601909197016BEC72E00E9407
:102B6000A41E8091960190919701FC01DF010D90C8
:102B70000020E9F7BD01615070406E1B7F0B34D916
:102B8000DF91CF911F910F910895CF93DF93CCEEFA
:102B9000D5E180E090E5BE010E94D6088FE190E487
:102BA000BE010E94D608DF91CF910895E09198016F
:102BB000F0919901878D90A127E18E31920759F408
:102BC00081A192A1009739F0FBD6E0919801F09194
:102BD000990112A211A20895EF92FF920F931F93F1
:102BE000CF93DF9380918F0185FD02C087FF01C0E5
:102BF000DDDF80918F0184FF01C0D8DF90918F01CC
:102C000096FF09C0E0919801F091990110A2178EEA
:102C1000868D887F868F91FFA8C0C0919801D09142
:102C200099018F8D98A1009719F08E8D81FF9DC01D
:102C300080918101909182018A309105B8F0E090F5
:102C40009601F0909701C70168E073E045E050E01D
:102C50000E94BF1E009751F487010B5F1F4FC801F0
:102C600060E270E00E94021F009729F481EE94E177
:102C700098A38F8F7AC0DC011C92F701858188238D
:102C800029F4C80161E073E00E94AF1E8BEF92E06F
:102C90000E94B61EC82FD0E0C80165EF72E0AE01F9
:102CA0000E94D71E009729F4C8018C0F9D1F24D2C3
:102CB0005CC0C8016FE270E00E941B1FE0919801A8
:102CC000F0919901009729F0DC0111968C911197F0
:102CD00003C0D70115968C9183A3C0919801D09120
:102CE0009901C8010E9470039AA389A3E0919801F9
:102CF000F091990181A192A1009739F5E80109901D
:102D00000020E9F72197C01BD10BC00FD11FFE0196
:102D1000319780818F3211F08FE28993CE016EEE70
:102D200072E00E94AF1EE0909801F0909901C801F6
:102D30000E947003F70192A381A3E0919801F091A2
:102D4000990181A192A1009719F08EE197E10BC042
:102D5000C017D10709F021971882E0919801F091EE
:102D6000990183E595E190A3878F80918F0190E091
:102D700082FD0AC09C01237030702115310521F4B9
:102D800088749070009779F0A0919801B0919901A2
:102D90005F96ED91FC919097309729F05E968C911B
:102DA0005E9781FF0995CDB7DEB7E6E00C94DD258F
:102DB000E0919801F0919901A1A1B2A184A195A1FE
:102DC00016969C938E93159760919601709197013A
:102DD0002489358940E050E081A192A10E94CD0371
:102DE0009B01AC01611571058105910521F480E21B
:102DF00080938F01DBCEE0919801F0919901848955
:102E00009589A0E0B0E0281739074A075B0718F456
:102E1000868D8460868F84A195A1A6A1B7A1820F1B
:102E2000931FA41FB51F80A791A7A2A7B3A7809146
:102E3000960190919701B9010C94F40EA2E0B0E0D4
:102E4000E4E2F7E10C94C12580918F0180FF16C068
:102E5000E0919801F0919901868D80FF09C080A5CD
:102E600091A5A2A5B3A584A395A3A6A3B7A306C0C5
:102E70008160868F14A215A216A217A2E091980174
:102E8000F0919901868D80FDA6C0E0919601F091A8
:102E900097011082809196019091970161EF70E007
:102EA00053D7E0919801F091990101A0F2A1E02D92
:102EB000E780F08400E010E0E114F1040105110561
:102EC000D1F180919601909197016BED72E03CD722
:102ED0008091960190919701FC0101900020E9F703
:102EE0003197E81BF90B2DB73EB7285030400FB68D
:102EF000F8943EBF0FBE2DBF2F5F3F4FE80FF91F65
:102F0000ADB7BEB71296FC93EE9311978EE093E0A7
:102F1000F90193838283D9011496ED92FD920D936A
:102F20001C931797EFD7EDB7FEB738960FB6F89406
:102F3000FEBF0FBEEDBFE0919801F0919901A1A1F4
:102F4000B2A116961C921E92159781A192A1BE0164
:102F50006F5F7F4F22E030E040E050E00E94CD0301
:102F6000E0919801F091990101A0F2A1E02D168263
:102F7000158280919601909197016FE472E0E4D6FA
:102F8000E0919801F091990123A1283539F48091BD
:102F900096019091970165E671E00BC080919601D2
:102FA00090919701233519F464E171E002C06CE35C
:102FB00071E0CAD68091960190919701FC01DF01E2
:102FC0000D900020E9F7BD01615070406E1B7F0B32
:102FD0000E94F40E0BC082FF08C080918F0182FD19
:102FE00004C080E180938F0101C0E2DE2296E6E01A
:102FF0000C94DD2530918F0130FF07C0E0919801DE
:10300000F0919901868D8160868F809198019091D1
:103010009901DC015E962C915E9720FD22C0E09123
:103020009601F091970110828091960190919701FD
:1030300061EF70E089D680919601909197016AE9DD
:1030400071E082D68091960190919701FC01DF0199
:103050000D900020E9F7BD01615070406E1B7F0BA1
:1030600049C032FD38C022FF04C080E180938F0147
:1030700032C0BC016D5A7F4F819640E350E075DA53
:10308000BFEF873F9B073CF426EF3FEFF901E81BBA
:10309000F90BCF0111C09C01275F3F4F293031054B
:1030A00020F480E180938F010895E0919801F091E0
:1030B0009901268D2460268F2091980130919901E5
:1030C000280F391FF901ED5AFF4F8AE080832C5AEF
:1030D0003F4FD9011C9280919801909199018D5A8E
:1030E0009F4FFC0101900020E9F7BF016150704043
:1030F000681B790B0C94F40EA0E0B0E0E2E8F8E174
:103100000C94C025EC0100919801109199010F5D7C
:103110001F4F92E3F92E80E2E82E1BC0853229F082
:103120008B3289F4F801E08210C0DB801B82CE0173
:10313000019660E070E040E150E0DBD4F80160838C
:10314000DB82229602C0F8018083FA940F5F1F4F42
:1031500021968881882319F0FF2001F70CC0FF20F9
:1031600051F0F8011082E0919801F09199018AEFF5
:1031700097E190A3878FCDB7DEB7E7E00C94DC250D
:10318000CF93DF93DB01FC012081222349F13E2F05
:103190002F2F81918032D9F3882311F11C92C9011C
:1031A000E92FF82F0DC08C918295807F8C933196FA
:1031B0002881922F90539A3008F09750892B8C9346
:1031C0009F01EF018081982F90539A3060F390E037
:1031D0008F7D9070815490408630910520F302C01D
:1031E00020E030E0C901DF91CF910895A5E0B0E083
:1031F000ECEFF8E10C94C1257B012FEF2A83E82F37
:10320000F92F5E2F3F2F81918032D9F3873621F03D
:10321000833709F0CBC002C021E001C020E0E52FD8
:10322000F32F5E2F3F2F81918032D9F7E52FF32FB7
:10323000DF0181918032E1F3FD01319611968C918D
:10324000119790E08F7D907084349105C1F08534A2
:1032500091052CF48134910509F0A8C00CC0893483
:10326000910529F08F34910509F0A0C002C050E00B
:1032700007C052E005C0FD01349653E001C051E0A3
:103280003196CF0161916032E1F370E06F7D707033
:103290006E347105B4F7BE016F5F7F4F2C834D8391
:1032A0005B836EDF2C814D815B81009709F47EC0CA
:1032B00069816130A1F0613030F0623041F06330FB
:1032C00009F074C008C03FEF00E210E00BC03FEF10
:1032D00006E210E007C03FEF09E210E003C03FE064
:1032E00003E210E05330E1F48DB79EB70A970FB6B2
:1032F000F8949EBF0FBE8DBFEDB7FEB73196ADB748
:10330000BEB71296FC92EE9211974283138282E12D
:1033100093E09583848366831782309530871EC03F
:10332000050F111D222339F1D8012C91EDB7FEB7FD
:103330003A970FB6F894FEBF0FBEEDBF3196ADB70A
:10334000BEB71296FC92EE9211974283138282E1ED
:1033500093E0958384836683178220871186A4D5A2
:10336000282F30E0EDB7FEB73A960FB6F894FEBFBF
:103370000FBEEDBF1DC0BE016F5F7F4F3B8300DFFF
:103380000097A1F0BE016E5F7F4FFADED8019C91DD
:103390002A813B81832F82238095892399819223DF
:1033A0009323892B8C9320E030E002C02FEF3FEF76
:1033B000C9012596E6E00C94DD25FC01DB01808146
:1033C0008823A1F02181222389F0822F90E0883385
:1033D00091050CF059C090917C00822F8053907F12
:1033E000892B80937C0020E038E008C020E030E0AA
:1033F00080917C00807F832B80937C0080917A0079
:10340000806480937A0080917A0086FDFCCF809161
:10341000780090917900492F5527BA016F7070702C
:103420004F706A30710510F4405D01C0495CFD01C8
:103430004193AC0164E0569547956A95E1F7BA016E
:103440006F7070704F706A30710510F4405D01C08C
:10345000495C4083FD013296AC014F7050708F7013
:103460004A30510510F4805D01C0895C808380E2A0
:1034700013968C93139714961C922C5F3F5F3830F1
:1034800008F4B6CF30E002C02FEF3FEFC901089536
:1034900061157105C9F12DB73EB7205130400FB607
:1034A000F8943EBF0FBE2DBFEDB7FEB73196ADB756
:1034B000BEB712969C938E93119782E293E093830A
:1034C000828375836483CB01019697838683CB01C6
:1034D000029691878087CB01039693878287CB01E1
:1034E0000496958784876B5F7F4F778766872AD599
:1034F0002DB73EB7205F3F4F0FB6F8943EBF0FBECB
:103500002DBF8630910511F08FEF089580E008956A
:10351000A7E0B0E0EEE8FAE10C94BF257B016A0178
:10352000E82FF92FCF0121912032E1F38E010E5FB8
:103530001F4F2223D1F0B801ABDF87FD51C080E0DF
:1035400090E0B80146E050E00E9488020E94A40288
:10355000898382E190E0BE016F5F7F4F41E050E0E0
:103560000E94880220E030E03DC0C80160E070E0C9
:1035700046E050E00E942F248DB79EB742970FB6C9
:10358000F8949EBF0FBE8DBFEDB7FEB73196ADB7B5
:10359000BEB71296FC92EE921197D382C28286E455
:1035A00093E0958384838A81868317828B818087C9
:1035B00011868C81828713868D81848715868E8102
:1035C000868717868F81808B118A6ED49C018DB778
:1035D0009EB742960FB6F8949EBF0FBE8DBF02C035
:1035E0002FEF3FEFC9012796E8E00C94DB25A5E01B
:1035F000B0E0EDEFFAE10C94C325E82FF92FCF01ED
:1036000021912032E1F38E010E5F1F4F2223D9F06A
:10361000B8010E946F0F882339F586E090E0B80169
:1036200044E050E00E9488020E94A402898382E163
:1036300090E0BE016F5F7F4F41E050E00E94880242
:1036400020E030E013C080916303909164039B837A
:103650008A8380916503909166039D838C83C80162
:103660000E940A0F9C0102C02FEF3FEFC90125966F
:10367000E4E00C94DF25A5E0B0E0E1E4FBE10C948C
:10368000C325E82FF92FCF0121912032E1F38E01DC
:103690000E5F1F4F2223D9F0B8010E946F0F8823BD
:1036A00039F58AE090E0B80144E050E00E948802D9
:1036B0000E94A402898382E190E0BE016F5F7F4F88
:1036C00041E050E00E94880220E030E013C0809189
:1036D0005F03909160039B838A8380916103909143
:1036E00062039D838C83C8010E940A0F9C0102C063
:1036F0002FEF3FEFC9012596E4E00C94DF25A5E00C
:10370000B0E0E5E8FBE10C94C325E82FF92FCF01E9
:1037100021912032E1F38E010E5F1F4F2223D9F059
:10372000B8010E946F0F882339F58EE090E0B80150
:1037300044E050E00E9488020E94A402898382E152
:1037400090E0BE016F5F7F4F41E050E00E94880231
:1037500020E030E013C080915B0390915C039B8379
:103760008A8380915D0390915E039D838C83C80161
:103770000E940A0F9C0102C02FEF3FEFC90125965E
:10378000E4E00C94DF250E940A030C9429030E94B4
:1037900052060E94A313F9C908950F931F93CF9364
:1037A000DF9380915F05882309F465C010925F055F
:1037B00080917B0190917C01019690937C01809394
:1037C0007B019FB7F89480913203882329F488E025
:1037D0008093320380E001C081E09FBF882309F01D
:1037E0004AC080917B0190917C016AE070E00E9468
:1037F0007F25009711F5C0E0D0E008E810E0C09FF9
:10380000C001C19F900DD09F900D112486569E4FF0
:10381000909399018093980182E00E94F108809131
:10382000810190918201009721F00E94A0110E94D5
:10383000CB072196C330D10511F780917B01909180
:103840007C0162E370E00E947F25009711F40E94E2
:10385000D70680917B0190917C0164EF71E00E941A
:103860007F25009731F410927C0110927B010E9419
:10387000641010923203DF91CF911F910F91089540
:103880000E948A07A89589DFA8950895CF93DF93B2
:103890008230910510F482E090E0E0916205F091B1
:1038A000630540E050E020E030E026C06081718197
:1038B00068177907E0F06817790781F482819381AE
:1038C0002115310531F0D90113969C938E931297EF
:1038D0002BC0909363058093620526C04115510566
:1038E00019F06417750718F4AB01E901DF019F01B6
:1038F00072816381E72FF62F3097C1F6411551058C
:1039000001F1481B590B4430510580F412968D91FA
:103910009C911397209719F09B838A8304C09093FE
:10392000630580936205FD01329646C0FD01E40FF8
:10393000F51F819391934250504011965C934E93A2
:103940003BC020916005309161052115310541F49E
:1039500020910E0130910F01309361052093600595
:1039600020911001309111012115310541F42DB73D
:103970003EB740910C0150910D01241B350BE09195
:103980006005F0916105E217F307A0F42E1B3F0BD1
:103990002817390778F0AC014E5F5F4F24173507C1
:1039A00048F04E0F5F1F509361054093600581936F
:1039B000919302C0E0E0F0E0CF01DF91CF91089554
:1039C000CF93DF93009709F491C0FC0132971382E3
:1039D000128260916205709163056115710581F431
:1039E00020813181280F391F8091600590916105F8
:1039F0008217930799F5F0936105E093600576C00F
:103A0000DB0180E090E002C0CD01D901AE17BF0715
:103A100048F412962D913C91139721153105A1F789
:103A2000CD0121C0B383A283EF01499159919E0139
:103A3000240F351FA217B30779F42D913C911197EC
:103A4000240F351F2E5F3F4F3183208312962D9117
:103A50003C91139733832283009729F4F0936305F5
:103A6000E093620543C0DC011396FC93EE9312973A
:103A70004D915D91A40FB51FEA17FB0769F42081F2
:103A80003181240F351F2E5F3F4FEC01398328838E
:103A9000228133813B832A83E0E0F0E002C0FB0116
:103AA000BC01DB0112968D919C9113970097B9F799
:103AB0009B012E5F3F4F8D919C911197820F931F19
:103AC00040916005509161054817590779F4309786
:103AD00029F4109263051092620502C013821282CB
:103AE000225030403093610520936005DF91CF91E3
:103AF00008952F923F924F925F926F927F929F9282
:103B0000AF92BF92CF92DF92EF92FF920F931F93EB
:103B1000CF93DF933B01EA016115710519F0FB01B9
:103B200080839183209739F09E01225030402332C8
:103B3000310508F0D2C0C82ED92EF60111916F01BF
:103B40007F01812F90E0E2D00097B9F71D3231F468
:103B5000F60111917F019924939406C01B3219F448
:103B6000F60111917F019924209719F0C031D105F8
:103B7000D1F4103389F4F7018081883711F088354A
:103B800059F4F701118182E090E0E80EF91E92E00D
:103B9000992AC0E1D0E007C0209729F41033B1F092
:103BA000CAE0D0E02AC0CA30D10539F1C031D10510
:103BB00021F0C830D105A9F409C02FEFA22E2FEFB4
:103BC000B22E2FEFC22E2FE0D22E1FC0C8E0D0E0C1
:103BD0009FEFA92E9FEFB92E9FEFC92E9FE1D92EFF
:103BE00014C09E01442737FD4095542F6FEF7FEF9F
:103BF000CB0199D759016A0108C089E9A82E89E942
:103C0000B82E89E9C82E89E1D82E60E020E030E0A6
:103C1000A9011E01442437FC4094542C012F005369
:103C20000A3060F0812F81548A3110F4075006C0A9
:103C3000812F81568A3148F5012F0755802F90E05A
:103C40008C179D0714F56F3FE1F0A216B306C4066A
:103C5000D506A0F0CA01B901A201910131D79B019B
:103C6000AC01802F90E0A0E0B0E0280F391F4A1F80
:103C70005B1F281739074A075B0710F46FEF01C075
:103C800061E0F70111917F01C9CF6114710481F0E6
:103C9000662339F00894E108F108F301F182E0822B
:103CA00007C091FE05C0C7010297F301918380838D
:103CB00090FE07C050954095309521953F4F4F4F4E
:103CC0005F4F67FF0DC082E290E09093650580939F
:103CD00064052FEF3FEFA90103C020E030E0A90108
:103CE000B901CA01DF91CF911F910F91FF90EF9021
:103CF000DF90CF90BF90AF909F907F906F905F903C
:103D00004F903F902F900895F8946CC79111CDC5B6
:103D1000803219F089508550D0F70895FB01DC01FD
:103D200004C08D910590801921F441505040C8F78E
:103D3000881B990B0895FB01DC0102C005900D92D0
:103D400041505040D8F70895FB01DC010D90002050
:103D5000E9F7119705900D920020E1F70895FB0116
:103D6000DC0105900D920020E1F70895FC0105901B
:103D70000020E9F7809590958E0F9F1F0895FB0115
:103D8000DC014150504088F08D9181341CF08B351E
:103D90000CF4805E659161341CF06B350CF4605E50
:103DA000861B611171F3990B0895881BFCCFFB01F1
:103DB000DC014150504030F08D910590801919F48C
:103DC0000020B9F7881B990B0895FC014150504021
:103DD00030F001900616D1F73197CF01089588276A
:103DE00099270895FB01DC0102C001900D9241501A
:103DF0005040D8F70895DC0101C06D934150504008
:103E0000E0F70895FC018191861721F08823D9F706
:103E1000992708953197CF010895FB01DC014150A6
:103E2000504030F08D910190801919F40020B9F7BD
:103E3000881B990B0895FC0181E090E00190061623
:103E400009F4CF010020D1F701970895AEE0B0E06A
:103E5000EBE2FFE198C60D891E898F89988D26E0D7
:103E60002C831A83098397FF02C080E090E80197B2
:103E70009E838D839E01255E3F4FCE010196698D05
:103E80007A8DA90176D04D815E8157FD0AC02F81C0
:103E90003885421753070CF49A01020F131FF801DB
:103EA00010822E96E4E08BC6AEE0B0E0E9E5FFE1DB
:103EB0006AC60D891E898F89988D2EE02C831A83FE
:103EC000098397FF02C080E090E801979E838D836D
:103ED0009E01255E3F4FCE010196698D7A8DA90125
:103EE00048D04D815E8157FD0AC02F813885421729
:103EF00053070CF49A01020F131FF80110822E963B
:103F0000E4E05DC6AEE0B0E0E7E8FFE13CC60D8965
:103F10001E898EE08C831A8309838FEF9FE79E832F
:103F20008D839E01275E3F4FCE0101966F89788D6C
:103F3000A9011FD0EF81F885E00FF11F10822E96A6
:103F4000E4E03DC6AEE0B0E0E7EAFFE11EC68DE08A
:103F50008C838B899C899A8389839E01295E3F4F3C
:103F6000CE0101966D897E89A90160D32E96E2E08B
:103F700028C6ACE0B0E0EEEBFFE1F7C56C011B0139
:103F80008A01FC0117821682838181FFC4C12E0140
:103F90000894411C511CF6019381F10193FD859118
:103FA00093FF81911F01882309F4B1C1853239F44F
:103FB00093FD859193FF81911F01853221F490E05B
:103FC000B601D9D4E8CFEE24FF2420E02032B0F4AB
:103FD0008B3269F08C3228F4803251F0833271F4E4
:103FE0000BC08D3239F0803349F421602CC022603F
:103FF000246029C0286027C0206125C027FD2CC06F
:10400000382F30533A3098F426FF08C08E2D880F91
:10401000E82EEE0CEE0CE80EE30E15C08F2D880F87
:10402000F82EFF0CFF0CF80EF30E20620CC08E323F
:1040300021F426FD6CC1206406C08C3611F4206882
:1040400002C0883649F4F10193FD859193FF819177
:104050001F01882309F0BACF982F9554933018F098
:104060009052933028F40C5F1F4FFFE3F9830DC08B
:10407000833631F0833771F0833509F05CC021C09D
:10408000F801808189830E5F1F4F420171E0A72EE6
:10409000B12C15C062E0662E712C600E711EF80105
:1040A0008080918026FF03C06E2D70E002C06FEF0C
:1040B0007FEFC4012C8712D45C0183012C852F77FC
:1040C00016C052E0652E712C600E711EF8018080C2
:1040D000918026FF03C06E2D70E002C06FEF7FEF6E
:1040E000C4012C87F0D35C012C852068830123FD5B
:1040F0001EC007C080E290E0B6012C873CD4FA9441
:104100002C858F2D90E0A816B906A0F310C0F401FD
:1041100027FD859127FF81914F0190E0B6012C8703
:104120002AD42C85F110FA940894A108B108A1149E
:10413000B10469F7E9C0843611F0893641F527FFEB
:1041400008C0F80160817181828193810C5F1F4FEB
:1041500009C0F80160817181882777FD8095982FCB
:104160000E5F1F4F4FE6B42EB22297FF09C0909505
:104170008095709561957F4F8F4F9F4FF0E8BF2AD4
:10418000A2012AE030E03ED4782E741844C085376E
:1041900031F43FEEB32EB2222AE030E025C099EF91
:1041A000B92EB2228F36C1F0803720F4883509F05D
:1041B000AEC00DC0803721F0883709F0A8C002C01A
:1041C00020E1B22AB4FE0BC084E0B82A08C0B4FED5
:1041D00009C0E6E0BE2A06C028E030E005C020E1C4
:1041E00030E002C020E132E0B7FE08C0F801608193
:1041F0007181828193810C5F1F4F07C0F80160813C
:10420000718180E090E00E5F1F4FA201FBD3782EFA
:104210007418FFE7BF22B6FE0BC02EEFB2227E1449
:1042200038F4B4FE07C0B2FC05C08FEEB82202C05D
:10423000A72C01C0AE2C8B2D90E0B4FE0DC0FE016A
:10424000E70DF11D2081203319F4E9EEBE2209C0EB
:10425000A394B2FE06C004C086789070009709F05F
:10426000A3948B2C9924B3FC13C0B0FE0EC0AF14E2
:1042700028F4E72CEF0CEA18AF2C07C0E72C05C098
:1042800080E290E0B60177D3A394AF14C8F304C0E2
:10429000AF1410F4FA1801C0FF2484FE0EC080E3AE
:1042A00090E0B60168D382FE1DC081FE03C088E5A0
:1042B00090E010C088E790E00DC0C401867890704F
:1042C000009781F081FC02C080E201C08BE2B7FC64
:1042D0008DE290E0B6014FD305C080E390E0B601D7
:1042E0004AD3EA947E14C8F37A94F201E70DF11DE3
:1042F000808190E0B6013FD37720B1F705C080E21E
:1043000090E0B60138D3FA94FF20C9F744CEF60105
:104310002681378102C02FEF3FEFC9012C96E2E1E1
:1043200040C420FD09C0FC0123FD05C022FF02C0DE
:1043300073836283518340830895EF92FF920F93BA
:104340001F9344FD10C046FD10C0DB01FC01AA0F05
:10435000BB1FEE1FFF1F1094D1F76A0F7B1F8E1F2C
:104360009F1F31E003C033E001C034E0660F771FC8
:10437000881F991F3150D1F77B018C01E20EF11C8F
:10438000011D111DA8019701B701CA011F910F91CD
:10439000FF90EF900895EF92FF920F931F93CF93AA
:1043A000DF938C01C801A5D2EC0197FD07C0AEDCFC
:1043B0000097C1F77E01CE01B80109D3CE01CDB778
:1043C000DEB7E6E0FAC38F929F92AF92BF92DF9280
:1043D000EF92FF920F931F93DF93CF930F92CDB77E
:1043E000DEB74C01D62E5A01122F83D28B3219F030
:1043F0008D3241F41068DA9409F465C0C40179D2B1
:1044000097FD61C0312F3D7F232F2073E1F480336E
:10441000D1F4DA9409F443C0C40139836AD23981F2
:1044200097FD3DC03260883711F0883551F4306413
:10443000DA94A9F1C40139835CD2398197FF03C0B2
:104440002EC036FF3061EE24FF248701282F205331
:10445000283088F034FD09C02A3068F036FF05C0E6
:104460002F7D422F4151463028F0B4013983AFD21D
:10447000398112C02750C801B701432F39835DDF4E
:104480007B018C0139813260DA9461F0C401398397
:1044900030D2398197FFDACF31FD04C014C0EE2449
:1044A000FF24870137FF08C010950095F094E09431
:1044B000E11CF11C011D111DC501B801A701232F2D
:1044C00030DF81E001C080E00F90CF91DF911F913C
:1044D0000F91FF90EF90DF90BF90AF909F908F90E3
:1044E0000895A1E2B0E0E6E7F2E243C36C018A017D
:1044F00079019E012F5F3F4F80E2F90111928A9569
:10450000E9F7F601838080E090E0BB24992470E015
:10451000A1E0B0E0F70183FCA59083FEA1907F01AC
:10452000AA2009F47DC0FA2DFE3511F4009751F14F
:10453000472F50E04817590744F44A2D4D3551F1A3
:104540004D3219F4992001F103C0992009F4BA2CD5
:104550004A2D469546954695F901E40FF11D4A2DE1
:1045600047703D0102C0660C771C4A95E2F79080C7
:1045700096289082AB1459F0AB1410F4A394E8CFB2
:10458000AA94E6CF71E004C09924939401C09924C1
:104590000196C0CF992019F08E8180628E83772397
:1045A00051F0CE018196FE01319620812095219314
:1045B000E817F907D1F7BB24B3944E010894811C86
:1045C000911C01C0BB24C60169A393D169A197FDC9
:1045D0001FC0282F269526952695F401E20FF11D80
:1045E000208130E0AC014770507002C035952795AE
:1045F0004A95E2F720FD03C0B601E9D109C00115D3
:10460000110519F0F80181938F016150D9F602C0AC
:10461000BB2031F40115110529F0F801108202C008
:10462000EE24FF24C701A196EEE0BFC24F925F9235
:104630006F927F929F92AF92BF92CF92DF92EF9252
:10464000FF920F931F93DF93CF930F92CDB7DEB7F7
:104650007C016B013A01FC011782168200E0DBC08D
:10466000812F90E053DB009719F0C70194DED3C08F
:10467000153241F4F601A3FC3591A3FE31916F018F
:10468000353251F4C70135D197FDD1C0181709F45F
:10469000C2C0B7019CD1CDC03A3239F4A3FC3591E8
:1046A000A3FE31916F0111E001C010E099240EC00A
:1046B0001260692D70E080E090E040E23EDE962ED0
:1046C000F601A3FC3591A3FE31916F01232F2053F6
:1046D0002A3070F311FF03C0992019F4AAC099245D
:1046E0009A94383619F03C3689F409C0F601A3FCD7
:1046F0003591A3FE31916F01383641F41860146092
:10470000F601A3FC3591A3FE31916F01332309F427
:1047100090C087EF93E0632F70E03983C9D039816F
:10472000009709F486C0812F10FD08C0F301408076
:10473000518042E050E0640E751E02C044245524AE
:104740003E3649F4F7014681578160E070E0C201CE
:10475000212FE7DD60C0333689F481FD02C0992442
:104760009394C701C6D097FD62C04114510419F05B
:10477000F20181932F019A94A1F74BC03B3551F47C
:10478000C701692DA2019601ACDE6C01009709F00A
:1047900040C03AC0C7013983FEDD398197FD47C06B
:1047A0003F3641F1303728F4343611F1393621F5EE
:1047B00024C0333719F03537F9F41AC0C70199D03E
:1047C0005C0197FD0FC0A2DA009721F0C501B70187
:1047D000FED008C04114510419F0F201A1922F013A
:1047E0009A9461F741145104A1F0F201108211C0B2
:1047F000106203C0106101C01064C701692DA201DD
:10480000212FE1DD882329F4F7018381807379F476
:1048100010C010FF0F5FF701A380F601A3FC1591F4
:10482000A3FE11916F01112309F01ACF02C00023DA
:1048300011F010E002C00FEF1FEFC8010F90CF91F1
:10484000DF911F910F91FF90EF90DF90CF90BF907D
:10485000AF909F907F906F905F904F900895DC0194
:10486000CB01FC01F999FECF06C0F2BDE1BDF89A7B
:10487000319600B40D9241505040B8F70895F9991F
:10488000FECF92BD81BDF89A992780B50895262F55
:10489000F999FECF1FBA92BD81BD20BD0FB6F89425
:1048A000FA9AF99A0FBE01960895992788270895D4
:1048B000FC010590061621F00020D9F7C0010895EB
:1048C0003197CF010895FC010590615070400110AF
:1048D000D8F7809590958E0F9F1F0895FC01615029
:1048E000704001900110D8F7809590958E0F9F1F12
:1048F0000895CF93DF93EC013B8130FF36C036FF44
:1049000009C03F7B3B838E819F8101969F838E836D
:104910002A8129C032FF0FC0E881F981808199275F
:1049200087FD9095009719F430623B831EC0319645
:10493000F983E88311C0EA85FB85CE01099597FFCD
:104940000BC02B813FEF8F3F930711F480E101C033
:1049500080E2822B8B8309C02E813F812F5F3F4FE6
:104960003F832E83282F30E002C02FEF3FEFC90195
:10497000DF91CF9108950F931F93CF93DF938C0115
:10498000EB018B8181FF1BC082FF0DC02E813F8117
:104990008C819D812817390764F4E881F98101939E
:1049A000F983E88306C0E885F985802F099500978B
:1049B00031F48E819F8101969F838E8302C00FEF19
:1049C0001FEFC801DF91CF911F910F910895FB0157
:1049D000238120FF13C026FD11C03FEF8F3F9307B7
:1049E00069F0828320642F7D2383268137812150C3
:1049F000304037832683282F30E002C02FEF3FEF6F
:104A0000C9010895FA01AA27283051F1203181F116
:104A1000E8946F936E7F6E5F7F4F8F4F9F4FAF4FC6
:104A2000B1E03ED0B4E03CD0670F781F891F9A1FD9
:104A3000A11D680F791F8A1F911DA11D6A0F711D8D
:104A4000811D911DA11D20D009F468943F912AE099
:104A5000269F11243019305D3193DEF6CF01089581
:104A6000462F4770405D4193B3E00FD0C9F7F6CFB2
:104A7000462F4F70405D4A3318F0495D31FD40527A
:104A8000419302D0A9F7EACFB4E0A6959795879510
:104A900077956795BA95C9F70097610571050895EF
:104AA0009B01AC010A2E069457954795379527959B
:104AB000BA95C9F7620F731F841F951FA01D089533
:104AC000629FD001739FF001829FE00DF11D649FF2
:104AD000E00DF11D929FF00D839FF00D749FF00D7E
:104AE000659FF00D9927729FB00DE11DF91F639F1F
:104AF000B00DE11DF91FBD01CF0111240895AA1BBE
:104B0000BB1B51E107C0AA1FBB1FA617B70710F0B8
:104B1000A61BB70B881F991F5A95A9F780959095EA
:104B2000BC01CD010895A1E21A2EAA1BBB1BFD01F9
:104B30000DC0AA1FBB1FEE1FFF1FA217B307E4077C
:104B4000F50720F0A21BB30BE40BF50B661F771FD4
:104B5000881F991F1A9469F76095709580959095B4
:104B60009B01AC01BD01CF0108952F923F924F925E
:104B70005F926F927F928F929F92AF92BF92CF92ED
:104B8000DF92EF92FF920F931F93CF93DF93CDB7F6
:104B9000DEB7CA1BDB0B0FB6F894DEBF0FBECDBF6E
:104BA00009942A88398848885F846E847D848C843F
:104BB0009B84AA84B984C884DF80EE80FD800C8148
:104BC0001B81AA81B981CE0FD11D0FB6F894DEBF2B
:104BD0000FBECDBFED010895EE0FFF1F0590F491BC
:104BE000E02D0994F894FFCF4E554C4C00302E32F6
:104BF00020282900200066050000FFFFFFFFFFFFBF
:104C0000236164632E687471028D1F8B0800124942
:104C1000BE4E02037554DB6ED430107DCF570C1698
:104C2000908494245B04426C7651C54520A00FB457
:104C30006F08ADDC7876E392DAC1F6DE84FAEF8CA9
:104C40009DCD5E5079B2C773CEF878C63355E3EE8A
:104C5000DA695435C8052D4EBA16A71F5C83C6E223
:104C6000069EC3C5FB7770E5B85BDAAAE89D51D50F
:104C70004AF50B0CB61366DDB645DB203A068DC14E
:104C8000F9845DB96D5E3370DB0E27CCE1C615B5D6
:104C9000B5AC2096AD8DEC1C585313AF36F9AD3D35
:104CA00081DDF215EF216C5A15FDEEC0FA0F309A36
:104CB0002F55EDA45680F59D987151CF0CFE4E52A4
:104CC000F813C1853117B77C937B4F12930B16E80D
:104CD000E2B313E4ACE14AB468D27174FF70AC0182
:104CE00091D07E89D69D81E08E870BE41C92004591
:104CF00063F41E90A6115072DCD2A871042B6EC012
:104D000076AD7430811D2037683BAD2C5ED36BF2DD
:104D1000E04C18309200736D20F11449F0724C4B46
:104D2000D5B3F316D5C235749265E1EE1078C5DBC4
:104D30002512B2E354ACCFCA2501FB43FE3C83D11C
:104D40002B1F2F4894F6925F26011BB401D45A39C9
:104D5000A99638DEC55918DE3514E77148D32C986A
:104D6000316420438C60E6A1D2F95A0AE7917D387C
:104D70007806A3B28462549EBFC8CB9418EC093B5A
:104D800050A452683E5D7FFB7A203CA267A5F016D6
:104D9000D8537563BB318337C0D820C327F6A0C270
:104DA0005B0711DE7A28E04E01780969EEF447B915
:104DB00041919CF75A80F29AEDB24476EA6FBAA715
:104DC00042AFA5127A9D6BD56A2E28D650F8FEDF29
:104DD00078295E80E3372D063D6C6FFEB74AAF8FB2
:104DE0004AB34793608BC67DD7EB44A627EAE3CA54
:104DF00089E917AE780BE18D90C540FD25A6740EAC
:104E000075CBAD9DB07D29A81F845C811447677167
:104E100026B3D8370A79A60F317DC2D89E139239AE
:104E200050081C874CFCD3347466D1D13F424339BF
:104E30004BE2532F75CECBB22C43A71CF56711065E
:104E40004775A3C5D64F91D161761C4F0E3AA7D9AD
:104E500012123A48EAF3394896BAB77DC4B0A3CDE6
:104E6000F0E8562FE8C75AEDDDFD8309B4BBB0E882
:104E7000C7D75F5EBFFDE3C6040000FFFFFFFFFF73
:104E8000FFFFFFFFFFFFFFFFFFFFFFFFFFFFFFFF32
:104E9000FFFFFFFFFFFFFFFFFFFFFFFFFFFFFFFF22
:104EA000FFFFFFFFFFFFFFFFFFFFFFFFFFFFFFFF12
:104EB000FFFFFFFFFFFFFFFFFFFFFFFFFFFFFFFF02
:104EC000FFFFFFFFFFFFFFFFFFFFFFFFFFFFFFFFF2
:104ED000FFFFFFFFFFFFFFFFFFFFFFFFFFFFFFFFE2
:104EE000FFFFFFFFFFFFFFFFFFFFFFFFFFFFFFFFD2
:104EF000FFFFFFFFFFFFFFFFFFFFFFFFFFFFFFFFC2
:104F00002367722E6769668D01F21F8B08001249B4
:104F1000BE4E020373F774B3B04CE467E067D8CCBD
:104F2000CBE0EAEAFAFF150310FC3FC7F0FF24C309
:104F3000FFFFFFFFCD65F8BF85E1FFBFC9FFFF1F82
:104F4000FFFF57F8FF53A0E06B061850FCCFEDE7CA
:104F50001A12ECEC18E06AA467C0CC0812FAC9C2B5
:104F6000CAC5C0CBA003920719CBC012B7C19333F7
:104F70006BEE8ED0690252E26C055D42739A197D28
:104F80001CD439D23F2C5BDDC6E1CAF8D86A85EA69
:104F90009E9880E54C774A76A47C0A703C1167ADF8
:104FA000D1C869609BBCFEC016A38E4A7FEE26AFB7
:104FB000CB7FE771D87D4A606C60BA907C2AC16172
:104FC000C5F5CC99A712EB35D222C44C85051156F4
:104FD000B230B03270303003ADE4DAD011F9644F42
:104FE000D88D05E92CC8D22C0CEC40CCC0C2BDA198
:104FF000D3EDE99ACD5796FDD483683782C943B57E
:10500000076CB9A9A2BBE561937A3F585A0424CD35
:10501000C9C0C5C004840C2C2C1B382F2A613397BF
:1050200077C314B754C62D8DDA062FA2DA5CC12AD5
:1050300018402A40DAB8816A18586437782A4AAF8B
:10504000350A890DFD71965DCB49936599838FEF84
:10505000C5A888C893D2E24582E83AD8803AC436D7
:1050600078AA46AFB0085F28BDDD91A3EB943A8BD8
:105070009A61DC4209461C4A81865B782F8D9EE14D
:1050800094D13A25C0A3B573DA130D37066B00B17E
:1050900079247DE5010000FFFFFFFFFFFFFFFFFF19
:1050A000FFFFFFFFFFFFFFFFFFFFFFFFFFFFFFFF10
:1050B000FFFFFFFFFFFFFFFFFFFFFFFFFFFFFFFF00
:1050C000FFFFFFFFFFFFFFFFFFFFFFFFFFFFFFFFF0
:1050D000FFFFFFFFFFFFFFFFFFFFFFFFFFFFFFFFE0
:1050E000FFFFFFFFFFFFFFFFFFFFFFFFFFFFFFFFD0
:1050F000FFFFFFFFFFFFFFFFFFFFFFFFFFFFFFFFC0
:10510000236964782E6874F301581F8B08001249D4
:10511000BE4E02038D53C18ADB3010BDFB2B66757A
:105120000985ADC55E17DB97D2426F851696424062
:1051300068ED896DA248419A341BF0C7774672D258
:10514000B4F4B0129634336FDE9B44A366A283EBB3
:105150002A6826B403EFD0D04C0EBBCF34614CF894
:10516000065FFDC0EB373B62A34B48406EF67B8881
:10517000E85A95E8E2304D88A4608AB86BD577BAD2
:10518000D4BD02BA1CB155846FA4FB94941611BD12
:10519000AA34AF61B864A2E9A97B41D787030205AD
:1051A000B8AA3E30F229C78FDDA7E0C768E9E42C32
:1051B000CDC1A707809FE1146F5098888E9030FE74
:1051C000C2089B17EB8683F57EC31E3C24E17C4519
:1051D0003887B89FFD08CD7C1821C5BE5563ACC784
:1051E00079A7C03A6AD5F3C70FAA6BF47115647A30
:1051F000485338B9013C0AEB2EC4110968B2047552
:105200005D675444CE9D47DFAA1E3D6154922CC376
:10521000ACDFBBC71DB8502CEB7CF7B8073385312A
:10522000863DF9CBC5F0CAD3E4832C652BD239C6B1
:1052300007A13005632AD0ECDC82D06CE450CC8D21
:10524000315A7CC5DA6A768BF426AB959943CCA7A4
:10525000AB452474A9A2D4974DE0B0648BD5F1DF9F
:1052600078AB7EB9412524DC9540CDC24BF9294B62
:10527000368D60F9A0C5D2B26D8542DC827F342BB9
:10528000500BB8E23B8DB8DEEA97106140B2B34BE9
:10529000103C9CE532F1DA43737A84C6AEFD2B0DE7
:1052A000F5ACF5F97CAEAF807A40ADBA3BABD1B688
:1052B000AB73CBE4268E5DC5123F020C0192F472F3
:1052C0001F3CC5E0806CDA333737E31FFE39D41357
:1052D000A98EB9EE684ABAE05804ECD0433F711F7A
:1052E0002357FB573247FE93FDCFE087561E183FEA
:1052F000A3FCBC7F032F307628E6030000FFFFFFEE
:1053000023696F2E6874009504931F8B080012495F
:10531000BE4E0203BD575F6FDB36107FB63E0541C0
:105320000C9304BB929DA1C596C82EB2B618F2D2BA
:105330000C6DDE86C1A0A5B3C544A63C8A4A6D0C9F
:10534000F9EEBB23255976DC2E5991C58825927735
:10535000F7BBFF4727B95917332FC94164F830D23B
:105360001430FB6072D0156CD92B7675CDDE95CAE2
:10537000E8B2486277E8258554774C4331E595D902
:105380001550E50086B35CC372CA3F9B5D9472669C
:10539000761B9872035B13A755C563E4AA522D3799
:1053A00086553A45BE5447B7D501D9ADB8178E8456
:1053B000CF92D8BDEDB9BE42E82D6B951A592A0699
:1053C000E93A9BAFC0CC651910F188A97A3D62B962
:1053D0005059013A647F7B837BA159268C6053A688
:1053E000E00BBB5EDC426A82F0C21BD06E445C788C
:1053F000448F760B451071BDC68D4BAD2F6FC536F2
:1054000022A0C097254330E6B3A165C0876F177D02
:10541000D011F37FFB70E38F2C28C23C787B75178B
:105420003B0367396C037BD66A871B88E7B4293F47
:105430001B2DD52A98BC210D35985A2B1620455482
:10544000805A999C4DA76C12B2B7CC1FFB43623CAB
:1054500027F64314EB94AAEF944DA98DD5D17EDDA8
:105460008BA2860E5D2276D06CBD65131438BE709B
:1054700027B52EF08C8CAE4E19DD08C5378E1F7CFB
:10548000ECCD932C49082BF4068386BC3B9B240966
:105490009D1CFB16C1C213666C04662419A2E1AF01
:1054A0001A2A63D5964B16D853D0BAD4DD11A1B1C0
:1054B000C665B5CA602915648D2D9443684C431A9E
:1054C00069A836A5AAE006B7F77EB66057CA0444B5
:1054D0001D55F5A232DABD4B14B7BD5E067CBCE5A6
:1054E000E1F06C74168E980D515FE12F5A1A989363
:1054F0005B5A959A24685D6DBD8C5A9CB60CF55824
:10550000969A62E18232BEC047C27EC6C7706865A5
:10551000B878655DB2B86874393B64F2A2212A1785
:10552000B748F5432033123BC06594E690DE41D680
:10553000459BFDC88209C549861478A371EB9C2D53
:105540004551C111CB1C797A4B3C7D38B07B2DAADB
:10555000BB17359BE2FD58677BE4CA3BD3D65A8E16
:105560002FFCC823D6FE011E4498C49706AB6B518E
:105570001B0878A9522CD815F011E3FBDE72BE91FE
:10558000CA96CE42A47781C96515F2AF49D0D83BFF
:105590004B55EC500239CF91F59DCFC927A7F52186
:1055A000777E9F3E8F259CD2E7E138562B50A04551
:1055B0009BA6F435620E787EDC34955853D45C4358
:1055C0008A96BA5CBFCB857E576660F9D09837AFB4
:1055D0006D1B2DD37A0DCA4436FF033F3162510053
:1055E0004B0B5155532E4BBBC4EE6E34FEE7B38FBD
:1055F0001A474A6E5FDFBFFF64BB270251E9BA3F1B
:10560000EC171DC1EFD79F6E5A8AC383AB8F8FF7FC
:105610006344F09F5A468652863BA5B219454952CB
:10562000274321B822D721C1D05264B344AA4D6D7B
:10563000B0F2A67E93618D039085FBB8A680703B87
:10564000AC7C5B248B72EBB336A253BF174F623E28
:10565000F437A1FAF1ECDF80DB5CDA23B3FF0D5AFB
:10566000AAEF436E33739E2E5C0EFBACDD3A854E83
:1056700071B41B47996574687BCFF13E71508ECD34
:105680006C69F4AF049C5477E36FD46BCF4486B558
:10569000839D1E34F695C03FC1E3EF2DF60F787160
:1056A000F57A3C1EA38C232C4A8DE762399EE76372
:1056B000D96C78B6618EE9F968D4E03BB4AEDB1FF3
:1056C0004DBF7E90B139D94A3B9C3BCD6CE9331D2F
:1056D000B4B7D35CFD4174C48C4ACC5DBA75BCB61A
:1056E000B4DD958E186586A37E53881482F88FF1F9
:1056F000AB5FFE8C57D85F6D9E10657B8599EE473A
:105700007FC3D50E7F14D5DCBC70E0872DDF5379C5
:10571000D0C59386AF71E937AE653D43AD6B7BD79E
:10572000E1D8DED3934599EDE8D23ED95FD5FB179A
:1057300075DCF7921428F874A7B725E10DA8C561A8
:105740002DD99AFEF6B5FA70368CD1517D0FB7C3BC
:10575000A753CB16EE7F913C7931C9672F26F9A765
:10576000274AB6CDCB6B1B12BEB4F1F012D1FC565A
:1057700092D936CA1180FD8A49CF9258205926EF16
:10578000A9D5F2A25CA5782F2DEDC08C7197443479
:10579000618FDD6FB67F003E906930BB0D0000FF6A
:1057A000FFFFFFFFFFFFFFFFFFFFFFFFFFFFFFFF09
:1057B000FFFFFFFFFFFFFFFFFFFFFFFFFFFFFFFFF9
:1057C000FFFFFFFFFFFFFFFFFFFFFFFFFFFFFFFFE9
:1057D000FFFFFFFFFFFFFFFFFFFFFFFFFFFFFFFFD9
:1057E000FFFFFFFFFFFFFFFFFFFFFFFFFFFFFFFFC9
:1057F000FFFFFFFFFFFFFFFFFFFFFFFFFFFFFFFFB9
:10580000237363722E6A73B506131F8B0800124947
:10581000BE4E0203AD58EB6FDB3610FFEEBF827554
:105820003798AE1D5B71DAAE8B9B157934ED803401
:10583000C5D67C1810048122D112533D3C8A8AA51A
:105840000DF9DF77471EF5489D761D56203275F716
:10585000BBE3BD49755566819679C67EE0321CB3BF
:10586000BF074CAE180FF3A04C45A66791D06F133D
:1058700081CBA3FAD7703C604C095DAA8C3D824075
:1058800025CB81036565922C07F78395DBE41AF835
:105890005376E727A5307BDDF98AE537B7ECC06E94
:1058A000BFB4BB03658CE499CC32A1DE5F7C3803C6
:1058B00080114265287378EB57BF95A214C0C8C405
:1058C000861D2AE5D71CE47BCCB33CF84C808F378F
:1058D000B722D088E87167093C4408A0959F1482DC
:1058E000E49542D09792963EF3CB952A5728E3DC75
:1058F000E27E182A51145316FB5998083565A9D031
:10590000710EBE86BEF69BB06EDBDB304D2094F888
:10591000B31485FE625FE63833DA0610B4EA326902
:105920006B60D2AACBB4E600CF2EBA2CB41018F814
:1059300083E4C6C6D9BA2C624E283203B30AABFB45
:10594000017B248C5A61928C3B559ABCD77A8DEEA0
:10595000983230117862F7C742628D4DA3776F2F6E
:105960004604D0F55AE42BF6C7873314FE9D42F265
:10597000044065168A95CC443842E98E7608561F55
:10598000CE5D213D21948DB10F31D17C749E1BE3FE
:105990005951AED7B9D223E39A8E55BE616FAB4051
:1059A000AC31A38FA0BA0120D5B37C2D32EEB2DD8D
:1059B000D401C601451A54A6841FD685F6B5082021
:1059C0003F91E8D40FB7F6A1C50E6FD09F10CD0E52
:1059D0000ED8730B00ADB55D182CA5D9C412FED13D
:1059E000AB5341A58766B37B16F83A883936DDFD9F
:1059F00080C4DB4427228B74CC7E611EED63F2975A
:105A0000890A6BB18515B15C514132F6F5363288A1
:105A10005EBB7054376BE263DE9A66316F2E86E6AA
:105A2000A56BBB009564D7377745EFEE7BF929442A
:105A300016BAFEEC8C2662E34071868A200DBFB751
:105A4000AB49DB035F4773D4F566C426EC1B3A7A97
:105A5000D331C9A3EB20117EC6E37C93FA593D658F
:105A600037B9D679DACC4A40047956E489302373C1
:105A7000D4BE9B023569CB438113A2657546747110
:105A8000545FF8D1B99F0A3E0AE59D11DAC412D4D9
:105A90007123D7960259600BA2A34B8934BF13C759
:105AA00020135A914BEE6C7CC33CB6EF04AFC6A6F4
:105AB0004DFADE45509E0108417F4092BFD7BB8E14
:105AC0001585AEE179270B792313A96B1C22E60D0E
:105AD000A014875BA1FF72B3F404FA88BB007DD2E7
