:1000000046C200006FC200006DC200006BC200005B
:1000100069C2000067C2000065C2000063C2000040
:1000200061C200005FC200005DC200005BC2000050
:1000300059C2000074C3000055C2000053C2000042
:1000400051C200004FC200004DC200004BC2000070
:1000500049C2000047C2000045C2000043C2000080
:1000600041C200003FC200003DC200003BC2000090
:10007000E50EFC0E750F7A109910C110C9106410AE
:100080000022F9010C650025303278002578004601
:10009000757365733A206C6F773D25303258206850
:1000A0006967683D253032582065783D25303258E3
:1000B00000546F6D00256868752E256868752E25BB
:1000C0006868752E256868750025752E25752E259E
:1000D000752E257500257300706172736520657239
:1000E000726F720025750A0025750A004854545035
:1000F0002F312E3120323030204F4B0A436F6E6E3D
:10010000656374696F6E3A20636C6F73650A0043B0
:100110006F6E74656E742D547970653A20746578CD
:10012000742F6373733B20636861727365743D75EC
:1001300074662D380A0A00436F6E74656E742D5410
:100140007970653A20746578742F68746D6C3B2003
:10015000636861727365743D7574662D380A0A00B0
:10016000436F6E74656E742D547970653A206170BA
:10017000706C69636174696F6E2F7868746D6C2B35
:10018000786D6C3B20636861727365743D7574664D
:100190002D380A0A0043616368652D436F6E7472DF
:1001A0006F6C3A206E6F2D63616368650A4361630B
:1001B00068652D436F6E74726F6C3A206D75737441
:1001C0002D726576616C69646174650A436F6E7443
:1001D000656E742D547970653A20746578742F704B
:1001E0006C61696E3B20636861727365743D757400
:1001F000662D380A0A00485454502F312E312034CD
:1002000030302042616420526571756573740A4311
:100210006F6E6E656374696F6E3A20636C6F7365A1
:100220000A436F6E74656E742D547970653A20744C
:100230006578742F706C61696E3B206368617273BE
:1002400065743D7574662D380A00436F6E74656E73
:10025000742D456E636F64696E673A20677A6970C2
:100260000A0042616420526571756573740A004822
:100270005454502F312E31203430342046696C656F
:10028000204E6F7420466F756E640A436F6E6E6504
:100290006374696F6E3A20636C6F73650A436F6EA7
:1002A00074656E742D547970653A20746578742F76
:1002B000706C61696E3B20636861727365743D7533
:1002C00074662D380A0046696C65204E6F742046AE
:1002D0006F756E640A00436F6E74656E742D4C65A5
:1002E0006E6774683A20000A006964782E687400AA
:1002F00065636D643F0065636D643F006964782EDB
:10030000687400474554202F0025750A00706F72ED
:10031000742025643A203078253032780025326800
:1003200068783A25326868783A25326868783A25DC
:10033000326868783A25326868783A253268687891
:1003400000253032783A253032783A253032783A02
:10035000253032783A253032783A253032780075B7
:100360006E6B6E6F776E2073656E736F722074792B
:10037000706500257325642E2531640025303278A0
:100380002530327825303278253032782530327871
:1003900025303278253032782530327800253268A1
:1003A0006878253268687825326868782532686808
:1003B00078253268687825326868782532686878E8
:1003C00025326868782563006420006675736500CF
:1003D000686F73746E616D65007265736574007724
:1003E00064726573657400696F006164632067659A
:1003F00074006D6163003177206C6973740031772C
:100400002067657400317720636F6E7665727400C3
:100410006E65746D61736B00697000677700686565
:100420006C700076657273696F6E00656570726FCF
:100430006D207265696E697400C8035A04CB03C1EC
:1004400004D0031405D9033205DF034205E7036036
:100450001BEA03471CF203F21CF603B91DFE032836
:100460001E0504BD1E1004351F1804F11E1B04795F
:100470001F1E04B31523048B152B04001600000067
:10048000006364696E6F70737578585B000014BE0A
:1004900088E10FB6F89480936000109260000FBE60
:1004A00010926E0010926F001092700011241FBE07
:1004B000CFEFD0E1DEBFCDBF11E0A0E0B1E0E6E0DC
:1004C000F4E502C005900D92AC31B107D9F715E003
:1004D000ACE1B1E001C01D92A437B107E1F703D050
:1004E0000C9480228DCDCF93DF9380EB84B980E490
:1004F0008AB978942FE088E190E00FB6F894A89537
:10050000809360000FBE20936000A89586E88093DA
:100510007A0010927C001FD10E94BD1F0E94C81F4C
:10052000C0E0D0E0A8950E943C208091810182FF2C
:100530000DC0F89428E088E190E00FB6F894A895F3
:10054000809360000FBE20936000FFCF81FFEACF51
:10055000F894FE010995E6CF862798E06CE8869529
:1005600008F486279A95D9F70895EF92FF920F9392
:100570001F93CF93DF93182F062FE12EE7017E0103
:10058000F92EE70180E002C06991E6DFAE01411B70
:100590004017D0F3CDB7DEB7E6E00C94EC29EF922C
:1005A000FF920F931F93CF93DF937C01EB018A019E
:1005B000C40FD51F08C001501040C701800F911F04
:1005C0006A910E94432801151105A9F7CDB7DEB73E
:1005D000E6E00C94EC291F93CF93DF93C0E0D0E0CA
:1005E00010E0CE010E943B28682F812FB5DF182F25
:1005F0002196C231D105A9F7DF91CF911F910895BE
:10060000ABE0B0E0E6E0F3E00C94D0298E010A5FA5
:100610001F4FC80160E870E046E050E00E9497225A
:1006200080E090E0B80146E050E0B9DF80ECE82ED1
:1006300088EAF82EFB82EA8280E09AE59D838C832B
:100640008E010E5F1F4F86E090E0B80144E050E05D
:10065000A6DFFB82EA8280E091E09D838C838EE0BE
:1006600090E0B80144E050E09ADF8FEF9FEF9B836A
:100670008A838FEF90E09D838C838AE090E0B801BD
:1006800044E050E08CDFA7DF898382E190E0BE0187
:100690006F5F7F4F41E050E082DF2B96E6E00C94E5
:1006A000EC29A1E0B0E0E7E5F3E00C94D329CAD748
:1006B00092DF182FCE01019662E170E041E050E038
:1006C0000E942B288981181709F09ADFE3D10E9434
:1006D000C31F2FD30E94B0122196E3E00C94EF29A0
:1006E000E1E8F0E080818C7F80838081846080837A
:1006F000A0E8B0E08C918C7F8C93808188608083AF
:1007000080818F7E808381EE94E090938900809336
:100710008800EFE6F0E080818260808308951F9278
:100720000F920FB60F9211248F939F9381E08093C5
:100730006D0580918201982F9F5F90938201923383
:1007400018F08153809382019F918F910F900FBE7B
:100750000F901F9018952C9A80E58CBD81E08DBD7F
:1007600008958EBD0DB407FEFDCF8EB50895A9E0A6
:10077000B0E0EDEBF3E00C94C9295C01E12C9FEFB4
:10078000F92E012D112D6E010894C11CD11C8AE097
:10079000882E912C8C0E9D1EF7018491833279F561
:1007A0003196D60184918D933196A815B905D1F76C
:1007B0007984C60168E0D9DE781609F5C601B5016D
:1007C00046E050E00E9409230097C9F489E090E0D8
:1007D0000E944220E82FF92F309709F11082D801AA
:1007E000C7010A96A11DB11D81839283A383B4839F
:1007F000168215828F8198859087878310C080E04C
:100800009FEFAFEFBFEFE80EF91E0A1F1B1FE114A9
:10081000F1040105110509F0BFCFE0E0F0E0CF01E0
:100820002996EDE00C94E529EF92FF920F931F9328
:10083000CF93DF93DC011796ED90FC9018971596F7
:100840008D919C911697E81AF90A00E010E0E216E3
:10085000F3060407150710F4A8019701062F172FB8
:1008600060E070E0CB0110C01196ED91FC91129701
:10087000EC0FFD1FE60FF71FE491E801E9938E01ED
:100880006F5F7F4F8F4F9F4F1596CD91DC911697DD
:10089000621773078407950738F3C20FD31F1696A4
:1008A000DC93CE931597B901CA01CDB7DEB7E6E068
:1008B0000C94EC29A2E0B0E0E0E6F4E00C94CC2942
:1008C0006B01E82FF92F9E2F8F2F21912032D9F322
:1008D00000D000D000D0EDB7FEB73196ADB7BEB7AF
:1008E00011969C9381838CE890E093838283CE0160
:1008F0000196958384830E949E23EDB7FEB73696BA
:100900000FB6F894FEBF0FBEEDBF8130910591F593
:10091000E980FA8000E010E047E8A42E40E0B42E21
:10092000D7012D917D0100D000D000D0EDB7FEB7EA
:100930003196C801880F991F8C0D9D1DADB7BEB7AC
:1009400012969C938E931197B382A2822483158270
:100950000E947E230F5F1F4FEDB7FEB736960FB68E
:10096000F894FEBF0FBEEDBF00311105C9F620E2BD
:1009700030E002C02FEF3FEFC9012296EAE00C946D
:10098000E8291F93CF93DF9389E087BFE0E0F0E091
:10099000149187BFE3E0F0E0349187BFE2E0F0E03C
:1009A000249187BFE1E0F0E0E4918DB79EB70E9708
:1009B0000FB6F8949EBF0FBE8DBFADB7BEB71196F0
:1009C000CDB7DEB77A83698313965C934E93129703
:1009D0008FE890E015969C938E93149716961C932F
:1009E000169717961C92179718963C931897199676
:1009F0001C9219971A962C931A971B961C921B9768
:100A00001C96EC931C971D961C920E9450232DB7A8
:100A10003EB7225F3F4F0FB6F8943EBF0FBE2DBFCB
:100A2000DF91CF911F91089500D000D000D0EDB795
:100A3000FEB73196ADB7BEB712967C936E93119701
:100A40005383428381EB90E0958384830E945023FB
:100A50002DB73EB72A5F3F4F0FB6F8943EBF0FBE8B
:100A60002DBF0895FC018081882341F4809181018C
:100A700082608093810120E030E002C02FEF3FEFE1
:100A8000C90108958091810184608093810180E093
:100A900090E00895A4E0B0E0E0E5F5E00C94D22900
:100AA00081E991E060E070E046E050E00E942B2890
:100AB0008E010F5F1F4FC80166E070E044E050E018
:100AC0000E942B2889819A819093720380937103ED
:100AD0008B819C819093740380937303C8016AE0B7
:100AE00070E044E050E00E942B2889819A81909325
:100AF0006E0380936D038B819C8190937003809330
:100B00006F03C8016EE070E044E050E00E942B28C3
:100B100089819A8190936A03809369038B819C8178
:100B200090936C0380936B032496E4E00C94EE297D
:100B30002C988AE316DE80E014DE2C9A08951F9329
:100B4000182F2C988AE70DDE812F0BDE2C9A1F912F
:100B500008952C988FEF05DE8FE39FE10197F1F761
:100B600000C000002C9A08951F93182F8FE163E0B6
:100B700040EA09D0612F63708FE140E804D0109300
:100B80001C011F910895A1E0B0E0E9ECF5E00C94A0
:100B9000D229182F062F282F30E0F901EF71F070BD
:100BA000EB31F1058CF42076307085E03595279592
:100BB0008A95E1F7E0911C01F0E02E173F0721F044
:100BC000822F4983D1DF49812C98812F8F71842B0B
:100BD000C8DD802FC6DD2C9A2196E4E00C94EE2926
:100BE0000F931F93182F062F282F30E0A9014F7164
:100BF00050704B3151057CF42076307095E035957E
:100C000027959A95E1F740911C0150E0241735078C
:100C100011F0822FA9DF2C98812F8F718064A1DDC4
:100C2000802F9FDD2C9A1F910F910895A1E0B0E0D5
:100C3000ECE1F6E00C94D429682F82E09983D0DFB0
:100C400083E09981692FCCDF2196E2E00C94F029B2
:100C5000A1E0B0E0EEE2F6E00C94D429682F80E049
:100C60009983BEDF81E09981692FBADF2196E2E0A6
:100C70000C94F0291F93182F282F30E0A9014F71F1
:100C800050704B3151057CF42076307045E035953D
:100C900027954A95E1F740911C0150E0241735074C
:100CA00011F0822F61DF2C98812F8F715ADD80E047
:100CB00058DD17FF02C080E054DD2C9A1F91089583
:100CC000A1E0B0E0E6E6F6E00C94D329982F162FC9
:100CD00084ED692F798384DF86ED612F81DF87EDD5
:100CE0007981672F7DDF8AEEC5DF80FDFCCF2196FD
:100CF000E3E00C94EF291F93682F84ED71DF82ED00
:100D000061E040E840DF8AEEB5DF80FDFCCF82ED98
:100D100061E040EA38DF88EDADDF182F89EDAADF0A
:100D2000582F40E0212F30E0242B352BC9011F9193
:100D300008958FEF80931F010CDF88E060E050DFA3
:100D400089E060E04DDF8AE06FEF4ADF8BE06FE023
:100D500047DF84E060E044DF85E060E141DF8CE074
:100D600060E03EDF8DE060E03BDF8EE060E038DF9A
:100D70008FE060E035DF109284011092830181ECF6
:100D800060E840EA00DF80EC6DE040E8FCDE82ECE9
:100D900062E340E8F8DE80E060E070E091DF80E050
:100DA000AADF90FF07C082EC61E040E8ECDE84EC53
:100DB00062E106C082EC61E040EAE5DE84EC65E1D8
:100DC0000FDF86EC62E10CDF87EC6CE009DF8AEC78
:100DD00068EF06DF8BEC61E003DF84EE6091910148
:100DE000FFDE85EE60919201FBDE82EE6091930161
:100DF000F7DE83EE60919401F3DE80EE6091950161
:100E0000EFDE81EE60919601EBDE88E363E8E8DED9
:100E100084E162E17CE054DF8BE16BEDE1DE82E1B5
:100E200062E170E04DDF8FE164E040E8ACDE8EE12E
:100E300060E840E8A8DE10921F01089580911F012C
:100E40008823A9F482EC16DF8273823331F080911B
:100E50001D018F5F80931D016CDF80EC0BDF8D30F7
:100E600031F080911E018F5F80931E0162CF089543
:100E7000A4E0B0E0EEE3F7E00C94CE2989E3FADEDB
:100E8000882309F48AC08091830190918401E0DE77
:100E90004FDE082F4DDE382F20E0802F90E0822B90
:100EA000932B90938401809383018E010F5F1F4FDA
:100EB00025E0E22EF12CEC0EFD1E3ADEF8018193C6
:100EC0008F01EE15FF05C9F789819A818C010450C5
:100ED00010401A8309834297F1E0873E9F0710F084
:100EE00028DF5BC0EE24FF2495E7C92E93E0D92EBE
:100EF0001FDEF60181936F010894E11CF11CE016DE
:100F0000F106B0F31093900100938F01809181035B
:100F100090918203982789279827F8E080309F07CF
:100F200069F028E086309207B1F40E942113809185
:100F30008F0190919001009771F00CC00E94F71200
:100F400081E0B1D380918F0190919001009719F0C9
:100F50000E94021467D06091830170918401CB01DB
:100F60000197E0E180309E0730F08CE06FEF38DED3
:100F70008DE06FE00DC061508CE032DE6091830146
:100F80007091840161507040672F770F770B8DE06F
:100F900027DE8EE160E440E8F6DD2496E8E00C947C
:100FA000EA291F9389E366DE882309F439C08CE1BE
:100FB00061DE182F8BE160E840EAE5DD14FF04C034
:100FC00083E199DE81E197DE13FF08C08CE168E0E0
:100FD00040EAD9DD8DE16AE040EAD5DD9FB7F894BB
:100FE00080914003882329F488E08093400380E0C7
:100FF00001C081E09FBF882399F43ADF109240033B
:1010000010FF04C08CE161E040EABDDD11FF04C0C7
:101010008CE162E040EAB7DD8BE160E840E8B3DDF7
:101020001F9108950F931F93CF93DF9304E68FE1F1
:1010300021DE83FD04C0002309F438C002C0015042
:10104000B0F784E060E0CCDD85E060E1C9DD86E0FA
:1010500060918F01C5DD20918F013091900120506A
:10106000304F87E0632FBCDD80E090E1DFDD80E082
:1010700066DD05E713E0C0E0D0E005C0F80181912E
:101080008F015DDD219680918F0190919001C817AD
:10109000D907A0F38FE160E840E875DD8FE160E8F3
:1010A00040EA71DD8FE168E040E86DDDDF91CF91CE
:1010B0001F910F9108955E9A569810928501089598
:1010C0009AB1982B9AB99BB1282F209592239BB95E
:1010D000E0E8F7E03197F1F79BB1982B9BB99AB113
:1010E00092239AB9E8E6F1E03197F1F799B1E8E196
:1010F000F6E03197F1F729B1282398239095822FB4
:10110000892308952BB1982F909592239BB9E0E500
:10111000F1E03197F1F79BB1982B9BB908959AB103
:10112000982B9AB99BB1282F209592239BB9E4E084
:10113000F0E03197F1F79BB1982B9BB99BB1982BBD
:101140009BB99AB192239AB9E8E3F0E03197F1F7AD
:1011500099B1E4E0F1E03197F1F72AB1282B2AB9EF
:10116000982381E009F480E00895662309F0D7CF41
:10117000C9CFEF92FF920F931F93CF93DF93F82E77
:10118000E62E8AB18F298AB9C0E0D0E001E010E0F4
:1011900098010C2E02C0220F331F0A94E2F76E2D25
:1011A00062238F2DE2DF2196C830D10589F7CDB7B4
:1011B000DEB7E6E00C94EC290F931F93CF93DF93F7
:1011C000082FC0E0D0E010E0802FA9DF282F30E00A
:1011D0000C2E02C0220F331F0A94E2F7122B219625
:1011E000C830D10589F7812FDF91CF911F910F91E1
:1011F000089580E465DF882329F080E46CECB9DF92
:1012000081E008958FEF0895A1E0B0E0EAE0F9E011
:101210000C94CE29082FE92E80E452DF882331F187
:1012200080E465E5A6DF1E2D20E091E0E92EF12C9B
:101230001AC0C7010C2C02C0880F991F0A94E2F74C
:10124000F8016081682380E429838FDF0894C11C42
:10125000D11C2981F8E0CF16D10459F72F5F0F5F19
:101260001F4F283029F0CC24DD24E3CF8FEF01C0BD
:1012700081E02196E8E00C94EA29562F577021E08E
:1012800030E001C0220F5A95EAF76695669566959B
:10129000322F3095FC01E60FF11D80813823308319
:1012A000442311F0232B20830895A0E0B0E0EBE568
:1012B000F9E00C94CE29F82E6623A1F08FEF8093ED
:1012C0008601109287011092880110928901109274
:1012D0008A0110928B0110928C0110928D01109254
:1012E0008E0104C08091860187FD60C08F2DE8DEED
:1012F000882309F459C08F2D60EF3BDFC0E0D0E0B8
:10130000EE24EA9401E010E0CC2E8F2D08DFD82ED9
:101310008F2D05DF880F8D29833009F447C088237E
:1013200079F520918601332727FD3095C217D30721
:1013300041F487E891E06C2F41E09FDFDD24D394F6
:1013400024C02C173D073CF487E891E06C2F40E067
:1013500094DFEC2E1AC0C694C694C694EC2DF0E02F
:10136000EB57FE4F9E0127703070C80102C0880FF6
:10137000991F2A95E2F7D280D82239F4EC2E05C0C5
:1013800087E891E06C2F4D2D78DF8AB18F298AB9DB
:101390008F2D6D2DEADE2196C034D10509F0B4CF32
:1013A000E092860181E003C08FEF01C080E0CDB7FD
:1013B000DEB7E8E00C94EA29FC012081203149F0F5
:1013C000223251F081E090E0283241F080E090E05C
:1013D000089581E090E0089581E090E008951F93E2
:1013E000CF93DF93EC01162F009711F402DF05C0B5
:1013F000E3DF8823D1F0CE0107DF87FD19C080E449
:1014000064E4B7DE569A5E9A112389F08FEF9FE06D
:10141000A7E281509040A040E1F700C0000080E4C6
:101420007EDE8823E1F381E003C08EEF01C080E01F
:10143000DF91CF911F910895FF920F931F93CF9348
:10144000DF93EC018B01009711F4D3DE05C0B4DF0C
:101450008823C1F0CE01D8DE87FD17C080E46EEB93
:1014600088DEE80129E0F22E80E4A6DE8993FA9472
:10147000D9F7F801F084C80168E077D8F81621F4AC
:1014800081E003C08DEF01C08EEFCDB7DEB7E5E0A0
:101490000C94ED29FB01DC018C918031B9F467815A
:1014A00070E0208131812E7F3695322F22273795AB
:1014B0002795205430408681AB01481B5109942F59
:1014C00080E00E948F29260F371F0EC0823211F054
:1014D000883241F42081318144E0220F331F4A9544
:1014E000E1F702C02FEF3FEFC9010895FC014381EE
:1014F000460F40932301872F99272281280F20939D
:101500002201A181A093210150815093200130E05C
:101510002817390748F48A2F8F5F80932101882389
:1015200019F45F5F50932001842F90E0707086174C
:10153000970798F4809122018F5F8093220188237E
:1015400061F4809121018F5F80932101882329F428
:10155000809120018F5F8093200108959C0141506C
:101560005040460F571FDB0110C0FC91E0E0119680
:101570008C911197BF01680F711D260F371F261719
:10158000370710F42F5F3F4F1296A417B50768F383
:10159000A417B50749F49C9180E0280F391F28173C
:1015A000390710F42F5F3F4FC901089580E090E0A4
:1015B00063E873E044E150E0D1DF009719F0382F81
:1015C000292F02C02FEF3FEFC9010895BC01809180
:1015D000A6019091A701089689DFE091A601F091FC
:1015E000A7018091200180878091210181878091CE
:1015F000220182878091230183870895CF93DF930F
:1016000090918603C92FD0E064973091850320E044
:10161000C20FD31F9E01280F311DC9016FE873E06F
:1016200048E050E09BDF67E973E0AE0197DF009789
:1016300019F0382F292F02C02FEF3FEFC901DF919A
:10164000CF910895E1E4F3E011821082349683E0B3
:10165000E936F807C9F71092C30110924B021092B5
:10166000D30280E094E090939F0180939E010895BF
:10167000A1E4B3E0E0E0F0E02D913C911197211559
:10168000310559F4EE0FFF1FEE0FFF1FEF5BFC4F0C
:101690009183808373836283089531961496EA3030
:1016A000F10551F70895A0E0B0E0E9E5FBE00C9406
:1016B000CC292BEA33E03093A5012093A401309389
:1016C0009C0120939B01C091A601D091A70183307A
:1016D00079F48B8D8F70833009F0DDC58889998905
:1016E000009709F0D8C588E080939D01FE0182C46F
:1016F000823009F0A4C08091A3018F5F8093A30181
:10170000882399F48091A2018F5F8093A20188239E
:1017100061F48091A1018F5F8093A101882329F456
:101720008091A0018F5F8093A00110929001109290
:101730008F0110926C0510926B058B8D873011F024
:10174000853041F48C8D8F5F8C8F883709F0A3C56D
:101750001B8EA1C5882309F49EC5288939892115C6
:10176000310509F464C09C8D292F21502C8F9923B9
:1017700009F091C59D8D983031F0282F21502230ED
:10178000A0F4953091F41B8E80E880939D01E09148
:10179000A601F091A701EA57FF4F0190F081E02DDB
:1017A000309709F438C4099536C4953048F423E0DD
:1017B00030E0092E02C0220F331F0A94E2F701C065
:1017C00020E32C8F9F5F9D8F90E08F70907083300F
:1017D0009105E1F0843091054CF48130910509F4D4
:1017E00033C28230910509F056C50DC0863091058F
:1017F00009F4AEC38830910509F4AAC38430910579
:1018000009F049C5A5C31092A40321C284E08093C6
:101810009D01E091A601F091A701EA57FF4F0190C9
:10182000F081E02D309709F428C4099526C48F7003
:10183000833009F030C588E080939D01D7C37AECEE
:10184000E72E7FEFF72EE20EF31E8701025F1F4F98
:1018500080918303853409F01EC59091850380E053
:10186000209186036C01C20ED11C80918F01909152
:1018700090018C159D0508F40EC5D0929001C09280
:101880008F018091890390E08F739070009709F029
:1018900002C580918A03882309F0FDC4C091930397
:1018A000D09194038091710390917203C817D90766
:1018B00009F0F1C4A0909503B09096038091730352
:1018C00090917403A816B90609F0E5C46FDE2FEFF6
:1018D0008F3F920709F0DFC480918C03863071F14D
:1018E000813009F0D8C4E3E8F3E0809197038830B1
:1018F00009F0D1C4148A8091990390919A036FEFF3
:10190000873F960710F0099601C00896978B868B43
:1019100080918F039091900390939403809393030D
:1019200080919103909192039093960380939503F5
:10193000F701D38FC28FB58EA48EB1C486E05EDE70
:10194000FFEF8F3F9F0709F0A6C4C8EAD1E04B8D97
:10195000442329F12091990330919A038C819D8130
:1019600028173907E1F420919703309198038E816D
:101970009F812817390799F420918F0330919003A4
:10198000888199812817390751F42091910330916A
:1019900092038A819B812817390709F46FC1C857C0
:1019A000DF4F23E0C034D20791F68091A4038F73F8
:1019B000823099F42091990330919A03E1E4F3E0A5
:1019C000DF018D919C9111972817390709F466C0A2
:1019D000149663E0A936B607A1F78091A40382FDAF
:1019E0005AC484E1F80181A388E290E090939001C9
:1019F00080938F0180E580A380919E039091A20344
:101A0000938F30919D039091A103928F368F2091F7
:101A10009C039091A003918F258F90919B034091FF
:101A20009F03408F948F8F5F878F882361F4832F6C
:101A30008F5F868F882339F4822F8F5F858F88236D
:101A400011F49F5F948F8091970390919803209158
:101A5000990330919A03F801358B248B978B868BF1
:101A600080918F03909190039093940380939303BC
:101A700080919103909192039093960380939503A4
:101A80008091710390917203F701938F828F8091FF
:101A9000730390917403958F848FD0C3A3ECB1E04E
:101AA00080E090E0C0E0D0E068E870E0482F5C9112
:101AB000552369F450E088E890E0489FE001499F91
:101AC000D00D589FD00D1124C855DE4F19C0573086
:101AD00089F4209731F011965C9111974C8D451740
:101AE00048F4869FE001879FD00D969FD00D11246A
:101AF000C855DE4F0196A857BF4F83309105B1F608
:101B0000209709F4C8C3D093A701C093A60180E031
:101B100090E0408151812417350781F4DE01AA57F6
:101B2000BF4FFC01EE0FFF1FEE0FFF1FEF5BFC4FDF
:101B30008281938111969C938E9305C00196349671
:101B40008A30910531F783E08C8F8A8F188E84E07C
:101B5000898F1D8E1B8A1A8A8091990390919A030E
:101B60009D838C8380919703909198039F838E83AC
:101B700080918F0390919003998388838091910342
:101B8000909192039B838A8381E08B8F8091A00147
:101B90008C878091A1018D878091A2018E87809191
:101BA000A3018F8781E090E0998B888B80919E03C1
:101BB0008B8780919D038A8780919C038987809180
:101BC0009B03888781E090E001DD8091A303282FAB
:101BD00030E0207F307021353105B4F182958F706F
:101BE00090E00597880F991F880F991F40E027C044
:101BF000F901EB58FC4F56A9552331F1513011F43E
:101C00004F5F1DC05230A1F457A9543089F430AD54
:101C100020E081AD90E0822B932BF1E08F3B9F077A
:101C200010F08EEB91E09D8B8C8B9F8B8E8B0CC07C
:101C30002B583C4FF90127A9222331F0420F242FC2
:101C400030E028173907A4F280E18093A403E3E889
:101C5000F3E08091A403826081A382E080A784E006
:101C600081A781E082A78EEB83A78CE290E090931E
:101C7000900180938F0180E680A397C2D093A70143
:101C8000C093A60110929D018091A40390E082FF71
:101C900009C01B8E80E280939D01CA57DF4FE88107
:101CA000F98123C22091A30322952F70220F220FC6
:101CB000B601621B71099B012451304030939001A1
:101CC00020938F014F70423031F4AC014F7350704C
:101CD0004231510509F12115310531F49C01237080
:101CE000307021153105C1F030919B0328853217E2
:101CF00009F04FC230919C032985321709F049C27F
:101D000030919D032A85321709F043C230919E031A
:101D10002B85321709F03DC284FF49C06889798953
:101D20006115710509F443C0CE010C96DFDB3091DB
:101D30009F03809120013817D1F52091A003809155
:101D400021012817A1F59091A103809122019817F4
:101D500071F58091A20340912301841741F53C87DE
:101D60002D879E878F878D8D8823D1F4288D8A8D2E
:101D70009C8D891B922F969596959695891B280F79
:101D8000288F87FD8195998D392F36953695931B30
:101D9000980F998F822F869586958695890F8A8FC1
:101DA00081E080939D018A8D8C8F198A188A2B8DF2
:101DB00030E0F901EF70F0703197E830F10508F08C
:101DC0006AC2E85CFF4F0C94FB2980919D0180FF63
:101DD00062C283E08B8F80E480939D01198A188A08
:101DE00080918F0190919001009709F4FBC022E44B
:101DF00020939D01EBDBF6C080919D0180FF60C0C8
:101E00008091A4038F73823109F05AC08091A3039B
:101E1000282F30E0207F307021353105B4F18295D4
:101E20008F7090E00597880F991F880F991F40E0E9
:101E300027C0F901EB58FC4F56A9552331F1513019
:101E400011F44F5F1DC05230A1F457A9543089F4EA
:101E500030AD20E081AD90E0822B932B71E08F3B81
:101E6000970710F08EEB91E09D8B8C8B9F8B8E8B68
:101E70000CC02B583C4FF90127A9222331F0420F07
:101E8000242F30E028173907A4F283E08B8F80914C
:101E90009B03888780919C03898780919D038A8713
:101EA00080919E038B8781E090E090DB82E48093B9
:101EB0009D01198A188A1092900110928F0192C088
:101EC00080E280939D01E091A601F091A701EA577D
:101ED000FF4F0190F081E02D309709F00995E091D6
:101EE000A601F091A701138E78CD8091A40380FF05
:101EF00033C024FD31C088899989009709F0CBC18E
:101F000080918F0190919001019660DB20919D015D
:101F1000822F806180939D0180918F01909190012B
:101F2000009719F0226120939D01E091A601F091A4
:101F3000A701EA57FF4F0190F081E02D309709F09B
:101F4000099581E090E0998B888B88E08B8F1D8EBE
:101F500081E18093A40320C185FF1CC05091A90397
:101F600040E08091AA0390E0842B952B4091A4013E
:101F70005091A501480F591F5093A5014093A4010A
:101F800040918F0150919001481B590B5093900143
:101F900040938F0180918F0190919001009741F0C3
:101FA00024FD06C020919D01226020939D010EDB3F
:101FB0003091A50320E08091A603280F311D8E8962
:101FC0009F898217930720F02115310509F0C90177
:101FD0009D8B8C8B80919D0190E083709070009719
:101FE00009F459C110926C0510926B05E091A6019D
:101FF000F091A701EA57FF4F0190F081E02D309753
:1020000009F0099580919D0185FF07C010926C052C
:1020100010926B051B8E84E19CCF84FF0AC0109246
:102020006C0510926B0581E090E0998B888B84E0C1
:102030008DCF20916B0530916C0521153105E1F0B4
:1020400080FF02C0198A188A88899989009781F4CB
:102050008C899D898217930720F490936C05809357
:102060006B0580916B0590916C05998B888B04C0F2
:1020700090936C0580936B051D8E80919B019091D0
:102080009C019093A5018093A40180916B05909190
:102090006C05009759F088899989009739F08896DE
:1020A0009093900180938F0188E10BC080919D01F6
:1020B00081FFF1C088E290E09093900180938F01BE
:1020C00080E18093A4036EC080919D0180FFE3C0F6
:1020D0001B8E80E180939D01E091A601F091A70104
:1020E000EA57FF4F0190F081E02D309709F4D3C0FB
:1020F0000995D1C080918F0190919001009709F0CE
:1021000065DA9091A40380919D0190FF0BC080FF40
:1021100006C087E08B8F1C8E198A188A18C086E04B
:102120008B8F15C080FF26C085E08B8F198A188A97
:10213000B2C080918F0190919001009709F046DA2A
:102140008091A40380FF16C087E08B8F1C8E81E0F6
:1021500090E03CDA80E180939D01E091A601F0914E
:10216000A701EA57FF4F0190F081E02D309789F0E9
:1021700009950FC080918F0190919001009749F4CB
:102180008AC080919D0180FF86C087E08B8F1C8E66
:1021900082C080E1F80181A388E290E090939001F1
:1021A00080938F0180E58093A303E3E8F3E08885C3
:1021B000848F8985858F8A85868F8B85878F8C858F
:1021C000808F8D85818F8E85828F8F85838F86E02E
:1021D00081878C819D81958B848B8E819F81978B4C
:1021E000868B8091710390917203909390038093FA
:1021F0008F03809173039091740390939203809363
:1022000091038881998190939403809393038A81A9
:102210009B8190939603809395038B8D84FF03C0DD
:1022200013A212A20BC08A899B89009719F092A36E
:102230008A8903C081E082A38EEB83A3C3E8D3E045
:1022400080E4888780918F01909190019A838B839D
:102250001FA21EA21DA21CA286E0D0D98095909537
:102260009DA38CA385E48093830319821F821E8221
:1022700080912401909125010196909325018093EE
:1022800024019C838D831B861A8690D98095909516
:102290009B878A8704C01092900110928F01109240
:1022A0009D01CDB7DEB7EAE00C94E829AC019B01B3
:1022B0001616170684F460936B0530936C056091D5
:1022C0009B0170919C018617970729F0CB01BA01F9
:1022D000A9010C94EE220895CF93DF93FC0100979F
:1022E000E9F400D000D000D0EDB7FEB73196ADB71D
:1022F000BEB712967C936E9311975383428380E00E
:1023000091E0958384830E942223CDB7DEB7269681
:102310000FB6F894DEBF0FBECDBF40C02DB73EB79D
:102320002E5030400FB6F8943EBF0FBE2DBFADB754
:10233000BEB71196CDB7DEB77A83698313965C93E7
:102340004E93129789EC90E015969C938E93149778
:10235000808116968C93169717961C9217978181F9
:1023600018968C93189719961C92199782811A9631
:102370008C931A971B961C921B9783811C968C93A7
:102380001C971D961C920E9450232DB73EB7225FCA
:102390003F4F0FB6F8943EBF0FBE2DBFDF91CF91D8
:1023A00008956115710589F12DB73EB72C50304065
:1023B0000FB6F8943EBF0FBE2DBFEDB7FEB73196F6
:1023C000ADB7BEB712969C938E93119785EB90E0B4
:1023D0009383828375836483CB010196978386837D
:1023E000CB010296918780876D5F7F4F73876287ED
:1023F0000E949E232DB73EB7245F3F4F0FB6F8943F
:102400003EBF0FBE2DBF843011F08FEF089580E0E6
:102410000895FF920F931F93CF93DF93FC01A6E2E1
:10242000B1E0ED0180E090E048815981411551050E
:1024300089F12A813B812115310561F100811181EA
:102440000417150739F5428153814217530711F5D7
:102450002BE030E0829FF001839FF00D929FF00D02
:102460001124E65DFE4F262F372FD90126E00D906F
:1024700001922150E1F72BE030E0829FF001839F31
:10248000F00D929FF00D1124EA5DFE4F80917E01C8
:10249000828761C001962B968830910529F680E0ED
:1024A00090E02BE030E0829FE001839FD00D929F6F
:1024B000D00D1124CA5DDE4F4D915C9111974115ED
:1024C000510539F412964D915C91139741155105C0
:1024D00071F1482F4F5F01961B968830910519F7CF
:1024E000483029F510917E01812F90E0A0E3B1E002
:1024F00020E000E030E0FC90EC01CF19D109402F42
:1025000050E04C175D071CF4012F0F19232F3F5F7C
:102510001B96383081F730E08BE090E0289FE00197
:10252000299FD00D389FD00D1124CA5DDE4F8081C8
:102530009181A281B381FE0181939193A193B19383
:10254000862F972FDC0186E00D9001928150E1F7F4
:1025500080917E018A87CDB7DEB7E5E00C94ED2946
:1025600080E090E02BE030E0829FF001839FF00D4F
:10257000929FF00D1124EA5DFE4F108211821282AB
:10258000138201968830910579F7089580917E0134
:102590008F5F80937E01E6E2F1E080E090E04BE027
:1025A00050E02281338160817181262B372B2115E8
:1025B0003105B9F020917E0130E06285261B31099A
:1025C0002837310574F0849FD001859FB00D949F0A
:1025D000B00D1124AA5DBE4F1D921D921D921C923A
:1025E000139701963B9688309105D9F6089580910E
:1025F0008F03909190032091710330917203822791
:10260000932720916D0330916E03822393230097CB
:10261000B9F48091910390919203209173033091CA
:1026200074038227932720916F03309170038223D4
:102630009323009729F48FE893E06BE773E0E9CEEA
:10264000089580918F01909190018A32910528F42C
:102650001092900110928F010895109290011092A3
:102660008F018091890390918A0321E08030920745
:1026700031F022E08030920709F090C074C02091C0
:102680009B0330919C0380917103909172032817F2
:10269000390709F083C020919D0330919E038091FA
:1026A0007303909174032817390709F077C081E903
:1026B00093E06BE873E0ADDE80E092E090938A03F4
:1026C00080938903E5E9F3E0DF011A9786E00D9036
:1026D00001928150E1F7ABE8B3E0E1E9F1E086E097
:1026E00001900D928150E1F7ABE7B3E0E1E9F1E051
:1026F00086E001900D928150E1F7E5E7F3E0DF011C
:10270000909686E00D9001928150E1F780919B03B5
:102710009091910390939B038093910380919C03EC
:102720009091920390939C038093920380919D03D8
:102730009091930390939D038093930380919E03C4
:102740009091940390939E038093940388E096E085
:1027500090938203809381038AE290E090939001AA
:1027600080938F01089520919B0330919C03809169
:102770007103909172032817390781F420919D030A
:1027800030919E0380917303909174032817390749
:1027900029F481E993E06BE873E03BCE08950F9351
:1027A0001F93CF93DF93DC018D919C911197E6E20B
:1027B000F1E040E050E00BE010E0409F9001419FCD
:1027C000300D509F300D11242A5D3E4F6081718184
:1027D0008617970749F41296CD91DC911397628181
:1027E0007381C617D70741F04F5F5F4F3B96483064
:1027F000510519F720E030E0C901DF91CF911F9119
:102800000F910895A4E0B0E0E8E0F4E10C94D4293D
:1028100080919303805EE5E7F3E0803188F481E006
:102820008093750311828EE58283809194038F7764
:102830008383809195038483809196038583DAC096
:10284000609171037091720340916D0350916E031A
:102850009A0120953095262B372B809193039091E8
:1028600094038217930799F480916F0390917003FA
:10287000809590952091730330917403822B932B54
:1028800020919503309196032817390781F0209104
:102890009303309194038FEF2F3F380791F4809189
:1028A000950390919603EFEF8F3F9E0751F4A5E7B4
:1028B000B3E0E5E1F1E086E001900D928150E1F7AF
:1028C00099C0C9018627972784239523009791F4FF
:1028D00040919503509196038091730390917403F6
:1028E0008427952760916F03709170038623972347
:1028F000009769F08091690390916A039A838983B4
:1029000080916B0390916C039C838B8304C03A830A
:1029100029835C834B83CE01019641DF009709F048
:1029200060C085E793E06FEF70E046E050E00E9402
:10293000F722A5E9B3E086E0FD0111928A95E9F757
:102940005A97E1E9F1E086E001900D928150E1F7BC
:10295000ABE8B3E0E1E9F1E086E001900D9281504F
:10296000E1F789819A8190939C0380939B038B81EB
:102970009C8190939E0380939D038091710390911D
:1029800072039093920380939103809173039091CB
:102990007403909394038093930380E091E0909369
:1029A0008A0380938903909384038093830388E050
:1029B00090E0909386038093850386E0809387035D
:1029C00084E08093880388E096E09093820380936C
:1029D00081038AE290E09093900180938F0181E0DF
:1029E00022C0A5E7B3E0FC01349686E001900D9289
:1029F0008150E1F7ABE7B3E0E1E9F1E086E0019077
:102A00000D928150E1F788E090E0909382038093EB
:102A1000810380918F01909190010E969093900187
:102A200080938F0180E02496E2E00C94F0296F926D
:102A30007F928F929F92BF92CF92DF92EF92FF92FE
:102A40000F931F93CF93DF936C01EB013A01FC01CD
:102A500001900020E9F73197E81BF90BE230F1050E
:102A600008F448C0BB240B2D10E0000F111F000F0D
:102A7000111FF801E75CFB4F859194917C01009751
:102A8000E9F00E94B2224C01C601B701A4010E94E4
:102A90008A22009749F4055C1B4FF80185919491B7
:102AA000FC01009719F40AC0B394DDCFC601880D6C
:102AB000991DBE01A30109959C0102C02FEF3FEFB4
:102AC0002097D1F08FEF2F3F380751F4CE0168EDFA
:102AD00070E04BE050E00E9497222BE030E00CC009
:102AE0002115310549F48FE488838BE4898322E042
:102AF00030E002C020E030E0C901DF91CF911F91AA
:102B00000F91FF90EF90DF90CF90BF909F908F90AC
:102B10007F906F9008952DB73EB7285030400FB684
:102B2000F8943EBF0FBE2DBFEDB7FEB73196ADB7DF
:102B3000BEB712967C936E9311975383428385EDB3
:102B400090E09583848385E091E0978386830E945B
:102B500050232DB73EB7285F3F4F0FB6F8943EBFC6
:102B60000FBE2DBF0895A2E0B0E0E9EBF5E10C94B3
:102B7000CC295C016B017A01DC018C91873121F059
:102B800087E18C9311961C92F5018181E82FF0E08A
:102B9000EE0FFF1FEE0FFF1FE75CFB4F8F5FD501AE
:102BA00011968C9325913491B901C90129837A83B7
:102BB0000E94B222082F192F69817A81E016F1064E
:102BC00008F48701C601A8010E949722D501119639
:102BD000EC911197F0E0EE0FFF1FEE0FFF1FE75C87
:102BE000FB4F85919491009731F086EF9FEFFC01A8
:102BF000E01BF10B8F01C8012296EAE00C94E82952
:102C00000E94000380E090E008958AE09DE860EB78
:102C100076E10C94380B0F931F93CF93DF93C09101
:102C2000A601D091A701FE01E05BFF4F408102E3C6
:102C300010E0041B110901151105D9F080918F01D5
:102C4000909190010817190708F08C019E01225EEF
:102C50003F4F240F311D6091A4017091A501C9015E
:102C6000A8010E94EE22FE01E05BFF4F8081800FF1
:102C700080838E01025E1F4FFE01E05BFF4F4081AB
:102C8000C8016AE070E050E00E94E122FC01009778
:102C900091F440918F01509190018091A401909105
:102CA000A5016AE070E00E94E122009709F453C098
:102CB000FE01E15BFF4F1082FE0180E090E0268D77
:102CC0002D3009F4168E0196319682339105B9F7AD
:102CD0008E8D813231F4FE01EB57FF4F81E080830E
:102CE00001C080E090E04E96BE016F5A7F4F8C0F7E
:102CF0009D1F41E350E09BDE2FEF873F92075CF47E
:102D0000FE01EC57FF4F21E0208326EF3FEFA901A2
:102D1000481B590BCA01181619067CF4FE01E80F6E
:102D2000F91FEF5AFF4F2081233219F02AE0208348
:102D30000196FE01ED57FF4F8083FE01EC57FF4FD8
:102D40008081882341F482E3D8011D928A95E9F7B6
:102D5000C05BDF4F1882DF91CF911F910F910895D3
:102D6000CF93DF93C091A601D091A70180919D01DF
:102D700086FF18C0FE01E05BFF4F1082FE01ED5799
:102D8000FF4F1082FE01EC57FF4F1082FE01EB5700
:102D9000FF4F1082CE014E96FC0182E3DF011D92AF
:102DA0008A95E9F780919D0180FF42C0FE01ED57B1
:102DB000FF4F1082FE01EC57FF4F80818823C1F145
:102DC0008E8D813231F4FE01EB57FF4F81E080831D
:102DD00001C080E090E04E96BE016F5A7F4F8C0F8D
:102DE0009D1F41E350E023DEFE01EC57FF4FBFEF94
:102DF000873F9B074CF421E0208326EF3FEFA9019A
:102E0000481B590BCA0105C01082FE01E05BFF4F51
:102E100010821816190664F4FE01E80FF91FEF5A24
:102E2000FF4F2AE02083FE01ED57FF4F019680837C
:102E300080919D0181FF01C0EEDE80919D0190E0B7
:102E400082FD0AC09C01237030702115310521F4E8
:102E5000887490700097A1F0FE01ED57FF4F6081DC
:102E6000662331F0CE018F5A9F4F70E01FDA08C001
:102E7000CB57DF4F8881882319F080E180939D0133
:102E8000DF91CF9108950F931F93CF93DF9380919C
:102E90009D0180FF04C080E180939D0161C0E091AD
:102EA000A401F091A50110828091A4019091A50147
:102EB00066EF71E00E94A0228091A4019091A5018B
:102EC00066ED72E00E94A0220091A4011091A5017C
:102ED000E80109900020E9F72197C01BD10B82E699
:102EE00092E00E94B22200D000D000D0EDB7FEB731
:102EF0003196C00FD11FADB7BEB71296DC93CE93FB
:102F0000119724EE30E033832283958384830E94DB
:102F10007E238DB79EB706960FB6F8949EBF0FBE60
:102F20008DBF8091A4019091A50167EE72E00E948F
:102F3000A0228091A4019091A50162E672E00E9416
:102F4000A0228091A4019091A501FC01DF010D90C8
:102F50000020E9F7BD01615070406E1B7F0BA6D9C0
:102F6000DF91CF911F910F9108950F931F93CF93EE
:102F7000DF9380919D0180FF04C080E180939D01DB
:102F800061C0E091A401F091A50110828091A4019B
:102F90009091A5016FE672E00E94A0228091A401A9
:102FA0009091A50166ED72E00E94A0220091A4011B
:102FB0001091A501E80109900020E9F72197C01BB5
:102FC000D10B86EC92E00E94B22200D000D000D05B
:102FD000EDB7FEB73196C00FD11FADB7BEB7129691
:102FE000DC93CE93119728EE30E0338322839583D0
:102FF00084830E947E238DB79EB706960FB6F89401
:103000009EBF0FBE8DBF8091A4019091A50167EE78
:1030100072E00E94A0228091A4019091A50166EC2B
:1030200072E00E94A0228091A4019091A501FC0170
:10303000DF010D900020E9F7BD01615070406E1B6B
:103040007F0B34D9DF91CF911F910F910895CF93CA
:10305000DF93CFE4D8E180E090E5BE010E94380B19
:103060008FE190E4BE010E94380BDF91CF9108956B
:10307000E091A601F091A701878D90A129E1813807
:10308000920761F481A192A1009741F00E94DC2097
:10309000E091A601F091A70112A211A20895EF926A
:1030A000FF920F931F93CF93DF9380919D0185FD36
:1030B00002C087FF01C0DCDF80919D0184FF01C059
:1030C000D7DF90919D0196FF09C0E091A601F09194
:1030D000A70110A2178E868D887F868F91FFA8C0CA
:1030E000C091A601D091A7018F8D98A1009719F0EA
:1030F0008E8D81FF9DC080918F01909190018A30CB
:103100009105B8F0E090A401F090A501C70163E03B
:1031100073E045E050E00E94BB22009751F4870124
:103120000B5F1F4FC80160E270E00E94FE22009713
:1031300029F483E497E198A38F8F7AC0DC011C9275
:10314000F7018581882329F4C8016CEF72E00E94A1
:10315000AB2286EF92E00E94B222C82FD0E0C801D5
:1031600060EF72E0AE010E94D322009729F4C801FB
:103170008C0F9D1F2BD25CC0C8016FE270E00E94D3
:103180001723E091A601F091A701009729F0DC0137
:1031900011968C91119703C0D70115968C9183A33A
:1031A000C091A601D091A701C8010E94B7039AA3BC
:1031B00089A3E091A601F091A70181A192A10097B6
:1031C00039F5E80109900020E9F72197C01BD10BE0
:1031D000C00FD11FFE01319780818F3211F08FE235
:1031E0008993CE0169EE72E00E94AB22E090A601C5
:1031F000F090A701C8010E94B703F70192A381A331
:10320000E091A601F091A70181A192A1009719F088
:1032100081E899E10BC0C017D10709F02197188206
:10322000E091A601F091A70185EB97E190A3878F2C
:1032300080919D0190E082FD0AC09C012370307056
:103240002115310521F488749070009779F0A091D0
:10325000A601B091A7015F96ED91FC9190973097F0
:1032600029F05E968C915E9781FF0995CDB7DEB708
:10327000E6E00C94EC29E091A601F091A701A1A150
:10328000B2A184A195A116969C938E9315976091F7
:10329000A4017091A5012489358940E050E081A105
:1032A00092A10E9414049B01AC0161157105810576
:1032B000910521F480E280939D01DACEE091A60190
:1032C000F091A70184899589A0E0B0E0281739071B
:1032D0004A075B0718F4868D8460868F84A195A1C8
:1032E000A6A1B7A1820F931FA41FB51F80A791A706
:1032F000A2A7B3A78091A4019091A501B9010C9454
:103300005611A2E0B0E0E7E8F9E10C94D0298091F1
:103310009D0180FF16C0E091A601F091A701868D66
:1033200080FF09C080A591A5A2A5B3A584A395A3FC
:10333000A6A3B7A306C08160868F14A215A216A209
:1033400017A2E091A601F091A701868D80FDABC088
:10335000E091A401F091A50110828091A4019091C7
:10336000A5016CEE70E00E94A022E091A601F09110
:10337000A70101A0F2A1E02DE780F08400E010E0B9
:10338000E114F10401051105E1F18091A40190918E
:10339000A50166ED72E00E94A0228091A4019091A7
:1033A000A501FC0101900020E9F73197E81BF90B1A
:1033B0002DB73EB7285030400FB6F8943EBF0FBE31
:1033C0002DBF2F5F3F4FE80FF91FADB7BEB7129665
:1033D000FC93EE93119789E093E0F9019383828344
:1033E000D9011496ED92FD920D931C9317970E94AC
:1033F0007E23EDB7FEB738960FB6F894FEBF0FBE2A
:10340000EDBFE091A601F091A701A1A1B2A116968E
:103410001C921E92159781A192A1BE016F5F7F4FF2
:1034200022E030E040E050E00E941404E091A60168
:10343000F091A70101A0F2A1E02D168215828091E2
:10344000A4019091A5016AE472E00E94A022E0919B
:10345000A601F091A70123A1283539F48091A40198
:103460009091A50160E671E00BC08091A40190915C
:10347000A501233519F46FE071E002C067E371E044
:103480000E94A0228091A4019091A501FC01DF017E
:103490000D900020E9F7BD01615070406E1B7F0B5D
:1034A0000E9456110BC082FF08C080919D0182FDD1
:1034B00004C080E180939D0101C0DDDE2296E6E03C
:1034C0000C94EC2930919D0130FF07C0E091A601DA
:1034D000F091A701868D8160868F8091A6019091E1
:1034E000A701DC015E962C915E9720FD24C0E0913F
:1034F000A401F091A50110828091A4019091A501F1
:103500006CEE70E00E94A0228091A4019091A50130
:1035100065E971E00E94A0228091A4019091A5012B
:10352000FC01DF010D900020E9F7BD016150704002
:103530006E1B7F0B49C032FD38C022FF04C080E102
:1035400080939D0132C0BC016D5A7F4F819640E34C
:1035500050E06DDABFEF873F9B073CF426EF3FEF6B
:10356000F901E81BF90BCF0111C09C01275F3F4F08
:103570002930310520F480E180939D010895E09188
:10358000A601F091A701268D2460268F2091A60127
:103590003091A701280F391FF901ED5AFF4F8AE03A
:1035A00080832C5A3F4FD9011C928091A6019091A3
:1035B000A7018D5A9F4FFC0101900020E9F7BF0140
:1035C00061507040681B790B0C945611A0E0B0E07C
:1035D000ECEEFAE10C94CF29EC010091A6011091D8
:1035E000A7010F5D1F4F92E3F92E80E2E82E1BC06A
:1035F000853229F08B3289F4F801E08210C0DB803B
:103600001B82CE01019660E070E040E150E06DD693
:10361000F8016083DB82229602C0F8018083FA946D
:103620000F5F1F4F21968881882319F0FF2001F733
:103630000CC0FF2051F0F8011082E091A601F0913A
:10364000A70182E69AE190A3878FCDB7DEB7E7E0C6
:103650000C94EB29CF93DF93DB01FC012081222323
:1036600049F13E2F2F2F81918032D9F3882311F118
:103670001C92C901E92FF82F0DC08C918295807F93
:103680008C9331962881922F90539A3008F097505E
:10369000892B8C939F01EF018081982F90539A3052
:1036A00060F390E08F7D907081549040863091055A
:1036B00020F302C020E030E0C901DF91CF910895EE
:1036C000A5E0B0E0E6E6FBE10C94D0297B012FEF0A
:1036D0002A83E82FF92F5E2F3F2F81918032D9F373
:1036E000873621F0833709F0CBC002C021E001C04A
:1036F00020E0E52FF32F5E2F3F2F81918032D9F705
:10370000E52FF32FDF0181918032E1F3FD01319646
:1037100011968C91119790E08F7D90708434910573
:10372000C1F0853491052CF48134910509F0A8C0CD
:103730000CC08934910529F08F34910509F0A0C09F
:1037400002C050E007C052E005C0FD01349653E0CE
:1037500001C051E03196CF0161916032E1F370E038
:103760006F7D70706E347105B4F7BE016F5F7F4F6F
:103770002C834D835B836EDF2C814D815B810097B1
:1037800009F47EC069816130A1F0613030F06230AF
:1037900041F0633009F074C008C03FEF00E210E070
:1037A0000BC03FEF06E210E007C03FEB09E210E07C
:1037B00003C03FE003E210E05330E1F48DB79EB761
:1037C0000A970FB6F8949EBF0FBE8DBFEDB7FEB738
:1037D0003196ADB7BEB71296FC92EE921197428326
:1037E00013828DE093E095838483668317823095FE
:1037F00030871EC0050F111D222339F1D8012C91ED
:10380000EDB7FEB73A970FB6F894FEBF0FBEEDBF07
:103810003196ADB7BEB71296FC92EE9211974283E5
:1038200013828DE093E095838483668317822087DB
:10383000118636D7282F30E0EDB7FEB73A960FB68F
:10384000F894FEBF0FBEEDBF1DC0BE016F5F7F4F7E
:103850003B8300DF0097A1F0BE016E5F7F4FFADE71
:10386000D8019C912A813B81832F822380958923D3
:10387000998192239323892B8C9320E030E002C01E
:103880002FEF3FEFC9012596E6E00C94EC29FC01EF
:10389000DB0180818823A1F02181222389F0822FFE
:1038A00090E0883391050CF059C090917C00822FF4
:1038B0008053907F892B80937C0020E038E008C003
:1038C00020E030E080917C00807F832B80937C001F
:1038D00080917A00806480937A0080917A0086FDDE
:1038E000FCCF8091780090917900492F5527BA013B
:1038F0006F7070704F706A30710510F4405D01C0D8
:10390000495CFD014193AC0164E0569547956A9589
:10391000E1F7BA016F7070704F706A30710510F482
:10392000405D01C0495C4083FD013296AC014F709F
:1039300050708F704A30510510F4805D01C0895C71
:10394000808380E213968C93139714961C922C5FBD
:103950003F5F383008F4B6CF30E002C02FEF3FEFC2
:10396000C901089561157105C9F12DB73EB7205100
:1039700030400FB6F8943EBF0FBE2DBFEDB7FEB777
:103980003196ADB7BEB712969C938E9311978DE189
:1039900093E09383828375836483CB01019697833D
:1039A0008683CB01029691878087CB01039693870C
:1039B0008287CB010496958784876B5F7F4F7787DB
:1039C0006687BCD62DB73EB7205F3F4F0FB6F89441
:1039D0003EBF0FBE2DBF8630910511F08FEF0895C9
:1039E00080E00895A7E0B0E0E8EFFCE10C94CE2978
:1039F0007B016A01E82FF92FCF0121912032E1F3F9
:103A00008E010E5F1F4F2223D1F0B801ABDF87FD7F
:103A100051C080E090E0B80146E050E00E94CF0243
:103A20000E94EB02898382E190E0BE016F5F7F4FCD
:103A300041E050E00E94CF0220E030E03DC0C801EC
:103A400060E070E046E050E00E942B288DB79EB702
:103A500042970FB6F8949EBF0FBE8DBFEDB7FEB76D
:103A60003196ADB7BEB71296FC92EE921197D38203
:103A7000C28281E493E0958384838A81868317825E
:103A80008B81808711868C81828713868D818487C4
:103A900015868E81868717868F81808B118A00D646
:103AA0009C018DB79EB742960FB6F8949EBF0FBE8D
:103AB0008DBF02C02FEF3FEFC9012796E8E00C94BD
:103AC000EA29A1E0B0E0E7E6FDE10C94D4292DB7A6
:103AD0003EB7265130400FB6F8943EBF0FBE2DBF03
:103AE000EDB7FEB73196ADB7BEB712969C938E93E5
:103AF00011978DE993E09383828375836483CB016F
:103B0000019697838683CB01029691878087CB01AC
:103B1000039693878287CB01049695878487CB0190
:103B2000059697878687CB010696918B808B695F78
:103B30007F4F738B628BCE010196958B848BFED564
:103B40002DB73EB72A5E3F4F0FB6F8943EBF0FBE6B
:103B50002DBF8830910541F08930910519F4898194
:103B6000803211F08FEF01C080E02196E2E00C94EA
:103B7000F029FF920F931F93CF93DF93EB018A01FC
:103B800061E080918501811160E0FFB6F89480E4E6
:103B90000E945509FFBE91E090938501813009F0A4
:103BA0004DC04DB75EB7465150400FB6F8945EBF5A
:103BB0000FBE4DBFEDB7FEB73196ADB7BEB712968B
:103BC000DC93CE931197138302838CE793E0958364
:103BD0008483809187018683178280918801808702
:103BE0001186809189018287138680918A0184875A
:103BF000158680918B018687178680918C01808B3A
:103C0000118A80918D01828B138A80918E01848B21
:103C1000158A46D59C014DB75EB74A5E5F4F0FB619
:103C2000F8945EBF0FBE4DBF181619065CF486EF00
:103C30009FEFDC01A21BB30B9D0104C01092850114
:103C400020E030E0C901CDB7DEB7E5E00C94ED2906
:103C5000A1E1B0E0EEE2FEE10C94CB295B016A0148
:103C6000E82FF92FCF0121912032E1F37E01089452
:103C7000E11CF11CB70125DF87FD75C0C7010E945B
:103C8000DC09882309F451C09FB6F8948E01075FC0
:103C90001F4FC701B8010E941C0A9FBE813009F066
:103CA00065C0C701B8010E944A0A97FF06C09095F7
:103CB00081959F4F2CE031E002C02EE031E04DB7FE
:103CC0005EB74C5050400FB6F8945EBF0FBE4DBF6C
:103CD000EDB7FEB73196ADB7BEB71296BC92AE92B5
:103CE0001197D382C28243E753E0558344833783DD
:103CF0002683292F332727FD309531872087907021
:103D00009C01220F331F43E0880F991F4A95E1F76A
:103D1000280F391F20583F4F32871386C1D49C018A
:103D20004DB75EB7445F5F4F18C000D000D000D0E1
:103D3000EDB7FEB73196ADB7BEB71296BC92AE9254
:103D40001197D382C2828FE593E095838483A8D4B0
:103D50009C014DB75EB74A5F5F4F0FB6F8945EBFE8
:103D60000FBE4DBF05C02FEF3FEF02C02EEF3FEF5C
:103D7000C9016196EBE00C94E729A8E0B0E0E3EC20
:103D8000FEE10C94D229E82FF92FCF0121912032A6
:103D9000E1F38E010F5F1F4FB80193DE87FD02C074
:103DA000C80102C080E090E00FB7F89461E00E9483
:103DB000EF09992787FD90950FBF8130910539F064
:103DC0002FEF8F3F920731F42EEF3FEF05C020E039
:103DD00030E002C02FEF3FEFC9012896E4E00C94D9
:103DE000EE29A5E0B0E0E7EFFEE10C94D229E82F40
:103DF000F92FCF0121912032E1F38E010E5F1F4F89
:103E00002223D9F0B8010E94D111882339F586E028
:103E100090E0B80144E050E00E94CF020E94EB0223
:103E2000898382E190E0BE016F5F7F4F41E050E007
:103E30000E94CF0220E030E013C080917103909186
:103E400072039B838A8380917303909174039D8393
:103E50008C83C8010E946C119C0102C02FEF3FEFC0
:103E6000C9012596E4E00C94EE29A5E0B0E0EBE36F
:103E7000FFE10C94D229E82FF92FCF0121912032B4
:103E8000E1F38E010E5F1F4F2223D9F0B8010E948B
:103E9000D111882339F58AE090E0B80144E050E080
:103EA0000E94CF020E94EB02898382E190E0BE0172
:103EB0006F5F7F4F41E050E00E94CF0220E030E092
:103EC00013C080916D0390916E039B838A838091D0
:103ED0006F03909170039D838C83C8010E946C11C5
:103EE0009C0102C02FEF3FEFC9012596E4E00C943E
:103EF000EE29A5E0B0E0EFE7FFE10C94D229E82F2E
:103F0000F92FCF0121912032E1F38E010E5F1F4F77
:103F10002223D9F0B8010E94D111882339F58EE00F
:103F200090E0B80144E050E00E94CF020E94EB0212
:103F3000898382E190E0BE016F5F7F4F41E050E0F6
:103F40000E94CF0220E030E013C08091690390917D
:103F50006A039B838A8380916B0390916C039D839A
:103F60008C83C8010E946C119C0102C02FEF3FEFAF
:103F7000C9012596E4E00C94EE290E9451030E94A9
:103F800070030C945B080E9499060E9405165FC896
:103F900008950F931F93CF93DF9380916D0588232E
:103FA00009F465C010926D0580917F0190918001A8
:103FB00001969093800180937F019FB7F894809140
:103FC0004003882329F488E08093400380E001C007
:103FD00081E09FBF882309F04AC080917F019091C2
:103FE00080016AE070E00E947B29009711F5C0E033
:103FF000D0E008E810E0C09FC001C19F900DD09FA5
:10400000900D112488559E4F9093A7018093A6018F
:1040100082E00E94530B80918F0190919001009754
:1040200021F00E9402140E9412082196C330D1058B
:1040300011F780917F019091800162E370E00E940E
:104040007B29009711F40E941E0780917F019091B7
:10405000800164EF71E00E947B29009731F4109297
:10406000800110927F010E94C61210924003DF91DE
:10407000CF911F910F9108950E94D107A89589DFD4
:10408000A8950895CF93DF938230910510F482E0D4
:1040900090E0E0917005F091710540E050E020E083
:1040A00030E026C06081718168177907E0F06817F9
:1040B000790781F4828193812115310531F0D9018D
:1040C00013969C938E9312972BC0909371058093B7
:1040D000700526C04115510519F06417750718F4CD
:1040E000AB01E901DF019F0172816381E72FF62FA8
:1040F0003097C1F64115510501F1481B590B443069
:10410000510580F412968D919C911397209719F088
:104110009B838A8304C09093710580937005FD0191
:10412000329646C0FD01E40FF51F819391934250F2
:10413000504011965C934E933BC020916E05309198
:104140006F052115310541F42091110130911201C3
:1041500030936F0520936E05209113013091140167
:104160002115310541F42DB73EB740910F01509113
:104170001001241B350BE0916E05F0916F05E217DD
:10418000F307A0F42E1B3F0B2817390778F0AC017A
:104190004E5F5F4F2417350748F04E0F5F1F509357
:1041A0006F0540936E058193919302C0E0E0F0E0CB
:1041B000CF01DF91CF910895CF93DF93009709F45A
:1041C00091C0FC0132971382128260917005709148
:1041D00071056115710581F420813181280F391F26
:1041E00080916E0590916F058217930799F5F09372
:1041F0006F05E0936E0576C0DB0180E090E002C0C1
:10420000CD01D901AE17BF0748F412962D913C910C
:10421000139721153105A1F7CD0121C0B383A283E6
:10422000EF01499159919E01240F351FA217B30741
:1042300079F42D913C911197240F351F2E5F3F4F3C
:104240003183208312962D913C91139733832283DF
:10425000009729F4F0937105E093700543C0DC01E9
:104260001396FC93EE9312974D915D91A40FB51F99
:10427000EA17FB0769F420813181240F351F2E5F77
:104280003F4FEC0139832883228133813B832A838A
:10429000E0E0F0E002C0FB01BC01DB0112968D9171
:1042A0009C9113970097B9F79B012E5F3F4F8D911B
:1042B0009C911197820F931F40916E0550916F054D
:1042C0004817590779F4309729F410927105109224
:1042D000700502C0138212822250304030936F0565
:1042E00020936E05DF91CF9108952F923F924F92C8
:1042F0005F926F927F929F92AF92BF92CF92DF9226
:10430000EF92FF920F931F93CF93DF933B01EA014C
:104310006115710519F0FB0180839183209739F0B5
:104320009E01225030402332310508F0D2C0C82E01
:10433000D92EF60111916F017F01812F90E0E2D01B
:104340000097B9F71D3231F4F60111917F019924DC
:10435000939406C01B3219F4F60111917F01992440
:10436000209719F0C031D105D1F4103389F4F70149
:104370008081883711F0883559F4F701118182E086
:1043800090E0E80EF91E92E0992AC0E1D0E007C063
:10439000209729F41033B1F0CAE0D0E02AC0CA3027
:1043A000D10539F1C031D10521F0C830D105A9F4CA
:1043B00009C02FEFA22E2FEFB22E2FEFC22E2FE02B
:1043C000D22E1FC0C8E0D0E09FEFA92E9FEFB92EDC
:1043D0009FEFC92E9FE1D92E14C09E01442737FDBF
:1043E0004095542F6FEF7FEFCB01ACD759016A0195
:1043F00008C089E9A82E89E9B82E89E9C82E89E183
:10440000D82E60E020E030E0A9011E01442437FCF2
:104410004094542C012F00530A3060F0812F8154B6
:104420008A3110F4075006C0812F81568A3148F531
:10443000012F0755802F90E08C179D0714F56F3FD3
:10444000E1F0A216B306C406D506A0F0CA01B90170
:10445000A201910131D79B01AC01802F90E0A0E037
:10446000B0E0280F391F4A1F5B1F281739074A077A
:104470005B0710F46FEF01C061E0F70111917F015C
:10448000C9CF6114710481F0662339F00894E10802
:10449000F108F301F182E08207C091FE05C0C70177
:1044A0000297F3019183808390FE07C05095409559
:1044B000309521953F4F4F4F5F4F67FF0DC082E210
:1044C00090E090937305809372052FEF3FEFA90161
:1044D00003C020E030E0A901B901CA01DF91CF910A
:1044E0001F910F91FF90EF90DF90CF90BF90AF9012
:1044F0009F907F906F905F904F903F902F90089586
:10450000F8947FC79111CDC5803219F0895085503C
:10451000D0F70895FB01DC0104C08D91059080194E
:1045200021F441505040C8F7881B990B0895FB01B6
:10453000DC0102C005900D9241505040D8F708951B
:10454000FB01DC010D900020E9F7119705900D9219
:104550000020E1F70895FB01DC0105900D92002099
:10456000E1F70895FC0105900020E9F7809590950A
:104570008E0F9F1F0895FB01DC014150504088F0D1
:104580008D9181341CF08B350CF4805E6591613423
:104590001CF06B350CF4605E861B611171F3990B96
:1045A0000895881BFCCFFB01DC014150504030F0E6
:1045B0008D910590801919F40020B9F7881B990B8B
:1045C0000895FC014150504030F001900616D1F79B
:1045D0003197CF010895882799270895FB01DC01C1
:1045E00002C001900D9241505040D8F70895DC016F
:1045F00001C06D9341505040E0F70895FC01819156
:10460000861721F08823D9F7992708953197CF018C
:104610000895FB01DC014150504030F08D91019034
:10462000801919F40020B9F7881B990B0895FC0133
:1046300081E090E00190061609F4CF010020D1F747
:1046400001970895AEE0B0E0E7E2F3E2ABC60D8972
:104650001E898F89988D26E02C831A83098397FF02
:1046600002C080E090E801979E838D839E01255EC5
:104670003F4FCE010196698D7A8DA90176D04D818B
:104680005E8157FD0AC02F813885421753070CF40D
:104690009A01020F131FF80110822E96E4E09EC6C5
:1046A000AEE0B0E0E5E5F3E27DC60D891E898F89B5
:1046B000988D2EE02C831A83098397FF02C080E037
:1046C00090E801979E838D839E01255E3F4FCE012A
:1046D0000196698D7A8DA90148D04D815E8157FD83
:1046E0000AC02F813885421753070CF49A01020F34
:1046F000131FF80110822E96E4E070C6AEE0B0E021
:10470000E3E8F3E24FC60D891E898EE08C831A839D
:1047100009838FEF9FE79E838D839E01275E3F4F26
:10472000CE0101966F89788DA9011FD0EF81F885A0
:10473000E00FF11F10822E96E4E050C6AEE0B0E02C
:10474000E3EAF3E231C68DE08C838B899C899A83FE
:1047500089839E01295E3F4FCE0101966D897E8936
:10476000A90160D32E96E2E03BC6ACE0B0E0EAEBF4
:10477000F3E20AC66C011B018A01FC011782168252
:10478000838181FFC4C12E010894411C511CF60194
:104790009381F10193FD859193FF81911F018823FE
:1047A00009F4B1C1853239F493FD859193FF81916C
:1047B0001F01853221F490E0B601D9D4E8CFEE2470
:1047C000FF2420E02032B0F48B3269F08C3228F4E0
:1047D000803251F0833271F40BC08D3239F0803366
:1047E00049F421602CC02260246029C0286027C0C1
:1047F000206125C027FD2CC0382F30533A3098F463
:1048000026FF08C08E2D880FE82EEE0CEE0CE80E69
:10481000E30E15C08F2D880FF82EFF0CFF0CF80E3D
:10482000F30E20620CC08E3221F426FD6CC1206490
:1048300006C08C3611F4206802C0883649F4F101B4
:1048400093FD859193FF81911F01882309F0BACFD1
:10485000982F9554933018F09052933028F40C5FB1
:104860001F4FFFE3F9830DC0833631F0833771F0BA
:10487000833509F05CC021C0F801808189830E5F17
:104880001F4F420171E0A72EB12C15C062E0662EC9
:10489000712C600E711EF8018080918026FF03C08C
:1048A0006E2D70E002C06FEF7FEFC4012C8712D431
:1048B0005C0183012C852F7716C052E0652E712C88
:1048C000600E711EF8018080918026FF03C06E2D5E
:1048D00070E002C06FEF7FEFC4012C87F0D35C0162
:1048E0002C852068830123FD1EC007C080E290E074
:1048F000B6012C873CD4FA942C858F2D90E0A81615
:10490000B906A0F310C0F40127FD859127FF81911E
:104910004F0190E0B6012C872AD42C85F110FA942F
:104920000894A108B108A114B10469F7E9C084365C
:1049300011F0893641F527FF08C0F80160817181C7
:10494000828193810C5F1F4F09C0F80160817181E2
:10495000882777FD8095982F0E5F1F4F4FE6B42E66
:10496000B22297FF09C090958095709561957F4F11
:104970008F4F9F4FF0E8BF2AA2012AE030E03ED4DB
:10498000782E741844C0853731F43FEEB32EB2222E
:104990002AE030E025C099EFB92EB2228F36C1F05F
:1049A000803720F4883509F0AEC00DC0803721F083
:1049B000883709F0A8C002C020E1B22AB4FE0BC0BB
:1049C00084E0B82A08C0B4FE09C0E6E0BE2A06C0EA
:1049D00028E030E005C020E130E002C020E132E014
:1049E000B7FE08C0F80160817181828193810C5FFC
:1049F0001F4F07C0F8016081718180E090E00E5F79
:104A00001F4FA201FBD3782E7418FFE7BF22B6FE1A
:104A10000BC02EEFB2227E1438F4B4FE07C0B2FCF5
:104A200005C08FEEB82202C0A72C01C0AE2C8B2D82
:104A300090E0B4FE0DC0FE01E70DF11D2081203392
:104A400019F4E9EEBE2209C0A394B2FE06C004C068
:104A500086789070009709F0A3948B2C9924B3FC6E
:104A600013C0B0FE0EC0AF1428F4E72CEF0CEA1808
:104A7000AF2C07C0E72C05C080E290E0B60177D3E9
:104A8000A394AF14C8F304C0AF1410F4FA1801C013
:104A9000FF2484FE0EC080E390E0B60168D382FE5E
:104AA0001DC081FE03C088E590E010C088E790E05B
:104AB0000DC0C40186789070009781F081FC02C01F
:104AC00080E201C08BE2B7FC8DE290E0B6014FD3EB
:104AD00005C080E390E0B6014AD3EA947E14C8F39F
:104AE0007A94F201E70DF11D808190E0B6013FD389
:104AF0007720B1F705C080E290E0B60138D3FA9490
:104B0000FF20C9F744CEF6012681378102C02FEF7E
:104B10003FEFC9012C96E2E153C420FD09C0FC011E
:104B200023FD05C022FF02C073836283518340834B
:104B30000895EF92FF920F931F9344FD10C046FD1E
:104B400010C0DB01FC01AA0FBB1FEE1FFF1F10945A
:104B5000D1F76A0F7B1F8E1F9F1F31E003C033E028
:104B600001C034E0660F771F881F991F3150D1F7BD
:104B70007B018C01E20EF11C011D111DA8019701A2
:104B8000B701CA011F910F91FF90EF900895EF9226
:104B9000FF920F931F93CF93DF938C01C801A5D28F
:104BA000EC0197FD07C0AEDC0097C1F77E01CE0196
:104BB000B80109D3CE01CDB7DEB7E6E00DC48F92C0
:104BC0009F92AF92BF92DF92EF92FF920F931F934B
:104BD000DF93CF930F92CDB7DEB74C01D62E5A019B
:104BE000122F83D28B3219F08D3241F41068DA948F
:104BF00009F465C0C40179D297FD61C0312F3D7FB2
:104C0000232F2073E1F48033D1F4DA9409F443C004
:104C1000C40139836AD2398197FD3DC0326088373B
:104C200011F0883551F43064DA94A9F1C401398364
:104C30005CD2398197FF03C02EC036FF3061EE246D
:104C4000FF248701282F2053283088F034FD09C025
:104C50002A3068F036FF05C02F7D422F4151463083
:104C600028F0B4013983AFD2398112C02750C8016E
:104C7000B701432F39835DDF7B018C0139813260BD
:104C8000DA9461F0C401398330D2398197FFDACFE9
:104C900031FD04C014C0EE24FF24870137FF08C093
:104CA00010950095F094E094E11CF11C011D111D7C
:104CB000C501B801A701232F30DF81E001C080E0EA
:104CC0000F90CF91DF911F910F91FF90EF90DF90A8
:104CD000BF90AF909F908F900895A1E2B0E0E2E77F
:104CE000F6E256C36C018A0179019E012F5F3F4FA6
:104CF00080E2F90111928A95E9F7F601838080E05C
:104D000090E0BB24992470E0A1E0B0E0F70183FCBF
:104D1000A59083FEA1907F01AA2009F47DC0FA2D01
:104D2000FE3511F4009751F1472F50E0481759070D
:104D300044F44A2D4D3551F14D3219F4992001F1C9
:104D400003C0992009F4BA2C4A2D469546954695FC
:104D5000F901E40FF11D4A2D47703D0102C0660CB8
:104D6000771C4A95E2F7908096289082AB1459F010
:104D7000AB1410F4A394E8CFAA94E6CF71E004C07A
:104D80009924939401C099240196C0CF992019F0D9
:104D90008E8180628E83772351F0CE018196FE0151
:104DA0003196208120952193E817F907D1F7BB248C
:104DB000B3944E010894811C911C01C0BB24C60110
:104DC00069A393D169A197FD1FC0282F2695269529
:104DD0002695F401E20FF11D208130E0AC0147700F
:104DE000507002C0359527954A95E2F720FD03C023
:104DF000B601E9D109C00115110519F0F801819337
:104E00008F016150D9F602C0BB2031F401151105A4
:104E100029F0F801108202C0EE24FF24C701A196F8
:104E2000EEE0D2C24F925F926F927F929F92AF92CA
:104E3000BF92CF92DF92EF92FF920F931F93DF9377
:104E4000CF930F92CDB7DEB77C016B013A01FC0125
:104E50001782168200E0DBC0812F90E053DB0097C1
:104E600019F0C70194DED3C0153241F4F601A3FC5A
:104E70003591A3FE31916F01353251F4C70135D11F
:104E800097FDD1C0181709F4C2C0B7019CD1CDC09D
:104E90003A3239F4A3FC3591A3FE31916F0111E050
:104EA00001C010E099240EC01260692D70E080E00E
:104EB00090E040E23EDE962EF601A3FC3591A3FE83
:104EC00031916F01232F20532A3070F311FF03C05B
:104ED000992019F4AAC099249A94383619F03C36CE
:104EE00089F409C0F601A3FC3591A3FE31916F014D
:104EF000383641F418601460F601A3FC3591A3FE26
:104F000031916F01332309F490C081E894E0632F5D
:104F100070E03983C9D03981009709F486C0812FA8
:104F200010FD08C0F3014080518042E050E0640E63
:104F3000751E02C0442455243E3649F4F7014681CB
:104F4000578160E070E0C201212FE7DD60C0333699
:104F500089F481FD02C099249394C701C6D097FDBE
:104F600062C04114510419F0F20181932F019A9407
:104F7000A1F74BC03B3551F4C701692DA201960141
:104F8000ACDE6C01009709F040C03AC0C70139831C
:104F9000FEDD398197FD47C03F3641F1303728F4B7
:104FA000343611F1393621F524C0333719F035374D
:104FB000F9F41AC0C70199D05C0197FD0FC0A2DABD
:104FC000009721F0C501B701FED008C0411451047B
:104FD00019F0F201A1922F019A9461F74114510442
:104FE000A1F0F201108211C0106203C0106101C073
:104FF0001064C701692DA201212FE1DD882329F466
:10500000F7018381807379F410C010FF0F5FF701FF
:10501000A380F601A3FC1591A3FE11916F0111234A
:1050200009F01ACF02C0002311F010E002C00FEF08
:105030001FEFC8010F90CF91DF911F910F91FF904B
:10504000EF90DF90CF90BF90AF909F907F906F9048
:105050005F904F900895DC01CB01FC01F999FECFE0
:1050600006C0F2BDE1BDF89A319600B40D924150F0
:105070005040B8F70895F999FECF92BD81BDF89AD6
:10508000992780B50895262FF999FECF1FBA92BDB2
:1050900081BD20BD0FB6F894FA9AF99A0FBE019619
:1050A0000895992788270895FC010590061621F098
:1050B0000020D9F7C00108953197CF010895FC0170
:1050C0000590615070400110D8F7809590958E0F33
:1050D0009F1F0895FC016150704001900110D8F7A6
:1050E000809590958E0F9F1F0895CF93DF93EC01CD
:1050F0003B8130FF36C036FF09C03F7B3B838E814A
:105100009F8101969F838E832A8129C032FF0FC021
:10511000E881F9818081992787FD9095009719F49E
:1051200030623B831EC03196F983E88311C0EA8563
:10513000FB85CE01099597FF0BC02B813FEF8F3F79
:10514000930711F480E101C080E2822B8B8309C0B8
:105150002E813F812F5F3F4F3F832E83282F30E0EA
:1051600002C02FEF3FEFC901DF91CF9108950F9358
:105170001F93CF93DF938C01EB018B8181FF1BC0C9
:1051800082FF0DC02E813F818C819D8128173907B8
:1051900064F4E881F9810193F983E88306C0E88526
:1051A000F985802F0995009731F48E819F810196B2
:1051B0009F838E8302C00FEF1FEFC801DF91CF9155
:1051C0001F910F910895FB01238120FF13C026FD3D
:1051D00011C03FEF8F3F930769F0828320642F7DDA
:1051E0002383268137812150304037832683282F1F
:1051F00030E002C02FEF3FEFC9010895FA01AA275E
:10520000283051F1203181F1E8946F936E7F6E5F09
:105210007F4F8F4F9F4FAF4FB1E03ED0B4E03CD0B7
:10522000670F781F891F9A1FA11D680F791F8A1F9A
:10523000911DA11D6A0F711D811D911DA11D20D001
:1052400009F468943F912AE0269F11243019305DBB
:105250003193DEF6CF010895462F4770405D4193AC
:10526000B3E00FD0C9F7F6CF462F4F70405D4A33F9
:1052700018F0495D31FD4052419302D0A9F7EACFC1
:10528000B4E0A6959795879577956795BA95C9F7F0
:1052900000976105710508959B01AC010A2E0694E3
:1052A0005795479537952795BA95C9F7620F731F9C
:1052B000841F951FA01D0895629FD001739FF00168
:1052C000829FE00DF11D649FE00DF11D929FF00D96
:1052D000839FF00D749FF00D659FF00D9927729FCD
:1052E000B00DE11DF91F639FB00DE11DF91FBD0158
:1052F000CF0111240895AA1BBB1B51E107C0AA1FAF
:10530000BB1FA617B70710F0A61BB70B881F991F66
:105310005A95A9F780959095BC01CD01089597FB0A
:10532000092E07260AD077FD04D0E5DF06D000203D
:105330001AF4709561957F4F0895F6F790958195D1
:105340009F4F0895A1E21A2EAA1BBB1BFD010DC0A1
:10535000AA1FBB1FEE1FFF1FA217B307E407F50725
:1053600020F0A21BB30BE40BF50B661F771F881F01
:10537000991F1A9469F760957095809590959B0197
:10538000AC01BD01CF0108952F923F924F925F92E1
:105390006F927F928F929F92AF92BF92CF92DF9245
:1053A000EF92FF920F931F93CF93DF93CDB7DEB7AA
:1053B000CA1BDB0B0FB6F894DEBF0FBECDBF09943E
:1053C0002A88398848885F846E847D848C849B8495
:1053D000AA84B984C884DF80EE80FD800C811B81A3
:1053E000AA81B981CE0FD11D0FB6F894DEBF0FBED2
:1053F000CDBFED010895EE0FFF1F0590F491E02D54
:105400000994F894FFCF4E554C4C00302E32202892
:1054100029002D0000200074050000FFFFFFFFFFA2
:10542000FF00FFFFFFFFFFFFFFFFFFFFFFFFFFFF8B
:10543000FFFFFFFFFFFFFFFFFFFFFFFFFFFFFFFF7C
:10544000FFFFFFFFFFFFFFFFFFFFFFFFFFFFFFFF6C
:10545000FFFFFFFFFFFFFFFFFFFFFFFFFFFFFFFF5C
:10546000FFFFFFFFFFFFFFFFFFFFFFFFFFFFFFFF4C
:10547000FFFFFFFFFFFFFFFFFFFFFFFFFFFFFFFF3C
:10548000FFFFFFFFFFFFFFFFFFFFFFFFFFFFFFFF2C
:10549000FFFFFFFFFFFFFFFFFFFFFFFFFFFFFFFF1C
:1054A000FFFFFFFFFFFFFFFFFFFFFFFFFFFFFFFF0C
:1054B000FFFFFFFFFFFFFFFFFFFFFFFFFFFFFFFFFC
:1054C000FFFFFFFFFFFFFFFFFFFFFFFFFFFFFFFFEC
:1054D000FFFFFFFFFFFFFFFFFFFFFFFFFFFFFFFFDC
:1054E000FFFFFFFFFFFFFFFFFFFFFFFFFFFFFFFFCC
:1054F000FFFFFFFFFFFFFFFFFFFFFFFFFFFFFFFFBC
:10550000236164632E687471028D1F8B080042143E
:10551000BD4E02037554DB6ED430107DCF570C1690
:10552000908494245B04426C7651C54520A00FB44E
:105530006F08ADDC7876E392DAC1F6DE84FAEF8CA0
:105540009DCD5E5079B2C773CEF878C63355E3EE81
:10555000DA695435C8052D4EBA16A71F5C83C6E21A
:10556000069EC3C5FB7770E5B85BDAAAE89D51D506
:105570004AF50B0CB61366DDB645DB203A068DC145
:10558000F9845DB96D5E3370DB0E27CCE1C615B5CD
:10559000B5AC2096AD8DEC1C585313AF36F9AD3D2C
:1055A00081DDF215EF216C5A15FDEEC0FA0F309A2D
:1055B0002F55EDA45680F59D987151CF0CFE4E529B
:1055C000F813C1853117B77C937B4F12930B16E804
:1055D000E2B313E4ACE14AB468D27174FF70AC0179
:1055E00091D07E89D69D81E08E870BE41C92004588
:1055F00063F41E90A6115072DCD2A871042B6EC009
:1056000076AD7430811D2037683BAD2C5ED36BF2D4
:10561000E04C18309200736D20F11449F0724C4B3D
:10562000D5B3F316D5C235749265E1EE1078C5DBBB
:105630002512B2E354ACCFCA2501FB43FE3C83D113
:105640002B1F2F4894F6925F26011BB401D45A39C0
:10565000A99638DEC55918DE3514E77148D32C9861
:10566000316420438C60E6A1D2F95A0AE7917D3873
:105670007806A3B28462549EBFC8CB9418EC093B51
:1056800050A452683E5D7FFB7A203CA267A5F016CD
:10569000D8537563BB318337C0D820C327F6A0C267
:1056A0005B0711DE7A28E04E01780969EEF447B90C
:1056B00041919CF75A80F29AEDB24476EA6FBAA70C
:1056C00042AFA5127A9D6BD56A2E28D650F8FEDF20
:1056D00078295E80E3372D063D6C6FFEB74AAF8FA9
:1056E0004AB34793608BC67DD7EB44A627EAE3CA4B
:1056F00089E917AE780BE18D90C540FD25A6740EA3
:1057000075CBAD9DB07D29A81F845C81144767715E
:1057100026B3D8370A79A60F317DC2D89E139239A5
:1057200050081C874CFCD3347466D1D13F424339B6
:105730004BE2532F75CECBB22C43A71CF567110655
:105740004775A3C5D64F91D161761C4F0E3AA7D9A4
:1057500012123A48EAF3394896BAB77DC4B0A3CDDD
:10576000F0E8562FE8C75AEDDDFD8309B4BBB0E879
:10577000C7D75F5EBFFDE3C6040000FFFFFFFFFF6A
:10578000FFFFFFFFFFFFFFFFFFFFFFFFFFFFFFFF29
:10579000FFFFFFFFFFFFFFFFFFFFFFFFFFFFFFFF19
:1057A000FFFFFFFFFFFFFFFFFFFFFFFFFFFFFFFF09
:1057B000FFFFFFFFFFFFFFFFFFFFFFFFFFFFFFFFF9
:1057C000FFFFFFFFFFFFFFFFFFFFFFFFFFFFFFFFE9
:1057D000FFFFFFFFFFFFFFFFFFFFFFFFFFFFFFFFD9
:1057E000FFFFFFFFFFFFFFFFFFFFFFFFFFFFFFFFC9
:1057F000FFFFFFFFFFFFFFFFFFFFFFFFFFFFFFFFB9
:105800002367722E6769668D01F21F8B08004214B0
:10581000BD4E020373F774B3B04CE467E067D8CCB5
:10582000CBE0EAEAFAFF150310FC3FC7F0FF24C300
:10583000FFFFFFFFCD65F8BF85E1FFBFC9FFFF1F79
:10584000FFFF57F8FF53A0E06B061850FCCFEDE7C1
:105850001A12ECEC18E06AA467C0CC0812FAC9C2AC
:10586000CAC5C0CBA003920719CBC012B7C19333EE
:105870006BEE8ED0690252E26C055D42739A197D1F
:105880001CD439D23F2C5BDDC6E1CAF8D86A85EA60
:105890009E9880E54C774A76A47C0A703C1167ADEF
:1058A000D1C869609BBCFEC016A38E4A7FEE26AFAE
:1058B000CB7FE771D87D4A606C60BA907C2AC16169
:1058C000C5F5CC99A712EB35D222C44C85051156EB
:1058D000B230B03270303003ADE4DAD011F9644F39
:1058E000D88D05E92CC8D22C0CEC40CCC0C2BDA18F
:1058F000D3EDE99ACD5796FDD483683782C943B575
:10590000076CB9A9A2BBE561937A3F585A0424CD2C
:10591000C9C0C5C004840C2C2C1B382F2A613397B6
:1059200077C314B754C62D8DDA062FA2DA5CC12ACC
:1059300018402A40DAB8816A18586437782A4AAF82
:10594000350A890DFD71965DCB49936599838FEF7B
:10595000C5A888C893D2E24582E83AD8803AC436CE
:1059600078AA46AFB0085F28BDDD91A3EB943A8BCF
:105970009A61DC4209461C4A81865B782F8D9EE144
:1059800094D13A25C0A3B573DA130D37066B00B175
:1059900079247DE5010000FFFFFFFFFFFFFFFFFF10
:1059A000FFFFFFFFFFFFFFFFFFFFFFFFFFFFFFFF07
:1059B000FFFFFFFFFFFFFFFFFFFFFFFFFFFFFFFFF7
:1059C000FFFFFFFFFFFFFFFFFFFFFFFFFFFFFFFFE7
:1059D000FFFFFFFFFFFFFFFFFFFFFFFFFFFFFFFFD7
:1059E000FFFFFFFFFFFFFFFFFFFFFFFFFFFFFFFFC7
:1059F000FFFFFFFFFFFFFFFFFFFFFFFFFFFFFFFFB7
:105A0000236964782E68743E02871F8B0800421455
:105A1000BD4E02038D544D6BDC3010BDEFAF98E8E6
:105A2000B214128B5C83D797D296DE0A09FD808070
:105A3000D1DA134B442B196936CEC2FEF8CEC8CE4C
:105A4000D6811E226149A379F3DED81AB9B674F063
:105A5000CD066A8BA6E7196A72E4B1F9421653C6FD
:105A600057F81E7A1E7F98016B3DBB04E45D788673
:105A7000847EA7329D3C668B480A6CC2A79DBAA75C
:105A800053D529A0D3883B45F84ABACB596911D1DF
:105A90008B4ABD8FFDA910D9DBE617FA2E1E102800
:105AA000C29BEA15236F8B7F6C3EC7302443476F40
:105AB000C8C590AF00FEC463BA40C1128D9031BD1D
:105AC0006082ED433C6CD9C04316BA3DC214D3B3D7
:105AD0000B03D4EE30404EDD4E0DA91ADC9302E3E9
